:1000000020140120CD6A0000EB1A0200FD6A0000F6
:10001000FD6A0000FD6A0000FD6A000000000000AB
:100020000000000000000000000000005D6800000B
:10003000FD6A000000000000156800009108020041
:100040008D6A0000798901008D6A00008D6A0000C8
:100050008D6A00008D6A00008D6A00008D6A0000C4
:100060008D6A00008D6A00008D6A00008D6A0000B4
:100070008D6A00008D6A00008D6A00008D6A0000A4
:100080008D6A00008D6A00008D6A00008D6A000094
:100090008D6A00008D6A00008D6A00008D6A000084
:1000A0008D6A00008D6A00008D6A00008D6A000074
:1000B0008D6A00008D6A00008D6A00008D6A000064
:1000C0008D6A00008D6A00008D6A00008D6A000054
:1000D0008D6A00008D6A00008D6A00008D6A000044
:1000E0008D6A00008D6A00008D6A00008D6A000034
:1000F0008D6A00008D6A00008D6A00008D6A000024
:1001000081F0004102E000BF83F0004330B54FEAC8
:1001100041044FEA430594EA050F08BF90EA020F35
:100120001FBF54EA000C55EA020C7FEA645C7FEAC8
:10013000655C00F0E2804FEA5454D4EB5555B8BFEB
:100140006D420CDD2C4480EA020281EA030382EA5C
:10015000000083EA010180EA020281EA0303362DEE
:1001600088BF30BD11F0004F4FEA01314FF4801CC1
:100170004CEA113102D0404261EB410113F0004FD3
:100180004FEA03334CEA133302D0524263EB43038A
:1001900094EA050F00F0A780A4F10104D5F1200E28
:1001A0000DDB02FA0EFC22FA05F2801841F1000183
:1001B00003FA0EF2801843FA05F359410EE0A5F157
:1001C00020050EF1200E012A03FA0EFC28BF4CF088
:1001D000020C43FA05F3C01851EBE37101F000453E
:1001E00007D54FF0000EDCF1000C7EEB00006EEB4B
:1001F0000101B1F5801F1BD3B1F5001F0CD34908D5
:100200005FEA30004FEA3C0C04F101044FEA44522B
:1002100012F5800F80F09A80BCF1004F08BF5FEAB2
:10022000500C50F1000041EB045141EA050130BD92
:100230005FEA4C0C404141EB0101013C28BFB1F5A4
:10024000801FE9D291F0000F04BF01460020B1FAEF
:1002500081F308BF2033A3F10B03B3F120020CDAC2
:100260000C3208DD02F1140CC2F10C0201FA0CF0A0
:1002700021FA02F10CE002F11402D8BFC2F1200C05
:1002800001FA02F120FA0CFCDCBF41EA0C019040BB
:10029000E41AA2BF01EB0451294330BD6FEA040404
:1002A0001F3C1CDA0C340EDC04F11404C4F12002EF
:1002B00020FA04F001FA02F340EA030021FA04F301
:1002C00045EA030130BDC4F10C04C4F1200220FA58
:1002D00002F001FA04F340EA0300294630BD21FA96
:1002E00004F0294630BD94F0000F83F4801306BF5C
:1002F00081F480110134013D4EE77FEA645C18BF50
:100300007FEA655C29D094EA050F08BF90EA020FE6
:1003100005D054EA000C04BF1946104630BD91EADE
:10032000030F1EBF0021002030BD5FEA545C05D1E1
:100330004000494128BF41F0004130BD14F5800420
:100340003CBF01F5801130BD01F0004545F0FE4194
:1003500041F470014FF0000030BD7FEA645C1ABFC9
:10036000194610467FEA655C1CBF0B46024650EA00
:10037000013406BF52EA033591EA030F41F400212C
:1003800030BD00BF90F0000F04BF0021704730B5B2
:100390004FF4806404F132044FF000054FF0000187
:1003A00050E700BF90F0000F04BF0021704730B548
:1003B0004FF4806404F1320410F0004548BF40421D
:1003C0004FF000013EE700BF42004FEAE2014FEA72
:1003D00031014FEA02701FBF12F07F4393F07F4F4D
:1003E00081F06051704732F07F4208BF704793F050
:1003F0007F4F04BF41F40021704730B54FF4607463
:1004000001F0004521F000411CE700BF50EA010265
:1004100008BF704730B54FF000050AE050EA01020E
:1004200008BF704730B511F0004502D5404261EB7E
:1004300041014FF4806404F132045FEA915C3FF4BF
:10044000D8AE4FF003025FEADC0C18BF03325FEA5C
:10045000DC0C18BF033202EBDC02C2F1200300FA0D
:1004600003FC20FA02F001FA03FE40EA0E0021FA32
:1004700002F11444BDE600BF70B54FF0FF0C4CF420
:10048000E06C1CEA11541DBF1CEA135594EA0C0FD2
:1004900095EA0C0F00F0DEF82C4481EA030621EA0D
:1004A0004C5123EA4C5350EA013518BF52EA033548
:1004B00041F4801143F4801338D0A0FB02CE4FF0FA
:1004C0000005E1FB02E506F00042E0FB03E54FF02A
:1004D0000006E1FB03569CF0000F18BF4EF0010E22
:1004E000A4F1FF04B6F5007F64F5407404D25FEA1E
:1004F0004E0E6D4146EB060642EAC62141EA5551D1
:100500004FEAC52040EA5E504FEACE2EB4F1FD0C12
:1005100088BFBCF5E06F1ED8BEF1004F08BF5FEA90
:10052000500E50F1000041EB045170BD06F0004642
:1005300046EA010140EA020081EA0301B4EB5C04EF
:10054000C2BFD4EB0C0541EA045170BD41F48011E7
:100550004FF0000E013C00F3AB8014F1360FDEBF0C
:10056000002001F0004170BDC4F10004203C35DAE8
:100570000C341BDC04F11404C4F1200500FA05F36B
:1005800020FA04F001FA05F240EA020001F000420C
:1005900021F0004110EBD37021FA04F642EB060182
:1005A0005EEA430E08BF20EAD37070BDC4F10C04AC
:1005B000C4F1200500FA04F320FA05F001FA04F270
:1005C00040EA020001F0004110EBD37041F100015C
:1005D0005EEA430E08BF20EAD37070BDC4F1200567
:1005E00000FA05F24EEA020E20FA04F301FA05F2CF
:1005F00043EA020321FA04F001F0004121FA04F277
:1006000020EA020000EBD3705EEA430E08BF20EA46
:10061000D37070BD94F0000F0FD101F00046400080
:1006200041EB010111F4801F08BF013CF7D041EA02
:10063000060195F0000F18BF704703F00046520006
:1006400043EB030313F4801F08BF013DF7D043EAD7
:100650000603704794EA0C0F0CEA135518BF95EA8D
:100660000C0F0CD050EA410618BF52EA4306D1D114
:1006700081EA030101F000414FF0000070BD50EA33
:10068000410606BF1046194652EA430619D094EABD
:100690000C0F02D150EA013613D195EA0C0F05D1A7
:1006A00052EA03361CBF104619460AD181EA0301FB
:1006B00001F0004141F0FE4141F470014FF00000B3
:1006C00070BD41F0FE4141F4780170BD70B54FF04E
:1006D000FF0C4CF4E06C1CEA11541DBF1CEA1355CE
:1006E00094EA0C0F95EA0C0F00F0A7F8A4EB0504B0
:1006F00081EA030E52EA03354FEA013100F08880A7
:100700004FEA03334FF0805545EA131343EA12636F
:100710004FEA022245EA111545EA10654FEA002624
:100720000EF000419D4208BF964244F1FD0404F5DD
:10073000407402D25B084FEA3202B61A65EB030539
:100740005B084FEA32024FF480104FF4002CB6EBF6
:10075000020E75EB030E22BFB61A754640EA0C0076
:100760005B084FEA3202B6EB020E75EB030E22BFB6
:10077000B61A754640EA5C005B084FEA3202B6EBF7
:10078000020E75EB030E22BFB61A754640EA9C00B6
:100790005B084FEA3202B6EB020E75EB030E22BF86
:1007A000B61A754640EADC0055EA060E18D04FEA44
:1007B000051545EA16754FEA06164FEAC30343EAE4
:1007C00052734FEAC2025FEA1C1CC0D111F4801FB1
:1007D0000BD141EA00014FF000004FF0004CB6E7AA
:1007E00011F4801F04BF01430020B4F1FD0C88BF49
:1007F000BCF5E06F3FF6AFAEB5EB030C04BFB6EB54
:10080000020C5FEA500C50F1000041EB045170BD46
:100810000EF0004E4EEA113114EB5C04C2BFD4EB73
:100820000C0541EA045170BD41F480114FF0000EF7
:10083000013C90E645EA060E8DE60CEA135594EA73
:100840000C0F08BF95EA0C0F3FF43BAF94EA0C0F76
:100850000AD150EA01347FF434AF95EA0C0F7FF4EB
:1008600025AF104619462CE795EA0C0F06D152EA3F
:1008700003353FF4FDAE1046194622E750EA410623
:1008800018BF52EA43067FF4C5AE50EA41047FF434
:100890000DAF52EA43057FF4EBAE12E74FF0FF3C99
:1008A00006E000BF4FF0010C02E000BF4FF0010C6A
:1008B0004DF804CD4FEA410C7FEA6C5C4FEA430CE3
:1008C00018BF7FEA6C5C1BD001B050EA410C0CBF32
:1008D00052EA430C91EA030F02BF90EA020F002094
:1008E000704710F1000F91EA030F58BF994208BFFB
:1008F00090422CBFD8176FEAE37040F001007047B8
:100900004FEA410C7FEA6C5C02D150EA013C07D10E
:100910004FEA430C7FEA6C5CD6D152EA033CD3D059
:100920005DF8040B704700BF8446104662468C4653
:100930001946634600E000BF01B5FFF7B7FF002886
:1009400048BF10F1000F01BD4DF808EDFFF7F4FFAF
:100950000CBF012000205DF808FB00BF4DF808ED3A
:10096000FFF7EAFF34BF012000205DF808FB00BF5D
:100970004DF808EDFFF7E0FF94BF012000205DF87F
:1009800008FB00BF4DF808EDFFF7CEFF94BF012034
:1009900000205DF808FB00BF4DF808EDFFF7C4FF2D
:1009A00034BF012000205DF808FB00BF4FEA410280
:1009B00012F5001215D211D56FF47873B3EB6252B1
:1009C00012D94FEAC12343F0004343EA505311F0D8
:1009D000004F23FA02F018BF404270474FF000006A
:1009E000704750EA013005D111F0004008BF6FF0A8
:1009F000004070474FF00000704700BF4A0011D21E
:100A000012F5001211D20DD56FF47873B3EB625268
:100A10000ED44FEAC12343F0004343EA505323FA74
:100A200002F070474FF00000704750EA013002D1E9
:100A30004FF0FF3070474FF0000070474FEA41021F
:100A4000B2F1E04324BFB3F5001CDCF1FE5C0DD92C
:100A500001F0004C4FEAC0024CEA5070B2F1004F76
:100A600040EB830008BF20F00100704711F0804F79
:100A700021D113F13872BCBF01F00040704741F43E
:100A800080114FEA5252C2F11802C2F1200C10FA42
:100A90000CF320FA02F018BF40F001004FEAC12326
:100AA0004FEAD32303FA0CFC40EA0C0023FA02F3CA
:100AB0004FEA4303CCE77FEA625307D150EA0133A0
:100AC0001EBF4FF0FE4040F44000704701F0004070
:100AD00040F0FE4040F40000704700BF80F000404E
:100AE00002E000BF81F0004142001FBF5FEA410306
:100AF00092EA030F7FEA226C7FEA236C6AD04FEA06
:100B00001262D2EB1363C1BFD2184140484041404A
:100B1000B8BF5B42192B88BF704710F0004F40F4FC
:100B2000000020F07F4018BF404211F0004F41F418
:100B3000000121F07F4118BF494292EA030F3FD0E4
:100B4000A2F1010241FA03FC10EB0C00C3F12003F7
:100B500001FA03F100F0004302D5494260EB400086
:100B6000B0F5000F13D3B0F1807F06D340084FEAF1
:100B7000310102F10102FE2A51D2B1F1004F40EBE6
:100B8000C25008BF20F0010040EA0300704749004E
:100B900040EB0000013A28BFB0F5000FEDD2B0FAEB
:100BA00080FCACF1080CB2EB0C0200FA0CF0AABF0E
:100BB00000EBC25052421843BCBFD04018437047AC
:100BC00092F0000F81F4000106BF80F400000132B2
:100BD000013BB5E74FEA41037FEA226C18BF7FEA89
:100BE000236C21D092EA030F04D092F0000F08BFCB
:100BF0000846704790EA010F1CBF0020704712F0B2
:100C00007F4F04D1400028BF40F00040704712F1F0
:100C100000723CBF00F50000704700F0004343F055
:100C2000FE4040F4000070477FEA226216BF08468B
:100C30007FEA23630146420206BF5FEA412390EA4E
:100C4000010F40F4800070474FF0000304E000BF44
:100C500010F0004348BF40425FEA000C08BF7047F5
:100C600043F0964301464FF000001CE050EA0102B9
:100C700008BF70474FF000030AE000BF50EA0102CE
:100C800008BF704711F0004302D5404261EB4101BB
:100C90005FEA010C02BF84460146002043F0B643E0
:100CA00008BFA3F18053A3F50003BCFA8CF2083A05
:100CB000A3EBC25310DB01FA02FC634400FA02FC0E
:100CC000C2F12002BCF1004F20FA02F243EB020015
:100CD00008BF20F00100704702F1200201FA02FC77
:100CE000C2F1200250EA4C0021FA02F243EB02006A
:100CF00008BF20EADC7070474FF0FF0C1CEAD052AE
:100D00001EBF1CEAD15392EA0C0F93EA0C0F6FD06E
:100D10001A4480EA010C400218BF5FEA41211ED04C
:100D20004FF0006343EA501043EA5111A0FB013138
:100D30000CF00040B1F5000F3EBF490041EAD3710D
:100D40005B0040EA010062F17F02FD2A1DD8B3F189
:100D5000004F40EBC25008BF20F00100704790F0F8
:100D6000000F0CF0004C08BF49024CEA502040EA4A
:100D700051207F3AC2BFD2F1FF0340EAC250704710
:100D800040F400004FF00003013A5DDC12F1190F4E
:100D9000DCBF00F000407047C2F10002410021FAC0
:100DA00002F1C2F1200200FA02FC5FEA310040F1D8
:100DB000000053EA4C0308BF20EADC70704792F051
:100DC000000F00F0004C02BF400010F4000F013A89
:100DD000F9D040EA0C0093F0000F01F0004C02BF84
:100DE000490011F4000F013BF9D041EA0C018FE7F3
:100DF0000CEAD15392EA0C0F18BF93EA0C0F0AD0F9
:100E000030F0004C18BF31F0004CD8D180EA01001E
:100E100000F00040704790F0000F17BF90F0004FB7
:100E2000084691F0000F91F0004F14D092EA0C0F99
:100E300001D142020FD193EA0C0F03D14B0218BF2C
:100E4000084608D180EA010000F0004040F0FE4072
:100E500040F40000704740F0FE4040F4400070470E
:100E60004FF0FF0C1CEAD0521EBF1CEAD15392EA8D
:100E70000C0F93EA0C0F69D0A2EB030280EA010C7D
:100E800049024FEA402037D04FF0805343EA111116
:100E900043EA10130CF000408B4238BF5B0042F174
:100EA0007D024FF4000C8B4224BF5B1A40EA0C0019
:100EB000B3EB510F24BFA3EB510340EA5C00B3EB4B
:100EC000910F24BFA3EB910340EA9C00B3EBD10F39
:100ED00024BFA3EBD10340EADC001B0118BF5FEA8B
:100EE0001C1CE0D1FD2A3FF650AF8B4240EBC250B4
:100EF00008BF20F0010070470CF0004C4CEA502075
:100F00007F32C2BFD2F1FF0340EAC250704740F4C3
:100F100000004FF00003013A37E792F0000F00F0B5
:100F2000004C02BF400010F4000F013AF9D040EA33
:100F30000C0093F0000F01F0004C02BF490011F4C7
:100F4000000F013BF9D041EA0C0195E70CEAD153BF
:100F500092EA0C0F08D142027FF47DAF93EA0C0FA6
:100F60007FF470AF084676E793EA0C0F04D14B028A
:100F70003FF44CAF08466EE730F0004C18BF31F03C
:100F8000004CCAD130F000427FF45CAF31F0004336
:100F90007FF43CAF5FE700BF4FF0FF3C06E000BFCF
:100FA0004FF0010C02E000BF4FF0010C4DF804CDF2
:100FB0004FEA40024FEA41037FEA226C18BF7FEA02
:100FC000236C11D001B052EA530C18BF90EA010F04
:100FD00058BFB2EB030088BFC81738BF6FEAE17093
:100FE00018BF40F0010070477FEA226C02D15FEA2F
:100FF000402C05D17FEA236CE4D15FEA412CE1D09B
:101000005DF8040B704700BF844608466146FFE761
:101010000FB5FFF7C9FF002848BF10F1000F0FBD43
:101020004DF808EDFFF7F4FF0CBF012000205DF83C
:1010300008FB00BF4DF808EDFFF7EAFF34BF0120C1
:1010400000205DF808FB00BF4DF808EDFFF7E0FF5A
:1010500094BF012000205DF808FB00BF4DF808EDAB
:10106000FFF7D2FF94BF012000205DF808FB00BF0E
:101070004DF808EDFFF7C8FF34BF012000205DF8F0
:1010800008FB00BF4FEA4002B2F1FE4F0FD34FF012
:101090009E03B3EB12620DD94FEA002343F00043E5
:1010A00010F0004F23FA02F018BF404270474FF093
:1010B0000000704712F1610F01D1420205D110F01A
:1010C000004008BF6FF0004070474FF000007047CD
:1010D00053B94AB9002908BF00281CBF4FF0FF319F
:1010E0004FF0FF3000F08EB9ADF1080C6DE904CE81
:1010F00000F026F8DDF804E0DDE9022304B07047D3
:10110000D0B5FFF761F90C4B002206460F46FFF7FA
:10111000B3F9FFF773FC0446FFF734F9074B0022DD
:10112000FFF7AAF902460B4630463946FEF7ECFFB8
:10113000FFF764FC2146D0BD0000F03D0000F04107
:101140002DE9F047089D0E4604468C46002B40F0E2
:1011500081808A42174645D9B2FA82F24AB1C2F179
:10116000200106FA02F320FA01F1974041EA030C4C
:1011700094404FEA174E230CBCFBFEF6B9B20EFBAF
:1011800016CC43EA0C4306FB01F0984209D9FB1840
:1011900006F1FF3C80F01581984240F21281023E38
:1011A0003B441B1AA4B2B3FBFEF00EFB103344EA1F
:1011B000034400FB01F1A14209D93C1900F1FF33BE
:1011C00080F00181A14240F2FE8002383C44641A62
:1011D00040EA064000211DB1D4400023C5E9004388
:1011E000BDE8F08702B9FFDEB2FA82F2002A4FD1E1
:1011F000CB1B4FEA174E1FFA87F80121B3FBFEFC09
:10120000260C0EFB1C3346EA034608FB0CF3B342E4
:1012100007D9BE190CF1FF3002D2B34200F2EB80C5
:101220008446F61AA3B2B6FBFEF00EFB106643EA44
:10123000064408FB00F8A04507D93C1900F1FF332C
:1012400002D2A04500F2D2801846A4EB080440EA7E
:101250000C40C0E78B4208D9002D00F0AF80002180
:10126000C5E900060846BDE8F087B3FA83F1002916
:1012700049D1B34202D3824200F2BB80841A66EBAA
:10128000030301209C46002DAAD0C5E9004CA7E726
:10129000C2F120039740D8409140DE404FEA174EFC
:1012A00008434FEA104CB6FBFEF11FFA87F80EFB1D
:1012B00011664CEA064601FB08F3B34204FA02F455
:1012C00009D9BE1901F1FF3C80F08E80B34240F293
:1012D0008B8002393E44F31A86B2B3FBFEF00EFB5C
:1012E000103346EA034600FB08F3B34207D9BE19A0
:1012F00000F1FF3C74D2B34272D902383E44F31A73
:1013000040EA01417AE7C1F1200703FA01F422FA29
:1013100007F31C4320FA07F906FA01F34FEA144CCD
:10132000FE4049EA03094FEA1943B6FBFCFE1FFAE7
:1013300084F80CFB1E6643EA06460EFB08FAB2452B
:1013400002FA01F200FA01F308D9A6190EF1FF30F2
:1013500048D2B24546D9AEF1020E2644A6EB0A06A3
:101360001FFA89F9B6FBFCF00CFB106649EA064649
:1013700000FB08F8B04507D9A61900F1FF3C2DD2B3
:10138000B0452BD90238264440EA0E40A6EB0806A9
:10139000A0FB02894E45C446CE4618D315D075B37E
:1013A000B3EB0C0266EB0E0606FA07F722FA01F31E
:1013B000CE401F43C5E90076002111E729462846A3
:1013C0000EE76646EDE6184601E74345E7D2B8EB7F
:1013D000020C69EB04040138A646E0E76046D3E757
:1013E00060468CE78646B9E7614674E702383C44BC
:1013F0002BE7084647E7ACF1020C3E4411E72946CB
:10140000EEE600BF704700BF10F8012B11F8013B5A
:10141000012A28BF9A42F7D0D01A7047034613F822
:10142000012B002AFBD1181A013870470000000078
:1014300070B5464DD5F82431996811F0010188B096
:1014400021D103AA40F6034006F02AFF04460028F3
:1014500078D1039B9B681B7893B9BFF35B8F2B46B6
:1014600053F8982FBFF35B8F02F00502BFF35B8F39
:1014700053E8001F43E800200028F9D1BFF35B8F39
:1014800003981AF04DF803AA002141F2030006F078
:1014900007FF0446002855D1039A2D4E936853F850
:1014A000010F596803C610461AF03AF8214603AAFC
:1014B00041F2010006F0F4FE0446002842D10398F0
:1014C00083685A7885F83420D9789A7842EA0122DC
:1014D000EA861A7985F83520197ADA7942EA012202
:1014E0002A875A799B7942EA03236B871AF018F806
:1014F000214603AA41F2020006F0D2FE044608BBD0
:10150000039B9A68531C413218685968344603C4D7
:10151000083393422646F7D10E4820F086FB039805
:1015200019F0FEFF95F840305A061BD40A4B0B49C0
:101530000B48C91AC908890141F001011EF091FD4B
:101540006FF01204204608B070BD00BF00000020FC
:101550003C00002044000020984E0200704F020022
:101560006377020003AA002142F2030006F098FE0E
:1015700004460028E6D1039ABF4E936853F8010F42
:10158000596803C6104619F0CBFF214603AA42F260
:10159000020006F085FE04460028D3D1039B9B6819
:1015A000B3F80120A5F8CC2091B229B1DA78114620
:1015B00006F1280023F022F8039819F0B1FF95F8FE
:1015C000406016F0200600F0EB8095F860301B07B5
:1015D00011D503AA002142F21C0006F061FE044668
:1015E0000028AFD10398836853F8012F5B68C5E9E1
:1015F0002A2319F095FF95F8A0309E0624D502A95C
:101600000DF1060006F0C4FE044600289AD104211C
:1016100042F2240006F0E0FC0646002800F0C780F5
:101620000421083022F09CFABDF806300380BDF892
:10163000083043802246314642F2240006F030FE54
:10164000044600287FF47EAF95F8A0305C0610D5E4
:1016500003AA002142F22A0006F022FE04460028D6
:101660007FF470AF039883685B7885F8E83019F0F1
:1016700057FF082142F2010006F0AEFC04460028A4
:1016800000F095800821084422F06AFA95F8A0102D
:1016900011F0400F024640F2022308BF03238807DF
:1016A0004CBF43F02C0043F00C008B0695F8A130A2
:1016B00048BF40F0400013F0090F95F8663018BF9E
:1016C00040F4006003F00603CE0748BF40F010006E
:1016D000062B08BF40F4C070002120F055FB2146C6
:1016E000002242F2010006F0DBFD044600287FF4F0
:1016F00029AF95F8403098061ED4B5F8CC10D9B96A
:1017000003AA41F2050006F0CBFD044600287FF451
:1017100019AFB5F8CC3063B9039B9B685A789978B8
:1017200042EA0122A5F8CC209A885448114622F0BA
:1017300065FF039819F0F4FE082140F6014006F019
:101740004BFC044698B30821084422F009FA95F8A6
:10175000A030D90702463FD545A1D1E9000120F0CC
:1017600013FB2146002240F6014006F099FD044695
:1017700000287FF4E7AE014602AA4FF6014006F0CA
:101780008FFD3F4C3F4BE41AE408A40140B33E48B0
:1017900044F002011EF065FC07F0D4FD0446D1E6DA
:1017A000022140F66D4006F017FC044610B96FF0B8
:1017B0006804C7E60221083022F0D2F90123037041
:1017C00046702146324640F66D4006F069FD0446FB
:1017D00000283FF4FAAEB5E62C484FF00051BEE7C2
:1017E000029B2B489D68B5F80120032A96BF294922
:1017F000294951F8221044F003031EF053FCB5F8B8
:101800000110B5F80320022944F003032ED1032A66
:101810002CD8224951F8221021481EF043FC6A7945
:101820002048032A96BF20491B4951F82210CDE9D0
:101830000312AA790592B5F807200692D5F8092077
:10184000079244F00303052203A91EF060FC0298EE
:1018500019F066FE02AA00214FF6024006F020FDB4
:10186000054628B3114844F0020193E70A49D3E73B
:101870009088000200800020A0000020D0000020FE
:10188000704F0200984E0200877702001088000215
:10189000AB770200985502005974020058550200B7
:1018A000C4770200DC770200D055020009780200FC
:1018B0000298104E8368B3F80130A6F8853019F00D
:1018C0002FFE96F885305B077FF566AF02AA2946A2
:1018D0004FF6034006F0E4FC18B1074844F002015B
:1018E00058E7029883685B7886F8843019F018FE10
:1018F00052E700BF00000020327802000000000024
:101900002DE9F041D0E90BC7D0F828800CEB070493
:101910003034A0450E46154618D81B4F18A3D3E9FE
:101920000023ACFB0701FFF7D3FBA4EB080420F076
:101930007F40306012A3D3E90023A4FB0701FFF727
:10194000C7FB20F07F402860BDE8F0810E4C0CA35F
:10195000D3E90023A8FB0401FFF7BAFB20F07F4383
:1019600007F130003360A0FB040105A3D3E9002395
:10197000FFF7AEFB20F07F402860BDE8F08100BF9C
:101980008D49FD1A0700000000CA9A3B00000000C4
:101990002DE9F04FA84C94F84A608FB006F001068C
:1019A000002800F05381B6BB94F8352094F8293014
:1019B00094F8250004EB820204EB830300F003009B
:1019C000FF21D2F83880D3F82C9084F8261016F036
:1019D00087FA94F84A00420700F11381B9F1000F29
:1019E00011D09548494611F025F999F800305B0669
:1019F00005D506210CF04CFB002800F040828E48F3
:101A0000414611F017F999F8003013F00E0F40F02D
:101A1000CE80236A23B10C2630460FB0BDE8F08F8C
:101A200010F0ECF98246002800F0468210F0F2F93E
:101A30008346002800F0598211F062FE0546002816
:101A400000F050824FF6FF73406F2B8505F11C03A9
:101A50000B93002800F02C8205F1680205F1640167
:101A60000CF022FBB5F86020744895F83910744BDF
:101A700095F83A7195F83CC0C5F844A1024095F834
:101A80007A0001F03F0161F07F0120F01F0085F82E
:101A9000391085F87A004FF01B116A4842F48872B9
:101AA000C5E9161342F0010227F003070021C5E93A
:101AB0004A012CF0070CA5F8602085F83A7106223F
:101AC000002700200021C5E94C0185F83CC0A5F89D
:101AD000C020C5E91277EF852F6385F83B702F652D
:101AE000A5F8C470A5F8C870C5F80871A5F80C7100
:101AF000A5F82071A5F8387185F843716F67A5F8CE
:101B00007870A5F8647195F8661195F886C195F816
:101B1000AE01B5F8D820A5F8847167F3041C21F054
:101B2000070102F0F80267F3C30085F886C185F863
:101B30006611A5F8D820C5F8E070A5F8E47085F81E
:101B4000E670A5F8AC71A5F8B87185F8AE0112F091
:101B500011F9A5F8D20012F013F9D5F8BC113A4AE0
:101B6000A5F8D4000A40C5F8BC2112F00FF995F889
:101B7000C02160F3020285F8C02112F00DF995F83A
:101B8000C0210B9B236260F3C502C4E910ABC5E919
:101B90007377C5E97177C5E90577C5F8D47185F81C
:101BA000C021ED6117F0F0FA002840F06A8194F846
:101BB00024300121C3F342030DA88DF834300CF01A
:101BC000EBFB90B399F8003003F00F03022B00F108
:101BD000FF3200F0A780012B00F0578198F8010038
:101BE0001030C000002B40F0428199F801301033D2
:101BF000DB0003F54D71084403F59A7303FB020003
:101C00009BE0C0F3C000324604F14B0116F0D8FA55
:101C1000FF2884F826003FF4E1AE304616F07AF94A
:101C2000B9F1000F7FF4DDAEEDE6236A002B3FF43F
:101C3000F2AE10F09FFDEEE68823002080F8FFFF53
:101C4000480148017F4101000000FFF6002E3FF4EB
:101C5000E2AE236A5BB193F8202042F0020283F8DF
:101C60002020236A93F82030D8073FF5D4AEA84847
:101C700010F07AF984420CD0A64AA749A74840F24E
:101C8000DF731DF0DDFD404080F311884FF003004D
:101C900002DF94F82430D9070DAD0ED502220D9243
:101CA00003219F4B0095012200200DF085FD294660
:101CB00010F032F9002840F01D8102220321984BD8
:101CC000009500200D920DF077FD294610F024F9C3
:101CD000002840F0F380934810F082F9002840F08B
:101CE000D9808B4810F04CF984420CD0894A8A493B
:101CF0008A4840F601031DF0A3FD404080F311889F
:101D00004FF0030002DF236A0BB110F033FD94F8AB
:101D10004A3000266FF30003304684F84A300FB093
:101D2000BDE8F08F99F801301033DB0000FB03F0C1
:101D300000F5AA70642303FB02007B4AE4613123AF
:101D40000025A0FB02012360C4E905556EA3D3E979
:101D50000023C4E90155FFF7BBF9B4F84880E060FF
:101D60000DF070FD0746B8F1000F08D199F800504A
:101D700005F00F05A5F10105B5FA85F56D0994F893
:101D80002420E36865F3000212F0010584F82420A2
:101D90003DD0DFF88C9165490493002002250DF1B8
:101DA000300801930591CDE907980321CDE90200A0
:101DB00006942A4600903B460C950DF075FC414672
:101DC00010F0AAF800287FF430AF594905914AF283
:101DD000D8320092CDE90798CDE90300CDE90100A2
:101DE00006943B46012203210C950DF05DFC414613
:101DF00010F092F800287FF418AF94F84A3030467B
:101E000043F0010384F84A300FB0BDE8F08F494831
:101E1000494ADFF80CE1DFF814C10694A8FB000181
:101E20004FF0910909FB081103F24718C2F800802E
:101E30004FF00209049309920DF1300832A3D3E95F
:101E400000234FF6FF7ACDE907E80295CDF83090F0
:101E5000CDF814C0CDF80CA0FFF73AF94A46CDE909
:101E600000503B46284603210DF0C8FBBFE7062B78
:101E70003FF4BBAE4FF4DA734FF41B70BEE612268C
:101E8000CAE510F077FC0326C6E54FF4F2734FF471
:101E90007F70B3E61F4A2949204840F2FE731DF0C7
:101EA000CFFC404080F311884FF0030002DF18E7B9
:101EB00005F16C006867CFE50726ADE5144810F022
:101EC0005FF884423FF4A7AD4FF4FF63114A124913
:101ED00012481DF0B5FC404080F311884FF003001C
:101EE00002DF98E558460FF09BFF50460FF08CFF3D
:101EF000072691E5064810F043F884423FF48BAD85
:101F000040F2EA73E2E700BF8D49FD1A07000000C6
:101F100088230020F85C0200E85D0200C45802003B
:101F2000410E0100A423002000CA9A3BE5230100D2
:101F30008D260100002AE784DC230020585C020083
:101F40002DE9F04FC84D2B688BB004460F469146E3
:101F5000002B00F01482668EE28D94F80E31164448
:101F60003E4413F00703B6B240F0A781B4F8E8800E
:101F7000A6EB08021FFA82FA120400F15E8294F9BD
:101F80003920002AC0F23D8194F8E43084F8E5302D
:101F900094F8842194F8853194F80C1184F80D118B
:101FA000934206D094F8863103F00703052B00F026
:101FB0004F822B68A34204BF00232B60D4F8085142
:101FC000002D00F06B812868002800F06781B4F8CC
:101FD0001031B4F82AC04268C4F808216345B4F847
:101FE0001221B4F8141100F02081B4F828C0A5F82B
:101FF00006C04FF0160E4FF0000CEB832A84698464
:1020000085F804E085F81CC029460FF00FFF0FF09B
:1020100017FF2368002BC0F2FC80608DB4F81051CC
:1020200010FB0AF080B2B0FBF5F315FB03F292B29D
:1020300090421FFA83FBC0F0D38005FB130340F2EC
:10204000E2428A489BB202FB03F3A3FB000184A394
:10205000D3E90023FFF73CF8A9EB0009E18D94F9DF
:102060003930A8EB06065E440F44374440F2E2489C
:10207000002BE78508FB05F5C0F283817C4A7D498A
:102080007D484FF426631DF0DBFB404080F3118850
:102090004FF0030002DF0027AA46B4F81421B4F879
:1020A0001201764B7649A08542F2107C0CFB02525D
:1020B0002B442944B3FBF5F300F1060C013AB2FBC3
:1020C000F5F2B1FBF5F599B2A4F8C2206145B4F878
:1020D0001021A4F8CE10A4F8C650628502DD091ABA
:1020E000063989B294F80E31A4F8CA101B0744BF10
:1020F0000023A4F8C4300221012018F093FF00222D
:102100000221054601200CF01DF85E494FF4F072E3
:1021100020460BF0A9FF00F103085FFA88F85A4B3C
:1021200000944246012100200DF046FB30F00203EE
:102130000CD04F4A5549504840F68F231DF080FB84
:10214000404080F311884FF0030002DF474BAAFBA9
:1021500003AB504642A3D3E900235946FEF7B8FF2C
:102160004B4AE368049320F07F46A6FB0223072036
:1021700000FB0633BAEB02006BEB0301DFF814E15E
:10218000DFF814C1089406944FF47A7200234FF6D6
:10219000FE74CDF81CE0CDF814C00394FEF798FF50
:1021A0004B46CDE9016000974246012100200DF029
:1021B0007BFA30F002030CD02D4A34492E4840F609
:1021C000A9231DF03DFB404080F311884FF0030030
:1021D00002DF002D40F0368100200BB0BDE8F08F0B
:1021E000121A40F2E243214803FB02F2A2FB000173
:1021F0001BA3D3E90023FEF76BFF20F07F4081444F
:102200002CE794F8D920002A3FF4BEAE84F8D930E8
:10221000BEE6D4E9010223F0004382422CBF914480
:1022200081442360A9EB0309F7E6B4F82CC0944578
:102230007FF4DBAE40F2E24C0CFB03FB42F2107C7D
:10224000B4F8C2E00CFB01BC0CF1FF3CBCFBFBFC96
:102250001FFA8CFCE6457FF4C8AE01232B71D3E650
:102260008D49FD1A07000000FC23002000CA9A3B9C
:10227000045E020034590200C45802007FC3C90141
:10228000FF596202F013002009300100E45E0200F1
:102290008D49FD1AB12F010011780100804A814952
:1022A000814840F6E4131DF0CBFA404080F31188DA
:1022B0004FF0030002DF286889E601200FF0C6FD19
:1022C0000746002800F0CA8078480BF099FE0546C2
:1022D000002800F0C3800FF0D7FD3A682B79D4F8BE
:1022E0000811516043F003030C22C4F808716A71AD
:1022F0002B71A38DD4F818216D4F94F80E11002086
:102300001E44E871A7FB0232C2F38F2294F81C31FD
:102310002B72D4F8C431A5F80920B4F81021A5F81F
:102320000B200636B4F81221A5F80D20B6B2B4F889
:102330001421A5F80F2060F30201A4F8E86084F8E6
:102340000E11A5F81160002B69D094F86621900752
:1023500065D494F8BF21D10761D4D4F8D021934239
:10236000D4F8C82100F08580002A5BD11A7902F0E8
:102370000302032A00F08980C4F8C83154E02860C1
:10238000E9E5A26C236C4B4F03FB1A23A36416F000
:102390004DFF064694F8D800C0F3C20016F048FF7F
:1023A000064405FB06F6444BA26C94F81C1106F596
:1023B000742606F23F26A3FB0636B60C06FB0BF08E
:1023C0006B080244963B9A4228BF1A4608FB01FC60
:1023D0004FF0000EC4E91132A0FB07012EA3D3E990
:1023E0000023C4F850C0C4F8E0E02664FEF770FE95
:1023F0002F4B8446D4F81801A3FB0030800A08FB59
:1024000000F0A0FB070124A3D3E90023A9EB0C09EA
:10241000FEF75EFEA5EB060A20F07F473DE6D4F806
:10242000C82102B3D4F8CC311A682A601D602B6829
:10243000C4F8CC510BB9C4F8D4516FF076000BB08E
:10244000BDE8F08F0122104602210BF07BFEC3E6AF
:10245000002384F88521A4F8C830AAE56FF068004D
:102460000BB0BDE8F08F2B60C4E97155C4F8CC51B6
:10247000E0E71968C4F8D011002AD3D11A682A609D
:102480001D602B68C4E97255D4E7DA79032AF5D0C8
:102490000A2A7FF471AFF1E78D49FD1A07000000A9
:1024A000045E0200D05E0200C458020080240020B6
:1024B0005917B7D100CA9A3B83DE1B4300000000C6
:1024C0002DE9F04F0F46164681460A7F57F81E0F3A
:1024D00096F812A0BC88D3F8008095B00D463168FC
:1024E000ADF84C40C2F38012BAF1FF0FD1F800B042
:1024F00012901C468DF83F2048D112AB93E80300A0
:102500001090ADF844102A462B4632F82E1F9278D0
:10251000A2722181D5F82A20626053F83A2FA26175
:1025200004F118001B79037105210BF035FF95F8B4
:102530003F20637F00F03F0060F30503C2F3040116
:102540006377A177AF8EE7810128BFB202F01F0346
:1025500005D91B3303F01F030B2B00D817BB94F8CE
:10256000203001276FF3000384F820302F71746846
:10257000484629460FF05AFC2068277121460FF083
:1025800055FC0FF05DFC15B0BDE8F08F10AA0DF101
:102590003F01504615F0D6FB9DF83F3002338DF8D1
:1025A0003F30B0E7336898F8D8100020586095F8AD
:1025B000363095F83700520943EA002362F3C5012B
:1025C000238240F2E2426B8E88F8D81002FB07F7B4
:1025D0000B9316F02BFE034698F8D8000A93C0F32D
:1025E000C20016F025FE0A9BDFF8D8E295F831C04C
:1025F000AB49034407FB03F303F5742303F23F23C2
:10260000AEFB03234FEA570E40F2E24202FB0CF20C
:102610009B0CAEF1960EA263C4F828E063622B8F88
:10262000208ADFF8A4C242F2107202FB037239441E
:1026300000F1060E013AB1FBF7F1B2FBF7F2A8F890
:10264000C2208AB27245BC44A8F8CE20BCFBF7FC7D
:10265000A8F8C6C002DD121A063A92B2A8F8CA203B
:102660006268C8F8DC202A7F0C934FF48071A9833C
:10267000C2F340139BF826008DF834300A9316F00D
:1026800093F80C9B05F12B02002800F0E08029460E
:1026900051F8240FC5F82B0089889180BAF1FF0FFB
:1026A00000F0D980BDF84C201298A5F82920C5F873
:1026B00025009DF83F101098BDF84420A977C5F873
:1026C0001F00A5F8232098F8D820E089218AA98640
:1026D000C2F3C202EB86688685F83820404611F0C6
:1026E0001BF82946A081E880756848460FF09EFBDC
:1026F000A389EB8019232B710A9BD5F80090002B3E
:1027000040F0B7809DF834302B77294648460FF0CB
:102710008DFB0FF095FB94F84500012100F00700B8
:1027200016F0E0FB5F4A00258146312300F252405B
:10273000A0FB0201C8F80030C8E9015556A3D3E94F
:102740000023FEF7C5FCF3680B99646A40F2E2428D
:1027500002FB013320F07F4003F286332A46022138
:10276000C8F80C000120A3EB09090BF0EBFC58465C
:1027700010F09AF9821C4C4BCDF800B0D2B228462A
:1027800001210DF019F80128A7EB04047CD09BF877
:102790002430DB0765D4404610F0BEFFDFF804B1FB
:1027A000A4FB0B453CA3D3E900230746294620465A
:1027B000FEF78EFC3D4ACDF8188020F07F4AAAFB38
:1027C0000223072101FB0A3340F2A111B6680891E8
:1027D0003749079137490591A01A65EB0301D8F8ED
:1027E0000C30049300244FF47A7200230394FEF714
:1027F0006FFC29A3D3E900230546A9FB0B01CDE912
:1028000001A5FEF765FC033720F07F40FFB2313EA3
:10281000334600903A46204601210CF045FF30F047
:1028200002030CD0244A254925484FF4D1731DF0EA
:1028300007F8404080F311884FF0030002DF0122C7
:10284000104602210BF07EFC15B0BDE8F08FC5F8F4
:102850002B00908022E70021C5F82510A5F829104B
:1028600027E7002301220093184611460CF0A4FF2D
:1028700091E7637F43F040036377201D15F0EAF88A
:102880000123E0832B7740E70FF086FB83453FF47D
:102890007EAF14F099FF7AE78D49FD1A070000001A
:1028A0007FC3C90100CA9A3BF57701008D49FD1A23
:1028B00099770100117801002C600200E45E0200AB
:1028C000C458020083DE1B43FF596202000000006F
:1028D000114B10B5C3F8E400FDF754FD0CA3D3E988
:1028E0000023FDF7F3FEFEF789F80446C0F3074125
:1028F000062021F0C5FAC4F30721072021F0C0FA11
:10290000E1B20820BDE8104021F0BABAAFF3008070
:102910000000000080844E400C2D002000000000CC
:1029200070B5092021F0B7FA0546062021F0B3FA68
:102930000646072021F0AFFA0402082021F0ABFA86
:1029400044EA06442043FDF71DFD1BA3D3E9002301
:10295000FDF792FDFEF752F800210446092021F010
:102960008FFA3B2021F097FA40F04001C9B23B209A
:1029700021F086FA3B2021F08EFA8206FAD4104824
:10298000FFF7A6FF3B2021F086FA40F04001C9B2D4
:102990003B2021F075FA3B2021F07DFA8306FAD422
:1029A0002946092021F06CFA2046BDE87040FFF767
:1029B0008FBF00BFAFF300800000000080844E4056
:1029C00000A1BC33000000002DE9F84F884620B17B
:1029D000012855D00020BDE8F88F714C2720B4F8AD
:1029E000FC5021F058FA013520F0F8002844FDF79A
:1029F000D9FC94F8FE300022002B3CD1694BFDF746
:102A000085FB064630200F4621F045FA30F0F903E9
:102A100014BF644B0023002230463946FDF776FB95
:102A2000064640460F46FDF7BDFC02460B463046C3
:102A30003946FDF76BFB94F800310022EBB9002317
:102A4000FDF764FB584B0022FDF716FD0646D4F84F
:102A5000F8000F46FDF796FC02460B463046394615
:102A6000FDF734FE514B0022FDF706FD1CF08CFDF6
:102A7000FDF7C4FFAFE70023C1E74FF08043DFE776
:102A8000474AD2F82031073B022B92467FD8484A6A
:102A900002EBC303D3E90045DAF824B1012000FAC0
:102AA0000BF0FDF77FFC02460B4620462946FDF75A
:102AB0000DFE02460B4600203A49FDF707FE04468C
:102AC000BAF82A010D46FDF76DFC3A4B0022FDF7DE
:102AD0001DFB22462B46FDF7CFFC9AF82C219AF8D5
:102AE0002E310F464FEA8B01C1F11C01002A01EB88
:102AF000031303EBC803064614BF14200020181A62
:102B0000FDF740FC9AF82831002B804614BF0220C4
:102B10000020ABEB000080008946FDF733FC024645
:102B20000B4640464946FDF7D1FD00F061FB80466B
:102B30009AF8290189460430FDF734FC42464B4699
:102B4000FDF79AFC0022002380468946FDF724FF0A
:102B500018B94FF000084FF00009134B002240460F
:102B60004946FDF7D3FA22462B46FDF785FC32464F
:102B70003B46FDF7CBFA0D4B0022FDF77DFC06A38B
:102B8000D3E90023FDF7C2FA00F01AFC70E7002435
:102B9000002581E7AFF300802B8716D9CEF7EF3FF2
:102BA0000C2D00200000F03F0000204000408F402E
:102BB00038510200000011402DE9F04F89B09946CC
:102BC000129B0493BDF8503001939DF8643002933A
:102BD00083469DF86C3005930C4690469DF8601036
:102BE0009DF868200692BDF84C609DF854509DF801
:102BF00058709DF85CA0079119F08EFEDDE9053252
:102C0000BBF1000F07D0BBF1010F079900F08980DD
:102C100009B0BDE8F08FDFF89CB20499CBF8F880DA
:102C20008BF801218BF802314046CBF8F040CBF80D
:102C3000F4108BF8FE508BF8FF708BF800A1ABF806
:102C4000FC60FDF79FFB804602460B46894600204C
:102C50009549FDF73BFD954B0022FDF70DFCCDE9B5
:102C600002010198FDF79EFB02460B46DDE90201D9
:102C7000FDF702FC8E4B0022FDF7FEFBFDF7BEFECA
:102C800042464B46CBF8080185A1D1E90001FDF78A
:102C90001DFDFDF7B3FEC0F307211FFA80F80220E7
:102CA00021F0EEF85FFA88F1032021F0E9F82046E0
:102CB00019F048FC0146122021F0E2F8049819F0BE
:102CC00041FC0146132021F0DBF8310A252021F0D8
:102CD000D7F8F1B2262021F0D3F805B339463220D7
:102CE00021F0CEF8302021F0D6F8002D00F06F0151
:102CF00041EA0A1114BF00206FF07F000143C9B2FE
:102D0000302021F0BDF8312021F0C5F840F040011D
:102D1000C9B2312009B0BDE8F04F21F0B1B8FF21B0
:102D2000DDE7022C00D9FEE704F1070B614C84F8C3
:102D30002F11029984F830114146062938BF062127
:102D40000C2984F831210A4628BF0C22BBF1070F59
:102D5000C4E948B884F82991A4F82A6184F82C5170
:102D600084F82D7184F82EA184F8323178D1A2F143
:102D70000B03012B8CBF002301231D20049284F838
:102D8000283121F088F845EA490141EA0B11C9B21E
:102D90001D2021F075F81E2021F07DF8019B049A7A
:102DA000C3F3012141EA8A0141EA021100F008005F
:102DB0000143C9B21E2021F063F8262021F06BF8F0
:102DC00094F8283120F0080141EAC301C9B2262055
:102DD00021F056F89DF804101F2021F051F8310A17
:102DE000202021F04DF8F1B2212021F049F81DB149
:102DF0003946222021F044F894F82F316BB1442059
:102E000021F049F860F07F01C9B2442021F038F880
:102E100094F83011242021F033F8BBF1090F2ED1A2
:102E2000D4F8E420244B9A424FF002014FF03600D0
:102E300021D921F025F864213A2021F021F8B8F1B8
:102E4000060F4FF031001DD821F025F800F0F801F1
:102E500041F00501312021F013F80C21372059E70A
:102E6000BBF1080F05D1B8F10B0F94BF002301236C
:102E700083E7002381E721F003F87F21DCE70321CA
:102E80003620DAE721F007F800F0F80141F00301FD
:102E9000312020F0F5FF0A21E0E700BFAFF300800A
:102EA0000000000080847E410000F03F00002040D0
:102EB00000408F400C2D002040DD4A1F0000000024
:102EC0002DE9F04F87B01D469DF858300293894692
:102ED0009DF85C301899049392469DF85420059211
:102EE00003910190109F9DF844B0BDF848809DF873
:102EF0004C609DF8504019F00FFD484619F0B8FAA3
:102F0000019ADDE903132AB1012A059A64D007B0BA
:102F1000BDE8F08F7E4A5046C2E93BA582F80041E9
:102F200082F8E890C2F8F870A2F8FC8082F8FE609F
:102F300082F80131C2F80411FDF724FA70A3D3E935
:102F40000023FDF7C3FBFDF759FD85B2C0F3072150
:102F5000042020F095FFE9B2052020F091FF3846CB
:102F6000FDF710FA02460B4667A1D1E90001FDF713
:102F7000ADFBFDF743FDC0F3072185B2022020F031
:102F80007FFFE9B2032020F07BFF4FEA18212520C4
:102F900020F076FF5FFA88F1262020F071FF3020C4
:102FA00020F079FF002E00F06F0014BF00216FF0B9
:102FB0007F0140EA04142143C9B2302020F060FFB1
:102FC000312020F068FF40F04001C9B2312007B045
:102FD000BDE8F04F20F054BF4D48022D80F81C9101
:102FE000814600D9FEE7062FBA4638BF4FF0060AE1
:102FF0000735BAF10C0FC0E9485780F829B1A0F89D
:103000002A8180F82C6180F82F2128BF4FF00C0A0C
:10301000029889F83001072D89F82E4189F831315D
:10302000C9F8341157D1AAF10B03012B8CBF00232F
:10303000012389F828316AB1442020F02CFF60F088
:103040007F01C9B2442020F01BFF99F830112420E1
:1030500020F016FF46EA4B061D2046EA051520F033
:103060001AFFE9B21D2020F00BFF1E2020F013FFF5
:10307000A40000F00B0044EA0A1A4AEA000A5FFAC8
:103080008AF11E2020F0FCFE262020F004FF99F893
:10309000283120F0080141EAC301C9B2262020F0FE
:1030A000EFFE4FEA1821202020F0EAFE21205FFAEF
:1030B00088F120F0E5FE062F4FF0310014D820F003
:1030C000EAFE00F0F80141F00501312020F0D8FEC1
:1030D0000C2137207BE7082D04D10B2F94BF002350
:1030E0000123A6E70023A4E720F0D5FE00F0F801B5
:1030F00041F00301312020F0C3FE0A21E9E700BFBF
:103100000000000080844E400000000080847E416A
:103110000C2D00200000000070B5314B93F8E0103A
:1031200001291C4602D002294CD070BD93F8E12041
:10313000CAB1012AF9D193F82F31002BF5D0022121
:10314000122020F09DFE274B1B68002BEDD05C6900
:10315000002CEAD01C2020F09EFE234600F03F0009
:10316000BDE8704018479B6E0BB984F80C11B4F899
:103170000C51012DD9D11C4819F0FEFF112084F803
:103180000D5120F088FE4008404284F80E011B20BB
:1031900020F081FE05461C2020F07DFE40EA05203F
:1031A000FDF700F90CA3D3E90023FDF765F9FDF75E
:1031B000FDFBC4F810010C2020F06DFE400984F8DE
:1031C0001401B2E793F8E120012AAED193F82F3130
:1031D000002BAAD0B4E700BF0000000080844E405E
:1031E0000C2D0020D82C0020DC2C0020000000003A
:1031F00080B58CB000AFC7E90001D7E90023C7E96B
:1032000004237B69FB623B69BB62FB6A1B15C3F34A
:103210000A03A3F2FF337B627B6A132B61DC7B6AB8
:10322000002B28DA62A1D1E90001D7E90023FCF7DD
:103230006DFF02460B46104619464FF000024FF054
:103240000003FDF7A9FB0346002B00F0A080FB6AFA
:10325000002B05DA4FF00043FB620023BB6296E0CF
:10326000FA6ABB6A1343002B00F09180524BFB6259
:103270000023BB628BE0514A7B6A42FA03F33B6254
:10328000FA6A3B6A1A40BB6A1343002B02D1D7E9A2
:10329000002386E046A1D1E90001D7E90023FCF72D
:1032A00035FF02460B46104619464FF000024FF01C
:1032B0000003FDF771FB0346002B68D0FB6A002B6F
:1032C00007DD4FF480127B6A42FA03F3FA6A134473
:1032D000FB623B6ADA43FB6A1340FB620023BB627A
:1032E00055E07B6A332B0FDD7B6AB3F5806F08D125
:1032F000D7E9000102460B46FCF708FF02460B46E1
:103300004FE0D7E900234CE07B6A143B4FF0FF32DB
:1033100022FA03F33B62BA6A3B6A1340002B02D1E4
:10332000D7E900233DE022A1D1E90001D7E900233C
:10333000FCF7ECFE02460B46104619464FF0000221
:103340004FF00003FDF728FB0346002B1FD0FB6A5C
:10335000002B17DD7B6A142B03D1FB6A0133FB6260
:1033600010E07B6AC3F1340301229A40BB6A134424
:10337000FB61BB6AFA699A4202D2FB6A0133FB62C3
:10338000FB69BB623B6ADA43BB6A1340BB62FB6A00
:10339000FB60BB6ABB60D7E90223C7E90023D7E91A
:1033A0000023104619463037BD4680BDAFF300807C
:1033B0009C7500883CE4377E0000F03FFFFF0F0063
:1033C00080B58CB000AFC7E90001D7E90023C7E999
:1033D00004237B69FB623B69BB62FB6A1B15C3F379
:1033E0000A03A3F2FF337B627B6A132B62DC7B6AE6
:1033F000002B29DA62A1D1E90001D7E90023FCF70B
:1034000085FE02460B46104619464FF000024FF06B
:103410000003FDF7C1FA0346002B00F0A180FB6A10
:10342000002B04DB0023BB62BB6AFB6298E0FB6AF3
:1034300023F00042BB6A1343002B00F09180524BF3
:10344000FB620023BB628BE0504A7B6A42FA03F3C3
:103450003B62FA6A3B6A1A40BB6A1343002B02D1F3
:10346000D7E9002386E046A1D1E90001D7E900238E
:10347000FCF74CFE02460B46104619464FF0000280
:103480004FF00003FDF788FA0346002B68D0FB6A73
:10349000002B07DA4FF480127B6A42FA03F3FA6AD0
:1034A0001344FB623B6ADA43FB6A1340FB6200236E
:1034B000BB6255E07B6A332B0FDD7B6AB3F5806F0F
:1034C00008D1D7E9000102460B46FCF71FFE024671
:1034D0000B464FE0D7E900234CE07B6A143B4FF0EA
:1034E000FF3222FA03F33B62BA6A3B6A1340002BB5
:1034F00002D1D7E900233DE021A1D1E90001D7E9BC
:103500000023FCF703FE02460B46104619464FF017
:1035100000024FF00003FDF73FFA0346002B1FD0D7
:10352000FB6A002B17DA7B6A142B03D1FB6A013389
:10353000FB6210E07B6AC3F1340301229A40BB6A4C
:103540001344FB61BB6AFA699A4202D2FB6A0133F7
:10355000FB62FB69BB623B6ADA43BB6A1340BB6236
:10356000FB6AFB60BB6ABB60D7E90223C7E90023A3
:10357000D7E90023104619463037BD4680BD00BF4D
:103580009C7500883CE4377E0000F0BFFFFF0F0011
:1035900010B500200C4602F059FB21460248BDE858
:1035A00010401CF04DB900BF1C69020008B521B1E4
:1035B000BDE8084005481CF043B9012002F046FB75
:1035C000BDE8084002481CF03BB900BF3A69020060
:1035D0005A69020030B593B01EF078FF03780446B4
:1035E00007AD032B24D8DFE803F0021D1F21134988
:1035F000284621F0FAFAA379059562780492A27818
:103600000392E278029222790192627900921E215D
:103610000B4A0AA81CF021F90A480AA91CF010F963
:1036200013B030BD0849E3E70849E1E70849DFE79F
:10363000084A0A2128461CF010F9DCE765690200F7
:1036400087690200AA6902006C69020073690200BE
:103650007D6902006C86020070B5002088B005F01C
:1036600065FA064628B1014612481CF0E9F808B090
:1036700070BD114D11481CF0E3F80FCD03AC0FC421
:103680002B6823600E4900963346022203A806F0F9
:10369000C3F8014648B10B481CF0D2F80A4806F0BE
:1036A000B7FB0A4806F0ECFFE1E709481CF0C8F850
:1036B000F4E700BFC169020070500200E169020036
:1036C00050510200F86902005C010020380100201E
:1036D0001E6A0200014B1860704700BF780100208D
:1036E00030B585B0CDE901010446002501A90548A2
:1036F000039500F055F9DDE902309842B8BF255432
:1037000005B030BD1BF801002DE9F84FB0F8189056
:1037100019F00808044693460DD001290CBF49F062
:10372000100949F02009A0F818908BF31188BFF315
:103730006F8FBDE8F88F09F00709022907D12046ED
:103740001CF098F80028F0D00128238B50D167692D
:10375000218B002F15DA256821F00701C4E90088C4
:1037600041F0010121830026218B01F0070ACA459F
:1037700002D0A368002B5CD10DB9002E74D00023B9
:1037800058E001F007035A1F012A20D821F0070151
:10379000062B256889B2C4E900880CD1002D2B4680
:1037A00038BF00232BB1628B1B6801326283002B70
:1037B000F8D141F00201218320461CF05BF8064657
:1037C0000028D1D0238B43F020032383CBE7042BA5
:1037D0000CD121F0070189B2218320461CF04AF860
:1037E00005460028BFD041F0200121830025BAE71B
:1037F000032809D1226923F00703166843F0060362
:10380000238300252F46AFE7042806D1226923F041
:103810000703566843F00403F2E7052806D122693E
:1038200023F00703966843F00503E9E700252E46D9
:10383000E8E7012341F0080121838BF31188BFF3EE
:103840006F8F03BB002D33D116B121492046B047FD
:103850004FF02003EFF3118B83F31188BFF36F8FC9
:10386000238B23F008032383238BDA0628D523F048
:10387000100323830121B4F8189009F007090029E7
:103880007FF45BAF51E7A1680029DBD00B68D1F86A
:1038900004B0002B38BF0023994652463B462046D1
:1038A000D847B9F1000FCDD0D9F800304946EEE73E
:1038B00029463B46524620462D681BF0F7FFC1E7DC
:1038C00013F020011EBF23F0200323830221D2E73F
:1038D000D9F80100F0B5094E016802460A27002018
:1038E0000C46013123789D5D6D0701D41460F0BD55
:1038F00007FB0033A3F13000F2E700BFC28B0200E8
:103900002DE9F74F14469946D378244A13F802A0BC
:103910006F2B0AF0030206460F4601922DD028D8DD
:10392000582B14BF0A251025DDF83080AA464FF029
:10393000000B52465B4630463946FDF7C9FB092A63
:10394000D3B21FD830335F45DBB208BF564508F805
:10395000013D01D3C84512D823789B0605D5082D13
:1039600016D1A37843F00803A370404603B0BDE826
:10397000F08F03F0F703702BD3E70825D4E7064652
:103980000F46D6E7019A012A0CBF37335733DAE7DF
:10399000102DEAD1A37843F01003E5E7C28B0200B3
:1039A0002DE9F04FA3B08846069091461C460025AD
:1039B00099F8000010B9284600F0AEBD09F10103E6
:1039C0002528079307D04146069B98470028C0F258
:1039D000A385013524E21822002114A821F0FDF866
:1039E00099F80130252B59D0079A164612F8013B59
:1039F0002B2B00F08B8079D8202B00F08C80232B90
:103A000000F08E809DF8583003F04402442A03D120
:103A10006FF386138DF858309DF85830129643F0A6
:103A200080038DF8583033782A2B7ED19DF8593099
:103A300043F001038DF85930731C12931A782E2A23
:103A40009DF859200CBF0121002161F341028DF83E
:103A500059200BD15A1C12925A782A2A7BD19DF8F0
:103A6000592042F004028DF859200233194611F80A
:103A7000010B6C2800F0CF807DD8682800F084808E
:103A80006A2800F0D2804C2800F0D6809DF859209A
:103A90006FF3C6028DF85920194680E009F1020241
:103AA00007928DF85B309DF85930DE0740F16D814B
:103AB00054F804ABBAF1000F07DA9DF8582042F031
:103AC00004028DF85820CAF1000A580740F16681B7
:103AD00054F8047B002F80F265819DF859306FF314
:103AE00041038DF859304FF0FF375BE12D2B06D0A5
:103AF000302B87D19DF8583043F0400303E09DF808
:103B0000583043F004038DF858306EE79DF8583074
:103B100043F00803F7E79DF8583043F01003F2E74D
:103B20009DF8583043F02003EDE712A8FFF7D2FECE
:103B3000129BB34281D09DF858101790C1F34002F8
:103B400042EAD072520062F07F0201F07D010A4326
:103B50008DF8582071E712A8FFF7BCFE9DF8583089
:103B60001890C3F3400242EAD07060F341038DF82D
:103B70005830129B7AE774289DF8592059D07A283A
:103B800084D11346062241E05A78682A9DF85920CC
:103B90003AD1012161F3C6028DF85920991C0B46D8
:103BA00013F8012B0793782A8DF85B2000F2C5806B
:103BB000572A4ED8412A04D0A2F14503022B00F225
:103BC000BC809DF85A3002F0DF020421A2F1410AC4
:103BD00061F30203DAF100029DF859108DF85A30B2
:103BE00042EB0A0262F3C7110A068DF85910CBB2F4
:103BF00000F1C98003F07802182A40F09B806FF32F
:103C0000C6038DF8593082E01346022262F3C603E0
:103C10008DF85930C3E75A786C2A9DF8592001D1A4
:103C20000421B7E713460322F0E79DF85930052237
:103C3000ECE713460722E9E7BDF8583023F4F043D8
:103C400023F0020343F4804343F00203ADF85830FD
:103C5000A5E7A2F15803202B6FD801A151F823F05A
:103C6000133D00003B3D00003B3D00003B3D00009C
:103C70003B3D00003B3D00003B3D00003B3D000064
:103C80003B3D0000C33B00003B3D0000133D0000F6
:103C9000E53C0000C33B0000C33B0000C33B000009
:103CA0003B3D0000E53C00003B3D00003B3D00008B
:103CB0003B3D00003B3D0000493D0000133D00003E
:103CC000693D00003B3D00003B3D0000693D0000B8
:103CD0003B3D0000133D00003B3D00003B3D00002C
:103CE000133D00009DF85A30012161F302038DF865
:103CF0005A309DF8593003F07803402B02BF9DF8ED
:103D0000581041F001018DF85810632A05D00023A6
:103D100006E09DF85A300221E7E7003B18BF012377
:103D20009DF85820C2F340010B4363F341028DF824
:103D30005820B8E613F0380FE9D09DF8583043F01A
:103D400001038DF85830E2E79DF85A30032262F300
:103D500002038DF85A309DF8593003F07803A3F12F
:103D600040077B427B41DBE79DF85A30032262F338
:103D700002038DF85A309DF8593013F0780F14BFB4
:103D800001230023CCE70123CAE79DF95820002A2C
:103D9000B4BFDDF85CA04FF0FF3A96E699077FF5D7
:103DA000A2AE189F0023CDE917339DF85A3003F0D7
:103DB0000703042B09D19DF859309A0705D49DF9C2
:103DC0005930002BB4BF0D2706279DF85A309DF8B7
:103DD000591003F00703012BC1F3C30136D1CB1EE9
:103DE000042B20D8DFE803F00307071F1F0054F857
:103DF000042BD31704E0073424F00704F4E802236B
:103E0000CDE914239DF85860B30755D0079B069859
:103E10004A4641461CF0EBF80028C0F27D83054479
:103E2000DDF81C90C4E554F8042B01294FEAE27335
:103E3000CDE9142305D19DF8503014930023159338
:103E4000E0E70229DED1BDF95020D2E7022B23D1D1
:103E5000CB1E042B13D8DFE803F0030A0A1212006A
:103E6000226814920023201D15930446CAE70734E4
:103E700024F00700F0E80223CDE91423F5E754F815
:103E8000043B149301294FF000031593D3D002296A
:103E9000B8D1BDF85030D0E7042B07D1073424F057
:103EA0000704F4E80223CDE91423ABE7032B04BF96
:103EB00054F8043B1493A5E79DF85B90B9F1780F93
:103EC000AED8B9F1570F00F2A680B9F1250F00F076
:103ED000ED80B9F1240FA3D9B9F1410F03D0A9F1B5
:103EE0004503022B9CD8DDE91423002A73F100015D
:103EF000C0F28681310700F1858116F0100618BFE7
:103F00002026C3F30A5BC3F3130304920593DDE990
:103F10000423CDE91023BBF1000F40F07581DDE9EA
:103F20000432134314BF4FF0010C4FF0000C0599FD
:103F3000CB020499CA0243EA515358464BEA0201A4
:103F40000A91C11719430B91DDE90A01B9F1460F36
:103F500008BF4FF066090143CDE9102300F0C88186
:103F6000BCF1000F40F08881109B0293119B43F03D
:103F700000430393DDE90223CDE910230023ABF2D4
:103F8000FE3B1A4605211BF1020FC0F27E811BB1D8
:103F9000DDE90201CDE91001BBF1000FDDE91031CF
:103FA00000F38E811199109BCBF104000BF11C0BD7
:103FB00001FA0BFBA0F1200CC34021FA0CFC43EAF0
:103FC0000B0343EA0C03C140CDE9103109F0DF03D4
:103FD000472B40F09481D01C02DB974280F28B810A
:103FE000A9F10209002F5FFA89F900DD013F9DF870
:103FF0005830990600F18381002FD4BF002301239C
:10400000B9F1660F0C9340F07C81D31940F17A81AD
:104010004FF0000B7AE1A9F15803202B3FF600AFD7
:1040200001A252F823F000BFA1410000213E000090
:10403000213E0000213E0000213E0000213E000004
:10404000213E0000213E0000213E0000E73E00002E
:10405000213E0000D940000041410000E73E000041
:10406000E73E0000E73E0000213E00004141000025
:10407000213E0000213E0000213E0000213E0000C4
:10408000D7410000A1410000A5410000213E0000F1
:10409000213E0000B3400000213E0000A14100008D
:1040A000213E0000213E0000A1410000414648465B
:1040B0008AE4002FDDF850900ADB3946484620F0AC
:1040C000AFFD09EB000B0026B9F1000F0CD1A7E6FC
:1040D0004846FDF7A3F9F4E7149B8DF86C300026F1
:1040E0000DF16D0B0DF16C09ABEB090206B101325C
:1040F0009DF85A00C30640F1038202321799400628
:104100000A4444BF18995218BAF1000F40F31182C3
:10411000AAEB020A9DF858205107C2F3800700F16C
:104120000882530640F1FB8146B1069B414630466A
:1041300098470028C0F2F08101353E463027EFE174
:1041400030072BD416F0100618BF2026DDE9142303
:10415000002A73F1000105DA524263EB4303CDE913
:1041600014232D260DF185030093DDE914011BAB0B
:1041700016AAFFF7C5FB8146002F0DF185030BDB67
:104180009DF85810A3EB09026FF3861197428DF842
:10419000581001D9BF1A17979B4695E72B26D5E7EC
:1041A0000026DFE71498002800F09F810DF18503B9
:1041B000009316AA1BAB0021FFF7A2FBBDF85A30F3
:1041C00003F0EF0343F4F04343F010038146ADF8EE
:1041D0005A300026D0E7149B07293FF621AEDFE8CE
:1041E00001F00D04060D08080D0D1D7018E61D8068
:1041F00016E62846E917C3E9000111E61D600FE63F
:104200002D267EE62B267CE640F2FF739B452ED1C1
:10421000DDE90412B84B19F803300A4303F0030335
:1042200017D1012B0BBF44F6496346F66963ADF81D
:104230006C30ADF86C300CBF462366238DF86E30C1
:104240009DF858306FF386138DF858300DF16F0BD1
:1042500048E7012B0BBF44F24E1346F26E13ADF844
:104260006C30ADF86C300CBF4E236E23E6E74FF098
:10427000000C5CE60BF1FF3B92185B41002A73F1E6
:104280000001F7DACDE910236EE6029B03985B0884
:1042900043EAC0734008B0F1333FDE46CDE9023057
:1042A0000BF1010BF1D2A3FB01BCCDE902BC039BD6
:1042B0004843C31803930EF1020B013A012362E64F
:1042C000023341F1000110A8CDE910310C921BF02E
:1042D00057FE0C9ADDE910010BF1FF3B013200188B
:1042E0004941002871F100030BF1FF3BF7DA51E679
:1042F0000022934656E6BF1A4FF0660977E6002380
:104300007EE67B1C102BA8BF10239B4610210F912B
:1043100000204FF00061CDE912010BF1FF3BBBF132
:10432000FF3FDDE912101FD1109BCB180893119BA2
:1043300040EB03030993DDE908BC6FF070414FF0D7
:10434000FF30614508BF58451AD358466146CDE94C
:104350001001B9F1660F53D1002A20DC30238DF80B
:104360006C300DF16D0B2BE0490841EAC07140083B
:10437000CDE9121012A80D921BF002FE0D9ACCE7A7
:10438000089B0D92099A5B0843EAC273510810A872
:10439000CDE910311BF0F4FD0D9A0132D9E70DF192
:1043A0006C0B0F99002909DD0FA910A80D921BF0C5
:1043B00007FE0D9A0BF8010B013AF2D11792002279
:1043C0009DF85810880601D4002F3FDD5B462E2152
:1043D00003F8011B92B1002F75DD5142B942A8BF0D
:1043E00039469DF85A0017910029A7EB0107D4BF61
:1043F0000021012161F345108DF85A009B4620E011
:104400000FA910A80D921BF0DBFD0D9A9DF85830F6
:104410008DF86C00302818BF02F1FF32990601D4E4
:10442000002F52DD2E238DF86D300DF16E03E5E780
:104430000FA910A80D921BF0C3FD0D9A0BF8010BEC
:10444000013F002F02DD0F990029F1DC0C9B002BAE
:104450003ED1189709F0DF01452922D1002A58469C
:10446000BABF52422D212B21632A00F8029B8BF800
:1044700001100ADD642792FBF7F101F1300C0BF11A
:1044800003008BF802C007FB11220A27834692FB28
:10449000F7F107FB112201F1300C30320BF802CB9F
:1044A0004270179A002A1EDC189A002AD4BF0022F4
:1044B00001229DF85A1062F3861100228DF85A10DD
:1044C0008BF800200EE69B46C0E70DF16D0BBDE7B3
:1044D0000021189158461BF8011D3029FAD02E29C9
:1044E00018BF8346B6E70122E3E7DFF810B00646BF
:1044F000ABF10509F8E500BFC28B0200526A020069
:10450000070748BF0132F9E50C934146069B384640
:10451000984700280C9B05DA23B0BDE8F08F2027D0
:104520000AEB05035246002AA3EB0A050AF1FF3AFB
:10453000EADC36B1069B4146304698470028EBDB63
:1045400001359DF85A2050067DD59DF95920002A45
:104550002CDBA5EB090599F800005B4BC25C4E46CD
:10456000510705EB060709F101093FD49DF85A20D0
:10457000DDF85C90920608D409EB07054A46002A4C
:10458000A5EB090709F1FF3936DC30782E280AD16E
:10459000069B414698470028BEDBB9F1000F07F1A2
:1045A000010730DC0136B146BF1B39E0A5EB090736
:1045B0004D4607EB090619F8010B702810D1189F1A
:1045C0003744BA1B002A35DC06985B462A4641462A
:1045D0001BF00DFD00289FDB3044054682446CE053
:1045E000069B414698470028E2DA95E7069B41463C
:1045F00098470028AFDA8FE7069B4146302098475E
:104600000028BBDA88E7069B41463020984709F12D
:10461000FF39C0E7069B414698470028FFF67CAF6C
:10462000294B4D4607EB090619F8010BC25C5307ED
:10463000F0D4C4E7069B4146302098470028FFF697
:104640006BAF0136BDE7D10601D4120707D5069B33
:104650004146302098470028FFF65EAF01359DF8AF
:104660005A20D30608D59DF85B00069B4146984723
:104670000028FFF651AF0135179F2F447A1B002AFF
:104680000ADC06985B464A4641461BF0B0FC00280F
:10469000FFF642AF2844A0E7069B414630209847EA
:1046A0000028FFF639AF0135E8E7069B4146202098
:1046B00098470028FFF630AF0135AAEB0503002B21
:1046C000F3DCFFF7ADBB00BFC28B020030B5104971
:1046D000104889B0002220F0E2F80F4D0F49002267
:1046E0000023CDE9062300240E23CDE90334CDE9D0
:1046F00001440B4B00944FF4407228461AF082FAA2
:10470000084928461FF094FF204609B030BD00BF7D
:1047100029470000480B0020800B00207037002044
:10472000914B0000536A020001481AF0D1B900BF52
:10473000E0090020F0B505460F4E00200346024672
:10474000012715F8014B0CB18B4200D3F0BD252C8D
:1047500002D182F00102F4E7002AF2D014F806C078
:104760001CF0030FEDD0732C04BF07FA03F21043C3
:1047700001330022E5E700BFC28B020008B500F05C
:1047800069FA09481BF04AFC0823482207490848EF
:104790001FF034FD074B084A1A604FF40040BDE893
:1047A000084000F0A1BC00BFBC1700206021012020
:1047B000C41700207C0100205B000200F8B50F4BFD
:1047C000BFF35B8F002553E8007F43E80052002AC7
:1047D000F9D1BFF35B8F0A4C0A4E361B3611B54236
:1047E00000DBF8BD63685B792BB12368DB6813B12C
:1047F00039462046984701351034F0E7B4170020B9
:104800000850020018500200064BBFF35B8F53E8BC
:10481000002F013243E800210029F8D1BFF35B8F5C
:10482000704700BFB4170020044A054B9B1AB1EB38
:10483000D30F34BF52F8310000207047984E020069
:1048400008500200094B4268C31A1B11013310B50E
:1048500013714368064C196001225A71227812B90B
:1048600004481AF035F90123237010BD08500200E6
:10487000CC2F0020E009002070B5114BBFF35B8FF7
:1048800053E8005F6A1C43E800210029F8D1BFF318
:104890005B8F2DB90B4C0C4E361B3611B54200DB2D
:1048A00070BD237B4BB123685B690BB120469847F1
:1048B000042200212046FFF7C5FF01351034EDE743
:1048C000B81700200850020018500200174B9842F9
:1048D00073B5044602D3164B984221D315480022E3
:1048E000002301A919F024FC0546E0B90122019B2F
:1048F000BFF35B8F53E8001F43E800200028F9D185
:10490000BFF35B8F019E331D41221846214620F0E4
:1049100074F97E22034686F8452086F846501C46E8
:10492000204602B070BD044BF9E700BF444C0200C2
:10493000C48C0200C41700205B6A020050B1064B11
:10494000984206D303F5107398422CBF0020012033
:1049500070470020704700BF602101202DE9F04F13
:104960004C4B1B7885B0044603B960B34FF020036D
:10497000EFF3118683F31188BFF36F8F46481BF066
:104980005DFB054686F31188BFF36F8F78B1BFF3E7
:104990005B8F424B53E8002F013A43E80021002986
:1049A000F8D1BFF35B8F94B128461BF058FC24B9B3
:1049B0003B4B1B680BB1FFF701FF37481BF03CFB7B
:1049C000041E18BF0124204605B0BDE8F08F354B0A
:1049D0001B78CBB92B7ADB0716D41BF053FC80462F
:1049E00028461BF01AFC01464046FFF7A3FE2E4F57
:1049F0002E4BDFF8D4B0DB1BDB0803932C4BDB1B07
:104A000006464FEAD30A36B92A4E2B4FBF1B3F1139
:104A10004FF000083AE0B6FA86F1C1F11F094946A5
:104A200028461BF0FDFB254B9842014602D3244B40
:104A300098421AD30846FFF781FF0246A8B9214BD6
:104A4000994212D06B8903989909B0EB931F4FEAF2
:104A50008A1343F0010388BF57F83120ADF80030C6
:104A60004946434658461BF036FB012101FA09F13D
:104A700026EA0106C7E773685B7923B133682946E4
:104A80001B683046984708F101081036B845F2DB3C
:104A90008AE700BFCC2F0020BC170020B0170020F1
:104AA000B4170020CD2F0020984E020008500200BD
:104AB000B04F02000850020018500200444C02009F
:104AC000C48C02005B6A0200756A0200294B37B58C
:104AD0001B68418104469847E0604FF02003EFF3E4
:104AE000118583F31188BFF36F8F234821461BF094
:104AF00099FA85F31188BFF36F8FBFF35B8F1F4B5C
:104B000053E8002F013243E800210029F8D1BFF318
:104B10005B8F1B4A127882B14FF02003EFF31184B0
:104B200083F31188BFF36F8F0020FFF717FF84F323
:104B30001188BFF36F8F03B030BD124A1B68126833
:104B4000002AF8D0012B0AD100220023CDE900234E
:104B50000D484FF4004200231AF012FCEBE70A2B39
:104B6000E9D109481FF0A7FE084803B0BDE830406E
:104B700019F0AEBF7C010020BC170020B017002048
:104B8000CD2F0020E0170020480B0020E009002076
:104B900010B5FFF771FE19F021FF0C4B186030B112
:104BA0000B4B1B68092B02DD0A4819F091FF094CD9
:104BB0000020FFF7D3FE0028FAD14FF0FF324FF06C
:104BC000FF33204619F0AAFFF2E700BFE0170020EC
:104BD000B0170020E0090020F8B50E4F3D7875B9F8
:104BE0000D4C0E4EFFF748FE361B3611B54207DB63
:104BF0000020FFF7B3FE0028FAD101233B70F8BD77
:104C000063685B791BB1236820461B6998470135AF
:104C10001034EBE7CD2F002008500200185002009E
:104C200007B504380190BFF35B8F50E8003F5A1E70
:104C300040E800210029F8D1BFF35B8F012B03D19D
:104C4000034801A919F0A6FA03B05DF804FB00BF00
:104C5000C41700202023024902481A461FF0CEBA8A
:104C6000A0230120E417002037B50023094D01934C
:104C70000120FFF773FE0446FFF7C6FD0022002364
:104C800001A9284619F054FA08B1002CF0D1019876
:104C900003B030BDE417002007B500230193074897
:104CA0000022002301A919F043FA10B1FFF7DCFF3D
:104CB0000190019803B05DF804FB00BFE4170020E9
:104CC000F0B5037A457A85B02D090190D8071CD438
:104CD000DDB100242646019831461BF0A1FA0746B3
:104CE000FFF72CFE70B134B9019B29461869FFF714
:104CF00021FD044648B124FA06F3D90702D5384607
:104D0000FFF78EFF0136AE42E5D3019B1A7A920778
:104D100004D55B69084C0393039B2BB9064801A992
:104D200019F038FA05B0F0BD1D6803A9204619F046
:104D300031FA0395F0E700BFE41700200EB403B585
:104D400003AB014653F8042B04480193FEF728FEF9
:104D500002B05DF804EB03B0704700BFD10602005B
:104D60002DE9F04F85B011F0020490469DF838709F
:104D700006461A4601F0010901F0080507D011F0B6
:104D8000440F37D13249FFF7D9FF01460C46B9F13C
:104D9000000F0AD02F4B304953F827202F4B3046B5
:104DA000002A08BF1A46FFF7C9FF3DB12C4B2D4919
:104DB00053F827203046FFF7C1FF0546B8F1000F32
:104DC00043D0012303FA07F7274B17F0100F274FA3
:104DD00018BF1F46BDF840109DF83C00FFF724FDAA
:104DE000394602463046FFF7A9FF2844204405B063
:104DF000BDE8F08F1E4B19680029C7D01D4B4FF43A
:104E0000616E1B68B2FBF3F34FF47A7CB3FBF1F4F1
:104E1000B4FBFEF20EFB124E01FB14340CFB04F447
:104E20004FF03C0AB4FBF1FB01FB1B440CFB04F408
:104E3000BEFBFAF3B4FBF1F1CDE901B10AFB13E1DA
:104E400000910D49FFF77AFF9FE7084FC2E700BFC7
:104E5000C66A020060510200E0790200B86A0200EE
:104E600074510200EB6A0200C26A0200BD6A0200CD
:104E70000018002004180020CF6A020038B50C4644
:104E8000E107054603D5084A0849FFF757FFE20640
:104E900008D4A30628464CBF05490649BDE838405A
:104EA000FFF74CBF38BD00BFB86A0200E0790200CE
:104EB000F26A0200F16A02002DE9F0471D46089BE4
:104EC0001746DA0604460E4605D499064CBF2B4910
:104ED0002B49FFF733FFDFF8B0904FF00008A845EB
:104EE0002DDBDFF8A880DFF8A890DFF89CA0002574
:104EF000BD4232D2725D49462046FFF71FFF0135A1
:104F0000102D23D11F49DFF88080DFF88890DFF86B
:104F100088A02046FFF712FF0025AF4229D9725D15
:104F200012F8093013F0970F08BF2E225146204681
:104F3000FFF704FF0135102D14D1BDE8F087494675
:104F40002046FFF7FBFE08F10108C8E76A07CFD14A
:104F500051462046FFF7F2FECAE741462046FFF7DA
:104F6000EDFECCE76B07D8D141462046FFF7E6FEC1
:104F7000D3E741462046FFF7E1FEDBE7F26A020095
:104F8000F16A0200FE6A0200FC6A0200FA6A02008C
:104F9000F46A0200C28B0200006B02002DE9F047A8
:104FA0008B7A13F0070817468AB00A7A05460E4630
:104FB00020D04989C3F3C2038909D243CDE90083D4
:104FC0000291F36802F001023946FFF7C9FE8146FB
:104FD000347AE44314F001040ED0294630461BF025
:104FE0000DFAB8F1000F2BD0424639462846FFF79C
:104FF00045FF25E0C146EBE7B8F1000F26D1274673
:10500000EB68069306AA3B46A96830461BF0E2F916
:10501000069A6B681A603AB1AB68134413F8014CF6
:10502000A4F10A035C425C4128461BF044FB069B4A
:105030001F44002BE4D11CB113492846FFF77EFE24
:1050400028461BF038FB0AB0BDE8F08730461BF05D
:1050500019F90E4902462846FFF770FE4FF0100A74
:1050600005AA234606A93046CDF814A01BF0B2F9D4
:10507000059A002AB8D04B46009706A92846FFF7A4
:105080001BFF059B1C44EBE7036B0200E079020069
:1050900073B542F20F738B4228BF0B4605680F4A67
:1050A0000446052168461AF0D8FB63680C495B6822
:1050B00006460B2228461BF094F96368324669467F
:1050C00028465B681BF08DF9636806495B681B2204
:1050D00028461BF086F902B070BD00BF4E89020061
:1050E000416B0200256B0200084A10B50123084CF1
:1050F00013600021A04204D801B11360054B186071
:1051000010BD40085B000121F4E700BF0418002037
:1051100040420F0000180020014B01221A70704716
:10512000DE2F0020024B034801221A701BF0C3BA85
:10513000DF2F0020A05102000148FFF7A9BF00BFE8
:10514000A051020010B508460C461BF059F805485E
:1051500021460F22FFF722FF2046BDE810401BF03A
:105160007EB800BFA0510200054B1B781BB141F275
:1051700088301FF059BAA420002119F00DBC00BFDF
:10518000DF2F00202DE9F84FDFF89090DFF890B086
:1051900007460E460424CA4699F8003033B94FF04A
:1051A000FF324FF0FF33584619F01EF832463946A9
:1051B000002001F0F9F89AF80030804613B95846FB
:1051C00019F08AF8144DB8F1000F18D001232B7094
:1051D0009AF8003033B93046BDE8F88F5CB92C70CE
:1051E0004FF0FF34002001F05FF90028F3D02B7856
:1051F000002BF3D1EFE7013CFFF7B6FFF2E72B7886
:1052000013B1013C04D12C702B78002BC4D1E2E700
:10521000FFF7AAFFF8E700BFDE2F0020DF2F0020F6
:10522000B4090020074B084A0848D21AD208084B94
:105230009201012914BF0146194642F003020548B4
:105240001AF01CBF984E0200C04F0200876B02008C
:105250007F6B0200906B0200836801491B6818474E
:105260001C18002030B51178212989B007D1501CB5
:105270001FF080FC1D4B1880002009B030BD232991
:1052800005D1501C1FF076FC194B1870F4E7194C2F
:105290002429206807D10028EED01BF055FA1648C3
:1052A0001AF0CEFAE8E715490B80154913449A42E3
:1052B00016D108B11BF048FA00220023CDE90623DD
:1052C00000230522CDE90323CDE9013300930D49E5
:1052D0000D4B0E484FF4804219F094FC2060CBE750
:1052E00012F8015B01F8015BE1E700BFA62F002087
:1052F000FB30002028180020A66B0200A42F0020FD
:10530000E62F00207042002011530000000C002006
:105310002DE9F84F214B1B88DA1D6946D208A1EB15
:10532000C20200AF1E4995466E460DEB0300824255
:1053300014D12E22F2541B48DFF870A018F062FD41
:105340000024054640F2E7384FF00009BAF8002083
:10535000A3B29A4207D8BD46BDE8F88F11F8014BB9
:1053600002F8014BE3E71422314628461BF0E5F929
:105370000D4B1B784FF47A7159434FF40040C346EC
:10538000CC46E0FB01BC4FF47A72002361465846DC
:10539000FBF79EFE1BF0D6F90134D7E7A42F0020BF
:1053A000E62F0020BC6B0200FB300020A62F00205F
:1053B000F0B51C4689B007336946DB08A1EBC3038F
:1053C00008AF16789D4608AD002399B28C4232D8BA
:1053D0002E232B551A4829461AF032FA194818F08C
:1053E00011FD142229461BF0A8F9262E1FD1164BB9
:1053F00016481C802246164C142329461FF0DAFB5F
:10540000206808B11BF0A0F900220023CDE9062393
:1054100000230522CDE90323CDE9013300930D4993
:105420000D4B0E484FF4006219F0ECFB2060002099
:105430000437BD46F0BDD15CE9540133C5E700BF78
:10544000C36B0200BC6B0200A82F0020E6300020D6
:1054500030180020703A0020A95A0000000D0020EA
:1054600070B51F4B02781F4D53F822302B60044655
:105470000E4601781C481AF0E3F961781B4829713F
:105480001AF0DEF9A3781A4807336B71A1781AF085
:10549000D7F908232B81E37816480133AB71E17803
:1054A0001AF0CEF923791448C3F109035B00AB72FB
:1054B00021791AF0C5F9EE72104818F0A3FCFFF735
:1054C000CBFE00280BDA0E490E4B0F48C91AC9084B
:1054D0008901BDE8704041F001011AF0C2BD70BD04
:1054E000DC0100201C180020CC6B0200DC6B0200E9
:1054F000EC6B0200036C0200146C0200BC6B020037
:10550000C04F0200984E0200236C02002DE9F04FBC
:1055100095B008AF9448DFF888A2DFF888B218F099
:1055200071FC00210446102207F12000F9611FF0F0
:1055300054FB4FF0FF384FF0FF39A368CDE90089E5
:1055400007F1190507F11A06039502969B681422C4
:1055500007F11C01204698473A7F212A034600F0B4
:105560009580DFF83C82C3469A1E22F00702E94686
:10557000ADEB020D08A800210AB29A42C0F29E804B
:105580001FF0F8FA4FF001037861204688F80B30DD
:10559000FFF762FE002141F69A101BF0D3F81422A7
:1055A00007F11C0120461BF0C8F84FF0000A204606
:1055B00088F80BA0FFF750FE6C481AF041F97B69A0
:1055C0004FF47A7C9BB20CFB03FC4FF4004E40F28C
:1055D000E73000214FF47A720023EEFB0C01FBF759
:1055E00077FDA368CDE90001CDE9026514229B682F
:1055F00007F11C0120469847031E6CDA5C481AF03C
:105600001FF9BB7FC7F814A0073303F4FC73CD4622
:10561000ADEB030D08AD5F236B714FF0010388F80C
:105620000B3097F820307A691341DE0755D47B6937
:105630000133082B7B61F4D14E481AF001F94E4832
:105640000021FFF70DFF4D4B1A78002A40F0DC8156
:105650004B4C206801221A7008B11BF075F800222B
:105660000023CDE9062300230522CDE90323CDE95C
:10567000013300934349444B44484FF4804219F0AE
:10568000C1FA34372060BD46BDE8F08F01232046C3
:105690008AF80B30FFF7E0FD052207F11C012046D8
:1056A0001BF04BF8FF233B77204600238AF80B3092
:1056B000FFF7D2FD58461AF0C3F83EE7082A08DD86
:1056C00007F1300E00EB020C724412F8142C0CF8A7
:1056D000092C013150E7CD4646E77A692C4B2D481D
:1056E00053F82210CBF80010134630332B701AF009
:1056F000A7F8002697F821203241D007F3B203D44F
:105700000136032EF6D192E78BF8043030336B70FC
:10571000214831461AF094F800233B6197F8223073
:105720003A691341D90705D43B690133062B3B6124
:10573000F4D1E5E73B7C1948DA1D3033AB703B69A7
:105740008BF80520D91D1AF07BF84FF0000897F868
:10575000233043FA08F3DA0726D408F10108B8F138
:10576000040FF4D1E0E700BFBC6B0200496C0200FB
:10577000676C0200E86C0200E12F0020FA30002084
:105780003418002070C200200D550000800D00204C
:10579000DC010020CC6B0200DC6B02007B6C0200A1
:1057A0001C180020366C02005FFA88F35A1C303354
:1057B000A148EB7008F101018BF806201AF040F8BF
:1057C0004FF0000997F8243043FA09F3DB0740F162
:1057D000BB805FFA89F3C3EBC3126FF00101303372
:1057E000520001FB09F112322B71123193488BF8F0
:1057F0000A201AF025F82046FFF72EFDB87F9BF807
:1058000005A0FBF721FA4FF08241FBF775FAF8602B
:105810005046FBF719FA4FF08141FBF76DFAFB6830
:1058200001461846FBF75EF98549FBF75DF94FF035
:105830008341FBF759F9BBF80420F860B2F5306FEB
:1058400005D05046FBF704FABAF10C0F06D15046CA
:10585000FBF7FEF94FF08041FBF744F94FF081412F
:10586000FBF74AFA0146F868FBF7FAFA002182468C
:10587000FBF7FEFB00286ED05046FAF7A5FDFDF7BA
:10588000B7FCFBF7DBF882469BF806000430FBF719
:10589000DFF95146FBF730FA4FF08241FBF724F96C
:1058A0009BF80520F86001209040FBF7D1F9824673
:1058B0009BF804000130FBF7CBF96249FBF71CFAB7
:1058C00001465046FBF7CCFAFB6882460146184673
:1058D000FBF712FA5C49F8605046FBF70DFAFB68DB
:1058E0001946FBF701F98246FBF7CCFB0146B8608D
:1058F000564819F0A5FF51465548FBF7F3F800212B
:105900008246FBF7B5FB48B35046FBF7F9FB4FEA7D
:10591000C13C4CEA504C4FEAC03E40F2E7301EEB2F
:1059200000004FF000014FF000034FF47A724CEB8F
:105930000101FBF7CDFB1AF005FF0023FB6097F890
:105940000CA03B7F53450BD809F10109B9F1080FB1
:105950007FF438AF01E74FF0000A95E70146D6E73C
:105960000A226423BAFBF3F33033AB71BAFBF2F3D0
:1059700003F1300102FB13A330332B72BB7FE971BB
:10598000581E093B0AFB03F3093B7B6009224FF0D9
:10599000C80C82422BDB2E232B5429462D4819F0AC
:1059A0004FFFBA7F294620461AF0C7FE7A7FB968B2
:1059B0004FF47A7353433A7F013A9245A8BF0021CE
:1059C000A3F1020AAAEB010A4FF4004C2AEAEA7A90
:1059D00040F2E730002100234FF47A72CCFB0A0139
:1059E000FBF776FB1AF0AEFEFB680133A6E77B6897
:1059F00002EB030E184B9EFBFCF10CFB11E1595C12
:105A0000A9540132D2B2C4E7144C206800221A70A3
:105A100008B11AF099FE00220023CDE906230023E5
:105A20000522CDE90323CDE9013300930C490D4B49
:105A30000D484FF4804222E68B6C0200146C020089
:105A40000000E0410000FA42000044419D6C020069
:105A500000409C45D16C02009B0700202C180020C0
:105A6000708200200D550000800C002010B50C4CF9
:105A700086B020701822002168461FF0AEF8094B4E
:105A80006946CDE9013400200123ADF80C3006F061
:105A90008DFB10F1800F08BF002006B010BD00BFC5
:105AA000E530002028520200F0B58BB03148324E6C
:105AB00018F0A8F900250446F572FFF7CDFB29463A
:105AC000102206A805951FF088F84FF4C030002179
:105AD000A3680DF11102CDE9000103920DF112024C
