:10000000E0470020395B0000990A0200695B0000AC
:10001000695B0000695B0000695B00000000000094
:10002000000000000000000000000000C9580000AF
:10003000695B000000000000815800003FF80100EB
:10004000F95A000099790100F95A0000F95A0000A4
:10005000F95A0000F95A0000F95A0000F95A000054
:10006000F95A0000F95A0000F95A0000F95A000044
:10007000F95A0000F95A0000F95A0000F95A000034
:10008000F95A0000F95A0000F95A0000F95A000024
:10009000F95A0000F95A0000F95A0000F95A000014
:1000A000F95A0000F95A0000F95A0000F95A000004
:1000B000F95A0000F95A0000F95A0000F95A0000F4
:1000C000F95A0000F95A0000F95A0000F95A0000E4
:1000D000F95A0000F95A0000F95A0000F95A0000D4
:1000E000F95A0000F95A0000F95A0000F95A0000C4
:1000F000F95A0000F95A0000F95A0000F95A0000B4
:1001000081F0004102E000BF83F0004330B54FEAC8
:1001100041044FEA430594EA050F08BF90EA020F35
:100120001FBF54EA000C55EA020C7FEA645C7FEAC8
:10013000655C00F0E2804FEA5454D4EB5555B8BFEB
:100140006D420CDD2C4480EA020281EA030382EA5C
:10015000000083EA010180EA020281EA0303362DEE
:1001600088BF30BD11F0004F4FEA01314FF4801CC1
:100170004CEA113102D0404261EB410113F0004FD3
:100180004FEA03334CEA133302D0524263EB43038A
:1001900094EA050F00F0A780A4F10104D5F1200E28
:1001A0000DDB02FA0EFC22FA05F2801841F1000183
:1001B00003FA0EF2801843FA05F359410EE0A5F157
:1001C00020050EF1200E012A03FA0EFC28BF4CF088
:1001D000020C43FA05F3C01851EBE37101F000453E
:1001E00007D54FF0000EDCF1000C7EEB00006EEB4B
:1001F0000101B1F5801F1BD3B1F5001F0CD34908D5
:100200005FEA30004FEA3C0C04F101044FEA44522B
:1002100012F5800F80F09A80BCF1004F08BF5FEAB2
:10022000500C50F1000041EB045141EA050130BD92
:100230005FEA4C0C404141EB0101013C28BFB1F5A4
:10024000801FE9D291F0000F04BF01460020B1FAEF
:1002500081F308BF2033A3F10B03B3F120020CDAC2
:100260000C3208DD02F1140CC2F10C0201FA0CF0A0
:1002700021FA02F10CE002F11402D8BFC2F1200C05
:1002800001FA02F120FA0CFCDCBF41EA0C019040BB
:10029000E41AA2BF01EB0451294330BD6FEA040404
:1002A0001F3C1CDA0C340EDC04F11404C4F12002EF
:1002B00020FA04F001FA02F340EA030021FA04F301
:1002C00045EA030130BDC4F10C04C4F1200220FA58
:1002D00002F001FA04F340EA0300294630BD21FA96
:1002E00004F0294630BD94F0000F83F4801306BF5C
:1002F00081F480110134013D4EE77FEA645C18BF50
:100300007FEA655C29D094EA050F08BF90EA020FE6
:1003100005D054EA000C04BF1946104630BD91EADE
:10032000030F1EBF0021002030BD5FEA545C05D1E1
:100330004000494128BF41F0004130BD14F5800420
:100340003CBF01F5801130BD01F0004545F0FE4194
:1003500041F470014FF0000030BD7FEA645C1ABFC9
:10036000194610467FEA655C1CBF0B46024650EA00
:10037000013406BF52EA033591EA030F41F400212C
:1003800030BD00BF90F0000F04BF0021704730B5B2
:100390004FF4806404F132044FF000054FF0000187
:1003A00050E700BF90F0000F04BF0021704730B548
:1003B0004FF4806404F1320410F0004548BF40421D
:1003C0004FF000013EE700BF42004FEAE2014FEA72
:1003D00031014FEA02701FBF12F07F4393F07F4F4D
:1003E00081F06051704732F07F4208BF704793F050
:1003F0007F4F04BF41F40021704730B54FF4607463
:1004000001F0004521F000411CE700BF50EA010265
:1004100008BF704730B54FF000050AE050EA01020E
:1004200008BF704730B511F0004502D5404261EB7E
:1004300041014FF4806404F132045FEA915C3FF4BF
:10044000D8AE4FF003025FEADC0C18BF03325FEA5C
:10045000DC0C18BF033202EBDC02C2F1200300FA0D
:1004600003FC20FA02F001FA03FE40EA0E0021FA32
:1004700002F11444BDE600BF70B54FF0FF0C4CF420
:10048000E06C1CEA11541DBF1CEA135594EA0C0FD2
:1004900095EA0C0F00F0DEF82C4481EA030621EA0D
:1004A0004C5123EA4C5350EA013518BF52EA033548
:1004B00041F4801143F4801338D0A0FB02CE4FF0FA
:1004C0000005E1FB02E506F00042E0FB03E54FF02A
:1004D0000006E1FB03569CF0000F18BF4EF0010E22
:1004E000A4F1FF04B6F5007F64F5407404D25FEA1E
:1004F0004E0E6D4146EB060642EAC62141EA5551D1
:100500004FEAC52040EA5E504FEACE2EB4F1FD0C12
:1005100088BFBCF5E06F1ED8BEF1004F08BF5FEA90
:10052000500E50F1000041EB045170BD06F0004642
:1005300046EA010140EA020081EA0301B4EB5C04EF
:10054000C2BFD4EB0C0541EA045170BD41F48011E7
:100550004FF0000E013C00F3AB8014F1360FDEBF0C
:10056000002001F0004170BDC4F10004203C35DAE8
:100570000C341BDC04F11404C4F1200500FA05F36B
:1005800020FA04F001FA05F240EA020001F000420C
:1005900021F0004110EBD37021FA04F642EB060182
:1005A0005EEA430E08BF20EAD37070BDC4F10C04AC
:1005B000C4F1200500FA04F320FA05F001FA04F270
:1005C00040EA020001F0004110EBD37041F100015C
:1005D0005EEA430E08BF20EAD37070BDC4F1200567
:1005E00000FA05F24EEA020E20FA04F301FA05F2CF
:1005F00043EA020321FA04F001F0004121FA04F277
:1006000020EA020000EBD3705EEA430E08BF20EA46
:10061000D37070BD94F0000F0FD101F00046400080
:1006200041EB010111F4801F08BF013CF7D041EA02
:10063000060195F0000F18BF704703F00046520006
:1006400043EB030313F4801F08BF013DF7D043EAD7
:100650000603704794EA0C0F0CEA135518BF95EA8D
:100660000C0F0CD050EA410618BF52EA4306D1D114
:1006700081EA030101F000414FF0000070BD50EA33
:10068000410606BF1046194652EA430619D094EABD
:100690000C0F02D150EA013613D195EA0C0F05D1A7
:1006A00052EA03361CBF104619460AD181EA0301FB
:1006B00001F0004141F0FE4141F470014FF00000B3
:1006C00070BD41F0FE4141F4780170BD70B54FF04E
:1006D000FF0C4CF4E06C1CEA11541DBF1CEA1355CE
:1006E00094EA0C0F95EA0C0F00F0A7F8A4EB0504B0
:1006F00081EA030E52EA03354FEA013100F08880A7
:100700004FEA03334FF0805545EA131343EA12636F
:100710004FEA022245EA111545EA10654FEA002624
:100720000EF000419D4208BF964244F1FD0404F5DD
:10073000407402D25B084FEA3202B61A65EB030539
:100740005B084FEA32024FF480104FF4002CB6EBF6
:10075000020E75EB030E22BFB61A754640EA0C0076
:100760005B084FEA3202B6EB020E75EB030E22BFB6
:10077000B61A754640EA5C005B084FEA3202B6EBF7
:10078000020E75EB030E22BFB61A754640EA9C00B6
:100790005B084FEA3202B6EB020E75EB030E22BF86
:1007A000B61A754640EADC0055EA060E18D04FEA44
:1007B000051545EA16754FEA06164FEAC30343EAE4
:1007C00052734FEAC2025FEA1C1CC0D111F4801FB1
:1007D0000BD141EA00014FF000004FF0004CB6E7AA
:1007E00011F4801F04BF01430020B4F1FD0C88BF49
:1007F000BCF5E06F3FF6AFAEB5EB030C04BFB6EB54
:10080000020C5FEA500C50F1000041EB045170BD46
:100810000EF0004E4EEA113114EB5C04C2BFD4EB73
:100820000C0541EA045170BD41F480114FF0000EF7
:10083000013C90E645EA060E8DE60CEA135594EA73
:100840000C0F08BF95EA0C0F3FF43BAF94EA0C0F76
:100850000AD150EA01347FF434AF95EA0C0F7FF4EB
:1008600025AF104619462CE795EA0C0F06D152EA3F
:1008700003353FF4FDAE1046194622E750EA410623
:1008800018BF52EA43067FF4C5AE50EA41047FF434
:100890000DAF52EA43057FF4EBAE12E74FF0FF3C99
:1008A00006E000BF4FF0010C02E000BF4FF0010C6A
:1008B0004DF804CD4FEA410C7FEA6C5C4FEA430CE3
:1008C00018BF7FEA6C5C1BD001B050EA410C0CBF32
:1008D00052EA430C91EA030F02BF90EA020F002094
:1008E000704710F1000F91EA030F58BF994208BFFB
:1008F00090422CBFD8176FEAE37040F001007047B8
:100900004FEA410C7FEA6C5C02D150EA013C07D10E
:100910004FEA430C7FEA6C5CD6D152EA033CD3D059
:100920005DF8040B704700BF8446104662468C4653
:100930001946634600E000BF01B5FFF7B7FF002886
:1009400048BF10F1000F01BD4DF808EDFFF7F4FFAF
:100950000CBF012000205DF808FB00BF4DF808ED3A
:10096000FFF7EAFF34BF012000205DF808FB00BF5D
:100970004DF808EDFFF7E0FF94BF012000205DF87F
:1009800008FB00BF4DF808EDFFF7CEFF94BF012034
:1009900000205DF808FB00BF4DF808EDFFF7C4FF2D
:1009A00034BF012000205DF808FB00BF4FEA410280
:1009B00012F5001215D211D56FF47873B3EB6252B1
:1009C00012D94FEAC12343F0004343EA505311F0D8
:1009D000004F23FA02F018BF404270474FF000006A
:1009E000704750EA013005D111F0004008BF6FF0A8
:1009F000004070474FF00000704700BF4A0011D21E
:100A000012F5001211D20DD56FF47873B3EB625268
:100A10000ED44FEAC12343F0004343EA505323FA74
:100A200002F070474FF00000704750EA013002D1E9
:100A30004FF0FF3070474FF00000704753B94AB98C
:100A4000002908BF00281CBF4FF0FF314FF0FF30D6
:100A500000F06EB9ADF1080C6DE904CE00F006F8B7
:100A6000DDF804E0DDE9022304B070472DE9F0472A
:100A7000089D0E4604468C46002B40F081808A4239
:100A8000174645D9B2FA82F24AB1C2F1200106FAFC
:100A900002F320FA01F1974041EA030C94404FEA37
:100AA000174E230CBCFBFEF6B9B20EFB16CC43EA84
:100AB0000C4306FB01F0984209D9FB1806F1FF3CF4
:100AC00080F01581984240F21281023E3B441B1A8D
:100AD000A4B2B3FBFEF00EFB103344EA034400FB68
:100AE00001F1A14209D93C1900F1FF3380F00181E5
:100AF000A14240F2FE8002383C44641A40EA0640BB
:100B000000211DB1D4400023C5E90043BDE8F087B2
:100B100002B9FFDEB2FA82F2002A4FD1CB1B4FEAB4
:100B2000174E1FFA87F80121B3FBFEFC260C0EFBC3
:100B30001C3346EA034608FB0CF3B34207D9BE193F
:100B40000CF1FF3002D2B34200F2EB808446F61A79
:100B5000A3B2B6FBFEF00EFB106643EA064408FBA8
:100B600000F8A04507D93C1900F1FF3302D2A04597
:100B700000F2D2801846A4EB080440EA0C40C0E71B
:100B80008B4208D9002D00F0AF800021C5E9000696
:100B90000846BDE8F087B3FA83F1002949D1B34292
:100BA00002D3824200F2BB80841A66EB0303012069
:100BB0009C46002DAAD0C5E9004CA7E7C2F120034E
:100BC0009740D8409140DE404FEA174E08434FEA25
:100BD000104CB6FBFEF11FFA87F80EFB11664CEACB
:100BE000064601FB08F3B34204FA02F409D9BE1920
:100BF00001F1FF3C80F08E80B34240F28B800239DD
:100C00003E44F31A86B2B3FBFEF00EFB103346EA05
:100C1000034600FB08F3B34207D9BE1900F1FF3CBD
:100C200074D2B34272D902383E44F31A40EA014109
:100C30007AE7C1F1200703FA01F422FA07F31C4313
:100C400020FA07F906FA01F34FEA144CFE4049EA8C
:100C500003094FEA1943B6FBFCFE1FFA84F80CFBAC
:100C60001E6643EA06460EFB08FAB24502FA01F296
:100C700000FA01F308D9A6190EF1FF3048D2B245A7
:100C800046D9AEF1020E2644A6EB0A061FFA89F9F0
:100C9000B6FBFCF00CFB106649EA064600FB08F8C0
:100CA000B04507D9A61900F1FF3C2DD2B0452BD98C
:100CB0000238264440EA0E40A6EB0806A0FB028953
:100CC0004E45C446CE4618D315D075B3B3EB0C02CF
:100CD00066EB0E0606FA07F722FA01F3CE401F4331
:100CE000C5E90076002111E7294628460EE7664649
:100CF000EDE6184601E74345E7D2B8EB020C69EB95
:100D000004040138A646E0E76046D3E760468CE776
:100D10008646B9E7614674E702383C442BE708464B
:100D200047E7ACF1020C3E4411E72946EEE600BF6E
:100D3000704700BF10F8012B11F8013B012A28BFB2
:100D40009A42F7D0D01A7047034613F8012B002AB5
:100D5000FBD1181A0138704770B5464DD5F82431CB
:100D6000996811F0010188B021D103AA40F603402F
:100D700006F0A6FA0446002878D1039B9B681B78EE
:100D800093B9BFF35B8F2B4653F8982FBFF35B8F5C
:100D900002F00502BFF35B8F53E8001F43E8002019
:100DA0000028F9D1BFF35B8F039819F0C9FB03AAA0
:100DB000002141F2030006F083FA0446002855D1D1
:100DC000039A2D4E936853F8010F596803C61046D5
:100DD00019F0B6FB214603AA41F2010006F070FAB1
:100DE0000446002842D1039883685A7885F8342055
:100DF000D9789A7842EA0122EA861A7985F835206C
:100E0000197ADA7942EA01222A875A799B7942EAE9
:100E100003236B8719F094FB214603AA41F20200D9
:100E200006F04EFA044608BB039B9A68531C4132F5
:100E300018685968344603C4083393422646F7D1EC
:100E40000E481FF0C9FE039819F07AFB95F8403060
:100E50005A061BD40A4B0B490B48C91AC908890109
:100E600041F001011EF0D6F86FF01204204608B0E0
:100E700070BD00BF000000203C00002044000020A6
:100E8000203E0200F83E0200BD67020003AA0021D6
:100E900042F2030006F014FA04460028E6D1039A51
:100EA000BF4E936853F8010F596803C6104619F0F6
:100EB00047FB214603AA42F2020006F001FA04466B
:100EC0000028D3D1039B9B68B3F80120A5F8CC2060
:100ED00091B229B1DA78114606F1280022F065FBBB
:100EE000039819F02DFB95F8406016F0200600F0ED
:100EF000EB8095F860301B0711D503AA002142F260
:100F00001C0006F0DDF904460028AFD10398836881
:100F100053F8012F5B68C5E92A2319F011FB95F8F6
:100F2000A0309E0624D502A90DF1060006F040FA75
:100F3000044600289AD1042142F2240006F05CF80D
:100F40000646002800F0C7800421083021F0DFFDAC
:100F5000BDF806300380BDF8083043802246314694
:100F600042F2240006F0ACF9044600287FF47EAF7C
:100F700095F8A0305C0610D503AA002142F22A00A1
:100F800006F09EF9044600287FF470AF039883684A
:100F90005B7885F8E83019F0D3FA082142F20100B5
:100FA00006F02AF80446002800F09580082108443D
:100FB00021F0ADFD95F8A01011F0400F024640F26F
:100FC000022308BF032388074CBF43F02C0043F0E3
:100FD0000C008B0695F8A13048BF40F0400013F09C
:100FE000090F95F8663018BF40F4006003F006035F
:100FF000CE0748BF40F01000062B08BF40F4C07079
:1010000000211FF098FE2146002242F2010006F066
:1010100057F9044600287FF429AF95F84030980628
:101020001ED4B5F8CC10D9B903AA41F2050006F0D8
:1010300047F9044600287FF419AFB5F8CC3063B9FE
:10104000039B9B685A78997842EA0122A5F8CC2044
:101050009A885448114622F0A8FA039819F070FAB9
:10106000082140F6014005F0C7FF044698B3082167
:10107000084421F04CFD95F8A030D90702463FD531
:1010800045A1D1E900011FF056FE2146002240F69D
:10109000014006F015F9044600287FF4E7AE01464A
:1010A00002AA4FF6014006F00BF93F4C3F4BE41A01
:1010B000E408A40140B33E4844F002011DF0AAFF39
:1010C00007F050F90446D1E6022140F66D4005F0E4
:1010D00093FF044610B96FF06804C7E60221083098
:1010E00021F015FD0123037046702146324640F67B
:1010F0006D4006F0E5F8044600283FF4FAAEB5E688
:101100002C484FF00051BEE7029B2B489D68B5F874
:101110000120032A96BF2949294951F8221044F099
:1011200003031DF098FFB5F80110B5F8032002295C
:1011300044F003032ED1032A2CD8224951F822105F
:1011400021481DF088FF6A792048032A96BF20496C
:101150001B4951F82210CDE90312AA790592B5F87E
:1011600007200692D5F80920079244F003030522D0
:1011700003A91DF0A5FF029819F0E2F902AA0021C7
:101180004FF6024006F09CF8054628B3114844F09B
:10119000020193E70A49D3E790880002008000200B
:1011A000A0000020D0000020F83E0200203E0200F7
:1011B000E16702001088000205680200E8440200AE
:1011C000B3640200A84402001E68020036680200F0
:1011D00020450200636802000298104E8368B3F84D
:1011E0000130A6F8853019F0ABF996F885305B0729
:1011F0007FF566AF02AA29464FF6034006F060F875
:1012000018B1074844F0020158E7029883685B78F8
:1012100086F8843019F094F952E700BF00000020EE
:101220008C680200000000002DE9F041D0E90BC7F6
:10123000D0F828800CEB07043034A0450E46154644
:1012400018D81B4F18A3D3E90023ACFB0701FFF705
:10125000F5FBA4EB080420F07F40306012A3D3E933
:101260000023A4FB0701FFF7E9FB20F07F40286083
:10127000BDE8F0810E4C0CA3D3E90023A8FB0401C8
:10128000FFF7DCFB20F07F4307F130003360A0FB69
:10129000040105A3D3E90023FFF7D0FB20F07F4032
:1012A0002860BDE8F08100BF8D49FD1A07000000ED
:1012B00000CA9A3B000000002DE9F04FA84C94F8BA
:1012C0004A608FB006F00106002800F05381B6BBDB
:1012D00094F8352094F8293094F8250004EB820224
:1012E00004EB830300F00300FF21D2F83880D3F829
:1012F0002C9084F8261015F003FE94F84A0042075B
:1013000000F11381B9F1000F11D09548494610F052
:10131000A1FC99F800305B0605D506210BF0C8FE4C
:10132000002800F040828E48414610F093FC99F866
:10133000003013F00E0F40F0CE80236A23B10C264C
:1013400030460FB0BDE8F08F0FF068FD82460028F0
:1013500000F046820FF06EFD8346002800F05982AF
:1013600011F0DEF90546002800F050824FF6FF73B9
:10137000406F2B8505F11C030B93002800F02C8295
:1013800005F1680205F164010BF09EFEB5F86020DE
:10139000744895F83910744B95F83A7195F83CC03B
:1013A000C5F844A1024095F87A0001F03F0161F0D0
:1013B0007F0120F01F0085F8391085F87A004FF082
:1013C0001B116A4842F48872C5E9161342F0010203
:1013D00027F003070021C5E94A012CF0070CA5F806
:1013E000602085F83A710622002700200021C5E917
:1013F0004C0185F83CC0A5F8C020C5E91277EF85FF
:101400002F6385F83B702F65A5F8C470A5F8C870E8
:10141000C5F80871A5F80C71A5F82071A5F8387108
:1014200085F843716F67A5F87870A5F8647195F831
:10143000661195F886C195F8AE01B5F8D820A5F8E3
:10144000847167F3041C21F0070102F0F80267F3CE
:10145000C30085F886C185F86611A5F8D820C5F8BF
:10146000E070A5F8E47085F8E670A5F8AC71A5F811
:10147000B87185F8AE0111F08DFCA5F8D20011F01D
:101480008FFCD5F8BC113A4AA5F8D4000A40C5F83B
:10149000BC2111F08BFC95F8C02160F3020285F8A5
:1014A000C02111F089FC95F8C0210B9B236260F3E9
:1014B000C502C4E910ABC5E97377C5E97177C5E921
:1014C0000577C5F8D47185F8C021ED6116F06CFE82
:1014D000002840F06A8194F824300121C3F34203CC
:1014E0000DA88DF834300BF067FF90B399F80030F9
:1014F00003F00F03022B00F1FF3200F0A780012B55
:1015000000F0578198F801001030C000002B40F027
:10151000428199F801301033DB0003F54D71084426
:1015200003F59A7303FB02009BE0C0F3C000324650
:1015300004F14B0115F054FEFF2884F826003FF417
:10154000E1AE304615F0F6FCB9F1000F7FF4DDAEE8
:10155000EDE6236A002B3FF4F2AE10F01BF9EEE645
:101560006820002080F8FFFF480148017F4101000A
:101570000000FFF6002E3FF4E2AE236A5BB193F861
:10158000202042F0020283F82020236A93F82030C2
:10159000D8073FF5D4AEA8480FF0F6FC84420CD033
:1015A000A64AA749A74840F2DF731DF059F9404009
:1015B00080F311884FF0030002DF94F82430D9073C
:1015C0000DAD0ED502220D9203219F4B00950122F5
:1015D00000200DF001F929460FF0AEFC002840F084
:1015E0001D8102220321984B009500200D920DF0E1
:1015F000F3F829460FF0A0FC002840F0F380934850
:101600000FF0FEFC002840F0D9808B480FF0C8FC9A
:1016100084420CD0894A8A498A4840F601031DF069
:101620001FF9404080F311884FF0030002DF236A66
:101630000BB110F0AFF894F84A3000266FF30003B6
:10164000304684F84A300FB0BDE8F08F99F8013089
:101650001033DB0000FB03F000F5AA70642303FBEA
:1016600002007B4AE46131230025A0FB02012360D4
:10167000C4E905556EA3D3E90023C4E90155FFF77A
:10168000DDF9B4F84880E0600DF0ECF80746B8F1F9
:10169000000F08D199F8005005F00F05A5F10105DC
:1016A000B5FA85F56D0994F82420E36865F3000226
:1016B00012F0010584F824203DD0DFF88C916549B3
:1016C0000493002002250DF1300801930591CDE926
:1016D00007980321CDE9020006942A4600903B4674
:1016E0000C950CF0F1FF41460FF026FC00287FF42A
:1016F00030AF594905914AF2D8320092CDE90798A6
:10170000CDE90300CDE9010006943B460122032107
:101710000C950CF0D9FF41460FF00EFC00287FF429
:1017200018AF94F84A30304643F0010384F84A3049
:101730000FB0BDE8F08F4948494ADFF80CE1DFF807
:1017400014C10694A8FB00014FF0910909FB081190
:1017500003F24718C2F800804FF00209049309927F
:101760000DF1300832A3D3E900234FF6FF7ACDE91B
:1017700007E80295CDF83090CDF814C0CDF80CA054
:10178000FFF75CF94A46CDE900503B462846032165
:101790000CF044FFBFE7062B3FF4BBAE4FF4DA7307
:1017A0004FF41B70BEE61226CAE50FF0F3FF0326C6
:1017B000C6E54FF4F2734FF47F70B3E61F4A294930
:1017C000204840F2FE731DF04BF8404080F3118832
:1017D0004FF0030002DF18E705F16C006867CFE502
:1017E0000726ADE514480FF0DBFB84423FF4A7ADBC
:1017F0004FF4FF63114A124912481DF031F840407E
:1018000080F311884FF0030002DF98E558460FF08F
:1018100017FB50460FF008FB072691E506480FF02E
:10182000BFFB84423FF48BAD40F2EA73E2E700BFB6
:101830008D49FD1A0700000068200020484C020076
:10184000384D02001448020061FE00008420002090
:1018500000CA9A3B05140100AD160100002AE78476
:10186000BC200020A84B02002DE9F04FC84D2B688A
:101870008BB004460F469146002B00F01482668E12
:10188000E28D94F80E3116443E4413F00703B6B2CD
:1018900040F0A781B4F8E880A6EB08021FFA82FAAC
:1018A000120400F15E8294F93920002AC0F23D81D1
:1018B00094F8E43084F8E53094F8842194F8853184
:1018C00094F80C1184F80D11934206D094F88631E7
:1018D00003F00703052B00F04F822B68A34204BFDF
:1018E00000232B60D4F80851002D00F06B8128688C
:1018F000002800F06781B4F81031B4F82AC04268BB
:10190000C4F808216345B4F81221B4F8141100F0AA
:101910002081B4F828C0A5F806C04FF0160E4FF08D
:10192000000CEB832A84698485F804E085F81CC0E8
:1019300029460FF08BFA0FF093FA2368002BC0F2C0
:10194000FC80608DB4F8105110FB0AF080B2B0FB3F
:10195000F5F315FB03F292B290421FFA83FBC0F03D
:10196000D38005FB130340F2E2428A489BB202FB9C
:1019700003F3A3FB000184A3D3E90023FFF75EF880
:10198000A9EB0009E18D94F93930A8EB06065E4415
:101990000F44374440F2E248002BE78508FB05F589
:1019A000C0F283817C4A7D497D484FF426631CF058
:1019B00057FF404080F311884FF0030002DF0027FB
:1019C000AA46B4F81421B4F81201764B7649A085E2
:1019D00042F2107C0CFB02522B442944B3FBF5F37A
:1019E00000F1060C013AB2FBF5F2B1FBF5F599B244
:1019F000A4F8C2206145B4F81021A4F8CE10A4F8D0
:101A0000C650628502DD091A063989B294F80E3192
:101A1000A4F8CA101B0744BF0023A4F8C430022155
:101A2000012018F00FFB00220221054601200BF0D7
:101A300099FB5E494FF4F07220460BF025FB00F154
:101A400003085FFA88F85A4B0094424601210020AF
:101A50000CF0C2FE30F002030CD04F4A55495048FA
:101A600040F68F231CF0FCFE404080F311884FF0BD
:101A7000030002DF474BAAFB03AB504642A3D3E966
:101A800000235946FEF7DAFF4B4AE368049320F03F
:101A90007F46A6FB0223072000FB0633BAEB0200B9
:101AA0006BEB0301DFF814E1DFF814C1089406942E
:101AB0004FF47A7200234FF6FE74CDF81CE0CDF897
:101AC00014C00394FEF7BAFF4B46CDE901600097BE
:101AD0004246012100200CF0F7FD30F002030CD04B
:101AE0002D4A34492E4840F6A9231CF0B9FE404047
:101AF00080F311884FF0030002DF002D40F03681A3
:101B000000200BB0BDE8F08F121A40F2E2432148EA
:101B100003FB02F2A2FB00011BA3D3E90023FEF7A3
:101B20008DFF20F07F4081442CE794F8D920002AD3
:101B30003FF4BEAE84F8D930BEE6D4E9010223F00A
:101B4000004382422CBF914481442360A9EB0309E6
:101B5000F7E6B4F82CC094457FF4DBAE40F2E24CDB
:101B60000CFB03FB42F2107CB4F8C2E00CFB01BC9E
:101B70000CF1FF3CBCFBFBFC1FFA8CFCE6457FF440
:101B8000C8AE01232B71D3E68D49FD1A0700000072
:101B9000DC20002000CA9A3B544D02008448020019
:101BA000144802007FC3C901FF596202E0100020FF
:101BB00029200100344E02008D49FD1AD11F010079
:101BC00031680100804A8149814840F6E4131CF0E5
:101BD00047FE404080F311884FF0030002DF286881
:101BE00089E601200FF042F90746002800F0CA807C
:101BF00078480BF015FA0546002800F0C3800FF076
:101C000053F93A682B79D4F80811516043F0030373
:101C10000C22C4F808716A712B71A38DD4F81821B5
:101C20006D4F94F80E1100201E44E871A7FB02329C
:101C3000C2F38F2294F81C312B72D4F8C431A5F86A
:101C40000920B4F81021A5F80B200636B4F81221AB
:101C5000A5F80D20B6B2B4F81421A5F80F2060F352
:101C60000201A4F8E86084F80E11A5F81160002BB9
:101C700069D094F86621900765D494F8BF21D10704
:101C800061D4D4F8D0219342D4F8C82100F08580E3
:101C9000002A5BD11A7902F00302032A00F089803E
:101CA000C4F8C83154E02860E9E5A26C236C4B4FBE
:101CB00003FB1A23A36416F0C9FA064694F8D80069
:101CC000C0F3C20016F0C4FA064405FB06F6444B06
:101CD000A26C94F81C1106F5742606F23F26A3FBAD
:101CE0000636B60C06FB0BF06B080244963B9A4294
:101CF00028BF1A4608FB01FC4FF0000EC4E9113260
:101D0000A0FB07012EA3D3E90023C4F850C0C4F8F8
:101D1000E0E02664FEF792FE2F4B8446D4F81801CB
:101D2000A3FB0030800A08FB00F0A0FB070124A3FE
:101D3000D3E90023A9EB0C09FEF780FEA5EB060A08
:101D400020F07F473DE6D4F8C82102B3D4F8CC3167
:101D50001A682A601D602B68C4F8CC510BB9C4F80E
:101D6000D4516FF076000BB0BDE8F08F0122104621
:101D700002210BF0F7F9C3E6002384F88521A4F8CB
:101D8000C830AAE56FF068000BB0BDE8F08F2B609B
:101D9000C4E97155C4F8CC51E0E71968C4F8D01112
:101DA000002AD3D11A682A601D602B68C4E97255D5
:101DB000D4E7DA79032AF5D00A2A7FF471AFF1E784
:101DC0008D49FD1A07000000544D0200204E02000C
:101DD00014480200602100205917B7D100CA9A3B6D
:101DE00083DE1B43000000002DE9F04F0F4616462E
:101DF00081460A7F57F81E0F96F812A0BC88D3F8C8
:101E0000008095B00D463168ADF84C40C2F38012A9
:101E1000BAF1FF0FD1F800B012901C468DF83F20A8
:101E200048D112AB93E803001090ADF844102A4655
:101E30002B4632F82E1F9278A2722181D5F82A20E3
:101E4000626053F83A2FA26104F118001B79037104
:101E500005210BF0B1FA95F83F20637F00F03F00B9
:101E600060F30503C2F304016377A177AF8EE781C6
:101E70000128BFB202F01F0305D91B3303F01F0373
:101E80000B2B00D817BB94F8203001276FF3000309
:101E900084F820302F717468484629460EF0D6FF2A
:101EA0002068277121460EF0D1FF0EF0D9FF15B042
:101EB000BDE8F08F10AA0DF13F01504614F052FF1B
:101EC0009DF83F3002338DF83F30B0E7336898F823
:101ED000D8100020586095F8363095F83700520930
:101EE00043EA002362F3C501238240F2E2426B8E93
:101EF00088F8D81002FB07F70B9316F0A7F90346F2
:101F000098F8D8000A93C0F3C20016F0A1F90A9B12
:101F1000DFF8D8E295F831C0AB49034407FB03F37F
:101F200003F5742303F23F23AEFB03234FEA570E5E
:101F300040F2E24202FB0CF29B0CAEF1960EA26361
:101F4000C4F828E063622B8F208ADFF8A4C242F233
:101F5000107202FB0372394400F1060E013AB1FB24
:101F6000F7F1B2FBF7F2A8F8C2208AB27245BC447E
:101F7000A8F8CE20BCFBF7FCA8F8C6C002DD121AF8
:101F8000063A92B2A8F8CA206268C8F8DC202A7F14
:101F90000C934FF48071A983C2F340139BF8260081
:101FA0008DF834300A9315F00FFC0C9B05F12B02D1
:101FB000002800F0E080294651F8240FC5F82B00D6
:101FC00089889180BAF1FF0F00F0D980BDF84C20CC
:101FD0001298A5F82920C5F825009DF83F10109803
:101FE000BDF84420A977C5F81F00A5F8232098F86C
:101FF000D820E089218AA986C2F3C202EB866886CE
:1020000085F83820404610F097FB2946A081E880EB
:10201000756848460EF01AFFA389EB8019232B71CF
:102020000A9BD5F80090002B40F0B7809DF8343023
:102030002B77294648460EF009FF0EF011FF94F861
:102040004500012100F0070015F05CFF5F4A002504
:102050008146312300F25240A0FB0201C8F8003053
:10206000C8E9015556A3D3E90023FEF7E7FCF3685E
:102070000B99646A40F2E24202FB013320F07F4098
:1020800003F286332A460221C8F80C000120A3EB94
:1020900009090BF067F858460FF016FD821C4C4BEF
:1020A000CDF800B0D2B2284601210CF095FB0128F2
:1020B000A7EB04047CD09BF82430DB0765D44046B2
:1020C00010F03AFBDFF804B1A4FB0B453CA3D3E9C5
:1020D0000023074629462046FEF7B0FC3D4ACDF8CE
:1020E000188020F07F4AAAFB0223072101FB0A3354
:1020F00040F2A111B6680891374907913749059117
:10210000A01A65EB0301D8F80C30049300244FF4B7
:102110007A7200230394FEF791FC29A3D3E90023EC
:102120000546A9FB0B01CDE901A5FEF787FC0337A6
:1021300020F07F40FFB2313E334600903A462046C1
:1021400001210CF0C1FA30F002030CD0244A2549D9
:1021500025484FF4D1731CF083FB404080F3118875
:102160004FF0030002DF0122104602210AF0FAFFBD
:1021700015B0BDE8F08FC5F82B00908022E7002154
:10218000C5F82510A5F8291027E7002301220093A0
:10219000184611460CF020FB91E7637F43F04003A3
:1021A0006377201D14F066FC0123E0832B7740E762
:1021B0000EF002FF83453FF47EAF14F015FB7AE783
:1021C0008D49FD1A070000007FC3C90100CA9A3B70
:1021D000156801008D49FD1AB967010031680100D9
:1021E0007C4F0200344E02001448020083DE1B4381
:1021F000FF59620200000000114B10B5C3F8E40063
:10220000FEF7C0F80CA3D3E90023FEF75FFAFEF750
:10221000F5FB0446C0F30741062020F008FEC4F396
:102220000721072020F003FEE1B20820BDE810409E
:1022300020F0FDBDAFF300800000000080844E4020
:10224000EC2900200000000070B5092020F0FAFD04
:102250000546062020F0F6FD0646072020F0F2FD98
:102260000402082020F0EEFD44EA06442043FEF775
:1022700089F81BA3D3E90023FEF7FEF8FEF7BEFBA7
:1022800000210446092020F0D2FD3B2020F0DAFD99
:1022900040F04001C9B23B2020F0C9FD3B2020F0B6
:1022A000D1FD8206FAD41048FFF7A6FF3B2020F0AC
:1022B000C9FD40F04001C9B23B2020F0B8FD3B20F1
:1022C00020F0C0FD8306FAD42946092020F0AFFD96
:1022D0002046BDE87040FFF78FBF00BFAFF300801E
:1022E0000000000080844E4000A1BC3300000000CC
:1022F0002DE9F84F884620B1012855D00020BDE8CF
:10230000F88F714C2720B4F8FC5020F09BFD01356C
:1023100020F0F8002844FEF745F894F8FE3000223B
:10232000002B3CD1694BFDF7F1FE064630200F46ED
:1023300020F088FD30F0F90314BF644B0023002225
:1023400030463946FDF7E2FE064640460F46FEF7A8
:1023500029F802460B4630463946FDF7D7FE94F879
:1023600000310022EBB90023FDF7D0FE584B0022CC
:10237000FEF782F80646D4F8F8000F46FEF702F89A
:1023800002460B4630463946FEF7A0F9514B002273
:10239000FEF772F81CF008F9FEF730FBAFE70023F8
:1023A000C1E74FF08043DFE7474AD2F82031073BCF
:1023B000022B92467FD8484A02EBC303D3E900457B
:1023C000DAF824B1012000FA0BF0FDF7EBFF02462A
:1023D0000B4620462946FEF779F902460B460020B7
:1023E0003A49FEF773F90446BAF82A010D46FDF79B
:1023F000D9FF3A4B0022FDF789FE22462B46FEF715
:102400003BF89AF82C219AF82E310F464FEA8B01AF
:10241000C1F11C01002A01EB031303EBC8030646BC
:1024200014BF14200020181AFDF7ACFF9AF82831C9
:10243000002B804614BF02200020ABEB0000800080
:102440008946FDF79FFF02460B4640464946FEF788
:102450003DF900F061FB80469AF829018946043075
:10246000FDF7A0FF42464B46FEF706F80022002388
:1024700080468946FEF790FA18B94FF000084FF0F1
:102480000009134B002240464946FDF73FFE224615
:102490002B46FDF7F1FF32463B46FDF737FE0D4B6D
:1024A0000022FDF7E9FF06A3D3E90023FDF72EFE86
:1024B00000F01AFC70E70024002581E7AFF30080EC
:1024C0002B8716D9CEF7EF3FEC2900200000F03F14
:1024D0000000204000408F40D84002000000114022
:1024E0002DE9F04F89B09946129B0493BDF8503006
:1024F00001939DF86430029383469DF86C300593F8
:102500000C4690469DF860109DF868200692BDF834
:102510004C609DF854509DF858709DF85CA0079150
:1025200019F00AFADDE90532BBF1000F07D0BBF163
:10253000010F079900F0898009B0BDE8F08FDFF83E
:102540009CB20499CBF8F8808BF801218BF802310A
:102550004046CBF8F040CBF8F4108BF8FE508BF8E7
:10256000FF708BF800A1ABF8FC60FDF70BFF804615
:1025700002460B46894600209549FEF7A7F8954B81
:102580000022FDF779FFCDE902010198FDF70AFF6E
:1025900002460B46DDE90201FDF76EFF8E4B00227D
:1025A000FDF76AFFFEF72AFA42464B46CBF80801D0
:1025B00085A1D1E90001FEF789F8FEF71FFAC0F303
:1025C00007211FFA80F8022020F031FC5FFA88F121
:1025D000032020F02CFC204618F0C4FF01461220F6
:1025E00020F025FC049818F0BDFF0146132020F0D0
:1025F0001EFC310A252020F01AFCF1B2262020F022
:1026000016FC05B33946322020F011FC302020F0B2
:1026100019FC002D00F06F0141EA0A1114BF0020DF
:102620006FF07F000143C9B2302020F000FC312060
:1026300020F008FC40F04001C9B2312009B0BDE8EB
:10264000F04F20F0F4BBFF21DDE7022C00D9FEE7BC
:1026500004F1070B614C84F82F11029984F83011B2
:102660004146062938BF06210C2984F831210A4643
:1026700028BF0C22BBF1070FC4E948B884F82991A0
:10268000A4F82A6184F82C5184F82D7184F82EA1C5
:1026900084F8323178D1A2F10B03012B8CBF0023D7
:1026A00001231D20049284F8283120F0CBFB45EA59
:1026B000490141EA0B11C9B21D2020F0B8FB1E20D0
:1026C00020F0C0FB019B049AC3F3012141EA8A0177
:1026D00041EA021100F008000143C9B21E2020F0B7
:1026E000A6FB262020F0AEFB94F8283120F008014C
:1026F00041EAC301C9B2262020F099FB9DF80410DD
:102700001F2020F094FB310A202020F090FBF1B232
:10271000212020F08CFB1DB13946222020F087FBC0
:1027200094F82F316BB1442020F08CFB60F07F01D6
:10273000C9B2442020F07BFB94F83011242020F013
:1027400076FBBBF1090F2ED1D4F8E420244B9A423A
:102750004FF002014FF0360021D920F068FB6421D0
:102760003A2020F064FBB8F1060F4FF031001DD87D
:1027700020F068FB00F0F80141F00501312020F065
:1027800056FB0C21372059E7BBF1080F05D1B8F1F2
:102790000B0F94BF0023012383E7002381E720F080
:1027A00046FB7F21DCE703213620DAE720F04AFBF5
:1027B00000F0F80141F00301312020F038FB0A213C
:1027C000E0E700BFAFF300800000000080847E419E
:1027D0000000F03F0000204000408F40EC29002026
:1027E00040DD4A1F000000002DE9F04F87B01D4674
:1027F0009DF85830029389469DF85C3018990493EF
:1028000092469DF85420059203910190109F9DF8E7
:1028100044B0BDF848809DF84C609DF8504019F0D8
:102820008BF8484618F034FE019ADDE903132AB10B
:10283000012A059A64D007B0BDE8F08F7E4A504661
:10284000C2E93BA582F8004182F8E890C2F8F8702E
:10285000A2F8FC8082F8FE6082F80131C2F804110F
:10286000FDF790FD70A3D3E90023FDF72FFFFEF7DE
:10287000C5F885B2C0F30721042020F0D8FAE9B2E8
:10288000052020F0D4FA3846FDF77CFD02460B46C1
:1028900067A1D1E90001FDF719FFFEF7AFF8C0F31A
:1028A000072185B2022020F0C2FAE9B2032020F00D
:1028B000BEFA4FEA1821252020F0B9FA5FFA88F114
:1028C000262020F0B4FA302020F0BCFA002E00F0D0
:1028D0006F0014BF00216FF07F0140EA0414214310
:1028E000C9B2302020F0A3FA312020F0ABFA40F03A
:1028F0004001C9B2312007B0BDE8F04F20F097BACF
:102900004D48022D80F81C91814600D9FEE7062F24
:10291000BA4638BF4FF0060A0735BAF10C0FC0E9C6
:10292000485780F829B1A0F82A8180F82C6180F8F6
:102930002F2128BF4FF00C0A029889F83001072D8B
:1029400089F82E4189F83131C9F8341157D1AAF1EB
:102950000B03012B8CBF0023012389F828316AB1B6
:10296000442020F06FFA60F07F01C9B2442020F0CB
:102970005EFA99F83011242020F059FA46EA4B0605
:102980001D2046EA051520F05DFAE9B21D2020F071
:102990004EFA1E2020F056FAA40000F00B0044EA84
:1029A0000A1A4AEA000A5FFA8AF11E2020F03FFA6A
:1029B000262020F047FA99F8283120F0080141EA52
:1029C000C301C9B2262020F032FA4FEA1821202094
:1029D00020F02DFA21205FFA88F120F028FA062F46
:1029E0004FF0310014D820F02DFA00F0F80141F03A
:1029F0000501312020F01BFA0C2137207BE7082D40
:102A000004D10B2F94BF00230123A6E70023A4E7E2
:102A100020F018FA00F0F80141F00301312020F015
:102A200006FA0A21E9E700BF0000000080844E405A
:102A30000000000080847E41EC290020000000009E
:102A400070B5314B93F8E01001291C4602D00229E1
:102A50004CD070BD93F8E120CAB1012AF9D193F8A6
:102A60002F31002BF5D00221122020F0E0F9274B66
:102A70001B68002BEDD05C69002CEAD01C2020F0F4
:102A8000E1F9234600F03F00BDE8704018479B6E17
:102A90000BB984F80C11B4F80C51012DD9D11C4894
:102AA00019F07AFB112084F80D5120F0CBF9400881
:102AB000404284F80E011B2020F0C4F905461C207A
:102AC00020F0C0F940EA0520FDF76CFC0CA3D3E927
:102AD0000023FDF7D1FCFDF769FFC4F810010C20BD
:102AE00020F0B0F9400984F81401B2E793F8E1202E
:102AF000012AAED193F82F31002BAAD0B4E700BF42
:102B00000000000080844E40EC290020B8290020FD
:102B1000BC2900200000000080B58CB000AFC7E9E0
:102B20000001D7E90023C7E904237B69FB623B6905
:102B3000BB62FB6A1B15C3F30A03A3F2FF337B627C
:102B40007B6A132B61DC7B6A002B28DA62A1D1E956
:102B50000001D7E90023FDF7D9FA02460B461046DB
:102B600019464FF000024FF00003FDF715FF034632
:102B7000002B00F0A080FB6A002B05DA4FF0004329
:102B8000FB620023BB6296E0FA6ABB6A1343002B28
:102B900000F09180524BFB620023BB628BE0514AF4
:102BA0007B6A42FA03F33B62FA6A3B6A1A40BB6AE9
:102BB0001343002B02D1D7E9002386E046A1D1E9D7
:102BC0000001D7E90023FDF7A1FA02460B461046A3
:102BD00019464FF000024FF00003FDF7DDFE0346FB
:102BE000002B68D0FB6A002B07DD4FF480127B6A54
:102BF00042FA03F3FA6A1344FB623B6ADA43FB6A64
:102C00001340FB620023BB6255E07B6A332B0FDD70
:102C10007B6AB3F5806F08D1D7E9000102460B4605
:102C2000FDF774FA02460B464FE0D7E900234CE06B
:102C30007B6A143B4FF0FF3222FA03F33B62BA6A1D
:102C40003B6A1340002B02D1D7E900233DE022A1CB
:102C5000D1E90001D7E90023FDF758FA02460B46F7
:102C6000104619464FF000024FF00003FDF794FEA6
:102C70000346002B1FD0FB6A002B17DD7B6A142B49
:102C800003D1FB6A0133FB6210E07B6AC3F13403BA
:102C900001229A40BB6A1344FB61BB6AFA699A42FB
:102CA00002D2FB6A0133FB62FB69BB623B6ADA4317
:102CB000BB6A1340BB62FB6AFB60BB6ABB60D7E9BF
:102CC0000223C7E90023D7E900231046194630370D
:102CD000BD4680BDAFF300809C7500883CE4377E24
:102CE0000000F03FFFFF0F0080B58CB000AFC7E9D8
:102CF0000001D7E90023C7E904237B69FB623B6934
:102D0000BB62FB6A1B15C3F30A03A3F2FF337B62AA
:102D10007B6A132B62DC7B6A002B29DA62A1D1E982
:102D20000001D7E90023FDF7F1F902460B461046F2
:102D300019464FF000024FF00003FDF72DFE034649
:102D4000002B00F0A180FB6A002B04DB0023BB6298
:102D5000BB6AFB6298E0FB6A23F00042BB6A134344
:102D6000002B00F09180524BFB620023BB628BE092
:102D7000504A7B6A42FA03F33B62FA6A3B6A1A40A2
:102D8000BB6A1343002B02D1D7E9002386E046A19A
:102D9000D1E90001D7E90023FDF7B8F902460B4657
:102DA000104619464FF000024FF00003FDF7F4FD06
:102DB0000346002B68D0FB6A002B07DA4FF4801221
:102DC0007B6A42FA03F3FA6A1344FB623B6ADA4312
:102DD000FB6A1340FB620023BB6255E07B6A332B26
:102DE0000FDD7B6AB3F5806F08D1D7E90001024699
:102DF0000B46FDF78BF902460B464FE0D7E900235F
:102E00004CE07B6A143B4FF0FF3222FA03F33B6243
:102E1000BA6A3B6A1340002B02D1D7E900233DE098
:102E200021A1D1E90001D7E90023FDF76FF902469E
:102E30000B46104619464FF000024FF00003FDF715
:102E4000ABFD0346002B1FD0FB6A002B17DA7B6A11
:102E5000142B03D1FB6A0133FB6210E07B6AC3F1E0
:102E6000340301229A40BB6A1344FB61BB6AFA69CE
:102E70009A4202D2FB6A0133FB62FB69BB623B6A86
:102E8000DA43BB6A1340BB62FB6AFB60BB6ABB6090
:102E9000D7E90223C7E90023D7E9002310461946E2
:102EA0003037BD4680BD00BF9C7500883CE4377E4E
:102EB0000000F0BFFFFF0F0001481BF0D1BC00BFB6
:102EC0006858020011B103481BF0CABC02481BF04D
:102ED000C7BC00BF86580200A658020030B593B0A8
:102EE0001EF0CBFA0378044607AD032B24D8DFE8A5
:102EF00003F0021D1F211349284620F03AFEA37952
:102F0000059562780492A2780392E278029222797F
:102F10000192627900921E210B4A0AA81BF0ADFCB7
:102F20000A480AA91BF09CFC13B030BD0849E3E72E
:102F30000849E1E70849DFE7084A0A2128461BF06B
:102F40009CFCDCE7B1580200D3580200F65802009E
:102F5000B8580200BF580200C9580200C6760200E5
:102F60002DE9F04700208EB004F0F0FD064630B1A8
:102F700001464F481BF074FC0EB0BDE8F0874D4D84
:102F80004D481BF06DFC0FCD09AC0FC42B682360BE
:102F90004A4900963346022209A805F04DFC014635
:102FA000F8B147481BF05CFC464805F041FF464835
:102FB00006F076FB002110220AA8099120F0D1FD2D
:102FC0004248434C19F02EFF424BE41AE4080546F0
:102FD000A40150B93D49404844F001021CF027F8D3
:102FE000CAE73E481BF03CFCDEE73D4B06934FF43E
:102FF0002063ADF81C3001238DF81E30394B089347
:10300000836806A91B689847002824DBDFF8E49052
:10301000DFF8E4804FF0FF364FF0FF374FF0FF311D
:103020004FF0FF301AF0C8FC48461BF019FCAB68A3
:103030000DF11302CDE9006703920DF11602029221
:103040009B68142209A928469847002809DA2648CF
:1030500044F0010102E0254844F001011BF0DAFFD1
:103060008AE740461BF0FCFB9DF816305B42DBB262
:10307000ADF816308DF8143000219DF813308DF81E
:10308000153005A801F08AFB012109A801F086FB93
:1030900009A800F031FE44F0030A01469DF91330FF
:1030A000BDF916201248ADF800A01BF0EDFFB5E702
:1030B0000D590200F03F02002D590200F0400200BD
:1030C000445902005C010020380100208C590200A4
:1030D000403F0200203E0200935902006A5902005C
:1030E000A027BE3308000500E2590200A7590200DC
:1030F0001E5A0200BA590200F6590200014B18602C
:10310000704700BF7801002030B585B0CDE90101DE
:103110000446002501A90548039500F055F9DDE9AD
:1031200002309842B8BF255405B030BD3BE80100DD
:103130002DE9F84FB0F8189019F0080804469346A6
:103140000DD001290CBF49F0100949F02009A0F861
:1031500018908BF31188BFF36F8FBDE8F88F09F0DB
:103160000709022907D120461BF094FB0028F0D064
:103170000128238B50D16769218B002F15DA256830
:1031800021F00701C4E9008841F0010121830026F4
:10319000218B01F0070ACA4502D0A368002B5CD13D
:1031A0000DB9002E74D0002358E001F007035A1F18
:1031B000012A20D821F00701062B256889B2C4E92D
:1031C00000880CD1002D2B4638BF00232BB1628B19
:1031D0001B6801326283002BF8D141F00201218388
:1031E00020461BF057FB06460028D1D0238B43F026
:1031F00020032383CBE7042B0CD121F0070189B2F4
:10320000218320461BF046FB05460028BFD041F035
:10321000200121830025BAE7032809D1226923F080
:103220000703166843F00603238300252F46AFE704
:10323000042806D1226923F00703566843F00403EB
:10324000F2E7052806D1226923F00703966843F0C8
:103250000503E9E700252E46E8E7012341F00801D0
:1032600021838BF31188BFF36F8F03BB002D33D104
:1032700016B121492046B0474FF02003EFF3118BE0
:1032800083F31188BFF36F8F238B23F0080323830D
:10329000238BDA0628D523F0100323830121B4F809
:1032A000189009F0070900297FF45BAF51E7A16886
:1032B0000029DBD00B68D1F804B0002B38BF002305
:1032C000994652463B462046D847B9F1000FCDD02B
:1032D000D9F800304946EEE729463B46524620469B
:1032E0002D681BF0F3FAC1E713F020011EBF23F095
:1032F000200323830221D2E7F9E80100F0B5094E4B
:10330000016802460A2700200C46013123789D5DA2
:103310006D0701D41460F0BD07FB0033A3F130004A
:10332000F2E700BF1C7C02002DE9F74F14469946D6
:10333000D378244A13F802A06F2B0AF00302064642
:103340000F4601922DD028D8582B14BF0A251025DE
:10335000DDF83080AA464FF0000B52465B463046FF
:103360003946FDF76BFB092AD3B21FD830335F45CE
:10337000DBB208BF564508F8013D01D3C84512D855
:1033800023789B0605D5082D16D1A37843F00803B2
:10339000A370404603B0BDE8F08F03F0F703702B35
:1033A000D3E70825D4E706460F46D6E7019A012A57
:1033B0000CBF37335733DAE7102DEAD1A37843F047
:1033C0001003E5E71C7C02002DE9F04F824693B024
:1033D0008B4691461C46002599F8000008B92846FE
:1033E0003AE309F101032528029306D05946D04754
:1033F0000028C0F231830135F1E1182200210CA828
:1034000020F0AFFB99F80130252B59D0029A1646CF
:1034100012F8013B2B2B00F08B8079D8202B00F089
:103420008C80232B00F08E809DF8383003F044020E
:10343000442A03D16FF386138DF838309DF8383065
:10344000059643F080038DF8383033782A2B7ED1EF
:103450009DF8393043F001038DF83930731C059322
:103460001A782E2A9DF839200CBF0121002161F322
:1034700041028DF839200BD15A1C05925A782A2A1C
:103480007BD19DF8392042F004028DF839200233B7
:10349000194611F8010B6C2800F0B6807DD8682819
:1034A00000F084806A2800F0B9804C2800F0BD80CC
:1034B0009DF839206FF3C6028DF83920194680E057
:1034C00009F1020202928DF83B309DF83930D9079C
:1034D00040F1498154F8048BB8F1000F07DA9DF8E8
:1034E000382042F004028DF83820C8F100085A074D
:1034F00040F1428154F8047B002F80F241819DF815
:1035000039306FF341038DF839304FF0FF3737E131
:103510002D2B06D0302B87D19DF8383043F0400357
:1035200003E09DF8383043F004038DF838306EE73F
:103530009DF8383043F00803F7E79DF8383043F042
:103540001003F2E79DF8383043F02003EDE705A8BB
:10355000FFF7D4FE059BB34281D09DF838100F9041
:10356000C1F3400242EAD072520062F07F0201F0E1
:103570007D010A438DF8382071E705A8FFF7BEFEEC
:103580009DF838301090C3F3400242EAD07060F3E7
:1035900041038DF83830059B7AE774289DF839206F
:1035A00040D07A2884D11346062228E05A78682A27
:1035B0009DF8392021D1012161F3C6028DF839200F
:1035C000991C0B4613F8012B0293782A9DF8393089
:1035D0008DF83B2000F2BF80572A33D8412A03D010
:1035E000453A022A00F2B7809DF83A30042262F38D
:1035F00002038DF83A30012384E01346022262F37D
:10360000C6038DF83930DCE75A786C2A9DF83920EA
:1036100001D10421D0E713460322F0E79DF83930A9
:103620000522ECE713460722E9E7BDF8383023F41A
:10363000F04323F0020343F4804343F00203ADF868
:103640003830BEE7A2F15801202900F2848001A0A1
:1036500050F821F0193700005737000057370000A5
:103660005737000057370000573700005737000022
:103670005737000057370000E93500005737000082
:1036800019370000D9360000E9350000E93500009F
:10369000E935000057370000D936000057370000E1
:1036A0005737000057370000573700002137000018
:1036B000193700003D37000057370000573700002A
:1036C0003D3700005737000019370000573700001A
:1036D00057370000193700009DF83A10012003F019
:1036E000780360F30201402B8DF83A1002BF9DF879
:1036F000381041F001018DF83810632A31D1003BB8
:1037000018BF01239DF83820C2F340010B4363F337
:1037100041028DF83820D8E69DF83A100220DEE705
:103720009DF83A2003F07803A3F14000032161F3F0
:10373000020243428DF83A204341E3E79DF83A20E4
:10374000032113F0780F61F302028DF83A2014BFC1
:1037500001230023D6E79DF8383043F001038DF8AC
:1037600038300023CEE79DF93820002AB4BFDDF8B9
:103770003C804FF0FF38BAE69F077FF5C6AE109F3A
:103780009DF839100023CDE90F339DF83A3003F04E
:103790000703012BC1F3C30137D1CB1E042B21D862
:1037A000DFE803F003070720200054F8042BD317A9
:1037B00004E0073424F00704F4E80223CDE90C23E5
:1037C0009DF8383013F0030655D0029B4A465946FF
:1037D00050461BF0E5FB0028C0F23E810544DDF8B1
:1037E0000890F9E554F8042B01294FEAE273CDE97A
:1037F0000C2305D19DF830300C9300230D93DFE7A7
:103800000229DDD1BDF93020D1E7022B23D1CB1E17
:10381000042B13D8DFE803F0030A0A12120022680F
:103820000C920023201D0D930446C9E7073424F0B1
:103830000700F0E80223CDE90C23F5E754F8043B38
:103840000C9301294FF000030D93D3D00229B7D177
:10385000BDF83030D0E7042B07D1073424F007043B
:10386000F4E80223CDE90C23AAE7032B04BF54F8A4
:10387000043B0C93A4E79DF83B007828AFD862285E
:1038800020D825283FF4B2AD5828A8D10DF12E0339
:103890000093DDE90C0106AB0EAAFFF745FD81465A
:1038A000002F0DF12E000BDB9DF83820A0EB090353
:1038B0006FF386129F428DF8382001D9FF1A0F97B7
:1038C00007463CE06338152889D801A252F820F059
:1038D0004F390000B1390000DF370000DF3700004A
:1038E000DF370000DF370000B1390000DF370000AC
:1038F000DF370000DF370000DF3700000F3A00003D
:10390000DD390000E1390000DF370000DF3700005B
:1039100029390000DF370000DD390000DF37000003
:10392000DF370000DD390000002FDDF830900ADBC2
:103930003946484620F038F909EB00070026B9F16E
:10394000000F0CD14BE74846FDF7FEF9F4E70C9B5E
:103950008DF8183000260DF119070DF11809A7EBA5
:10396000090306B101339DF83A20D00669D5023328
:1039700052060F9948BF109A0B4448BF9B18B8F1E4
:10398000000F76DD9DF83820A8EB0308C2F3800312
:10399000039353076DD4500661D53EB15946304666
:1039A000D047002858DB039B01351E46302357E0E3
:1039B0001E0711D413F0100618BF2026DDE90C23D2
:1039C000002A73F10001BFF661AF524263EB43037B
:1039D000CDE90C232D2659E72B26EFE7002655E7E6
:1039E0000C9848B30DF12E0300930EAA06AB0021EC
:1039F000FFF79AFCBDF83A3003F0EF0343F4F043CD
:103A000043F010038146ADF83A30002648E70C9B9E
:103A100007293FF6E4AEDFE801F00D04060D0808C3
:103A20000D0D1D70DBE61D80D9E62846E917C3E9B8
:103A30000001D4E61D60D2E62E4F0646A7F1050927
:103A40008DE7110748BF013392E7184659460393A3
:103A5000D0470028039B04DA13B0BDE8F08F202381
:103A600045444246002AA5EB080108F1FF38ECDC8A
:103A70000D462EB159463046D0470028ECDB0135C3
:103A80009DF83A30D90601D41A0705D55946302099
:103A9000D0470028E0DB01359DF83A30DB0606D53B
:103AA0009DF83B005946D0470028D5DB01350F9ED5
:103AB0002E44731B002B15DC3B464A4659465046A4
:103AC0001BF06EFA0028C7DB0544A844A8EB0503E9
:103AD000002B7FF784AE59462020D0470028BBDB5F
:103AE0000135F3E759463020D0470028B4DB0135D3
:103AF000DFE700BF5A5A020030B51049104889B0BC
:103B000000221FF0A3FE0F4D0F4900220023CDE934
:103B1000062300240E23CDE90334CDE901440B4BE9
:103B200000944FF4407228461AF07CF80849284661
:103B30001FF055FD204609B030BD00BF553B0000C9
:103B4000380A0020700A002030330020BD3F0000FA
:103B50005B5A0200014819F0CBBF00BFD00800201B
:103B6000F0B505460F4E002003460246012715F822
:103B7000014B0CB18B4200D3F0BD252C02D182F059
:103B80000102F4E7002AF2D014F806C01CF0030F7B
:103B9000EDD0732C04BF07FA03F210430133002267
:103BA000E5E700BF1C7C020008B500F069FA09488F
:103BB0001BF00DFA08234822074908481FF0F5FAC0
:103BC000074B084A1A604FF40040BDE8084000F077
:103BD000A1BC00BFAC14002020550020B41400206C
:103BE0007C0100200DF00100F8B50F4BBFF35B8F97
:103BF000002553E8007F43E80052002AF9D1BFF3C3
:103C00005B8F0A4C0A4E361B3611B54200DBF8BDFD
:103C100063685B792BB12368DB6813B139462046B2
:103C2000984701351034F0E7A4140020903F0200BB
:103C3000A03F0200064BBFF35B8F53E8002F013219
:103C400043E800210029F8D1BFF35B8F704700BF24
:103C5000A4140020044A054B9B1AB1EBD30F34BFC8
:103C600052F8310000207047203E0200903F0200D1
:103C7000094B4268C31A1B11013310B51371436815
:103C8000064C196001225A71227812B9044819F0C1
:103C90002FFF0123237010BD903F0200A62C0020AF
:103CA000D008002070B5114BBFF35B8F53E8005F65
:103CB0006A1C43E800210029F8D1BFF35B8F2DB9BE
:103CC0000B4C0C4E361B3611B54200DB70BD237B0E
:103CD0004BB123685B690BB1204698470422002151
:103CE0002046FFF7C5FF01351034EDE7A81400208A
:103CF000903F0200A03F0200174B984273B5044664
:103D000002D3164B984221D315480022002301A963
:103D100019F01EFA0546E0B90122019BBFF35B8F43
:103D200053E8001F43E800200028F9D1BFF35B8F60
:103D3000019E331D4122184621461FF022FF7E229C
:103D4000034686F8452086F846501C46204602B0B9
:103D500070BD044BF9E700BFCC3B02001C7D0200A4
:103D6000B4140020635A020050B1064B984206D3A7
:103D700003F5107398422CBF0020012070470020EB
:103D8000704700BF205500202DE9F04F4C4B1B78A9
:103D900085B0044603B960B34FF02003EFF31186FA
:103DA00083F31188BFF36F8F46481BF020F9054657
:103DB00086F31188BFF36F8F78B1BFF35B8F424BEF
:103DC00053E8002F013A43E800210029F8D1BFF35E
:103DD0005B8F94B128461BF01BFA24B93B4B1B6840
:103DE0000BB1FFF701FF37481BF0FFF8041E18BFA7
:103DF0000124204605B0BDE8F08F354B1B78CBB9C8
:103E00002B7ADB0716D41BF016FA804628461BF0E7
:103E1000DDF901464046FFF7A3FE2E4F2E4BDFF89B
:103E2000D4B0DB1BDB0803932C4BDB1B06464FEAAD
:103E3000D30A36B92A4E2B4FBF1B3F114FF0000853
:103E40003AE0B6FA86F1C1F11F09494628461BF04F
:103E5000C0F9254B9842014602D3244B98421AD30D
:103E60000846FFF781FF0246A8B9214B994212D0BC
:103E70006B8903989909B0EB931F4FEA8A1343F0BB
:103E8000010388BF57F83120ADF80030494643465A
:103E900058461BF0F9F8012101FA09F126EA01065A
:103EA000C7E773685B7923B1336829461B683046DE
:103EB000984708F101081036B845F2DB8AE700BFE1
:103EC000A62C0020AC140020A0140020A414002074
:103ED000A72C0020203E0200903F0200383F020045
:103EE000903F0200A03F0200CC3B02001C7D02007C
:103EF000635A02007D5A0200294B37B51B68418185
:103F000004469847E0604FF02003EFF3118583F3F8
:103F10001188BFF36F8F234821461BF05CF885F3AF
:103F20001188BFF36F8FBFF35B8F1F4B53E8002FD8
:103F3000013243E800210029F8D1BFF35B8F1B4A0F
:103F4000127882B14FF02003EFF3118483F31188CC
:103F5000BFF36F8F0020FFF717FF84F31188BFF3C3
:103F60006F8F03B030BD124A1B681268002AF8D068
:103F7000012B0AD100220023CDE900230D484FF484
:103F8000004200231AF00CFAEBE70A2BE9D10948AA
:103F90001FF068FC084803B0BDE8304019F0A8BD28
:103FA0007C010020AC140020A0140020A72C0020CD
:103FB000D0140020380A0020D008002010B5FFF7E8
:103FC00071FE19F01BFD0C4B186030B10B4B1B68D8
:103FD000092B02DD0A4819F08BFD094C0020FFF780
:103FE000D3FE0028FAD14FF0FF324FF0FF332046C6
:103FF00019F0A4FDF2E700BFD0140020A0140020A7
:10400000D0080020F8B50E4F3D7875B90D4C0E4E16
:10401000FFF748FE361B3611B54207DB0020FFF7DD
:10402000B3FE0028FAD101233B70F8BD63685B79C9
:104030001BB1236820461B69984701351034EBE714
:10404000A72C0020903F0200A03F020007B50438D3
:104050000190BFF35B8F50E8003F5A1E40E80021FB
:104060000029F8D1BFF35B8F012B03D1034801A9CD
:1040700019F0A0F803B05DF804FB00BFB4140020F1
:104080002023024902481A461FF08FB860570020CB
:10409000D414002037B50023094D01930120FFF708
:1040A00073FE0446FFF7C6FD0022002301A928463F
:1040B00019F04EF808B1002CF0D1019803B030BDD2
:1040C000D414002007B500230193074800220023E1
:1040D00001A919F03DF810B1FFF7DCFF019001983C
:1040E00003B05DF804FB00BFD4140020F0B5037AE0
:1040F000457A85B02D090190D8071CD4DDB1002484
:104100002646019831461BF064F80746FFF72CFE5F
:1041100070B134B9019B29461869FFF721FD0446A7
:1041200048B124FA06F3D90702D53846FFF78EFFC7
:104130000136AE42E5D3019B1A7A920704D55B693A
:10414000084C0393039B2BB9064801A919F032F8D8
:1041500005B0F0BD1D6803A9204619F02BF80395A2
:10416000F0E700BFD41400200EB403B503AB014642
:1041700053F8042B04480193FFF726F902B05DF8C9
:1041800004EB03B0704700BF83F601002DE9F04F48
:1041900085B011F0020490469DF8387006461A4624
:1041A00001F0010901F0080507D011F0440F37D1E3
:1041B0003249FFF7D9FF01460C46B9F1000F0AD08A
:1041C0002F4B304953F827202F4B3046002A08BF89
:1041D0001A46FFF7C9FF3DB12C4B2D4953F8272054
:1041E0003046FFF7C1FF0546B8F1000F43D0012369
:1041F00003FA07F7274B17F0100F274F18BF1F467A
:10420000BDF840109DF83C00FFF724FD39460246FA
:104210003046FFF7A9FF2844204405B0BDE8F08FE1
:104220001E4B19680029C7D01D4B4FF4616E1B68E7
:10423000B2FBF3F34FF47A7CB3FBF1F4B4FBFEF280
:104240000EFB124E01FB14340CFB04F44FF03C0A3D
:10425000B4FBF1FB01FB1B440CFB04F4BEFBFAF3C3
:10426000B4FBF1F1CDE901B10AFB13E100910D4975
:10427000FFF77AFF9FE7084FC2E700BFCE5A020060
:10428000004102003A6A0200C05A020014410200D2
:10429000F35A0200CA5A0200C55A0200F014002064
:1042A000F4140020D75A020038B50C46E107054641
:1042B00003D5084A0849FFF757FFE20608D4A306CA
:1042C00028464CBF05490649BDE83840FFF74CBFBA
:1042D00038BD00BFC05A02003A6A0200FA5A020012
:1042E000F95A02002DE9F0471D46089B1746DA06E9
:1042F00004460E4605D499064CBF2B492B49FFF7BF
:1043000033FFDFF8B0904FF00008A8452DDBDFF851
:10431000A880DFF8A890DFF89CA00025BD4232D22B
:10432000725D49462046FFF71FFF0135102D23D14E
:104330001F49DFF88080DFF88890DFF888A02046EA
:10434000FFF712FF0025AF4229D9725D12F809303C
:1043500013F0970F08BF2E2251462046FFF704FFA7
:104360000135102D14D1BDE8F08749462046FFF7EE
:10437000FBFE08F10108C8E76A07CFD15146204685
:10438000FFF7F2FECAE741462046FFF7EDFECCE715
:104390006B07D8D141462046FFF7E6FED3E74146FA
:1043A0002046FFF7E1FEDBE7FA5A0200F95A020065
:1043B000065B0200045B0200025B0200FC5A020082
:1043C0001C7C0200085B02002DE9F0478B7A13F099
:1043D000070817468AB00A7A05460E4620D0498952
:1043E000C3F3C2038909D243CDE900830291F36884
:1043F00002F001023946FFF7C9FE8146347AE443F0
:1044000014F001040ED0294630461AF0D0FFB8F15E
:10441000000F2BD0424639462846FFF745FF25E0DE
:10442000C146EBE7B8F1000F26D12746EB680693AB
:1044300006AA3B46A96830461AF0A5FF069A6B68A3
:104440001A603AB1AB68134413F8014CA4F10A03A3
:104450005C425C4128461BF007F9069B1F44002B79
:10446000E4D11CB113492846FFF77EFE28461BF015
:10447000FBF80AB0BDE8F08730461AF0DCFE0E49C2
:1044800002462846FFF770FE4FF0100A05AA2346A1
:1044900006A93046CDF814A01AF075FF059A002A37
:1044A000B8D04B46009706A92846FFF71BFF059B8F
:1044B0001C44EBE70B5B02003A6A020073B542F260
:1044C0000F738B4228BF0B4605680F4A044605212F
:1044D00068461AF0D2F963680C495B6806460B22FD
:1044E00028461AF057FF63683246694628465B68DB
:1044F0001AF050FF636806495B681B2228461AF0D1
:1045000049FF02B070BD00BFA8790200495B0200FC
:104510002D5B0200084A10B50123084C13600021EE
:10452000A04204D801B11360054B186010BD4008CB
:104530005B000121F4E700BFF414002040420F00AB
:10454000F0140020014B01221A707047B82C002093
:10455000024B034801221A701BF086B8B92C0020C8
:10456000404102000148FFF7A9BF00BF40410200DF
:1045700010B508460C461AF01CFE054821460F22CD
:10458000FFF722FF2046BDE810401AF041BE00BFF1
:1045900040410200054B1B781BB141F288301FF0EF
:1045A0001AB8A420002119F007BA00BFB92C0020C6
:1045B0002DE9F84FDFF89090DFF890B007460E46EF
:1045C0000424CA4699F8003033B94FF0FF324FF057
:1045D000FF33584618F018FE32463946002000F0E6
:1045E00019FF9AF80030804613B9584618F084FE37
:1045F000144DB8F1000F18D001232B709AF8003039
:1046000033B93046BDE8F88F5CB92C704FF0FF34F9
:10461000002000F07FFF0028F3D02B78002BF3D18F
:10462000EFE7013CFFF7B6FFF2E72B7813B1013C4F
:1046300004D12C702B78002BC4D1E2E7FFF7AAFF3E
:10464000F8E700BFB82C0020B92C0020A4080020F7
:10465000074B084A0848D21AD208084B9201012990
:1046600014BF0146194642F0030205481AF0DFBCA8
:10467000203E0200483F02008F5B0200875B020081
:10468000985B020030B587B005460C461822002121
:1046900068461FF066FA054BADF80C4069460020ED
:1046A000CDE9013506F092FD07B030BDC8410200EA
:1046B000836801491B6818470C150020F0B52E4E81
:1046C00004460F460FCE89B06D460FC596E80F0021
:1046D00085E80F002378294D294808AA02EB8303B7
:1046E000052253F8203C2B6021781AF0B9F8617844
:1046F0002348297105221AF0B3F8A378214807331B
:104700006B71A17805221AF0ABF808232B81E378AE
:104710001B480133AB71E17805221AF0A1F8237927
:1047200017480533AB72217905221AF099F8EF7218
:10473000154818F077FB044650B9144A144B124937
:104740001448D21AD208920142F001021AF06FFC0A
:104750002046FFF7ADFF00280CDA0D4B0B490E4841
:10476000C91AC908890141F0010109B0BDE8F0404A
:104770001AF050BC09B0F0BD044002000C15002036
:10478000AE5B0200D05B02008C590200483F020081
:10479000203E020093590200F15B020010B504466E
:1047A00086B091B914481AF05BF81448FF230370DF
:1047B00023784370637883700321FFF763FF10F160
:1047C000800F08BF002006B010BD01290ED10C4893
:1047D0001AF046F801AA631E1046133413F8011F9D
:1047E00002F8011BA342F9D11421E6E70548FE2394
:1047F00003700121E1E700BF045C0200BB2C002034
:104800000E5C0200BA2C00202DE9F04F9846A5B0AE
:1048100007336946DB08A1EBC30304AF9D4604AC34
:10482000002319B288454DDC217828481AF018F881
:10483000617827481AF014F8264818F0F3FA264B46
:104840002649C91ACB08BB62054630B99A012149ED
:10485000234842F001021AF0EAFB0021102207F17E
:104860003C00B9631F4E1FF07CF91F4819F0F8FF98
:1048700001232846F372FFF71BFF002806DABB6A04
:104880001A48990141F001011AF0C4FB2178184837
:1048900019F0E6FF61780E4819F0E2FFAB68424676
:1048A0005B68214628469847002825DABB6A1148EC
:1048B000990141F001011AF0ADFB00208437BD469B
:1048C000BDE8F08FD05C60540133AAE7165C0200AB
:1048D000245C02008C590200203E0200483F020086
:1048E000935902000C150020315C0200F15B0200BC
:1048F0003D5C02004C5C020021789E4819F0B0FF3C
:1049000061789D4819F0ACFF00232846F372FFF749
:10491000CFFE002806DABB6A9848990141F00101F0
:104920001AF078FB4FF480300021AB6807F13502B4
:10493000CDE90001039207F1360202929B6814222E
:1049400007F1380128469847217880468C4819F0AD
:1049500087FF6178884819F083FF2178894819F02A
:104960007FFF6178844819F07BFF002213B2434532
:10497000C0F2F5802178844819F072FF61787E4892
:1049800019F06EFF07F134001FF0CBF81FFA80F921
:1049900049467E4819F064FF21787D4819F060FF90
:1049A0004FF000086178744819F05AFF1022414610
:1049B00007F15000C7F84C801FF0D3F8DFF8FCC1B6
:1049C00086F80B80BCE80F0007F160060FC69CE874
:1049D0000F0086E80F004FF47A7000FB09F94A4691
:1049E000D317C7E904230123C7F82480FB61237987
:1049F0007A6A1341DE0740F1AB8007F16003654836
:104A000053F82210644B196019F02AFF4FF0000987
:104A1000637943FA09F3D8075FFA89F240F192808B
:104A20005D4B5E481A71494619F01AFF00233B623C
:104A3000A3793A6A1341D9077ED5574B5848D11DFF
:104A4000597119F00DFF0026E3793341DA076FD56C
:104A5000DFF844815348711C88F8061019F000FFF4
:104A60000023FB62C7F80880237AFA6A1341DB0748
:104A700059D51346BA684C4805339372FB6A591CE2
:104A800019F0EEFE2846FFF713FE002806DABB6A8F
:104A90003A48990141F001011AF0BCFA1EF0ABFE50
:104AA0004FF47A7A0A46A0FB0A010AFB02114FEA88
:104AB000D038CB0B3D48BB6148EA4148217819F01A
:104AC000CFFE61782C4819F0CBFE2278617812FB7A
:104AD00001F20AFB02F39A464FEAE37BFB692BB132
:104AE0003B691AEB030A7B694BEB030B304819F067
:104AF000B7FE304852465B4619F0B2FEBAF1010FDC
:104B00007BF100035CDA00214FF4203018F054FFF1
:104B1000294819F0A5FE4FF0FF304FF0FF3118F093
:104B20004BFF0023FB61FB6A0133082BFB629BD127
:104B30000136F6B2032E87D93B6A0133062B3B625E
:104B40007FF476AF09F10109B9F1030F7FF460AF8B
:104B50007B6A0133082B7B627FF449AFADE6082BFB
:104B6000C1BF07F18001C918E35C01F8553C01326F
:104B7000FCE600BF5D5C0200245C0200F15B020009
:104B80006C5C02007B5C02008A5C0200995C0200A3
:104B9000A45C0200B35C02000C150020C25C0200A1
:104BA000D15C0200E05C0200F15C0200175C0200D4
:104BB000FC5C0200295D0200B25D020004400200BC
:104BC0003C4819F04DFE1EF016FE78600E461EF0B1
:104BD00012FE4FF47A728C46A0FB020102FB0C110C
:104BE000C30B43EA4143FB61CB0BFB607B68A3FB38
:104BF000020102FB0611C30B43EA4143B8EB030871
:104C0000BB692D484FEAD13263EB02031AEB080A65
:104C10004BEB030B52465B4619F022FEBAF1000F34
:104C20007BF100015346B8BF00235A46B8BF1A466D
:104C3000D103D80340F2E736801941EA53414FF0DF
:104C4000000646EB01014FF47A720023FBF7F6FEF3
:104C5000AB6807F13502CDE90001039207F1360296
:104C600002929B68142207F14C01284698470121C3
:104C7000C6B207F13800FFF791FDBB6A07F14C009F
:104C80004FEA8318FFF738F848F00308ADF80080C2
:104C900097F93530B7F93620014608481AF0F4F98B
:104CA0000748314619F0DCFDFB68D7F81C80BB6172
:104CB00024E700BF4A5D0200865D02001E5A020022
:104CC000A65D0200F8B505464FF02003EFF311860C
:104CD00083F31188BFF36F8F0B4B1C68002C38BF18
:104CE00000245CB1094FD4E90132002D08BF1346FE
:104CF0000BB1387898472468002CF4D186F31188DA
:104D0000BFF36F8FF8BD00BF1815002020150020DD
:104D1000084B10B51C685CB901221A60064B93E879
:104D200003001BF0D8FE2046BDE81040FFF7CABFC5
:104D300010BD00BFCC0100202015002037B56D4606
:104D4000014628461AF0E4FC95E803000B4C84E881
:104D50000300207880B10A4B00221A6018F0A0FBF3
:104D60000120FFF7AFFF94E803001BF0A1FEFFF75F
:104D7000CFFF18F085FC207803B030BD201500204F
:104D8000CC01002010B5044C2046FEF7B7F92046B0
:104D900001F0E0F9002010BD9D4D00002DE9F34128
:104DA000DFF86080164E8DF80700044603254FF0AB
:104DB000FF334FF0FF32404618F026FA01220DF182
:104DC0000701002000F072FB0746404618F094FAF5
:104DD0002FB101233370204602B0BDE8F081337853
:104DE000002BF8D0013D08D01EF0EFFB0028DED1EB
:104DF0000021422018F0E0FDD9E73570EBE700BF55
:104E0000BE2C0020A408002070B504460D48231ACB
:104E10009A100D4B5343DBB20C255D4305F1400363
:104E20000E46184440211AF080FC011E04DB074B9B
:104E30002B445B689847002120463346BDE870400C
:104E4000184700BF3C150020B76DDBB66842020072
:104E50002DE9F0410F4C104D031B9B105D43EBB24D
:104E60000C255D43074605F140000E4620444021D5
:104E70001AF074FC011E08DB084B2C44C4E90E3602
:104E8000074B5B59BDE8F041184738463346BDE84B
:104E9000F04118473C150020B76DDBB6BFF70100A5
:104EA00068420200002270B501210446104600F05D
:104EB0004DFD002000F018FD0F4817F02FFD0F4B9F
:104EC000984215D11EF094F826690D49304619F024
:104ED00030FD00280BDB012535642469084904F105
:104EE0001C0019F026FD002801DBE564002070BDE0
:104EF0006FF00400FBE700BF394F00000000AD0B6E
:104F00008042020001460C2309484B4370B5C41887
:104F1000D4E90E5600224033A26318441AF03CFC38
:104F20002DB132462B460348BDE87040184770BD8E
:104F30003C1500205407002010B1012804D0704710
:104F4000034B1B6C5B0701D1FFF7DCBF704700BF51
:104F50003C15002008B54FF02003EFF3118183F3D7
:104F60001188BFF36F8F124A136843F0020013F0E9
:104F7000010310600CD04FF08042D2F80C34D2F80C
:104F80000C2413F0010303D00A481AF005FC012396
:104F900081F31188BFF36F8F23B1BDE80840002073
:104FA000FFF7B0BFBDE80840012017F0C7BC00BF45
:104FB0008C1500207C150020094BBFF35B8F53E854
:104FC000002F22F0020143E800100028F7D1BFF3C0
:104FD0005B8FD30702D4012017F0E2BC704700BFFB
:104FE0008C1500207FB500220123CDE9022304ABFC
:104FF000CDE90433094ACDF800D06B46CDF804D092
:105000001AF003FC002805DB4FF4804200236846B9
:1050100018F094FD07B05DF804FB00BFDDF7010058
:10502000024AC3B21C2003FB002070473C1500203D
:10503000094BBFF35B8F53E8002F42F0010143E8B7
:1050400000100028F7D1BFF35B8F930702D4012033
:1050500017F074BC704700BF8C150020094BBFF3DC
:105060005B8F53E8002F22F0010143E80010002875
:10507000F7D1BFF35B8F930702D4012017F090BCE8
:10508000704700BF8C1500202DE9F8433A49BFF363
:105090005B8F0646012251E8003F41E800200028CE
:1050A000F9D1BFF35B8F33B9344935484B60CB60DE
:1050B0008A6019F051FC731E012B32D8012E07D1E2
:1050C0004FF08043D3F81C3403F00303012B28D0A6
:1050D0001EF07BFA044618B92A4B1B78002B44D1EA
:1050E0004FF02003EFF3118583F31188BFF36F8F27
:1050F0000124254FDFF89480DFF894904FF0804230
:10510000D2F81834D2F81824D2030CD503F00303D4
:10511000012B01D0012E06D10CB385F31188BFF30A
:105120006F8FBDE8F883ACB1284600F07DFC4FF0EE
:105130008042D2F81835002BE0D139680029DDD043
:105140003B603B680123C2F81835C8F88031C9F8C4
:105150000030D3E70021212018F02EFCE7E74FF0C4
:1051600080430222C3F80423DBE74FF0804302228E
:10517000C3F808230546BCE7901500202C15002035
:10518000581500202E3300200401004000E100E00B
:1051900008000040044A1368C81A20F07F40034406
:1051A000136019F04FB800BFA41500202DE9F04797
:1051B000860006F1804600F1500406F58836A4000A
:1051C000DFF87C80D6F84035A4B204F180444FF477
:1051D000803721F07F4504F588348740C146D8F8F0
:1051E00004A5A3EB0A0323F07F432AF07F42012B9F
:1051F000C6F8402502D113201EF0EDF90AF1020293
:10520000AB1A23F07F43B3F5000F88BF1546002388
:1052100023602368C9F8447325F07F43C6F84035FE
:10522000D9F804359A4506D0EB1A023B23F07F43A8
:10523000B3F5000F01D8BDE8F0872B46CFE700BFDC
:1052400000100140F8B5104E104F0025104B002003
:105250001C681A4605B1F8BDD6F80413C903FAD57F
:1052600039680029F7D03D6039684FF48031C6F8BD
:105270004813D6F8401501251CB15A681860A0479C
:10528000E4E71460E7E700BF00100140401101406F
:105290009815002038B5104D00244FF48033C5F820
:1052A0000845C5F804330D4B4FF40032C3F8802194
:1052B00001212246112000F049FB112000F014FBCF
:1052C000074A01231360074A2B6002201360FFF78F
:1052D000DBFE204638BD00BF0010014000E100E0C9
:1052E00008100140A0150020134BB0F1FF3F08BF8C
:1052F0001846013800281CDD9842A8BF18460F4BFD
:10530000D3F804250E4B1968521A12F4000F22F03C
:105310007F4318BF00200B4A013303440A48106042
:1053200000205060044A934294BFC9188918FFF7BF
:105330003DBF0020E3E700BFFFFF7F0000100140FA
:10534000A415002098150020955100004FF0200270
:10535000EFF3118382F31188BFF36F8F064AD2F8FF
:105360000405064A1268801A20F07F4083F31188F2
:10537000BFF36F8F704700BF00100140A4150020DD
:105380004FF02003EFF3118283F31188BFF36F8F87
:105390000649074B0868D3F8043582F31188BFF338
:1053A0006F8F1B1A23F07F4318447047A415002009
:1053B0000010014010B5114C114AA2610323C4E949
:1053C0000433104BE36122664FF480630E4A0F49A9
:1053D0002362626600231022E01DA3626362E3621F
:1053E0002367E3666367A2661EF0C3FB0849204695
:1053F0001EF0BFFB2023A37110BD00BFA815002025
:10540000F95D0200CF2C0020BF2C0020025E0200BC
:10541000065E02002DE9F84F234F4FF0180B14469B
:105420000BFB00720646936A556AAB42884634D835
:10543000D2F820A0AAEB050909F1FF32944211D855
:105440004FF0180906FB09933B4422465868414631
:1054500028441EF078FB09FB06762C447462012078
:10546000BDE8F88F13449C421BD800FB0BBBBB4428
:105470004A46DBF804002C4428441EF064FBB4EBDD
:105480000A0406D0DBF80400224608EB09011EF0EE
:105490005AFB182000FB0676E0E7013B5B1BA342AA
:1054A000CED20020DCE700BFA8150020F8B5184CCC
:1054B000182300FB033503FB00402544C46A012C7C
:1054C0000F4616460FD0022C1AD0F4B928461AF00F
:1054D000B8F9864205D83246394628461AF0BFF94F
:1054E00034462046F8BD28461AF0ABF986423446C9
:1054F00028BF04462246394628461AF0B0F9F0E79C
:105500002846BDE8F8401AF0C6B90024E9E700BF14
:10551000A8150020034B182202FB00339A6A586A30
:10552000801A7047A8150020014B1868704700BF0B
:10553000D0010020F0B5082289B00C4606461AF0CA
:105540009EFBCB6A03930B6B04934B6B05938B6BA6
:105550000693CB6B0793002708236A466946684683
:10556000CDE9017700971AF08CFA082305466A46C0
:10557000314630461AF085FA236B0393636B04932C
:10558000A36B0593E36B0544CDE906376A46082310
:10559000694668461AF075FA3146054408236A469A
:1055A00030461AF06EFA236A0093636A0193A36A85
:1055B0000293A36B0693E36B0793054408236A46A3
:1055C0003046CDE9047703971AF05BFA636A0093DB
:1055D000A36AA26B0193E36A02930492636BE26B8A
:1055E0000393CDE90523236A0793054408236A46FC
:1055F00030461AF046FAE36A0093236B0193636B1B
:105600000293236A0693A36A0793054408236A4614
:105610003046CDE9047703971AF067FB236B0093BC
:10562000636B0193A36B0293E36B0393636A06932B
:10563000E36A07932D1A08236A463046CDE90477BA
:105640001AF053FB636B0093A36B0193E36B02931C
:10565000236A0393636A0493A36ACDE90537236B36
:1056600007932D1A08236A4630461AF03EFBA36BB7
:105670000093E36BCDE90137636A0393A36A049354
:10568000E36ACDE90537636B07932D1A08236A4651
:1056900030461AF02AFB2D1A10D40D4C35B90822C9
:1056A000314620461AF0F7FA01280FD00823224687
:1056B000314630461AF019FB2D1AEFE7044A082349
:1056C000314630461AF0DDF92D18F8D409B0F0BD96
:1056D00090420200F0B5264E07460C460FCE8DB024
:1056E00001AD0FC50FCE0FC596E8070085E807008E
:1056F0003846002F38D0002C38D0381F21460246BB
:1057000010344B780D781B0443EA0563CD782B43A6
:105710008D78043143EA05238C4242F8043FF0D1EE
:10572000144C04218A07036916D1C3F30742A55C10
:105730001A0EA25C42EA0562C3F30725DBB2655D7F
:10574000E35C42EA054242EA03220CAD21F0030386
:105750002B4453F82C3C534050F8042F0131534054
:105760002C290361DED101200DB0F0BD2046FBE7FE
:10577000244002000D5E02002DE9F043154689B079
:105780000646002858D0002959D0002A59D01023A5
:105790000A46684619461AF0AEF8294668462A4C69
:1057A0001AF0B5FF05F11007A146A035E8466A4694
:1057B00010231178013B615C02F8011BF9D16846A6
:1057C0001AF0EAFF694604A81BF01FF801A905A812
:1057D0001BF01BF802A906A81BF017F803A907A8DD
:1057E0001BF013F8102319460DEB030268461AF05C
:1057F00082F83946684610371AF089FFAF42D5D192
:10580000102498F80030013C19F8033008F8013BE7
:10581000F7D168461AF0C0FF294668461AF077FFAC
:10582000102319466A4630461AF065F86846102279
:1058300021461AF06DF8012009B0BDE8F083084652
:10584000FAE71046F8E700BF0D5E0200094A0A4970
:1058500093680968D967094998674B6843F0805392
:105860004B60002383F31188BFF36F8F9368D86F69
:10587000704700BF3C2C00205058020000ED00E0B3
:105880000F498A684FF030001044EFF3098C80E82C
:10589000F01F202080F31188BFF36F8F094F4FF066
:1058A00000664A6A8A603E60906F0023936780F3C7
:1058B000118802F1300090E8F01F8CF309887047DE
:1058C0003C2C002004ED00E01EF0040F0CBFEFF3B1
:1058D0000880EFF30980816911F8021C0229FFD0CA
:1058E00001B51BF0D5F801BD43B2002B08DB012246
:1058F00000F01F0002FA00F05B09024A42F82300A0
:10590000704700BF00E100E043B2002B0DDB012235
:105910005B0900F01F0002FA00F02033034A42F84E
:105920002300BFF34F8FBFF36F8F704700E100E09C
:10593000054B420900F01F0053F82220012303FA0F
:1059400000F01040704700BF00E100E043B2002BC0
:10595000A8BF03F1604301F10101B8BF064B4FEA54
:105960004111ACBF03F5614300F00F00C9B2B4BFF1
:10597000195483F80013704714ED00E008B572B6AF
:10598000044B186A18B100221A621DF09BFB62B624
:1059900008BD00BF3C2C002042F8203C009B42F890
:1059A0001C3C0A49019B42F8183C029B42F8143CFB
:1059B00021F001014FF0807342F8043C42F8081CCA
:1059C0000023203A02658367704700BF35EA010073
:1059D00008B506460D46144600F00AFB074B9E60CC
:1059E000204685F30988002163B681F31188BFF34F
:1059F0006F8F0022002319F01DF800BF3C2C0020FF
:105A0000014910220A60704710ED00E072B6404074
:105A100080F31188BFF36F8FBFF34F8F30BF62B633
:105A2000BFF36F8F704700BF72B6494081F3118892
:105A300020BF80F3118862B6704700BF73B5064679
:105A40000C4601B3134B144D1448ED1AED08AD018B
:105A500045F00105ADF80050D1E90123096819F0BE
:105A600013FBADF80050D4E90423E1680C4819F0A9
:105A70000BFBE1690B482A4619F0D9FAA1690A48DB
:105A80002A4619F0D4FA2146304602B0BDE87040EB
:105A900017F00CBA203E0200603F02000D5F0200CA
:105AA0003C5F02006B5F02007A5F020030BFFFF7CD
:105AB000FDBF00BF0E4A08B50E4B22F07F029A6070
:105AC000BFF34F8FBFF36F8FD3F8882022F470029B
:105AD000C3F88820EFF3148323F0040383F31488BE
