:1000000060470020215600005904020051560000AC
:1000100051560000515600005156000000000000EB
:10002000000000000000000000000000B1530000CC
:10003000515600000000000069530000FFF101006C
:10004000E155000081740100E1550000E155000018
:10005000E1550000E1550000E1550000E1550000C8
:10006000E1550000E1550000E1550000E1550000B8
:10007000E1550000E1550000E1550000E1550000A8
:10008000E1550000E1550000E1550000E155000098
:10009000E1550000E1550000E1550000E155000088
:1000A000E1550000E1550000E1550000E155000078
:1000B000E1550000E1550000E1550000E155000068
:1000C000E1550000E1550000E1550000E155000058
:1000D000E1550000E1550000E1550000E155000048
:1000E000E1550000E1550000E1550000E155000038
:1000F000E1550000E1550000E1550000E155000028
:1001000081F0004102E000BF83F0004330B54FEAC8
:1001100041044FEA430594EA050F08BF90EA020F35
:100120001FBF54EA000C55EA020C7FEA645C7FEAC8
:10013000655C00F0E2804FEA5454D4EB5555B8BFEB
:100140006D420CDD2C4480EA020281EA030382EA5C
:10015000000083EA010180EA020281EA0303362DEE
:1001600088BF30BD11F0004F4FEA01314FF4801CC1
:100170004CEA113102D0404261EB410113F0004FD3
:100180004FEA03334CEA133302D0524263EB43038A
:1001900094EA050F00F0A780A4F10104D5F1200E28
:1001A0000DDB02FA0EFC22FA05F2801841F1000183
:1001B00003FA0EF2801843FA05F359410EE0A5F157
:1001C00020050EF1200E012A03FA0EFC28BF4CF088
:1001D000020C43FA05F3C01851EBE37101F000453E
:1001E00007D54FF0000EDCF1000C7EEB00006EEB4B
:1001F0000101B1F5801F1BD3B1F5001F0CD34908D5
:100200005FEA30004FEA3C0C04F101044FEA44522B
:1002100012F5800F80F09A80BCF1004F08BF5FEAB2
:10022000500C50F1000041EB045141EA050130BD92
:100230005FEA4C0C404141EB0101013C28BFB1F5A4
:10024000801FE9D291F0000F04BF01460020B1FAEF
:1002500081F308BF2033A3F10B03B3F120020CDAC2
:100260000C3208DD02F1140CC2F10C0201FA0CF0A0
:1002700021FA02F10CE002F11402D8BFC2F1200C05
:1002800001FA02F120FA0CFCDCBF41EA0C019040BB
:10029000E41AA2BF01EB0451294330BD6FEA040404
:1002A0001F3C1CDA0C340EDC04F11404C4F12002EF
:1002B00020FA04F001FA02F340EA030021FA04F301
:1002C00045EA030130BDC4F10C04C4F1200220FA58
:1002D00002F001FA04F340EA0300294630BD21FA96
:1002E00004F0294630BD94F0000F83F4801306BF5C
:1002F00081F480110134013D4EE77FEA645C18BF50
:100300007FEA655C29D094EA050F08BF90EA020FE6
:1003100005D054EA000C04BF1946104630BD91EADE
:10032000030F1EBF0021002030BD5FEA545C05D1E1
:100330004000494128BF41F0004130BD14F5800420
:100340003CBF01F5801130BD01F0004545F0FE4194
:1003500041F470014FF0000030BD7FEA645C1ABFC9
:10036000194610467FEA655C1CBF0B46024650EA00
:10037000013406BF52EA033591EA030F41F400212C
:1003800030BD00BF90F0000F04BF0021704730B5B2
:100390004FF4806404F132044FF000054FF0000187
:1003A00050E700BF90F0000F04BF0021704730B548
:1003B0004FF4806404F1320410F0004548BF40421D
:1003C0004FF000013EE700BF42004FEAE2014FEA72
:1003D00031014FEA02701FBF12F07F4393F07F4F4D
:1003E00081F06051704732F07F4208BF704793F050
:1003F0007F4F04BF41F40021704730B54FF4607463
:1004000001F0004521F000411CE700BF50EA010265
:1004100008BF704730B54FF000050AE050EA01020E
:1004200008BF704730B511F0004502D5404261EB7E
:1004300041014FF4806404F132045FEA915C3FF4BF
:10044000D8AE4FF003025FEADC0C18BF03325FEA5C
:10045000DC0C18BF033202EBDC02C2F1200300FA0D
:1004600003FC20FA02F001FA03FE40EA0E0021FA32
:1004700002F11444BDE600BF70B54FF0FF0C4CF420
:10048000E06C1CEA11541DBF1CEA135594EA0C0FD2
:1004900095EA0C0F00F0DEF82C4481EA030621EA0D
:1004A0004C5123EA4C5350EA013518BF52EA033548
:1004B00041F4801143F4801338D0A0FB02CE4FF0FA
:1004C0000005E1FB02E506F00042E0FB03E54FF02A
:1004D0000006E1FB03569CF0000F18BF4EF0010E22
:1004E000A4F1FF04B6F5007F64F5407404D25FEA1E
:1004F0004E0E6D4146EB060642EAC62141EA5551D1
:100500004FEAC52040EA5E504FEACE2EB4F1FD0C12
:1005100088BFBCF5E06F1ED8BEF1004F08BF5FEA90
:10052000500E50F1000041EB045170BD06F0004642
:1005300046EA010140EA020081EA0301B4EB5C04EF
:10054000C2BFD4EB0C0541EA045170BD41F48011E7
:100550004FF0000E013C00F3AB8014F1360FDEBF0C
:10056000002001F0004170BDC4F10004203C35DAE8
:100570000C341BDC04F11404C4F1200500FA05F36B
:1005800020FA04F001FA05F240EA020001F000420C
:1005900021F0004110EBD37021FA04F642EB060182
:1005A0005EEA430E08BF20EAD37070BDC4F10C04AC
:1005B000C4F1200500FA04F320FA05F001FA04F270
:1005C00040EA020001F0004110EBD37041F100015C
:1005D0005EEA430E08BF20EAD37070BDC4F1200567
:1005E00000FA05F24EEA020E20FA04F301FA05F2CF
:1005F00043EA020321FA04F001F0004121FA04F277
:1006000020EA020000EBD3705EEA430E08BF20EA46
:10061000D37070BD94F0000F0FD101F00046400080
:1006200041EB010111F4801F08BF013CF7D041EA02
:10063000060195F0000F18BF704703F00046520006
:1006400043EB030313F4801F08BF013DF7D043EAD7
:100650000603704794EA0C0F0CEA135518BF95EA8D
:100660000C0F0CD050EA410618BF52EA4306D1D114
:1006700081EA030101F000414FF0000070BD50EA33
:10068000410606BF1046194652EA430619D094EABD
:100690000C0F02D150EA013613D195EA0C0F05D1A7
:1006A00052EA03361CBF104619460AD181EA0301FB
:1006B00001F0004141F0FE4141F470014FF00000B3
:1006C00070BD41F0FE4141F4780170BD70B54FF04E
:1006D000FF0C4CF4E06C1CEA11541DBF1CEA1355CE
:1006E00094EA0C0F95EA0C0F00F0A7F8A4EB0504B0
:1006F00081EA030E52EA03354FEA013100F08880A7
:100700004FEA03334FF0805545EA131343EA12636F
:100710004FEA022245EA111545EA10654FEA002624
:100720000EF000419D4208BF964244F1FD0404F5DD
:10073000407402D25B084FEA3202B61A65EB030539
:100740005B084FEA32024FF480104FF4002CB6EBF6
:10075000020E75EB030E22BFB61A754640EA0C0076
:100760005B084FEA3202B6EB020E75EB030E22BFB6
:10077000B61A754640EA5C005B084FEA3202B6EBF7
:10078000020E75EB030E22BFB61A754640EA9C00B6
:100790005B084FEA3202B6EB020E75EB030E22BF86
:1007A000B61A754640EADC0055EA060E18D04FEA44
:1007B000051545EA16754FEA06164FEAC30343EAE4
:1007C00052734FEAC2025FEA1C1CC0D111F4801FB1
:1007D0000BD141EA00014FF000004FF0004CB6E7AA
:1007E00011F4801F04BF01430020B4F1FD0C88BF49
:1007F000BCF5E06F3FF6AFAEB5EB030C04BFB6EB54
:10080000020C5FEA500C50F1000041EB045170BD46
:100810000EF0004E4EEA113114EB5C04C2BFD4EB73
:100820000C0541EA045170BD41F480114FF0000EF7
:10083000013C90E645EA060E8DE60CEA135594EA73
:100840000C0F08BF95EA0C0F3FF43BAF94EA0C0F76
:100850000AD150EA01347FF434AF95EA0C0F7FF4EB
:1008600025AF104619462CE795EA0C0F06D152EA3F
:1008700003353FF4FDAE1046194622E750EA410623
:1008800018BF52EA43067FF4C5AE50EA41047FF434
:100890000DAF52EA43057FF4EBAE12E74FF0FF3C99
:1008A00006E000BF4FF0010C02E000BF4FF0010C6A
:1008B0004DF804CD4FEA410C7FEA6C5C4FEA430CE3
:1008C00018BF7FEA6C5C1BD001B050EA410C0CBF32
:1008D00052EA430C91EA030F02BF90EA020F002094
:1008E000704710F1000F91EA030F58BF994208BFFB
:1008F00090422CBFD8176FEAE37040F001007047B8
:100900004FEA410C7FEA6C5C02D150EA013C07D10E
:100910004FEA430C7FEA6C5CD6D152EA033CD3D059
:100920005DF8040B704700BF8446104662468C4653
:100930001946634600E000BF01B5FFF7B7FF002886
:1009400048BF10F1000F01BD4DF808EDFFF7F4FFAF
:100950000CBF012000205DF808FB00BF4DF808ED3A
:10096000FFF7EAFF34BF012000205DF808FB00BF5D
:100970004DF808EDFFF7E0FF94BF012000205DF87F
:1009800008FB00BF4DF808EDFFF7CEFF94BF012034
:1009900000205DF808FB00BF4DF808EDFFF7C4FF2D
:1009A00034BF012000205DF808FB00BF4FEA410280
:1009B00012F5001215D211D56FF47873B3EB6252B1
:1009C00012D94FEAC12343F0004343EA505311F0D8
:1009D000004F23FA02F018BF404270474FF000006A
:1009E000704750EA013005D111F0004008BF6FF0A8
:1009F000004070474FF00000704700BF4A0011D21E
:100A000012F5001211D20DD56FF47873B3EB625268
:100A10000ED44FEAC12343F0004343EA505323FA74
:100A200002F070474FF00000704750EA013002D1E9
:100A30004FF0FF3070474FF00000704753B94AB98C
:100A4000002908BF00281CBF4FF0FF314FF0FF30D6
:100A500000F06EB9ADF1080C6DE904CE00F006F8B7
:100A6000DDF804E0DDE9022304B070472DE9F0472A
:100A7000089D0E4604468C46002B40F081808A4239
:100A8000174645D9B2FA82F24AB1C2F1200106FAFC
:100A900002F320FA01F1974041EA030C94404FEA37
:100AA000174E230CBCFBFEF6B9B20EFB16CC43EA84
:100AB0000C4306FB01F0984209D9FB1806F1FF3CF4
:100AC00080F01581984240F21281023E3B441B1A8D
:100AD000A4B2B3FBFEF00EFB103344EA034400FB68
:100AE00001F1A14209D93C1900F1FF3380F00181E5
:100AF000A14240F2FE8002383C44641A40EA0640BB
:100B000000211DB1D4400023C5E90043BDE8F087B2
:100B100002B9FFDEB2FA82F2002A4FD1CB1B4FEAB4
:100B2000174E1FFA87F80121B3FBFEFC260C0EFBC3
:100B30001C3346EA034608FB0CF3B34207D9BE193F
:100B40000CF1FF3002D2B34200F2EB808446F61A79
:100B5000A3B2B6FBFEF00EFB106643EA064408FBA8
:100B600000F8A04507D93C1900F1FF3302D2A04597
:100B700000F2D2801846A4EB080440EA0C40C0E71B
:100B80008B4208D9002D00F0AF800021C5E9000696
:100B90000846BDE8F087B3FA83F1002949D1B34292
:100BA00002D3824200F2BB80841A66EB0303012069
:100BB0009C46002DAAD0C5E9004CA7E7C2F120034E
:100BC0009740D8409140DE404FEA174E08434FEA25
:100BD000104CB6FBFEF11FFA87F80EFB11664CEACB
:100BE000064601FB08F3B34204FA02F409D9BE1920
:100BF00001F1FF3C80F08E80B34240F28B800239DD
:100C00003E44F31A86B2B3FBFEF00EFB103346EA05
:100C1000034600FB08F3B34207D9BE1900F1FF3CBD
:100C200074D2B34272D902383E44F31A40EA014109
:100C30007AE7C1F1200703FA01F422FA07F31C4313
:100C400020FA07F906FA01F34FEA144CFE4049EA8C
:100C500003094FEA1943B6FBFCFE1FFA84F80CFBAC
:100C60001E6643EA06460EFB08FAB24502FA01F296
:100C700000FA01F308D9A6190EF1FF3048D2B245A7
:100C800046D9AEF1020E2644A6EB0A061FFA89F9F0
:100C9000B6FBFCF00CFB106649EA064600FB08F8C0
:100CA000B04507D9A61900F1FF3C2DD2B0452BD98C
:100CB0000238264440EA0E40A6EB0806A0FB028953
:100CC0004E45C446CE4618D315D075B3B3EB0C02CF
:100CD00066EB0E0606FA07F722FA01F3CE401F4331
:100CE000C5E90076002111E7294628460EE7664649
:100CF000EDE6184601E74345E7D2B8EB020C69EB95
:100D000004040138A646E0E76046D3E760468CE776
:100D10008646B9E7614674E702383C442BE708464B
:100D200047E7ACF1020C3E4411E72946EEE600BF6E
:100D3000704700BF10F8012B11F8013B012A28BFB2
:100D40009A42F7D0D01A7047034613F8012B002AB5
:100D5000FBD1181A0138704770B5464DD5F82431CB
:100D6000996811F0010188B021D103AA40F603402F
:100D700006F01AF80446002878D1039B9B681B787C
:100D800093B9BFF35B8F2B4653F8982FBFF35B8F5C
:100D900002F00502BFF35B8F53E8001F43E8002019
:100DA0000028F9D1BFF35B8F039819F03DF903AA2E
:100DB000002141F2030005F0F7FF0446002855D159
:100DC000039A2D4E936853F8010F596803C61046D5
:100DD00019F02AF9214603AA41F2010005F0E4FFC7
:100DE0000446002842D1039883685A7885F8342055
:100DF000D9789A7842EA0122EA861A7985F835206C
:100E0000197ADA7942EA01222A875A799B7942EAE9
:100E100003236B8719F008F9214603AA41F2020067
:100E200005F0C2FF044608BB039B9A68531C41327D
:100E300018685968344603C4083393422646F7D1EC
:100E40000E481FF0A9FB039819F0EEF895F8403012
:100E50005A061BD40A4B0B490B48C91AC908890109
:100E600041F001011DF0C6FD6FF01204204608B0EC
:100E700070BD00BF000000203C00002044000020A6
:100E8000D8370200B0380200215F020003AA002117
:100E900042F2030005F088FF04460028E6D1039AD9
:100EA000BF4E936853F8010F596803C6104619F0F6
:100EB000BBF8214603AA42F2020005F075FF044682
:100EC0000028D3D1039B9B68B3F80120A5F8CC2060
:100ED00091B229B1DA78114606F1280022F045F8DE
:100EE000039819F0A1F895F8406016F0200600F07C
:100EF000EB8095F860301B0711D503AA002142F260
:100F00001C0005F051FF04460028AFD10398836808
:100F100053F8012F5B68C5E92A2319F085F895F885
:100F2000A0309E0624D502A90DF1060005F0B4FFFD
:100F3000044600289AD1042142F2240005F0D0FD95
:100F40000646002800F0C7800421083021F0BFFACF
:100F5000BDF806300380BDF8083043802246314694
:100F600042F2240005F020FF044600287FF47EAF03
:100F700095F8A0305C0610D503AA002142F22A00A1
:100F800005F012FF044600287FF470AF03988368D1
:100F90005B7885F8E83019F047F8082142F2010043
:100FA00005F09EFD0446002800F0958008210844C5
:100FB00021F08DFA95F8A01011F0400F024640F292
:100FC000022308BF032388074CBF43F02C0043F0E3
:100FD0000C008B0695F8A13048BF40F0400013F09C
:100FE000090F95F8663018BF40F4006003F006035F
:100FF000CE0748BF40F01000062B08BF40F4C07079
:1010000000211FF078FB2146002242F2010005F08A
:10101000CBFE044600287FF429AF95F840309806AF
:101020001ED4B5F8CC10D9B903AA41F2050005F0D9
:10103000BBFE044600287FF419AFB5F8CC3063B985
:10104000039B9B685A78997842EA0122A5F8CC2044
:101050009A885448114621F088FF039818F0E4FF5D
:10106000082140F6014005F03BFD044698B30821F5
:10107000084421F02CFA95F8A030D90702463FD554
:1010800045A1D1E900011FF036FB2146002240F6C0
:10109000014005F089FE044600287FF4E7AE0146D2
:1010A00002AA4FF6014005F07FFE3F4C3F4BE41A89
:1010B000E408A40140B33E4844F002011DF09AFC4C
:1010C00006F0C4FE0446D1E6022140F66D4005F06C
:1010D00007FD044610B96FF06804C7E60221083026
:1010E00021F0F5F90123037046702146324640F69F
:1010F0006D4005F059FE044600283FF4FAAEB5E60F
:101100002C484FF00051BEE7029B2B489D68B5F874
:101110000120032A96BF2949294951F8221044F099
:1011200003031DF088FCB5F80110B5F8032002296F
:1011300044F003032ED1032A2CD8224951F822105F
:1011400021481DF078FC6A792048032A96BF20497F
:101150001B4951F82210CDE90312AA790592B5F87E
:1011600007200692D5F80920079244F003030522D0
:1011700003A91DF095FC029818F056FF02AA002161
:101180004FF6024005F010FE054628B3114844F022
:10119000020193E70A49D3E790880002008000200B
:1011A000A0000020D0000020B0380200D837020094
:1011B000455F020010880002695F0200603E020085
:1011C000175C0200203E0200825F02009A5F02006C
:1011D000983E0200C75F02000298104E8368B3F881
:1011E0000130A6F8853018F01FFF96F885305B07B0
:1011F0007FF566AF02AA29464FF6034005F0D4FDFD
:1012000018B1074844F0020158E7029883685B78F8
:1012100086F8843018F008FF52E700BF0000002075
:10122000F05F0200000000002DE9F041D0E90BC79B
:10123000D0F828800CEB07043034A0450E46154644
:1012400018D81B4F18A3D3E90023ACFB0701FFF705
:10125000F5FBA4EB080420F07F40306012A3D3E933
:101260000023A4FB0701FFF7E9FB20F07F40286083
:10127000BDE8F0810E4C0CA3D3E90023A8FB0401C8
:10128000FFF7DCFB20F07F4307F130003360A0FB69
:10129000040105A3D3E90023FFF7D0FB20F07F4032
:1012A0002860BDE8F08100BF8D49FD1A07000000ED
:1012B00000CA9A3B000000002DE9F04FA84C94F8BA
:1012C0004A608FB006F00106002800F05381B6BBDB
:1012D00094F8352094F8293094F8250004EB820224
:1012E00004EB830300F00300FF21D2F83880D3F829
:1012F0002C9084F8261015F077FB94F84A004207EA
:1013000000F11381B9F1000F11D09548494610F052
:1013100015FA99F800305B0605D506210BF03CFC68
:10132000002800F040828E48414610F007FA99F8F4
:10133000003013F00E0F40F0CE80236A23B10C264C
:1013400030460FB0BDE8F08F0FF0DCFA824600287F
:1013500000F046820FF0E2FA8346002800F059823E
:1013600010F052FF0546002800F050824FF6FF7340
:10137000406F2B8505F11C030B93002800F02C8295
:1013800005F1680205F164010BF012FCB5F860206C
:10139000744895F83910744B95F83A7195F83CC03B
:1013A000C5F844A1024095F87A0001F03F0161F0D0
:1013B0007F0120F01F0085F8391085F87A004FF082
:1013C0001B116A4842F48872C5E9161342F0010203
:1013D00027F003070021C5E94A012CF0070CA5F806
:1013E000602085F83A710622002700200021C5E917
:1013F0004C0185F83CC0A5F8C020C5E91277EF85FF
:101400002F6385F83B702F65A5F8C470A5F8C870E8
:10141000C5F80871A5F80C71A5F82071A5F8387108
:1014200085F843716F67A5F87870A5F8647195F831
:10143000661195F886C195F8AE01B5F8D820A5F8E3
:10144000847167F3041C21F0070102F0F80267F3CE
:10145000C30085F886C185F86611A5F8D820C5F8BF
:10146000E070A5F8E47085F8E670A5F8AC71A5F811
:10147000B87185F8AE0111F001FAA5F8D20011F0AB
:1014800003FAD5F8BC113A4AA5F8D4000A40C5F8C9
:10149000BC2111F0FFF995F8C02160F3020285F834
:1014A000C02111F0FDF995F8C0210B9B236260F378
:1014B000C502C4E910ABC5E97377C5E97177C5E921
:1014C0000577C5F8D47185F8C021ED6116F0E0FB11
:1014D000002840F06A8194F824300121C3F34203CC
:1014E0000DA88DF834300BF0DBFC90B399F8003088
:1014F00003F00F03022B00F1FF3200F0A780012B55
:1015000000F0578198F801001030C000002B40F027
:10151000428199F801301033DB0003F54D71084426
:1015200003F59A7303FB02009BE0C0F3C000324650
:1015300004F14B0115F0C8FBFF2884F826003FF4A6
:10154000E1AE304615F06AFAB9F1000F7FF4DDAE76
:10155000EDE6236A002B3FF4F2AE0FF08FFEEEE6CD
:10156000E41F002080F8FFFF480148017F4101008F
:101570000000FFF6002E3FF4E2AE236A5BB193F861
:10158000202042F0020283F82020236A93F82030C2
:10159000D8073FF5D4AEA8480FF06AFA84420CD0C1
:1015A000A64AA749A74840F2DF731CF049FE404015
:1015B00080F311884FF0030002DF94F82430D9073C
:1015C0000DAD0ED502220D9203219F4B00950122F5
:1015D00000200CF075FE29460FF022FA002840F09A
:1015E0001D8102220321984B009500200D920CF0E2
:1015F00067FE29460FF014FA002840F0F380934864
:101600000FF072FA002840F0D9808B480FF03CFAB6
:1016100084420CD0894A8A498A4840F601031CF06A
:101620000FFE404080F311884FF0030002DF236A71
:101630000BB10FF023FE94F84A3000266FF300033D
:10164000304684F84A300FB0BDE8F08F99F8013089
:101650001033DB0000FB03F000F5AA70642303FBEA
:1016600002007B4AE46131230025A0FB02012360D4
:10167000C4E905556EA3D3E90023C4E90155FFF77A
:10168000DDF9B4F84880E0600CF060FE0746B8F180
:10169000000F08D199F8005005F00F05A5F10105DC
:1016A000B5FA85F56D0994F82420E36865F3000226
:1016B00012F0010584F824203DD0DFF88C916549B3
:1016C0000493002002250DF1300801930591CDE926
:1016D00007980321CDE9020006942A4600903B4674
:1016E0000C950CF065FD41460FF09AF900287FF447
:1016F00030AF594905914AF2D8320092CDE90798A6
:10170000CDE90300CDE9010006943B460122032107
:101710000C950CF04DFD41460FF082F900287FF446
:1017200018AF94F84A30304643F0010384F84A3049
:101730000FB0BDE8F08F4948494ADFF80CE1DFF807
:1017400014C10694A8FB00014FF0910909FB081190
:1017500003F24718C2F800804FF00209049309927F
:101760000DF1300832A3D3E900234FF6FF7ACDE91B
:1017700007E80295CDF83090CDF814C0CDF80CA054
:10178000FFF75CF94A46CDE900503B462846032165
:101790000CF0B8FCBFE7062B3FF4BBAE4FF4DA7396
:1017A0004FF41B70BEE61226CAE50FF067FD032654
:1017B000C6E54FF4F2734FF47F70B3E61F4A294930
:1017C000204840F2FE731CF03BFD404080F311883E
:1017D0004FF0030002DF18E705F16C006867CFE502
:1017E0000726ADE514480FF04FF984423FF4A7AD4A
:1017F0004FF4FF63114A124912481CF021FD40408A
:1018000080F311884FF0030002DF98E558460FF08F
:101810008BF850460FF07CF8072691E506480FF04C
:1018200033F984423FF48BAD40F2EA73E2E700BF44
:101830008D49FD1A07000000E41F0020C04502008A
:10184000B04602008C41020049F90000002000204F
:1018500000CA9A3BED0E010095110100002AE784B1
:1018600038200020204502002DE9F04FC84D2B689C
:101870008BB004460F469146002B00F01482668E12
:10188000E28D94F80E3116443E4413F00703B6B2CD
:1018900040F0A781B4F8E880A6EB08021FFA82FAAC
:1018A000120400F15E8294F93920002AC0F23D81D1
:1018B00094F8E43084F8E53094F8842194F8853184
:1018C00094F80C1184F80D11934206D094F88631E7
:1018D00003F00703052B00F04F822B68A34204BFDF
:1018E00000232B60D4F80851002D00F06B8128688C
:1018F000002800F06781B4F81031B4F82AC04268BB
:10190000C4F808216345B4F81221B4F8141100F0AA
:101910002081B4F828C0A5F806C04FF0160E4FF08D
:10192000000CEB832A84698485F804E085F81CC0E8
:1019300029460EF0FFFF0FF007F82368002BC0F2D6
:10194000FC80608DB4F8105110FB0AF080B2B0FB3F
:10195000F5F315FB03F292B290421FFA83FBC0F03D
:10196000D38005FB130340F2E2428A489BB202FB9C
:1019700003F3A3FB000184A3D3E90023FFF75EF880
:10198000A9EB0009E18D94F93930A8EB06065E4415
:101990000F44374440F2E248002BE78508FB05F589
:1019A000C0F283817C4A7D497D484FF426631CF058
:1019B00047FC404080F311884FF0030002DF00270E
:1019C000AA46B4F81421B4F81201764B7649A085E2
:1019D00042F2107C0CFB02522B442944B3FBF5F37A
:1019E00000F1060C013AB2FBF5F2B1FBF5F599B244
:1019F000A4F8C2206145B4F81021A4F8CE10A4F8D0
:101A0000C650628502DD091A063989B294F80E3192
:101A1000A4F8CA101B0744BF0023A4F8C430022155
:101A2000012018F083F800220221054601200BF066
:101A30000DF95E494FF4F07220460BF099F800F171
:101A400003085FFA88F85A4B0094424601210020AF
:101A50000CF036FC30F002030CD04F4A5549504888
:101A600040F68F231CF0ECFB404080F311884FF0D0
:101A7000030002DF474BAAFB03AB504642A3D3E966
:101A800000235946FEF7DAFF4B4AE368049320F03F
:101A90007F46A6FB0223072000FB0633BAEB0200B9
:101AA0006BEB0301DFF814E1DFF814C1089406942E
:101AB0004FF47A7200234FF6FE74CDF81CE0CDF897
:101AC00014C00394FEF7BAFF4B46CDE901600097BE
:101AD0004246012100200CF06BFB30F002030CD0D9
:101AE0002D4A34492E4840F6A9231CF0A9FB40405A
:101AF00080F311884FF0030002DF002D40F03681A3
:101B000000200BB0BDE8F08F121A40F2E2432148EA
:101B100003FB02F2A2FB00011BA3D3E90023FEF7A3
:101B20008DFF20F07F4081442CE794F8D920002AD3
:101B30003FF4BEAE84F8D930BEE6D4E9010223F00A
:101B4000004382422CBF914481442360A9EB0309E6
:101B5000F7E6B4F82CC094457FF4DBAE40F2E24CDB
:101B60000CFB03FB42F2107CB4F8C2E00CFB01BC9E
:101B70000CF1FF3CBCFBFBFC1FFA8CFCE6457FF440
:101B8000C8AE01232B71D3E68D49FD1A0700000072
:101B90005820002000CA9A3BCC460200FC410200BB
:101BA0008C4102007FC3C901FF5962026810002006
:101BB000111B0100AC4702008D49FD1AB91A010042
:101BC00019630100804A8149814840F6E4131CF002
:101BD00037FB404080F311884FF0030002DF286894
:101BE00089E601200EF0B6FE0746002800F0CA8004
:101BF00078480AF089FF0546002800F0C3800EF0FF
:101C0000C7FE3A682B79D4F80811516043F00303FA
:101C10000C22C4F808716A712B71A38DD4F81821B5
:101C20006D4F94F80E1100201E44E871A7FB02329C
:101C3000C2F38F2294F81C312B72D4F8C431A5F86A
:101C40000920B4F81021A5F80B200636B4F81221AB
:101C5000A5F80D20B6B2B4F81421A5F80F2060F352
:101C60000201A4F8E86084F80E11A5F81160002BB9
:101C700069D094F86621900765D494F8BF21D10704
:101C800061D4D4F8D0219342D4F8C82100F08580E3
:101C9000002A5BD11A7902F00302032A00F089803E
:101CA000C4F8C83154E02860E9E5A26C236C4B4FBE
:101CB00003FB1A23A36416F03DF8064694F8D800F7
:101CC000C0F3C20016F038F8064405FB06F6444B94
:101CD000A26C94F81C1106F5742606F23F26A3FBAD
:101CE0000636B60C06FB0BF06B080244963B9A4294
:101CF00028BF1A4608FB01FC4FF0000EC4E9113260
:101D0000A0FB07012EA3D3E90023C4F850C0C4F8F8
:101D1000E0E02664FEF792FE2F4B8446D4F81801CB
:101D2000A3FB0030800A08FB00F0A0FB070124A3FE
:101D3000D3E90023A9EB0C09FEF780FEA5EB060A08
:101D400020F07F473DE6D4F8C82102B3D4F8CC3167
:101D50001A682A601D602B68C4F8CC510BB9C4F80E
:101D6000D4516FF076000BB0BDE8F08F0122104621
:101D700002210AF06BFFC3E6002384F88521A4F852
:101D8000C830AAE56FF068000BB0BDE8F08F2B609B
:101D9000C4E97155C4F8CC51E0E71968C4F8D01112
:101DA000002AD3D11A682A601D602B68C4E97255D5
:101DB000D4E7DA79032AF5D00A2A7FF471AFF1E784
:101DC0008D49FD1A07000000CC460200984702002A
:101DD0008C410200DC2000205917B7D100CA9A3B81
:101DE00083DE1B43000000002DE9F04F0F4616462E
:101DF00081460A7F57F81E0F96F812A0BC88D3F8C8
:101E0000008095B00D463168ADF84C40C2F38012A9
:101E1000BAF1FF0FD1F800B012901C468DF83F20A8
:101E200048D112AB93E803001090ADF844102A4655
:101E30002B4632F82E1F9278A2722181D5F82A20E3
:101E4000626053F83A2FA26104F118001B79037104
:101E500005210BF025F895F83F20637F00F03F0047
:101E600060F30503C2F304016377A177AF8EE781C6
:101E70000128BFB202F01F0305D91B3303F01F0373
:101E80000B2B00D817BB94F8203001276FF3000309
:101E900084F820302F717468484629460EF04AFDB8
:101EA0002068277121460EF045FD0EF04DFD15B05E
:101EB000BDE8F08F10AA0DF13F01504614F0C6FCAA
:101EC0009DF83F3002338DF83F30B0E7336898F823
:101ED000D8100020586095F8363095F83700520930
:101EE00043EA002362F3C501238240F2E2426B8E93
:101EF00088F8D81002FB07F70B9315F01BFF034679
:101F000098F8D8000A93C0F3C20015F015FF0A9B99
:101F1000DFF8D8E295F831C0AB49034407FB03F37F
:101F200003F5742303F23F23AEFB03234FEA570E5E
:101F300040F2E24202FB0CF29B0CAEF1960EA26361
:101F4000C4F828E063622B8F208ADFF8A4C242F233
:101F5000107202FB0372394400F1060E013AB1FB24
:101F6000F7F1B2FBF7F2A8F8C2208AB27245BC447E
:101F7000A8F8CE20BCFBF7FCA8F8C6C002DD121AF8
:101F8000063A92B2A8F8CA206268C8F8DC202A7F14
:101F90000C934FF48071A983C2F340139BF8260081
:101FA0008DF834300A9315F083F90C9B05F12B0260
:101FB000002800F0E080294651F8240FC5F82B00D6
:101FC00089889180BAF1FF0F00F0D980BDF84C20CC
:101FD0001298A5F82920C5F825009DF83F10109803
:101FE000BDF84420A977C5F81F00A5F8232098F86C
:101FF000D820E089218AA986C2F3C202EB866886CE
:1020000085F83820404610F00BF92946A081E88079
:10201000756848460EF08EFCA389EB8019232B715E
:102020000A9BD5F80090002B40F0B7809DF8343023
:102030002B77294648460EF07DFC0EF085FC94F87F
:102040004500012100F0070015F0D0FC5F4A002593
:102050008146312300F25240A0FB0201C8F8003053
:10206000C8E9015556A3D3E90023FEF7E7FCF3685E
:102070000B99646A40F2E24202FB013320F07F4098
:1020800003F286332A460221C8F80C000120A3EB94
:1020900009090AF0DBFD58460FF08AFA821C4C4B06
:1020A000CDF800B0D2B2284601210CF009F9012880
:1020B000A7EB04047CD09BF82430DB0765D44046B2
:1020C00010F0AEF8DFF804B1A4FB0B453CA3D3E954
:1020D0000023074629462046FEF7B0FC3D4ACDF8CE
:1020E000188020F07F4AAAFB0223072101FB0A3354
:1020F00040F2A111B6680891374907913749059117
:10210000A01A65EB0301D8F80C30049300244FF4B7
:102110007A7200230394FEF791FC29A3D3E90023EC
:102120000546A9FB0B01CDE901A5FEF787FC0337A6
:1021300020F07F40FFB2313E334600903A462046C1
:1021400001210CF035F830F002030CD0244A254967
:1021500025484FF4D1731CF073F8404080F3118888
:102160004FF0030002DF0122104602210AF06EFD4B
:1021700015B0BDE8F08FC5F82B00908022E7002154
:10218000C5F82510A5F8291027E7002301220093A0
:10219000184611460CF094F891E7637F43F0400332
:1021A0006377201D14F0DAF90123E0832B7740E7F1
:1021B0000EF076FC83453FF47EAF14F089F87AE7A1
:1021C0008D49FD1A070000007FC3C90100CA9A3B70
:1021D000FD6201008D49FD1AA16201001963010031
:1021E000F4480200AC4702008C41020083DE1B432E
:1021F000FF59620200000000114B10B5C3F8E40063
:10220000FEF7C0F80CA3D3E90023FEF75FFAFEF750
:10221000F5FB0446C0F30741062020F0E8FAC4F3BA
:102220000721072020F0E3FAE1B20820BDE81040C2
:1022300020F0DDBAAFF300800000000080844E4043
:10224000682900200000000070B5092020F0DAFAAB
:102250000546062020F0D6FA0646072020F0D2FADE
:102260000402082020F0CEFA44EA06442043FEF798
:1022700089F81BA3D3E90023FEF7FEF8FEF7BEFBA7
:1022800000210446092020F0B2FA3B2020F0BAFADF
:1022900040F04001C9B23B2020F0A9FA3B2020F0D9
:1022A000B1FA8206FAD41048FFF7A6FF3B2020F0CF
:1022B000A9FA40F04001C9B23B2020F098FA3B2037
:1022C00020F0A0FA8306FAD42946092020F08FFADC
:1022D0002046BDE87040FFF78FBF00BFAFF300801E
:1022E0000000000080844E4000A1BC3300000000CC
:1022F0002DE9F84F884620B1012855D00020BDE8CF
:10230000F88F714C2720B4F8FC5020F07BFA01358F
:1023100020F0F8002844FEF745F894F8FE3000223B
:10232000002B3CD1694BFDF7F1FE064630200F46ED
:1023300020F068FA30F0F90314BF644B0023002248
:1023400030463946FDF7E2FE064640460F46FEF7A8
:1023500029F802460B4630463946FDF7D7FE94F879
:1023600000310022EBB90023FDF7D0FE584B0022CC
:10237000FEF782F80646D4F8F8000F46FEF702F89A
:1023800002460B4630463946FEF7A0F9514B002273
:10239000FEF772F81BF07CFEFEF730FBAFE7002380
:1023A000C1E74FF08043DFE7474AD2F82031073BCF
:1023B000022B92467FD8484A02EBC303D3E900457B
:1023C000DAF824B1012000FA0BF0FDF7EBFF02462A
:1023D0000B4620462946FEF779F902460B460020B7
:1023E0003A49FEF773F90446BAF82A010D46FDF79B
:1023F000D9FF3A4B0022FDF789FE22462B46FEF715
:102400003BF89AF82C219AF82E310F464FEA8B01AF
:10241000C1F11C01002A01EB031303EBC8030646BC
:1024200014BF14200020181AFDF7ACFF9AF82831C9
:10243000002B804614BF02200020ABEB0000800080
:102440008946FDF79FFF02460B4640464946FEF788
:102450003DF900F061FB80469AF829018946043075
:10246000FDF7A0FF42464B46FEF706F80022002388
:1024700080468946FEF790FA18B94FF000084FF0F1
:102480000009134B002240464946FDF73FFE224615
:102490002B46FDF7F1FF32463B46FDF737FE0D4B6D
:1024A0000022FDF7E9FF06A3D3E90023FDF72EFE86
:1024B00000F01AFC70E70024002581E7AFF30080EC
:1024C0002B8716D9CEF7EF3F682900200000F03F98
:1024D0000000204000408F40783A02000000114088
:1024E0002DE9F04F89B09946129B0493BDF8503006
:1024F00001939DF86430029383469DF86C300593F8
:102500000C4690469DF860109DF868200692BDF834
:102510004C609DF854509DF858709DF85CA0079150
:1025200018F07EFFDDE90532BBF1000F07D0BBF1EB
:10253000010F079900F0898009B0BDE8F08FDFF83E
:102540009CB20499CBF8F8808BF801218BF802310A
:102550004046CBF8F040CBF8F4108BF8FE508BF8E7
:10256000FF708BF800A1ABF8FC60FDF70BFF804615
:1025700002460B46894600209549FEF7A7F8954B81
:102580000022FDF779FFCDE902010198FDF70AFF6E
:1025900002460B46DDE90201FDF76EFF8E4B00227D
:1025A000FDF76AFFFEF72AFA42464B46CBF80801D0
:1025B00085A1D1E90001FEF789F8FEF71FFAC0F303
:1025C00007211FFA80F8022020F011F95FFA88F144
:1025D000032020F00CF9204618F038FD01461220A7
:1025E00020F005F9049818F031FD0146132020F081
:1025F000FEF8310A252020F0FAF8F1B2262020F06A
:10260000F6F805B33946322020F0F1F8302020F0FA
:10261000F9F8002D00F06F0141EA0A1114BF002003
:102620006FF07F000143C9B2302020F0E0F8312084
:1026300020F0E8F840F04001C9B2312009B0BDE80F
:10264000F04F20F0D4B8FF21DDE7022C00D9FEE7DF
:1026500004F1070B614C84F82F11029984F83011B2
:102660004146062938BF06210C2984F831210A4643
:1026700028BF0C22BBF1070FC4E948B884F82991A0
:10268000A4F82A6184F82C5184F82D7184F82EA1C5
:1026900084F8323178D1A2F10B03012B8CBF0023D7
:1026A00001231D20049284F8283120F0ABF845EA7C
:1026B000490141EA0B11C9B21D2020F098F81E20F3
:1026C00020F0A0F8019B049AC3F3012141EA8A019A
:1026D00041EA021100F008000143C9B21E2020F0B7
:1026E00086F8262020F08EF894F8283120F0080192
:1026F00041EAC301C9B2262020F079F89DF8041000
:102700001F2020F074F8310A202020F070F8F1B278
:10271000212020F06CF81DB13946222020F067F806
:1027200094F82F316BB1442020F06CF860F07F01F9
:10273000C9B2442020F05BF894F83011242020F036
:1027400056F8BBF1090F2ED1D4F8E420244B9A425D
:102750004FF002014FF0360021D920F048F86421F3
:102760003A2020F044F8B8F1060F4FF031001DD8A0
:1027700020F048F800F0F80141F00501312020F088
:1027800036F80C21372059E7BBF1080F05D1B8F115
:102790000B0F94BF0023012383E7002381E720F080
:1027A00026F87F21DCE703213620DAE720F02AF83B
:1027B00000F0F80141F00301312020F018F80A215F
:1027C000E0E700BFAFF300800000000080847E419E
:1027D0000000F03F0000204000408F4068290020AA
:1027E00040DD4A1F000000002DE9F04F87B01D4674
:1027F0009DF85830029389469DF85C3018990493EF
:1028000092469DF85420059203910190109F9DF8E7
:1028100044B0BDF848809DF84C609DF8504018F0D9
:10282000FFFD484618F0A8FB019ADDE903132AB121
:10283000012A059A64D007B0BDE8F08F7E4A504661
:10284000C2E93BA582F8004182F8E890C2F8F8702E
:10285000A2F8FC8082F8FE6082F80131C2F804110F
:10286000FDF790FD70A3D3E90023FDF72FFFFEF7DE
:10287000C5F885B2C0F3072104201FF0B8FFE9B204
:1028800005201FF0B4FF3846FDF77CFD02460B46DD
:1028900067A1D1E90001FDF719FFFEF7AFF8C0F31A
:1028A000072185B202201FF0A2FFE9B203201FF02A
:1028B0009EFF4FEA182125201FF099FF5FFA88F14B
:1028C00026201FF094FF30201FF09CFF002E00F008
:1028D0006F0014BF00216FF07F0140EA0414214310
:1028E000C9B230201FF083FF31201FF08BFF40F072
:1028F0004001C9B2312007B0BDE8F04F1FF077BFEB
:102900004D48022D80F81C91814600D9FEE7062F24
:10291000BA4638BF4FF0060A0735BAF10C0FC0E9C6
:10292000485780F829B1A0F82A8180F82C6180F8F6
:102930002F2128BF4FF00C0A029889F83001072D8B
:1029400089F82E4189F83131C9F8341157D1AAF1EB
:102950000B03012B8CBF0023012389F828316AB1B6
:1029600044201FF04FFF60F07F01C9B244201FF0E8
:102970003EFF99F8301124201FF039FF46EA4B063C
:102980001D2046EA05151FF03DFFE9B21D201FF08E
:102990002EFF1E201FF036FFA40000F00B0044EABB
:1029A0000A1A4AEA000A5FFA8AF11E201FF01FFF86
:1029B00026201FF027FF99F8283120F0080141EA6E
:1029C000C301C9B226201FF012FF4FEA18212020B0
:1029D0001FF00DFF21205FFA88F11FF008FF062F7E
:1029E0004FF0310014D81FF00DFF00F0F80141F056
:1029F000050131201FF0FBFE0C2137207BE7082D5D
:102A000004D10B2F94BF00230123A6E70023A4E7E2
:102A10001FF0F8FE00F0F80141F0030131201FF033
:102A2000E6FE0A21E9E700BF0000000080844E4076
:102A30000000000080847E41682900200000000022
:102A400070B5314B93F8E01001291C4602D00229E1
:102A50004CD070BD93F8E120CAB1012AF9D193F8A6
:102A60002F31002BF5D0022112201FF0C0FE274B82
:102A70001B68002BEDD05C69002CEAD01C201FF0F5
:102A8000C1FE234600F03F00BDE8704018479B6E32
:102A90000BB984F80C11B4F80C51012DD9D11C4894
:102AA00019F0EEF8112084F80D511FF0ABFE40082C
:102AB000404284F80E011B201FF0A4FE05461C2096
:102AC0001FF0A0FE40EA0520FDF76CFC0CA3D3E943
:102AD0000023FDF7D1FCFDF769FFC4F810010C20BD
:102AE0001FF090FE400984F81401B2E793F8E1204A
:102AF000012AAED193F82F31002BAAD0B4E700BF42
:102B00000000000080844E40682900203429002005
:102B1000382900200000000080B58CB000AFC7E964
:102B20000001D7E90023C7E904237B69FB623B6905
:102B3000BB62FB6A1B15C3F30A03A3F2FF337B627C
:102B40007B6A132B61DC7B6A002B28DA62A1D1E956
:102B50000001D7E90023FDF7D9FA02460B461046DB
:102B600019464FF000024FF00003FDF715FF034632
:102B7000002B00F0A080FB6A002B05DA4FF0004329
:102B8000FB620023BB6296E0FA6ABB6A1343002B28
:102B900000F09180524BFB620023BB628BE0514AF4
:102BA0007B6A42FA03F33B62FA6A3B6A1A40BB6AE9
:102BB0001343002B02D1D7E9002386E046A1D1E9D7
:102BC0000001D7E90023FDF7A1FA02460B461046A3
:102BD00019464FF000024FF00003FDF7DDFE0346FB
:102BE000002B68D0FB6A002B07DD4FF480127B6A54
:102BF00042FA03F3FA6A1344FB623B6ADA43FB6A64
:102C00001340FB620023BB6255E07B6A332B0FDD70
:102C10007B6AB3F5806F08D1D7E9000102460B4605
:102C2000FDF774FA02460B464FE0D7E900234CE06B
:102C30007B6A143B4FF0FF3222FA03F33B62BA6A1D
:102C40003B6A1340002B02D1D7E900233DE022A1CB
:102C5000D1E90001D7E90023FDF758FA02460B46F7
:102C6000104619464FF000024FF00003FDF794FEA6
:102C70000346002B1FD0FB6A002B17DD7B6A142B49
:102C800003D1FB6A0133FB6210E07B6AC3F13403BA
:102C900001229A40BB6A1344FB61BB6AFA699A42FB
:102CA00002D2FB6A0133FB62FB69BB623B6ADA4317
:102CB000BB6A1340BB62FB6AFB60BB6ABB60D7E9BF
:102CC0000223C7E90023D7E900231046194630370D
:102CD000BD4680BDAFF300809C7500883CE4377E24
:102CE0000000F03FFFFF0F0080B58CB000AFC7E9D8
:102CF0000001D7E90023C7E904237B69FB623B6934
:102D0000BB62FB6A1B15C3F30A03A3F2FF337B62AA
:102D10007B6A132B62DC7B6A002B29DA62A1D1E982
:102D20000001D7E90023FDF7F1F902460B461046F2
:102D300019464FF000024FF00003FDF72DFE034649
:102D4000002B00F0A180FB6A002B04DB0023BB6298
:102D5000BB6AFB6298E0FB6A23F00042BB6A134344
:102D6000002B00F09180524BFB620023BB628BE092
:102D7000504A7B6A42FA03F33B62FA6A3B6A1A40A2
:102D8000BB6A1343002B02D1D7E9002386E046A19A
:102D9000D1E90001D7E90023FDF7B8F902460B4657
:102DA000104619464FF000024FF00003FDF7F4FD06
:102DB0000346002B68D0FB6A002B07DA4FF4801221
:102DC0007B6A42FA03F3FA6A1344FB623B6ADA4312
:102DD000FB6A1340FB620023BB6255E07B6A332B26
:102DE0000FDD7B6AB3F5806F08D1D7E90001024699
:102DF0000B46FDF78BF902460B464FE0D7E900235F
:102E00004CE07B6A143B4FF0FF3222FA03F33B6243
:102E1000BA6A3B6A1340002B02D1D7E900233DE098
:102E200021A1D1E90001D7E90023FDF76FF902469E
:102E30000B46104619464FF000024FF00003FDF715
:102E4000ABFD0346002B1FD0FB6A002B17DA7B6A11
:102E5000142B03D1FB6A0133FB6210E07B6AC3F1E0
:102E6000340301229A40BB6A1344FB61BB6AFA69CE
:102E70009A4202D2FB6A0133FB62FB69BB623B6A86
:102E8000DA43BB6A1340BB62FB6AFB60BB6ABB6090
:102E9000D7E90223C7E90023D7E9002310461946E2
:102EA0003037BD4680BD00BF9C7500883CE4377E4E
:102EB0000000F0BFFFFF0F0001481BF0C1B900BFC9
:102EC000E051020011B103481BF0BAB902481BF0EF
:102ED000B7B900BFFE5102001E52020030B593B0D8
:102EE0001DF0ABFF0378044607AD032B24D8DFE8C1
:102EF00003F0021D1F211349284620F016FBA37979
:102F0000059562780492A2780392E278029222797F
:102F10000192627900921E210B4A0AA81BF09DF9CA
:102F20000A480AA91BF08CF913B030BD0849E3E741
:102F30000849E1E70849DFE7084A0A2128461BF06B
:102F40008CF9DCE7295202004B5202006E5202005B
:102F50003052020037520200415202002A6E020033
:102F60002DE9F04F00208FB004F064FB054630B12E
:102F700001464C481BF064F90FB0BDE8F08F4A4E93
:102F80004A481BF05DF90FCE09AC0FC433682360CB
:102F9000474900952B46022209A805F0C1F90146D0
:102FA000F8B144481BF04CF9434805F0B5FC4348E0
:102FB00006F0EAF8002110220AA8099120F0ADFAE3
:102FC0003F48404C19F0A2FC3F4BE41AE40880460D
:102FD000A40150B93A493D4844F001021BF017FDE5
:102FE000CAE73B481BF02CF9DEE73A4B06934FF457
:102FF0002063ADF81C3001238DF81E30364B08934A
:10300000836806A91B68984700281CDBDFF8D4A05A
:10301000DFF8D4904FF0FF364FF0FF37D8F8083084
:103020000DF11302CDE9006703920DF11602029231
:103030009B68142209A940469847002809DA2748C6
:1030400044F0010102E0264844F001011BF0D2FCEB
:1030500092E79DF816305B42DBB2ADF816308DF882
:10306000143000219DF813308DF8153005A801F0BB
:1030700057FB012109A801F053FB294650461BF0DC
:10308000DFF809A800F030FE44F0030B01469DF97B
:103090001330BDF91620ADF800B0484601351BF0DD
:1030A000E3FCBBE785520200B0390200A5520200E2
:1030B000903A0200BC5202005C010020380100205E
:1030C00004530200F8380200D83702000B53020004
:1030D000E252020000A1BC33080004003253020097
:1030E0001F5302004653020050530200014B186068
:1030F000704700BF7801002030B585B0CDE90101EF
:103100000446002501A90548039500F055F9DDE9BD
:1031100002309842B8BF255405B030BD1BE2010013
:103120002DE9F84FB0F8189019F0080804469346B6
:103130000DD001290CBF49F0100949F02009A0F871
:1031400018908BF31188BFF36F8FBDE8F88F09F0EB
:103150000709022907D120461BF08CF80028F0D07F
:103160000128238B50D16769218B002F15DA256840
:1031700021F00701C4E9008841F001012183002604
:10318000218B01F0070ACA4502D0A368002B5CD14D
:103190000DB9002E74D0002358E001F007035A1F28
:1031A000012A20D821F00701062B256889B2C4E93D
:1031B00000880CD1002D2B4638BF00232BB1628B29
:1031C0001B6801326283002BF8D141F00201218398
:1031D00020461BF04FF806460028D1D0238B43F041
:1031E00020032383CBE7042B0CD121F0070189B204
:1031F000218320461BF03EF805460028BFD041F051
:10320000200121830025BAE7032809D1226923F090
:103210000703166843F00603238300252F46AFE714
:10322000042806D1226923F00703566843F00403FB
:10323000F2E7052806D1226923F00703966843F0D8
:103240000503E9E700252E46E8E7012341F00801E0
:1032500021838BF31188BFF36F8F03BB002D33D114
:1032600016B121492046B0474FF02003EFF3118BF0
:1032700083F31188BFF36F8F238B23F0080323831D
:10328000238BDA0628D523F0100323830121B4F819
:10329000189009F0070900297FF45BAF51E7A16896
:1032A0000029DBD00B68D1F804B0002B38BF002315
:1032B000994652463B462046D847B9F1000FCDD03B
:1032C000D9F800304946EEE729463B4652462046AB
:1032D0002D681AF0EBFFC1E713F020011EBF23F0A9
:1032E000200323830221D2E7D9E20100F0B5094E81
:1032F000016802460A2700200C46013123789D5DB3
:103300006D0701D41460F0BD07FB0033A3F130005A
:10331000F2E700BF807302002DE9F74F144699468B
:10332000D378244A13F802A06F2B0AF00302064652
:103330000F4601922DD028D8582B14BF0A251025EE
:10334000DDF83080AA464FF0000B52465B4630460F
:103350003946FDF773FB092AD3B21FD830335F45D6
:10336000DBB208BF564508F8013D01D3C84512D865
:1033700023789B0605D5082D16D1A37843F00803C2
:10338000A370404603B0BDE8F08F03F0F703702B45
:10339000D3E70825D4E706460F46D6E7019A012A67
:1033A0000CBF37335733DAE7102DEAD1A37843F057
:1033B0001003E5E7807302002DE9F04F824693B0D9
:1033C0008B4691461C46002599F8000008B928460E
:1033D0003AE309F101032528029306D05946D04764
:1033E0000028C0F231830135F1E1182200210CA838
:1033F00020F093F899F80130252B59D0029A1646FF
:1034000012F8013B2B2B00F08B8079D8202B00F099
:103410008C80232B00F08E809DF8383003F044021E
:10342000442A03D16FF386138DF838309DF8383075
:10343000059643F080038DF8383033782A2B7ED1FF
:103440009DF8393043F001038DF83930731C059332
:103450001A782E2A9DF839200CBF0121002161F332
:1034600041028DF839200BD15A1C05925A782A2A2C
:103470007BD19DF8392042F004028DF839200233C7
:10348000194611F8010B6C2800F0B6807DD8682829
:1034900000F084806A2800F0B9804C2800F0BD80DC
:1034A0009DF839206FF3C6028DF83920194680E067
:1034B00009F1020202928DF83B309DF83930D907AC
:1034C00040F1498154F8048BB8F1000F07DA9DF8F8
:1034D000382042F004028DF83820C8F100085A075D
:1034E00040F1428154F8047B002F80F241819DF825
:1034F00039306FF341038DF839304FF0FF3737E142
:103500002D2B06D0302B87D19DF8383043F0400367
:1035100003E09DF8383043F004038DF838306EE74F
:103520009DF8383043F00803F7E79DF8383043F052
:103530001003F2E79DF8383043F02003EDE705A8CB
:10354000FFF7D4FE059BB34281D09DF838100F9051
:10355000C1F3400242EAD072520062F07F0201F0F1
:103560007D010A438DF8382071E705A8FFF7BEFEFC
:103570009DF838301090C3F3400242EAD07060F3F7
:1035800041038DF83830059B7AE774289DF839207F
:1035900040D07A2884D11346062228E05A78682A37
:1035A0009DF8392021D1012161F3C6028DF839201F
:1035B000991C0B4613F8012B0293782A9DF8393099
:1035C0008DF83B2000F2BF80572A33D8412A03D020
:1035D000453A022A00F2B7809DF83A30042262F39D
:1035E00002038DF83A30012384E01346022262F38D
:1035F000C6038DF83930DCE75A786C2A9DF83920FB
:1036000001D10421D0E713460322F0E79DF83930B9
:103610000522ECE713460722E9E7BDF8383023F42A
:10362000F04323F0020343F4804343F00203ADF878
:103630003830BEE7A2F15801202900F2848001A0B1
:1036400050F821F0093700004737000047370000E5
:103650004737000047370000473700004737000072
:103660004737000047370000D935000047370000D2
:1036700009370000C9360000D9350000D9350000EF
:10368000D935000047370000C93600004737000031
:103690004737000047370000473700001137000068
:1036A000093700002D37000047370000473700007A
:1036B0002D3700004737000009370000473700006A
:1036C00047370000093700009DF83A10012003F049
:1036D000780360F30201402B8DF83A1002BF9DF889
:1036E000381041F001018DF83810632A31D1003BC8
:1036F00018BF01239DF83820C2F340010B4363F348
:1037000041028DF83820D8E69DF83A100220DEE715
:103710009DF83A2003F07803A3F14000032161F300
:10372000020243428DF83A204341E3E79DF83A20F4
:10373000032113F0780F61F302028DF83A2014BFD1
:1037400001230023D6E79DF8383043F001038DF8BC
:1037500038300023CEE79DF93820002AB4BFDDF8C9
:103760003C804FF0FF38BAE69F077FF5C6AE109F4A
:103770009DF839100023CDE90F339DF83A3003F05E
:103780000703012BC1F3C30137D1CB1E042B21D872
:10379000DFE803F003070720200054F8042BD317B9
:1037A00004E0073424F00704F4E80223CDE90C23F5
:1037B0009DF8383013F0030655D0029B4A4659460F
:1037C00050461BF0DDF80028C0F23E810544DDF8CC
:1037D0000890F9E554F8042B01294FEAE273CDE98A
:1037E0000C2305D19DF830300C9300230D93DFE7B7
:1037F0000229DDD1BDF93020D1E7022B23D1CB1E28
:10380000042B13D8DFE803F0030A0A12120022681F
:103810000C920023201D0D930446C9E7073424F0C1
:103820000700F0E80223CDE90C23F5E754F8043B48
:103830000C9301294FF000030D93D3D00229B7D187
:10384000BDF83030D0E7042B07D1073424F007044B
:10385000F4E80223CDE90C23AAE7032B04BF54F8B4
:10386000043B0C93A4E79DF83B007828AFD862286E
:1038700020D825283FF4B2AD5828A8D10DF12E0349
:103880000093DDE90C0106AB0EAAFFF745FD81466A
:10389000002F0DF12E000BDB9DF83820A0EB090363
:1038A0006FF386129F428DF8382001D9FF1A0F97C7
:1038B00007463CE06338152889D801A252F820F069
:1038C0003F390000A1390000CF370000CF3700009A
:1038D000CF370000CF370000A1390000CF370000FC
:1038E000CF370000CF370000CF370000FF3900008E
:1038F000CD390000D1390000CF370000CF370000AC
:1039000019390000CF370000CD390000CF37000053
:10391000CF370000CD390000002FDDF830900ADBF2
:10392000394648461FF01CFE09EB00070026B9F196
:10393000000F0CD14BE74846FDF706FAF4E70C9B65
:103940008DF8183000260DF119070DF11809A7EBB5
:10395000090306B101339DF83A20D00669D5023338
:1039600052060F9948BF109A0B4448BF9B18B8F1F4
:10397000000F76DD9DF83820A8EB0308C2F3800322
:10398000039353076DD4500661D53EB15946304676
:10399000D047002858DB039B01351E46302357E0F3
:1039A0001E0711D413F0100618BF2026DDE90C23E2
:1039B000002A73F10001BFF661AF524263EB43038B
:1039C000CDE90C232D2659E72B26EFE7002655E7F6
:1039D0000C9848B30DF12E0300930EAA06AB0021FC
:1039E000FFF79AFCBDF83A3003F0EF0343F4F043DD
:1039F00043F010038146ADF83A30002648E70C9BAF
:103A000007293FF6E4AEDFE801F00D04060D0808D3
:103A10000D0D1D70DBE61D80D9E62846E917C3E9C8
:103A20000001D4E61D60D2E62E4F0646A7F1050937
:103A30008DE7110748BF013392E7184659460393B3
:103A4000D0470028039B04DA13B0BDE8F08F202391
:103A500045444246002AA5EB080108F1FF38ECDC9A
:103A60000D462EB159463046D0470028ECDB0135D3
:103A70009DF83A30D90601D41A0705D559463020A9
:103A8000D0470028E0DB01359DF83A30DB0606D54B
:103A90009DF83B005946D0470028D5DB01350F9EE5
:103AA0002E44731B002B15DC3B464A4659465046B4
:103AB0001AF066FF0028C7DB0544A844A8EB0503FD
:103AC000002B7FF784AE59462020D0470028BBDB6F
:103AD0000135F3E759463020D0470028B4DB0135E3
:103AE000DFE700BF8C53020030B51049104889B0A1
:103AF00000221FF08BFB0F4D0F4900220023CDE960
:103B0000062300240E23CDE90334CDE901440B4BF9
:103B100000944FF44072284619F0F8FD08492846F1
:103B20001FF03DFA204609B030BD00BF453B000004
:103B3000C0090020F8090020B0320020AD3F00008D
:103B40008D530200014819F047BD00BF58080020FE
:103B5000F0B505460F4E002003460246012715F832
:103B6000014B0CB18B4200D3F0BD252C02D182F069
:103B70000102F4E7002AF2D014F806C01CF0030F8B
:103B8000EDD0732C04BF07FA03F210430133002277
:103B9000E5E700BF8073020008B500F069FA094844
:103BA0001AF005FF08234822074908481EF0DDFFE8
:103BB000074B084A1A604FF40040BDE8084000F087
:103BC000A1BC00BF34140020A05400203C140020ED
:103BD0007C010020EDE90100F8B50F4BBFF35B8FCE
:103BE000002553E8007F43E80052002AF9D1BFF3D3
:103BF0005B8F0A4C0A4E361B3611B54200DBF8BD0E
:103C000063685B792BB12368DB6813B139462046C2
:103C1000984701351034F0E72C1400204839020091
:103C200058390200064BBFF35B8F53E8002F013277
:103C300043E800210029F8D1BFF35B8F704700BF34
:103C40002C140020044A054B9B1AB1EBD30F34BF50
:103C500052F8310000207047D8370200483902007E
:103C6000094B4268C31A1B11013310B51371436825
:103C7000064C196001225A71227812B9044819F0D1
:103C8000ABFC0123237010BD48390200222C002018
:103C90005808002070B5114BBFF35B8F53E8005FED
:103CA0006A1C43E800210029F8D1BFF35B8F2DB9CE
:103CB0000B4C0C4E361B3611B54200DB70BD237B1E
:103CC0004BB123685B690BB1204698470422002161
:103CD0002046FFF7C5FF01351034EDE73014002012
:103CE0004839020058390200174B984273B5044610
:103CF00002D3164B984221D315480022002301A974
:103D000018F09AFF0546E0B90122019BBFF35B8FD3
:103D100053E8001F43E800200028F9D1BFF35B8F70
:103D2000019E331D4122184621461FF006FC7E22CB
:103D3000034686F8452086F846501C46204602B0C9
:103D400070BD044BF9E700BF8435020080740200A7
:103D50003C1400209553020050B1064B984206D304
:103D600003F5107398422CBF0020012070470020FB
:103D7000704700BFA05400202DE9F04F4C4B1B783A
:103D800085B0044603B960B34FF02003EFF311860A
:103D900083F31188BFF36F8F46481AF018FE05466B
:103DA00086F31188BFF36F8F78B1BFF35B8F424BFF
:103DB00053E8002F013A43E800210029F8D1BFF36E
:103DC0005B8F94B128461AF013FF24B93B4B1B6854
:103DD0000BB1FFF701FF37481AF0F7FD041E18BFBB
:103DE0000124204605B0BDE8F08F354B1B78CBB9D8
:103DF0002B7ADB0716D41AF00EFF804628461AF0FD
:103E0000D5FE01464046FFF7A3FE2E4F2E4BDFF8AE
:103E1000D4B0DB1BDB0803932C4BDB1B06464FEABD
:103E2000D30A36B92A4E2B4FBF1B3F114FF0000863
:103E30003AE0B6FA86F1C1F11F09494628461AF060
:103E4000B8FE254B9842014602D3244B98421AD320
:103E50000846FFF781FF0246A8B9214B994212D0CC
:103E60006B8903989909B0EB931F4FEA8A1343F0CB
:103E7000010388BF57F83120ADF80030494643466A
:103E800058461AF0F1FD012101FA09F126EA01066E
:103E9000C7E773685B7923B1336829461B683046EE
:103EA000984708F101081036B845F2DB8AE700BFF1
:103EB000222C002034140020281400202C14002070
:103EC000232C0020D837020048390200F0380200C5
:103ED000483902005839020084350200807402001B
:103EE00095530200AF530200294B37B51B6841813F
:103EF00004469847E0604FF02003EFF3118583F309
:103F00001188BFF36F8F234821461AF054FD85F3C3
:103F10001188BFF36F8FBFF35B8F1F4B53E8002FE8
:103F2000013243E800210029F8D1BFF35B8F1B4A1F
:103F3000127882B14FF02003EFF3118483F31188DC
:103F4000BFF36F8F0020FFF717FF84F31188BFF3D3
:103F50006F8F03B030BD124A1B681268002AF8D078
:103F6000012B0AD100220023CDE900230D484FF494
:103F70000042002319F088FFEBE70A2BE9D109483A
:103F80001FF050F9084803B0BDE8304019F024BBD9
:103F90007C0100203414002028140020232C002051
:103FA00058140020C00900205808002010B5FFF761
:103FB00071FE19F097FA0C4B186030B10B4B1B686F
:103FC000092B02DD0A4819F007FB094C0020FFF716
:103FD000D3FE0028FAD14FF0FF324FF0FF332046D6
:103FE00019F020FBF2E700BF58140020281400202D
:103FF00058080020F8B50E4F3D7875B90D4C0E4E9F
:10400000FFF748FE361B3611B54207DB0020FFF7ED
:10401000B3FE0028FAD101233B70F8BD63685B79D9
:104020001BB1236820461B69984701351034EBE724
:10403000232C0020483902005839020007B5043803
:104040000190BFF35B8F50E8003F5A1E40E800210B
:104050000029F8D1BFF35B8F012B03D1034801A9DD
:1040600018F01CFE03B05DF804FB00BF3C140020F8
:104070002023024902481A461EF077BDE056002070
:104080005C14002037B50023094D01930120FFF790
:1040900073FE0446FFF7C6FD0022002301A928464F
:1040A00018F0CAFD08B1002CF0D1019803B030BD62
:1040B0005C14002007B50023019307480022002369
:1040C00001A918F0B9FD10B1FFF7DCFF01900198CC
:1040D00003B05DF804FB00BF5C140020F0B5037A68
:1040E000457A85B02D090190D8071CD4DDB1002494
:1040F0002646019831461AF05CFD0746FFF72CFE74
:1041000070B134B9019B29461869FFF721FD0446B7
:1041100048B124FA06F3D90702D53846FFF78EFFD7
:104120000136AE42E5D3019B1A7A920704D55B694A
:10413000084C0393039B2BB9064801A918F0AEFD68
:1041400005B0F0BD1D6803A9204618F0A7FD039532
:10415000F0E700BF5C1400200EB403B503AB0146CA
:1041600053F8042B04480193FFF726F902B05DF8D9
:1041700004EB03B0704700BF63F001002DE9F04F7E
:1041800085B011F0020490469DF8387006461A4634
:1041900001F0010901F0080507D011F0440F37D1F3
:1041A0003249FFF7D9FF01460C46B9F1000F0AD09A
:1041B0002F4B304953F827202F4B3046002A08BF99
:1041C0001A46FFF7C9FF3DB12C4B2D4953F8272064
:1041D0003046FFF7C1FF0546B8F1000F43D0012379
:1041E00003FA07F7274B17F0100F274F18BF1F468A
:1041F000BDF840109DF83C00FFF724FD394602460B
:104200003046FFF7A9FF2844204405B0BDE8F08FF1
:104210001E4B19680029C7D01D4B4FF4616E1B68F7
:10422000B2FBF3F34FF47A7CB3FBF1F4B4FBFEF290
:104230000EFB124E01FB14340CFB04F44FF03C0A4D
:10424000B4FBF1FB01FB1B440CFB04F4BEFBFAF3D3
:10425000B4FBF1F1CDE901B10AFB13E100910D4985
:10426000FFF77AFF9FE7084FC2E700BF0054020044
:10427000A03A02009E610200F2530200B43A02002A
:1042800025540200FC530200F7530200781400206A
:104290007C1400200954020038B50C46E10705469D
:1042A00003D5084A0849FFF757FFE20608D4A306DA
:1042B00028464CBF05490649BDE83840FFF74CBFCA
:1042C00038BD00BFF25302009E6102002C54020070
:1042D0002B5402002DE9F0471D46089B1746DA06CD
:1042E00004460E4605D499064CBF2B492B49FFF7CF
:1042F00033FFDFF8B0904FF00008A8452DDBDFF862
:10430000A880DFF8A890DFF89CA00025BD4232D23B
:10431000725D49462046FFF71FFF0135102D23D15E
:104320001F49DFF88080DFF88890DFF888A02046FA
:10433000FFF712FF0025AF4229D9725D12F809304C
:1043400013F0970F08BF2E2251462046FFF704FFB7
:104350000135102D14D1BDE8F08749462046FFF7FE
:10436000FBFE08F10108C8E76A07CFD15146204695
:10437000FFF7F2FECAE741462046FFF7EDFECCE725
:104380006B07D8D141462046FFF7E6FED3E741460A
:104390002046FFF7E1FEDBE72C5402002B5402001D
:1043A0003854020036540200345402002E540200E5
:1043B000807302003A5402002DE9F0478B7A13F023
:1043C000070817468AB00A7A05460E4620D0498962
:1043D000C3F3C2038909D243CDE900830291F36894
:1043E00002F001023946FFF7C9FE8146347AE44300
:1043F00014F001040ED0294630461AF0C8FCB8F17A
:10440000000F2BD0424639462846FFF745FF25E0EE
:10441000C146EBE7B8F1000F26D12746EB680693BB
:1044200006AA3B46A96830461AF09DFC069A6B68BE
:104430001A603AB1AB68134413F8014CA4F10A03B3
:104440005C425C4128461AF0FFFD069B1F44002B8E
:10445000E4D11CB113492846FFF77EFE28461AF026
:10446000F3FD0AB0BDE8F08730461AF0D4FB0E49E0
:1044700002462846FFF770FE4FF0100A05AA2346B1
:1044800006A93046CDF814A01AF06DFC059A002A52
:10449000B8D04B46009706A92846FFF71BFF059B9F
:1044A0001C44EBE73D5402009E61020073B542F2EA
:1044B0000F738B4228BF0B4605680F4A044605213F
:1044C000684619F0CAFE63680C495B6806460B2211
:1044D00028461AF04FFC63683246694628465B68F6
:1044E0001AF048FC636806495B681B2228461AF0EC
:1044F00041FC02B070BD00BF0C7102007B54020091
:104500005F540200084A10B50123084C13600021D3
:10451000A04204D801B11360054B186010BD4008DB
:104520005B000121F4E700BF7C14002040420F0033
:1045300078140020014B01221A707047342C00209F
:10454000024B034801221A701AF07EBD352C002060
:10455000E03A02000148FFF7A9BF00BFE03A0200BD
:1045600010B508460C461AF014FB054821460F22E8
:10457000FFF722FF2046BDE810401AF039BB00BF0C
:10458000E03A0200054B1B781BB141F288301EF067
:1045900002BDA420002118F083BF00BF352C0020ED
:1045A0002DE9F84FDFF89090DFF890B007460E46FF
:1045B0000424CA4699F8003033B94FF0FF324FF067
:1045C000FF33584618F094FB32463946002000F07D
:1045D00095FC9AF80030804613B9584618F000FC54
:1045E000144DB8F1000F18D001232B709AF8003049
:1045F00033B93046BDE8F88F5CB92C704FF0FF340A
:10460000002000F0FBFC0028F3D02B78002BF3D126
:10461000EFE7013CFFF7B6FFF2E72B7813B1013C5F
:1046200004D12C702B78002BC4D1E2E7FFF7AAFF4E
:10463000F8E700BF342C0020352C00202C08002087
:10464000074B084A0848D21AD208084B92010129A0
:1046500014BF0146194642F0030205481AF0D7B9C3
:10466000D837020000390200C1540200B9540200D8
:10467000CA540200F0B51446177852781D461E4BF6
:1046800053431E4A02FB0733A7781D4A85B002FB3D
:1046900007371C4818F03AF9064650B91A4A1B4920
:1046A0001B48891AC908890141F0010215491AF00D
:1046B000AEF94FF42063ADF8083001238DF80A30CD
:1046C000144B0393B36801971B6801A930469847C0
:1046D000002809DA0D490C4B0F48C91AC90889018D
:1046E00041F001011AF086F9A1780C482A4619F028
:1046F000A7FD002005B0F0BD8096980000E1F5050B
:1047000040420F0004530200D83702000039020073
:104710000B53020008000401E0540200F3540200AD
:1047200070B504468CB00D46F9B91C4E1C4819F002
:1047300087FDFF2333702378737018226378B3707A
:1047400029460DEB02001EF0E8FE164BCDE90736B8
:10475000032306A90020ADF8243006F0ABFA10F1CF
:10476000800F08BF00200CB070BD0F4819F068FD25
:1047700001AA631E1546133413F8011F02F8011B2A
:10478000A342F9D1182200210DEB02001EF0C5FE54
:10479000044BCDE907351423DBE700BF362C00209E
:1047A00015550200683B02001F550200F8B505468A
:1047B0004FF02003EFF3118683F31188BFF36F8F5F
:1047C0000B4B1C68002C38BF00245CB1094FD4E9A6
:1047D0000132002D08BF13460BB138789847246882
:1047E000002CF4D186F31188BFF36F8FF8BD00BFA2
:1047F000941400209C140020084B10B51C685CB970
:1048000001221A60064B93E803001BF044FE204689
:10481000BDE81040FFF7CABF10BD00BFC4010020B3
:104820009C14002037B56D46014628461AF050FC0E
:1048300095E803000B4C84E80300207880B10A4B14
:1048400000221A6018F0A0FB0120FFF7AFFF94E8E8
:1048500003001BF00DFEFFF7CFFF18F085FC20785A
:1048600003B030BD9C140020C401002010B5044CDE
:104870002046FEF73BFC204601F0E0F9002010BD89
:10488000854800002DE9F341DFF86080164E8DF871
:104890000700044603254FF0FF334FF0FF32404638
:1048A00018F026FA01220DF10701002000F072FB3A
:1048B0000746404618F094FA2FB101233370204682
:1048C00002B0BDE8F0813378002BF8D0013D08D06C
:1048D0001EF05BFB0028DED10021422018F0E0FD35
:1048E000D9E73570EBE700BF392C00202C080020F9
:1048F00070B504460D48231A9A100D4B5343DBB292
:104900000C255D4305F140030E46184440211AF082
:10491000ECFB011E04DB074B2B445B68984700212E
:1049200020463346BDE87040184700BFB814002049
:10493000B76DDBB6E03B02002DE9F0410F4C104DA6
:10494000031B9B105D43EBB20C255D43074605F14D
:1049500040000E46204440211AF0E0FB011E08DB17
:10496000084B2C44C4E90E36074B5B59BDE8F041B7
:10497000184738463346BDE8F0411847B8140020C0
:10498000B76DDBB67FF10100E03B0200002270B59D
:1049900001210446104600F04DFD002000F018FDF6
:1049A0000F4817F02FFD0F4B984215D11EF000F85D
:1049B00026690D49304619F0ACFC00280BDB0125B7
:1049C00035642469084904F11C0019F0A2FC002890
:1049D00001DBE564002070BD6FF00400FBE700BF61
:1049E000214A00000000AD0BF83B020001460C23F9
:1049F00009484B4370B5C418D4E90E560022403321
:104A0000A26318441AF0A8FB2DB132462B46034886
:104A1000BDE87040184770BDB8140020DC060020C7
:104A200010B1012804D07047034B1B6C5B0701D108
:104A3000FFF7DCBF704700BFB814002008B54FF087
:104A40002003EFF3118183F31188BFF36F8F124AB4
:104A5000136843F0020013F0010310600CD04FF014
:104A60008042D2F80C34D2F80C2413F0010303D0A6
:104A70000A481AF071FB012381F31188BFF36F8F8D
:104A800023B1BDE808400020FFF7B0BFBDE80840F3
:104A9000012017F0C7BC00BF08150020F814002043
:104AA000094BBFF35B8F53E8002F22F0020143E86C
:104AB00000100028F7D1BFF35B8FD30702D4012089
:104AC00017F0E2BC704700BF081500207FB5002238
:104AD0000123CDE9022304ABCDE90433094ACDF823
:104AE00000D06B46CDF804D01AF06FFB002805DB30
:104AF0004FF480420023684618F094FD07B05DF83B
:104B000004FB00BF9DF10100024AC3B21C2003FB5D
:104B100000207047B8140020094BBFF35B8F53E8A7
:104B2000002F42F0010143E800100028F7D1BFF345
:104B30005B8F930702D4012017F074BC704700BF4D
:104B400008150020094BBFF35B8F53E8002F22F0BC
:104B5000010143E800100028F7D1BFF35B8F9307F2
:104B600002D4012017F090BC704700BF0815002048
:104B70002DE9F8433A49BFF35B8F0646012251E81D
:104B8000003F41E800200028F9D1BFF35B8F33B923
:104B9000344935484B60CB608A6019F0CDFB731EF9
:104BA000012B32D8012E07D14FF08043D3F81C34AB
:104BB00003F00303012B28D01EF0E7F9044618B9CF
:104BC0002A4B1B78002B44D14FF02003EFF31185C3
:104BD00083F31188BFF36F8F0124254FDFF8948092
:104BE000DFF894904FF08042D2F81834D2F81824AD
:104BF000D2030CD503F00303012B01D0012E06D103
:104C00000CB385F31188BFF36F8FBDE8F883ACB1A7
:104C1000284600F07DFC4FF08042D2F81835002B7A
:104C2000E0D139680029DDD03B603B680123C2F840
:104C30001835C8F88031C9F80030D3E700212120A9
:104C400018F02EFCE7E74FF080430222C3F804235C
:104C5000DBE74FF080430222C3F808230546BCE798
:104C60000C150020A8140020D4140020A932002024
:104C70000401004000E100E008000040044A13681D
:104C8000C81A20F07F400344136019F04FB800BFEA
:104C9000201500202DE9F047860006F1804600F13E
:104CA000500406F58836A400DFF87C80D6F840353D
:104CB000A4B204F180444FF4803721F07F4504F51D
:104CC00088348740C146D8F804A5A3EB0A0323F033
:104CD0007F432AF07F42012BC6F8402502D11320E2
:104CE0001EF059F90AF10202AB1A23F07F43B3F523
:104CF000000F88BF1546002323602368C9F844735A
:104D000025F07F43C6F84035D9F804359A4506D0DA
:104D1000EB1A023B23F07F43B3F5000F01D8BDE847
:104D2000F0872B46CFE700BF00100140F8B5104ECA
:104D3000104F0025104B00201C681A4605B1F8BD25
:104D4000D6F80413C903FAD539680029F7D03D60B5
:104D500039684FF48031C6F84813D6F8401501255C
:104D60001CB15A681860A047E4E71460E7E700BF89
:104D700000100140401101401415002038B5104DBD
:104D800000244FF48033C5F80845C5F804330D4BB3
:104D90004FF40032C3F8802101212246112000F097
:104DA00049FB112000F014FB074A01231360074A56
:104DB0002B6002201360FFF7DBFE204638BD00BFEA
:104DC0000010014000E100E0081001401C15002027
:104DD000134BB0F1FF3F08BF1846013800281CDD17
:104DE0009842A8BF18460F4BD3F804250E4B1968FC
:104DF000521A12F4000F22F07F4318BF00200B4A12
:104E0000013303440A48106000205060044A934272
:104E100094BFC9188918FFF73DBF0020E3E700BF22
:104E2000FFFF7F0000100140201500201415002016
:104E30007D4C00004FF02002EFF3118382F31188C4
:104E4000BFF36F8F064AD2F80405064A1268801A2B
:104E500020F07F4083F31188BFF36F8F704700BF4E
:104E600000100140201500204FF02003EFF31182C5
:104E700083F31188BFF36F8F0649074B0868D3F897
:104E8000043582F31188BFF36F8F1B1A23F07F4321
:104E900018447047201500200010014010B5114C37
:104EA000114AA2610323C4E90433104BE361226673
:104EB0004FF480630E4A0F4923626266002310227A
:104EC000E01DA3626362E3622367E3666367A26631
:104ED0001EF02BFB084920461EF027FB2023A37160
:104EE00010BD00BF241500205D5502004A2C002093
:104EF0003A2C0020665502006A5502002DE9F84F51
:104F0000234F4FF0180B14460BFB00720646936AB2
:104F1000556AAB42884634D8D2F820A0AAEB0509DE
:104F200009F1FF32944211D84FF0180906FB09939A
:104F30003B4422465868414628441EF0E0FA09FBEB
:104F400006762C4474620120BDE8F88F13449C421D
:104F50001BD800FB0BBBBB444A46DBF804002C44C7
:104F600028441EF0CCFAB4EB0A0406D0DBF80400A7
:104F7000224608EB09011EF0C2FA182000FB067653
:104F8000E0E7013B5B1BA342CED20020DCE700BF81
:104F900024150020F8B5184C182300FB033503FB3B
:104FA00000402544C46A012C0F4616460FD0022C3F
:104FB0001AD0F4B928461AF024F9864205D83246A8
:104FC000394628461AF02BF934462046F8BD2846C3
:104FD0001AF017F98642344628BF0446224639465D
:104FE00028461AF01CF9F0E72846BDE8F8401AF008
:104FF00032B90024E9E700BF24150020034B182232
:1050000002FB00339A6A586A801A70472415002000
:10501000014B1868704700BFC8010020F0B5082296
:1050200089B00C4606461AF00AFBCB6A03930B6B59
:1050300004934B6B05938B6B0693CB6B0793002705
:1050400008236A4669466846CDE9017700971AF059
:10505000F8F9082305466A46314630461AF0F1F958
:10506000236B0393636B0493A36B0593E36B05447A
:10507000CDE906376A460823694668461AF0E1F921
:105080003146054408236A4630461AF0DAF9236AA5
:105090000093636A0193A36A0293A36B0693E36B85
:1050A0000793054408236A463046CDE90477039701
:1050B0001AF0C7F9636A0093A36AA26B0193E36ACB
:1050C00002930492636BE26B0393CDE90523236A99
:1050D0000793054408236A4630461AF0B2F9E36A9A
:1050E0000093236B0193636B0293236A0693A36A75
:1050F0000793054408236A463046CDE904770397B1
:105100001AF0D3FA236B0093636B0193A36B0293A2
:10511000E36B0393636A0693E36A07932D1A0823EC
:105120006A463046CDE904771AF0BFFA636B009304
:10513000A36B0193E36B0293236A0393636A049363
:10514000A36ACDE90537236B07932D1A08236A4616
:1051500030461AF0AAFAA36B0093E36BCDE901374E
:10516000636A0393A36A0493E36ACDE90537636B2B
:1051700007932D1A08236A4630461AF096FA2D1A1C
:1051800010D40D4C35B90822314620461AF063FA86
:1051900001280FD008232246314630461AF085FAFE
:1051A0002D1AEFE7044A0823314630461AF049F930
:1051B0002D18F8D409B0F0BD083C0200F0B5264E19
:1051C00007460C460FCE8DB001AD0FC50FCE0FC5F3
:1051D00096E8070085E807003846002F38D0002CF5
:1051E00038D0381F2146024610344B780D781B0406
:1051F00043EA0563CD782B438D78043143EA0523D8
:105200008C4242F8043FF0D1144C04218A07036910
:1052100016D1C3F30742A55C1A0EA25C42EA0562EE
:10522000C3F30725DBB2655DE35C42EA054242EA6F
:1052300003220CAD21F003032B4453F82C3C5340C4
:1052400050F8042F013153402C290361DED1012095
:105250000DB0F0BD2046FBE7C439020071550200D5
:105260002DE9F043154689B00646002858D000299C
:1052700059D0002A59D010230A46684619461AF018
:105280001AF8294668462A4C1AF021FF05F1100742
:10529000A146A035E8466A4610231178013B615CBF
:1052A00002F8011BF9D168461AF056FF694604A8B6
:1052B0001AF08BFF01A905A81AF087FF02A906A81A
:1052C0001AF083FF03A907A81AF07FFF10231946DD
:1052D0000DEB0302684619F0EEFF394668461037B9
:1052E0001AF0F5FEAF42D5D1102498F80030013CF9
:1052F00019F8033008F8013BF7D168461AF02CFF83
:10530000294668461AF0E3FE102319466A463046DD
:1053100019F0D1FF68461022214619F0D9FF01206B
:1053200009B0BDE8F0830846FAE71046F8E700BF89
:1053300071550200094A0A4993680968D967094901
:1053400098674B6843F080534B60002383F31188C8
:10535000BFF36F8F9368D86F704700BFB82B0020E2
:10536000C851020000ED00E00F498A684FF030009C
:105370001044EFF3098C80E8F01F202080F311889F
:10538000BFF36F8F094F4FF000664A6A8A603E6034
:10539000906F0023936780F3118802F1300090E84A
:1053A000F01F8CF309887047B82B002004ED00E053
:1053B0001EF0040F0CBFEFF30880EFF30980816942
:1053C00011F8021C0229FFD001B51BF041F801BD04
:1053D00043B2002B08DB012200F01F0002FA00F0AC
:1053E0005B09024A42F82300704700BF00E100E079
:1053F00043B2002B0DDB01225B0900F01F0002FA13
:1054000000F02033034A42F82300BFF34F8FBFF36D
:105410006F8F704700E100E0054B420900F01F006C
:1054200053F82220012303FA00F01040704700BF18
:1054300000E100E043B2002BA8BF03F1604301F19B
:105440000101B8BF064B4FEA4111ACBF03F5614300
:1054500000F00F00C9B2B4BF195483F800137047AD
:1054600014ED00E008B572B6044B186A18B10022BA
:105470001A621DF007FB62B608BD00BFB82B002002
:1054800042F8203C009B42F81C3C0A49019B42F830
:10549000183C029B42F8143C21F001014FF080734C
:1054A00042F8043C42F8081C0023203A0265836756
:1054B000704700BF15E4010008B506460D461446C6
:1054C00000F00AFB074B9E60204685F30988002107
:1054D00063B681F31188BFF36F8F0022002318F0A9
:1054E00099FF00BFB82B0020014910220A607047C5
:1054F00010ED00E072B6404080F31188BFF36F8F6B
:10550000BFF34F8F30BF62B6BFF36F8F704700BFDE
:1055100072B6494081F3118820BF80F3118862B6CA
:10552000704700BF73B506460C4601B3134B144DCC
:105530001448ED1AED08AD0145F00105ADF8005035
:10554000D1E90123096819F08FFAADF80050D4E9C8
:105550000423E1680C4819F087FAE1690B482A46F0
:1055600019F055FAA1690A482A4619F050FA21465D
:10557000304602B0BDE8704017F00CBAD8370200D0
:105580001839020071560200A0560200CF560200E0
:10559000DE56020030BFFFF7FDBF00BF0E4A08B560
:1055A0000E4B22F07F029A60BFF34F8FBFF36F8FD5
:1055B000D3F8882022F47002C3F88820EFF3148314
:1055C00023F0040383F3148817F058FA18F0B4FAA0
:1055D00000F064FA17F076FA0000000000ED00E039
:1055E00001B572B60B4A106A00281EBF0021116275
:1055F0001DF048FA62B6EFF30580A0F110004FEA03
:10560000C0000549014409C99847BDE80140034964
:1056100008470000B82B002014360200815A000011
:105620001AF024FF202080F3118808484FF400610D
:10563000401880F30988EFF314800221084380F3B7
:105640001488BFF36F8FFFF7A9FF0000A048002068
:10565000EFF30880EFF3098101B5724600F034F9E9
:1056600001BD00BF70B5234B234C244D2448E41AE0
:10567000E408A40144F00106314619F0BBF9AA6A16
:10568000930103D51F48314619F0B4F9AB6ADD0127
:1056900004D51D4844F0010119F0ACF9174DAA6A70
:1056A000100304D5194844F0010119F0A3F9AB6ABD
:1056B000590304D5164844F0010119F09BF90F4D28
:1056C000AA6A920304D5134844F0010119F092F933
:1056D000AB6ADB0304D5104844F0010119F08AF9E4
:1056E000064A936A6FEA03436FEA1343936200200A
:1056F00070BD00BFD83702001839020000ED00E08D
:105700000C5702002457020037570200515702007D
:105710006F57020094570200AE5702002DE9F04186
:10572000284B294C294DE41AE408A40144F001084F
:1057300007460E462648414619F05CF9AA6AD0068B
:1057400003D52448414619F055F9AB6A190704D529
:10575000214844F0010119F04DF91C4DAB6A9A073C
:1057600012D544F0010841461C4819F043F9696B11
:10577000AB6A1B0608D51A48424619F048F91FB112
:10578000AB6A23F08003AB62104DAA6AD00704D540
:10579000144844F0010119F02DF9AB6A990604D5BB
:1057A000114844F0010119F025F9084B9A6AD20614
:1057B00058BF9A6A9A6A002042F0FF029A623070DB
:1057C000BDE8F081D83702001839020000ED00E092
:1057D000D9570200EF570200225802003558020044
:1057E0004D58020063580200825802002DE9F04132
:1057F0002A4B2B4C2B4DE41AE408A40144F0010879
:1058000007460E462848414619F0F4F8AA6AD10422
:1058100003D52648414619F0EDF8AB6A1A0504D5C0
:10582000234844F0010119F0E5F81E4DAB6A9B05D1
:1058300012D544F001081F48414619F0DBF8A96B66
:10584000AB6A180408D51C48424619F0E0F81FB1AD
:10585000AB6A23F40043AB62124DAB6A590504D521
:10586000164844F0010119F0C5F8AB6ADA050DD508
:10587000134844F0010119F0BDF80A4A936A002068
:1058800043F47F4393623070BDE8F081AB6A9B04C0
:10589000F3D50C4844F00101EDE700BFD837020012
:1058A0001839020000ED00E0B1580200C7580200AC
:1058B00022580200D8580200F1580200065902008E
:1058C00021590200825802002DE9F0410D465A4943
:1058D0004F688AB0C7F30804002686F31188BFF327
:1058E0006F8F02F07F41B1F17F4F0DD102F00C01BB
:1058F00008290BD15149524B5248C91AC90889018C
:1059000041F0010119F076F8354603E0120701D4A1
:105910000546012600238DF80730E31E092B71D8B8
:10592000DFE803F0055F633C707070707067444B94
:10593000424F4548FF1AFF08BF0147F001073946AB
:1059400019F058F83C4BDC6A4FF0000814F00204E0
:105950008DF8078005D03D48394619F04BF80024F2
:105960001FE0DB6A5B001CD53948394619F042F864
:10597000384B1B782BB10DF107010120FFF7CEFE4C
:105980000EE0354B1B782BB10DF107010120FFF71D
:105990002DFF05E0314B1B889BB213B1FFF762FE70
:1059A00004469DF80730CBB92B4603F1200702AD22
:1059B000186859682A4603C20833BB421546F7D116
:1059C000099B9EB3C3F3080222B96FEA53236FEA1F
:1059D0004323099302A92046FFF7A4FD0AB0BDE8BE
:1059E000F0810DF107010020C8E70DF1070100204B
:1059F000CDE71249124B1A48C91AC908890141F06A
:105A00000101AAE70E4A0D4B164817499B1ADB08FD
:105A100017F4F87F4FEA831318BF014643F00103E0
:105A20001248A4F1100219F006F898E723F4FF7366
:105A300023F00103CDE700BF00ED00E018390200BC
:105A4000D837020039590200645902007B5902001C
:105A50009C59020028ED00E029ED00E02AED00E06D
:105A6000BB590200F4590200DF5902000D5A02002E
:105A7000024A536943F010035361704700ED00E0A0
:105A8000044B9968586A884203D003494FF080520A
:105A90000A607047B82B002004ED00E004480023A2
:105AA0002021C2180133302B82F80013F9D170473E
:105AB00000E100E0064B9B68834207D1EFF30583CA
:105AC00023B1044A536843F08053536017F020BD5C
:105AD000B82B002000ED00E0024B034A03480121EF
