:1000000068D20020F1640000A51402002165000000
:10001000216500002165000021650000000000004E
:1000200000000000000000000000000081620000ED
:100030002165000000000000396200004B02020050
:10004000B164000051830100B1640000B16400009C
:10005000B1640000B1640000B1640000B16400004C
:10006000B1640000B1640000B1640000B16400003C
:10007000B1640000B1640000B1640000B16400002C
:10008000B1640000B1640000B1640000B16400001C
:10009000B1640000B1640000B1640000B16400000C
:1000A000B1640000B1640000B1640000B1640000FC
:1000B000B1640000B1640000B1640000B1640000EC
:1000C000B1640000B1640000B1640000B1640000DC
:1000D000B1640000B1640000B1640000B1640000CC
:1000E000B1640000B1640000B1640000B1640000BC
:1000F000B1640000B1640000B1640000B1640000AC
:1001000081F0004102E000BF83F0004330B54FEAC8
:1001100041044FEA430594EA050F08BF90EA020F35
:100120001FBF54EA000C55EA020C7FEA645C7FEAC8
:10013000655C00F0E2804FEA5454D4EB5555B8BFEB
:100140006D420CDD2C4480EA020281EA030382EA5C
:10015000000083EA010180EA020281EA0303362DEE
:1001600088BF30BD11F0004F4FEA01314FF4801CC1
:100170004CEA113102D0404261EB410113F0004FD3
:100180004FEA03334CEA133302D0524263EB43038A
:1001900094EA050F00F0A780A4F10104D5F1200E28
:1001A0000DDB02FA0EFC22FA05F2801841F1000183
:1001B00003FA0EF2801843FA05F359410EE0A5F157
:1001C00020050EF1200E012A03FA0EFC28BF4CF088
:1001D000020C43FA05F3C01851EBE37101F000453E
:1001E00007D54FF0000EDCF1000C7EEB00006EEB4B
:1001F0000101B1F5801F1BD3B1F5001F0CD34908D5
:100200005FEA30004FEA3C0C04F101044FEA44522B
:1002100012F5800F80F09A80BCF1004F08BF5FEAB2
:10022000500C50F1000041EB045141EA050130BD92
:100230005FEA4C0C404141EB0101013C28BFB1F5A4
:10024000801FE9D291F0000F04BF01460020B1FAEF
:1002500081F308BF2033A3F10B03B3F120020CDAC2
:100260000C3208DD02F1140CC2F10C0201FA0CF0A0
:1002700021FA02F10CE002F11402D8BFC2F1200C05
:1002800001FA02F120FA0CFCDCBF41EA0C019040BB
:10029000E41AA2BF01EB0451294330BD6FEA040404
:1002A0001F3C1CDA0C340EDC04F11404C4F12002EF
:1002B00020FA04F001FA02F340EA030021FA04F301
:1002C00045EA030130BDC4F10C04C4F1200220FA58
:1002D00002F001FA04F340EA0300294630BD21FA96
:1002E00004F0294630BD94F0000F83F4801306BF5C
:1002F00081F480110134013D4EE77FEA645C18BF50
:100300007FEA655C29D094EA050F08BF90EA020FE6
:1003100005D054EA000C04BF1946104630BD91EADE
:10032000030F1EBF0021002030BD5FEA545C05D1E1
:100330004000494128BF41F0004130BD14F5800420
:100340003CBF01F5801130BD01F0004545F0FE4194
:1003500041F470014FF0000030BD7FEA645C1ABFC9
:10036000194610467FEA655C1CBF0B46024650EA00
:10037000013406BF52EA033591EA030F41F400212C
:1003800030BD00BF90F0000F04BF0021704730B5B2
:100390004FF4806404F132044FF000054FF0000187
:1003A00050E700BF90F0000F04BF0021704730B548
:1003B0004FF4806404F1320410F0004548BF40421D
:1003C0004FF000013EE700BF42004FEAE2014FEA72
:1003D00031014FEA02701FBF12F07F4393F07F4F4D
:1003E00081F06051704732F07F4208BF704793F050
:1003F0007F4F04BF41F40021704730B54FF4607463
:1004000001F0004521F000411CE700BF50EA010265
:1004100008BF704730B54FF000050AE050EA01020E
:1004200008BF704730B511F0004502D5404261EB7E
:1004300041014FF4806404F132045FEA915C3FF4BF
:10044000D8AE4FF003025FEADC0C18BF03325FEA5C
:10045000DC0C18BF033202EBDC02C2F1200300FA0D
:1004600003FC20FA02F001FA03FE40EA0E0021FA32
:1004700002F11444BDE600BF70B54FF0FF0C4CF420
:10048000E06C1CEA11541DBF1CEA135594EA0C0FD2
:1004900095EA0C0F00F0DEF82C4481EA030621EA0D
:1004A0004C5123EA4C5350EA013518BF52EA033548
:1004B00041F4801143F4801338D0A0FB02CE4FF0FA
:1004C0000005E1FB02E506F00042E0FB03E54FF02A
:1004D0000006E1FB03569CF0000F18BF4EF0010E22
:1004E000A4F1FF04B6F5007F64F5407404D25FEA1E
:1004F0004E0E6D4146EB060642EAC62141EA5551D1
:100500004FEAC52040EA5E504FEACE2EB4F1FD0C12
:1005100088BFBCF5E06F1ED8BEF1004F08BF5FEA90
:10052000500E50F1000041EB045170BD06F0004642
:1005300046EA010140EA020081EA0301B4EB5C04EF
:10054000C2BFD4EB0C0541EA045170BD41F48011E7
:100550004FF0000E013C00F3AB8014F1360FDEBF0C
:10056000002001F0004170BDC4F10004203C35DAE8
:100570000C341BDC04F11404C4F1200500FA05F36B
:1005800020FA04F001FA05F240EA020001F000420C
:1005900021F0004110EBD37021FA04F642EB060182
:1005A0005EEA430E08BF20EAD37070BDC4F10C04AC
:1005B000C4F1200500FA04F320FA05F001FA04F270
:1005C00040EA020001F0004110EBD37041F100015C
:1005D0005EEA430E08BF20EAD37070BDC4F1200567
:1005E00000FA05F24EEA020E20FA04F301FA05F2CF
:1005F00043EA020321FA04F001F0004121FA04F277
:1006000020EA020000EBD3705EEA430E08BF20EA46
:10061000D37070BD94F0000F0FD101F00046400080
:1006200041EB010111F4801F08BF013CF7D041EA02
:10063000060195F0000F18BF704703F00046520006
:1006400043EB030313F4801F08BF013DF7D043EAD7
:100650000603704794EA0C0F0CEA135518BF95EA8D
:100660000C0F0CD050EA410618BF52EA4306D1D114
:1006700081EA030101F000414FF0000070BD50EA33
:10068000410606BF1046194652EA430619D094EABD
:100690000C0F02D150EA013613D195EA0C0F05D1A7
:1006A00052EA03361CBF104619460AD181EA0301FB
:1006B00001F0004141F0FE4141F470014FF00000B3
:1006C00070BD41F0FE4141F4780170BD70B54FF04E
:1006D000FF0C4CF4E06C1CEA11541DBF1CEA1355CE
:1006E00094EA0C0F95EA0C0F00F0A7F8A4EB0504B0
:1006F00081EA030E52EA03354FEA013100F08880A7
:100700004FEA03334FF0805545EA131343EA12636F
:100710004FEA022245EA111545EA10654FEA002624
:100720000EF000419D4208BF964244F1FD0404F5DD
:10073000407402D25B084FEA3202B61A65EB030539
:100740005B084FEA32024FF480104FF4002CB6EBF6
:10075000020E75EB030E22BFB61A754640EA0C0076
:100760005B084FEA3202B6EB020E75EB030E22BFB6
:10077000B61A754640EA5C005B084FEA3202B6EBF7
:10078000020E75EB030E22BFB61A754640EA9C00B6
:100790005B084FEA3202B6EB020E75EB030E22BF86
:1007A000B61A754640EADC0055EA060E18D04FEA44
:1007B000051545EA16754FEA06164FEAC30343EAE4
:1007C00052734FEAC2025FEA1C1CC0D111F4801FB1
:1007D0000BD141EA00014FF000004FF0004CB6E7AA
:1007E00011F4801F04BF01430020B4F1FD0C88BF49
:1007F000BCF5E06F3FF6AFAEB5EB030C04BFB6EB54
:10080000020C5FEA500C50F1000041EB045170BD46
:100810000EF0004E4EEA113114EB5C04C2BFD4EB73
:100820000C0541EA045170BD41F480114FF0000EF7
:10083000013C90E645EA060E8DE60CEA135594EA73
:100840000C0F08BF95EA0C0F3FF43BAF94EA0C0F76
:100850000AD150EA01347FF434AF95EA0C0F7FF4EB
:1008600025AF104619462CE795EA0C0F06D152EA3F
:1008700003353FF4FDAE1046194622E750EA410623
:1008800018BF52EA43067FF4C5AE50EA41047FF434
:100890000DAF52EA43057FF4EBAE12E74FF0FF3C99
:1008A00006E000BF4FF0010C02E000BF4FF0010C6A
:1008B0004DF804CD4FEA410C7FEA6C5C4FEA430CE3
:1008C00018BF7FEA6C5C1BD001B050EA410C0CBF32
:1008D00052EA430C91EA030F02BF90EA020F002094
:1008E000704710F1000F91EA030F58BF994208BFFB
:1008F00090422CBFD8176FEAE37040F001007047B8
:100900004FEA410C7FEA6C5C02D150EA013C07D10E
:100910004FEA430C7FEA6C5CD6D152EA033CD3D059
:100920005DF8040B704700BF8446104662468C4653
:100930001946634600E000BF01B5FFF7B7FF002886
:1009400048BF10F1000F01BD4DF808EDFFF7F4FFAF
:100950000CBF012000205DF808FB00BF4DF808ED3A
:10096000FFF7EAFF34BF012000205DF808FB00BF5D
:100970004DF808EDFFF7E0FF94BF012000205DF87F
:1009800008FB00BF4DF808EDFFF7CEFF94BF012034
:1009900000205DF808FB00BF4DF808EDFFF7C4FF2D
:1009A00034BF012000205DF808FB00BF4FEA410280
:1009B00012F5001215D211D56FF47873B3EB6252B1
:1009C00012D94FEAC12343F0004343EA505311F0D8
:1009D000004F23FA02F018BF404270474FF000006A
:1009E000704750EA013005D111F0004008BF6FF0A8
:1009F000004070474FF00000704700BF4A0011D21E
:100A000012F5001211D20DD56FF47873B3EB625268
:100A10000ED44FEAC12343F0004343EA505323FA74
:100A200002F070474FF00000704750EA013002D1E9
:100A30004FF0FF3070474FF0000070477BB972B93C
:100A40000029BEBF00204FF0004106E008BF00288B
:100A50001CBF6FF000414FF0FF3000F0B9B9ADF1AD
:100A6000080C6DE904CE002909DB002B1ADB00F02D
:100A70004DF8DDF804E0DDE9022304B070474042A0
:100A800061EB4101002B1BDB00F040F8DDF804E0D6
:100A9000DDE9022304B0404261EB4101524263EBC5
:100AA00043037047524263EB430300F02FF8DDF835
:100AB00004E0DDE9022304B0404261EB41017047EC
:100AC000524263EB430300F021F8DDF804E0DDE976
:100AD000022304B0524263EB4303704753B94AB94F
:100AE000002908BF00281CBF4FF0FF314FF0FF3036
:100AF00000F06EB9ADF1080C6DE904CE00F006F817
:100B0000DDF804E0DDE9022304B070472DE9F04789
:100B1000089D0E4604468C46002B40F081808A4298
:100B2000174645D9B2FA82F24AB1C2F1200106FA5B
:100B300002F320FA01F1974041EA030C94404FEA96
:100B4000174E230CBCFBFEF6B9B20EFB16CC43EAE3
:100B50000C4306FB01F0984209D9FB1806F1FF3C53
:100B600080F01581984240F21281023E3B441B1AEC
:100B7000A4B2B3FBFEF00EFB103344EA034400FBC7
:100B800001F1A14209D93C1900F1FF3380F0018144
:100B9000A14240F2FE8002383C44641A40EA06401A
:100BA00000211DB1D4400023C5E90043BDE8F08712
:100BB00002B9FFDEB2FA82F2002A4FD1CB1B4FEA14
:100BC000174E1FFA87F80121B3FBFEFC260C0EFB23
:100BD0001C3346EA034608FB0CF3B34207D9BE199F
:100BE0000CF1FF3002D2B34200F2EB808446F61AD9
:100BF000A3B2B6FBFEF00EFB106643EA064408FB08
:100C000000F8A04507D93C1900F1FF3302D2A045F6
:100C100000F2D2801846A4EB080440EA0C40C0E77A
:100C20008B4208D9002D00F0AF800021C5E90006F5
:100C30000846BDE8F087B3FA83F1002949D1B342F1
:100C400002D3824200F2BB80841A66EB03030120C8
:100C50009C46002DAAD0C5E9004CA7E7C2F12003AD
:100C60009740D8409140DE404FEA174E08434FEA84
:100C7000104CB6FBFEF11FFA87F80EFB11664CEA2A
:100C8000064601FB08F3B34204FA02F409D9BE197F
:100C900001F1FF3C80F08E80B34240F28B8002393C
:100CA0003E44F31A86B2B3FBFEF00EFB103346EA65
:100CB000034600FB08F3B34207D9BE1900F1FF3C1D
:100CC00074D2B34272D902383E44F31A40EA014169
:100CD0007AE7C1F1200703FA01F422FA07F31C4373
:100CE00020FA07F906FA01F34FEA144CFE4049EAEC
:100CF00003094FEA1943B6FBFCFE1FFA84F80CFB0C
:100D00001E6643EA06460EFB08FAB24502FA01F2F5
:100D100000FA01F308D9A6190EF1FF3048D2B24506
:100D200046D9AEF1020E2644A6EB0A061FFA89F94F
:100D3000B6FBFCF00CFB106649EA064600FB08F81F
:100D4000B04507D9A61900F1FF3C2DD2B0452BD9EB
:100D50000238264440EA0E40A6EB0806A0FB0289B2
:100D60004E45C446CE4618D315D075B3B3EB0C022E
:100D700066EB0E0606FA07F722FA01F3CE401F4390
:100D8000C5E90076002111E7294628460EE76646A8
:100D9000EDE6184601E74345E7D2B8EB020C69EBF4
:100DA00004040138A646E0E76046D3E760468CE7D6
:100DB0008646B9E7614674E702383C442BE70846AB
:100DC00047E7ACF1020C3E4411E72946EEE600BFCE
:100DD000704700BF10F8012B11F8013B012A28BF12
:100DE0009A42F7D0D01A7047034613F8012B002A15
:100DF000FBD1181A0138704770B5464DD5F824312B
:100E0000996811F0010188B021D103AA40F603408E
:100E100006F032FF0446002878D1039B9B681B78BC
:100E200093B9BFF35B8F2B4653F8982FBFF35B8FBB
:100E300002F00502BFF35B8F53E8001F43E8002078
:100E40000028F9D1BFF35B8F03981AF055F803AA75
:100E5000002141F2030006F00FFF0446002855D19F
:100E6000039A2D4E936853F8010F596803C6104634
:100E70001AF042F8214603AA41F2010006F0FCFEF6
:100E80000446002842D1039883685A7885F83420B4
:100E9000D9789A7842EA0122EA861A7985F83520CB
:100EA000197ADA7942EA01222A875A799B7942EA49
:100EB00003236B871AF020F8214603AA41F20200AF
:100EC00006F0DAFE044608BB039B9A68531C4132C5
:100ED00018685968344603C4083393422646F7D14C
:100EE0000E4820F07FFB03981AF006F895F8403082
:100EF0005A061BD40A4B0B490B48C91AC908890169
:100F000041F001011EF099FD6FF01204204608B077
:100F100070BD00BF000000203C0000204400002005
:100F20002C48020004490200CE70020003AA0021EE
:100F300042F2030006F0A0FE04460028E6D1039A20
:100F4000BF4E936853F8010F596803C6104619F055
:100F5000D3FF214603AA42F2020006F08DFE0446AA
:100F60000028D3D1039B9B68B3F80120A5F8CC20BF
:100F700091B229B1DA78114606F1280023F01BF866
:100F8000039819F0B9FF95F8406016F0200600F0BC
:100F9000EB8095F860301B0711D503AA002142F2BF
:100FA0001C0006F069FE04460028AFD10398836850
:100FB00053F8012F5B68C5E92A2319F09DFF95F8C6
:100FC000A0309E0624D502A90DF1060006F0CCFE45
:100FD000044600289AD1042142F2240006F0E8FCDD
:100FE0000646002800F0C7800421083022F095FA58
:100FF000BDF806300380BDF80830438022463146F4
:1010000042F2240006F038FE044600287FF47EAF4A
:1010100095F8A0305C0610D503AA002142F22A0000
:1010200006F02AFE044600287FF470AF0398836818
:101030005B7885F8E83019F05FFF082142F2010083
:1010400006F0B6FC0446002800F09580082108440C
:1010500022F063FA95F8A01011F0400F024640F21A
:10106000022308BF032388074CBF43F02C0043F042
:101070000C008B0695F8A13048BF40F0400013F0FB
:10108000090F95F8663018BF40F4006003F00603BE
:10109000CE0748BF40F01000062B08BF40F4C070D8
:1010A000002120F04EFB2146002242F2010006F012
:1010B000E3FD044600287FF429AF95F840309806F8
:1010C0001ED4B5F8CC10D9B903AA41F2050006F038
:1010D000D3FD044600287FF419AFB5F8CC3063B9CE
:1010E000039B9B685A78997842EA0122A5F8CC20A4
:1010F0009A885448114622F05EFF039819F0FCFECE
:10110000082140F6014006F053FC044698B308213C
:10111000084422F002FA95F8A030D90702463FD5DC
:1011200045A1D1E9000120F00CFB2146002240F648
:10113000014006F0A1FD044600287FF4E7AE014619
:1011400002AA4FF6014006F097FD3F4C3F4BE41AD0
:10115000E408A40140B33E4844F002011EF06DFCD7
:1011600007F0DCFD0446D1E6022140F66D4006F0B2
:101170001FFC044610B96FF06804C7E6022108306E
:1011800022F0CBF90123037046702146324640F627
:101190006D4006F071FD044600283FF4FAAEB5E656
:1011A0002C484FF00051BEE7029B2B489D68B5F8D4
:1011B0000120032A96BF2949294951F8221044F0F9
:1011C00003031EF05BFCB5F80110B5F803200229FB
:1011D00044F003032ED1032A2CD8224951F82210BF
:1011E00021481EF04BFC6A792048032A96BF20490B
:1011F0001B4951F82210CDE90312AA790592B5F8DE
:1012000007200692D5F80920079244F0030305222F
:1012100003A91EF068FC029819F06EFE02AA0021D4
:101220004FF6024006F028FD054628B3114844F069
:10123000020193E70A49D3E790880002008000206A
:10124000A0000020D0000020044902002C48020029
:10125000F27002001088000216710200D84E0200DF
:10126000C46D0200984E02002F7102004771020007
:10127000104F0200747102000298104E8368B3F898
:101280000130A6F8853019F037FE96F885305B07F7
:101290007FF566AF02AA29464FF6034006F0ECFC44
:1012A00018B1074844F0020158E7029883685B7858
:1012B00086F8843019F020FE52E700BF00000020BD
:1012C0009D710200000000002DE9F041D0E90BC73C
:1012D000D0F828800CEB07043034A0450E461546A4
:1012E00018D81B4F18A3D3E90023ACFB0701FFF765
:1012F000F5FBA4EB080420F07F40306012A3D3E993
:101300000023A4FB0701FFF7E9FB20F07F402860E2
:10131000BDE8F0810E4C0CA3D3E90023A8FB040127
:10132000FFF7DCFB20F07F4307F130003360A0FBC8
:10133000040105A3D3E90023FFF7D0FB20F07F4091
:101340002860BDE8F08100BF8D49FD1A070000004C
:1013500000CA9A3B000000002DE9F04FA84C94F819
:101360004A608FB006F00106002800F05381B6BB3A
:1013700094F8352094F8293094F8250004EB820283
:1013800004EB830300F00300FF21D2F83880D3F888
:101390002C9084F8261016F08FFA94F84A00420731
:1013A00000F11381B9F1000F11D09548494611F0B1
:1013B0002DF999F800305B0605D506210CF054FB99
:1013C000002800F040828E48414611F01FF999F83C
:1013D000003013F00E0F40F0CE80236A23B10C26AC
:1013E00030460FB0BDE8F08F10F0F4F982460028C7
:1013F00000F0468210F0FAF98346002800F0598286
:1014000011F06AFE0546002800F050824FF6FF7387
:10141000406F2B8505F11C030B93002800F02C82F4
:1014200005F1680205F164010CF02AFBB5F86020B3
:10143000744895F83910744B95F83A7195F83CC09A
:10144000C5F844A1024095F87A0001F03F0161F02F
:101450007F0120F01F0085F8391085F87A004FF0E1
:101460001B116A4842F48872C5E9161342F0010262
:1014700027F003070021C5E94A012CF0070CA5F865
:10148000602085F83A710622002700200021C5E976
:101490004C0185F83CC0A5F8C020C5E91277EF855E
:1014A0002F6385F83B702F65A5F8C470A5F8C87048
:1014B000C5F80871A5F80C71A5F82071A5F8387168
:1014C00085F843716F67A5F87870A5F8647195F891
:1014D000661195F886C195F8AE01B5F8D820A5F843
:1014E000847167F3041C21F0070102F0F80267F32E
:1014F000C30085F886C185F86611A5F8D820C5F81F
:10150000E070A5F8E47085F8E670A5F8AC71A5F870
:10151000B87185F8AE0112F019F9A5F8D20012F0F1
:101520001BF9D5F8BC113A4AA5F8D4000A40C5F811
:10153000BC2112F017F995F8C02160F3020285F87A
:10154000C02112F015F995F8C0210B9B236260F3BE
:10155000C502C4E910ABC5E97377C5E97177C5E980
:101560000577C5F8D47185F8C021ED6117F0F8FA58
:10157000002840F06A8194F824300121C3F342032B
:101580000DA88DF834300CF0F3FB90B399F80030CF
:1015900003F00F03022B00F1FF3200F0A780012BB4
:1015A00000F0578198F801001030C000002B40F087
:1015B000428199F801301033DB0003F54D71084486
:1015C00003F59A7303FB02009BE0C0F3C0003246B0
:1015D00004F14B0116F0E0FAFF2884F826003FF4EE
:1015E000E1AE304616F082F9B9F1000F7FF4DDAEBE
:1015F000EDE6236A002B3FF4F2AE10F0A7FDEEE615
:10160000D422002080F8FFFF480148017F410100FB
:101610000000FFF6002E3FF4E2AE236A5BB193F8C0
:10162000202042F0020283F82020236A93F8203021
:10163000D8073FF5D4AEA84810F082F984420CD008
:10164000A64AA749A74840F2DF731DF0E5FD4040D8
:1016500080F311884FF0030002DF94F82430D9079B
:101660000DAD0ED502220D9203219F4B0095012254
:1016700000200DF08DFD294610F03AF9002840F0C9
:101680001D8102220321984B009500200D920DF040
:101690007FFD294610F02CF9002840F0F380934894
:1016A00010F08AF9002840F0D9808B4810F054F9E6
:1016B00084420CD0894A8A498A4840F601031DF0C9
:1016C000ABFD404080F311884FF0030002DF236A36
:1016D0000BB110F03BFD94F84A3000266FF3000385
:1016E000304684F84A300FB0BDE8F08F99F80130E9
:1016F0001033DB0000FB03F000F5AA70642303FB4A
:1017000002007B4AE46131230025A0FB0201236033
:10171000C4E905556EA3D3E90023C4E90155FFF7D9
:10172000DDF9B4F84880E0600DF078FD0746B8F1C7
:10173000000F08D199F8005005F00F05A5F101053B
:10174000B5FA85F56D0994F82420E36865F3000285
:1017500012F0010584F824203DD0DFF88C91654912
:101760000493002002250DF1300801930591CDE985
:1017700007980321CDE9020006942A4600903B46D3
:101780000C950DF07DFC414610F0B2F800287FF476
:1017900030AF594905914AF2D8320092CDE9079805
:1017A000CDE90300CDE9010006943B460122032167
:1017B0000C950DF065FC414610F09AF800287FF476
:1017C00018AF94F84A30304643F0010384F84A30A9
:1017D0000FB0BDE8F08F4948494ADFF80CE1DFF867
:1017E00014C10694A8FB00014FF0910909FB0811F0
:1017F00003F24718C2F800804FF0020904930992DF
:101800000DF1300832A3D3E900234FF6FF7ACDE97A
:1018100007E80295CDF83090CDF814C0CDF80CA0B3
:10182000FFF75CF94A46CDE900503B4628460321C4
:101830000DF0D0FBBFE7062B3FF4BBAE4FF4DA73DD
:101840004FF41B70BEE61226CAE510F07FFC03269B
:10185000C6E54FF4F2734FF47F70B3E61F4A29498F
:10186000204840F2FE731DF0D7FC404080F3118801
:101870004FF0030002DF18E705F16C006867CFE561
:101880000726ADE5144810F067F884423FF4A7AD91
:101890004FF4FF63114A124912481DF0BDFC40404D
:1018A00080F311884FF0030002DF98E558460FF0EF
:1018B000A3FF50460FF094FF072691E5064810F06D
:1018C0004BF884423FF48BAD40F2EA73E2E700BF8D
:1018D0008D49FD1A07000000D4220020385602006E
:1018E000285702000452020019080100F0220020CB
:1018F00000CA9A3BBD1D010065200100002AE78453
:1019000028230020985502002DE9F04FC84D2B6880
:101910008BB004460F469146002B00F01482668E71
:10192000E28D94F80E3116443E4413F00703B6B22C
:1019300040F0A781B4F8E880A6EB08021FFA82FA0B
:10194000120400F15E8294F93920002AC0F23D8130
:1019500094F8E43084F8E53094F8842194F88531E3
:1019600094F80C1184F80D11934206D094F8863146
:1019700003F00703052B00F04F822B68A34204BF3E
:1019800000232B60D4F80851002D00F06B812868EB
:10199000002800F06781B4F81031B4F82AC042681A
:1019A000C4F808216345B4F81221B4F8141100F00A
:1019B0002081B4F828C0A5F806C04FF0160E4FF0ED
:1019C000000CEB832A84698485F804E085F81CC048
:1019D00029460FF017FF0FF01FFF2368002BC0F2FE
:1019E000FC80608DB4F8105110FB0AF080B2B0FB9F
:1019F000F5F315FB03F292B290421FFA83FBC0F09D
:101A0000D38005FB130340F2E2428A489BB202FBFB
:101A100003F3A3FB000184A3D3E90023FFF75EF8DF
:101A2000A9EB0009E18D94F93930A8EB06065E4474
:101A30000F44374440F2E248002BE78508FB05F5E8
:101A4000C0F283817C4A7D497D484FF426631DF0B6
:101A5000E3FB404080F311884FF0030002DF0027D2
:101A6000AA46B4F81421B4F81201764B7649A08541
:101A700042F2107C0CFB02522B442944B3FBF5F3D9
:101A800000F1060C013AB2FBF5F2B1FBF5F599B2A3
:101A9000A4F8C2206145B4F81021A4F8CE10A4F82F
:101AA000C650628502DD091A063989B294F80E31F2
:101AB000A4F8CA101B0744BF0023A4F8C4300221B5
:101AC000012018F09BFF00220221054601200CF0A6
:101AD00025F85E494FF4F07220460BF0B1FF00F19B
:101AE00003085FFA88F85A4B00944246012100200F
:101AF0000DF04EFB30F002030CD04F4A55495048D0
:101B000040F68F231DF088FB404080F311884FF092
:101B1000030002DF474BAAFB03AB504642A3D3E9C5
:101B200000235946FEF7DAFF4B4AE368049320F09E
:101B30007F46A6FB0223072000FB0633BAEB020018
:101B40006BEB0301DFF814E1DFF814C1089406948D
:101B50004FF47A7200234FF6FE74CDF81CE0CDF8F6
:101B600014C00394FEF7BAFF4B46CDE9016000971D
:101B70004246012100200DF083FA30F002030CD020
:101B80002D4A34492E4840F6A9231DF045FB40401C
:101B900080F311884FF0030002DF002D40F0368102
:101BA00000200BB0BDE8F08F121A40F2E24321484A
:101BB00003FB02F2A2FB00011BA3D3E90023FEF703
:101BC0008DFF20F07F4081442CE794F8D920002A33
:101BD0003FF4BEAE84F8D930BEE6D4E9010223F06A
:101BE000004382422CBF914481442360A9EB030946
:101BF000F7E6B4F82CC094457FF4DBAE40F2E24C3B
:101C00000CFB03FB42F2107CB4F8C2E00CFB01BCFD
:101C10000CF1FF3CBCFBFBFC1FFA8CFCE6457FF49F
:101C2000C8AE01232B71D3E68D49FD1A07000000D1
:101C30004823002000CA9A3B445702007452020015
:101C4000045202007FC3C901FF59620248130020F9
:101C5000E1290100245802008D49FD1A892901005B
:101C6000E9710100804A8149814840F6E4131DF082
:101C7000D3FA404080F311884FF0030002DF286858
:101C800089E601200FF0CEFD0746002800F0CA804B
:101C900078480BF0A1FE0546002800F0C3800FF045
:101CA000DFFD3A682B79D4F80811516043F0030343
:101CB0000C22C4F808716A712B71A38DD4F8182115
:101CC0006D4F94F80E1100201E44E871A7FB0232FC
:101CD000C2F38F2294F81C312B72D4F8C431A5F8CA
:101CE0000920B4F81021A5F80B200636B4F812210B
:101CF000A5F80D20B6B2B4F81421A5F80F2060F3B2
:101D00000201A4F8E86084F80E11A5F81160002B18
:101D100069D094F86621900765D494F8BF21D10763
:101D200061D4D4F8D0219342D4F8C82100F0858042
:101D3000002A5BD11A7902F00302032A00F089809D
:101D4000C4F8C83154E02860E9E5A26C236C4B4F1D
:101D500003FB1A23A36416F055FF064694F8D80037
:101D6000C0F3C20016F050FF064405FB06F6444BD4
:101D7000A26C94F81C1106F5742606F23F26A3FB0C
:101D80000636B60C06FB0BF06B080244963B9A42F3
:101D900028BF1A4608FB01FC4FF0000EC4E91132BF
:101DA000A0FB07012EA3D3E90023C4F850C0C4F858
:101DB000E0E02664FEF792FE2F4B8446D4F818012B
:101DC000A3FB0030800A08FB00F0A0FB070124A35E
:101DD000D3E90023A9EB0C09FEF780FEA5EB060A68
:101DE00020F07F473DE6D4F8C82102B3D4F8CC31C7
:101DF0001A682A601D602B68C4F8CC510BB9C4F86E
:101E0000D4516FF076000BB0BDE8F08F0122104680
:101E100002210BF083FEC3E6002384F88521A4F899
:101E2000C830AAE56FF068000BB0BDE8F08F2B60FA
:101E3000C4E97155C4F8CC51E0E71968C4F8D01171
:101E4000002AD3D11A682A601D602B68C4E9725534
:101E5000D4E7DA79032AF5D00A2A7FF471AFF1E7E3
:101E60008D49FD1A07000000445702001058020077
:101E700004520200CC2300205917B7D100CA9A3B64
:101E800083DE1B43000000002DE9F04F0F4616468D
:101E900081460A7F57F81E0F96F812A0BC88D3F827
:101EA000008095B00D463168ADF84C40C2F3801209
:101EB000BAF1FF0FD1F800B012901C468DF83F2008
:101EC00048D112AB93E803001090ADF844102A46B5
:101ED0002B4632F82E1F9278A2722181D5F82A2043
:101EE000626053F83A2FA26104F118001B79037164
:101EF00005210BF03DFF95F83F20637F00F03F0088
:101F000060F30503C2F304016377A177AF8EE78125
:101F10000128BFB202F01F0305D91B3303F01F03D2
:101F20000B2B00D817BB94F8203001276FF3000368
:101F300084F820302F717468484629460FF062FCFF
:101F40002068277121460FF05DFC0FF065FC15B08D
:101F5000BDE8F08F10AA0DF13F01504615F0DEFBF1
:101F60009DF83F3002338DF83F30B0E7336898F882
:101F7000D8100020586095F8363095F8370052098F
:101F800043EA002362F3C501238240F2E2426B8EF2
:101F900088F8D81002FB07F70B9316F033FE0346C0
:101FA00098F8D8000A93C0F3C20016F02DFE0A9BE1
:101FB000DFF8D8E295F831C0AB49034407FB03F3DF
:101FC00003F5742303F23F23AEFB03234FEA570EBE
:101FD00040F2E24202FB0CF29B0CAEF1960EA263C1
:101FE000C4F828E063622B8F208ADFF8A4C242F293
:101FF000107202FB0372394400F1060E013AB1FB84
:10200000F7F1B2FBF7F2A8F8C2208AB27245BC44DD
:10201000A8F8CE20BCFBF7FCA8F8C6C002DD121A57
:10202000063A92B2A8F8CA206268C8F8DC202A7F73
:102030000C934FF48071A983C2F340139BF82600E0
:102040008DF834300A9316F09BF80C9B05F12B02A7
:10205000002800F0E080294651F8240FC5F82B0035
:1020600089889180BAF1FF0F00F0D980BDF84C202B
:102070001298A5F82920C5F825009DF83F10109862
:10208000BDF84420A977C5F81F00A5F8232098F8CB
:10209000D820E089218AA986C2F3C202EB8668862D
:1020A00085F83820404611F023F82946A081E880C1
:1020B000756848460FF0A6FBA389EB8019232B71A6
:1020C0000A9BD5F80090002B40F0B7809DF8343083
:1020D0002B77294648460FF095FB0FF09DFB94F8AF
:1020E0004500012100F0070016F0E8FB5F4A0025DB
:1020F0008146312300F25240A0FB0201C8F80030B3
:10210000C8E9015556A3D3E90023FEF7E7FCF368BD
:102110000B99646A40F2E24202FB013320F07F40F7
:1021200003F286332A460221C8F80C000120A3EBF3
:1021300009090BF0F3FC584610F0A2F9821C4C4B35
:10214000CDF800B0D2B2284601210DF021F80128C7
:10215000A7EB04047CD09BF82430DB0765D4404611
:1021600010F0C6FFDFF804B1A4FB0B453CA3D3E994
:102170000023074629462046FEF7B0FC3D4ACDF82D
:10218000188020F07F4AAAFB0223072101FB0A33B3
:1021900040F2A111B6680891374907913749059176
:1021A000A01A65EB0301D8F80C30049300244FF417
:1021B0007A7200230394FEF791FC29A3D3E900234C
:1021C0000546A9FB0B01CDE901A5FEF787FC033706
:1021D00020F07F40FFB2313E334600903A46204621
:1021E00001210CF04DFF30F002030CD0244A2549A8
:1021F00025484FF4D1731DF00FF8404080F311884B
:102200004FF0030002DF0122104602210BF086FC92
:1022100015B0BDE8F08FC5F82B00908022E70021B3
:10222000C5F82510A5F8291027E7002301220093FF
:10223000184611460CF0ACFF91E7637F43F0400372
:102240006377201D15F0F2F80123E0832B7740E738
:102250000FF08EFB83453FF47EAF14F0A1FF7AE7C9
:102260008D49FD1A070000007FC3C90100CA9A3BCF
:10227000CD7101008D49FD1A71710100E9710100F4
:102280006C590200245802000452020083DE1B43F2
:10229000FF59620200000000114B10B5C3F8E400C2
:1022A000FEF770F80CA3D3E90023FEF70FFAFEF750
:1022B000A5FB0446C0F30741062021F0BEFAC4F393
:1022C0000721072021F0B9FAE1B20820BDE810404B
:1022D00021F0B3BAAFF300800000000080844E40CC
:1022E000582C00200000000070B5092021F0B0FA41
:1022F0000546062021F0ACFA0646072021F0A8FA90
:102300000402082021F0A4FA44EA06442043FEF720
:1023100039F81BA3D3E90023FEF7AEF8FEF76EFBF6
:1023200000210446092021F088FA3B2021F090FA90
:1023300040F04001C9B23B2021F07FFA3B2021F060
:1023400087FA8206FAD41048FFF7A6FF3B2021F057
:102350007FFA40F04001C9B23B2021F06EFA3B20E9
:1023600021F076FA8306FAD42946092021F065FA8D
:102370002046BDE87040FFF78FBF00BFAFF300807D
:102380000000000080844E4000A1BC33000000002B
:102390002DE9F84F884620B1012855D00020BDE82E
:1023A000F88F714C2720B4F8FC5021F051FA013518
:1023B00020F0F8002844FDF7F5FF94F8FE300022E5
:1023C000002B3CD1694BFDF7A1FE064630200F469D
:1023D00021F03EFA30F0F90314BF644B00230022D1
:1023E00030463946FDF792FE064640460F46FDF759
:1023F000D9FF02460B4630463946FDF787FE94F872
:1024000000310022EBB90023FDF780FE584B00227B
:10241000FEF732F80646D4F8F8000F46FDF7B2FF93
:1024200002460B4630463946FEF750F9514B002222
:10243000FEF722F81CF094FDFEF7E0FAAFE7002368
:10244000C1E74FF08043DFE7474AD2F82031073B2E
:10245000022B92467FD8484A02EBC303D3E90045DA
:10246000DAF824B1012000FA0BF0FDF79BFF0246D9
:102470000B4620462946FEF729F902460B46002066
:102480003A49FEF723F90446BAF82A010D46FDF74A
:1024900089FF3A4B0022FDF739FE22462B46FDF715
:1024A000EBFF9AF82C219AF82E310F464FEA8B0158
:1024B000C1F11C01002A01EB031303EBC80306461C
:1024C00014BF14200020181AFDF75CFF9AF8283179
:1024D000002B804614BF02200020ABEB00008000E0
:1024E0008946FDF74FFF02460B4640464946FEF738
:1024F000EDF800F061FB80469AF829018946043026
:10250000FDF750FF42464B46FDF7B6FF0022002381
:1025100080468946FEF740FA18B94FF000084FF0A0
:102520000009134B002240464946FDF7EFFD2246C5
:102530002B46FDF7A1FF32463B46FDF7E7FD0D4B6D
:102540000022FDF799FF06A3D3E90023FDF7DEFD86
:1025500000F01AFC70E70024002581E7AFF300804B
:102560002B8716D9CEF7EF3F582C00200000F03F04
:102570000000204000408F40C84A02000000114087
:102580002DE9F04F89B09946129B0493BDF8503065
:1025900001939DF86430029383469DF86C30059357
:1025A0000C4690469DF860109DF868200692BDF894
:1025B0004C609DF854509DF858709DF85CA00791B0
:1025C00019F096FEDDE90532BBF1000F07D0BBF133
:1025D000010F079900F0898009B0BDE8F08FDFF89E
:1025E0009CB20499CBF8F8808BF801218BF802316A
:1025F0004046CBF8F040CBF8F4108BF8FE508BF847
:10260000FF708BF800A1ABF8FC60FDF7BBFE8046C5
:1026100002460B46894600209549FEF757F8954B30
:102620000022FDF729FFCDE902010198FDF7BAFE6E
:1026300002460B46DDE90201FDF71EFF8E4B00222C
:10264000FDF71AFFFEF7DAF942464B46CBF80801D0
:1026500085A1D1E90001FEF739F8FEF7CFF9C0F303
:1026600007211FFA80F8022021F0E7F85FFA88F1CD
:10267000032021F0E2F8204619F050FC0146122018
:1026800021F0DBF8049819F049FC0146132021F0F1
:10269000D4F8310A252021F0D0F8F1B2262021F01B
:1026A000CCF805B33946322021F0C7F8302021F0AC
:1026B000CFF8002D00F06F0141EA0A1114BF00208D
:1026C0006FF07F000143C9B2302021F0B6F831200D
:1026D00021F0BEF840F04001C9B2312009B0BDE898
:1026E000F04F21F0AAB8FF21DDE7022C00D9FEE768
:1026F00004F1070B614C84F82F11029984F8301112
:102700004146062938BF06210C2984F831210A46A2
:1027100028BF0C22BBF1070FC4E948B884F82991FF
:10272000A4F82A6184F82C5184F82D7184F82EA124
:1027300084F8323178D1A2F10B03012B8CBF002336
:1027400001231D20049284F8283121F081F845EA04
:10275000490141EA0B11C9B21D2021F06EF81E207B
:1027600021F076F8019B049AC3F3012141EA8A0122
:1027700041EA021100F008000143C9B21E2021F015
:102780005CF8262021F064F894F8283120F0080144
:1027900041EAC301C9B2262021F04FF89DF8041088
:1027A0001F2021F04AF8310A202021F046F8F1B22A
:1027B000212021F042F81DB13946222021F03DF8B8
:1027C00094F82F316BB1442021F042F860F07F0182
:1027D000C9B2442021F031F894F83011242021F0BE
:1027E0002CF8BBF1090F2ED1D4F8E420244B9A42E7
:1027F0004FF002014FF0360021D921F01EF864217C
:102800003A2021F01AF8B8F1060F4FF031001DD828
:1028100021F01EF800F0F80141F00501312021F00F
:102820000CF80C21372059E7BBF1080F05D1B8F19E
:102830000B0F94BF0023012383E7002381E720F0DF
:10284000FCFF7F21DCE703213620DAE721F000F8E6
:1028500000F0F80141F00301312020F0EEFF0A21E1
:10286000E0E700BFAFF300800000000080847E41FD
:102870000000F03F0000204000408F40582C002016
:1028800040DD4A1F000000002DE9F04F87B01D46D3
:102890009DF85830029389469DF85C30189904934E
:1028A00092469DF85420059203910190109F9DF847
:1028B00044B0BDF848809DF84C609DF8504019F038
:1028C00017FD484619F0C0FA019ADDE903132AB151
:1028D000012A059A64D007B0BDE8F08F7E4A5046C1
:1028E000C2E93BA582F8004182F8E890C2F8F8708E
:1028F000A2F8FC8082F8FE6082F80131C2F804116F
:10290000FDF740FD70A3D3E90023FDF7DFFEFEF7DE
:1029100075F885B2C0F30721042020F08EFFE9B2DC
:10292000052020F08AFF3846FDF72CFD02460B46B5
:1029300067A1D1E90001FDF7C9FEFEF75FF8C0F31A
:10294000072185B2022020F078FFE9B2032020F0B1
:1029500074FF4FEA1821252020F06FFF5FFA88F1FD
:10296000262020F06AFF302020F072FF002E00F0B9
:102970006F0014BF00216FF07F0140EA041421436F
:10298000C9B2302020F059FF312020F061FF40F023
:102990004001C9B2312007B0BDE8F04F20F04DBF73
:1029A0004D48022D80F81C91814600D9FEE7062F84
:1029B000BA4638BF4FF0060A0735BAF10C0FC0E926
:1029C000485780F829B1A0F82A8180F82C6180F856
:1029D0002F2128BF4FF00C0A029889F83001072DEB
:1029E00089F82E4189F83131C9F8341157D1AAF14B
:1029F0000B03012B8CBF0023012389F828316AB116
:102A0000442020F025FF60F07F01C9B2442020F06F
:102A100014FF99F83011242020F00FFF46EA4B06EE
:102A20001D2046EA051520F013FFE9B21D2020F015
:102A300004FF1E2020F00CFFA40000F00B0044EA6D
:102A40000A1A4AEA000A5FFA8AF11E2020F0F5FE0F
:102A5000262020F0FDFE99F8283120F0080141EAF7
:102A6000C301C9B2262020F0E8FE4FEA1821202039
:102A700020F0E3FE21205FFA88F120F0DEFE062F31
:102A80004FF0310014D820F0E3FE00F0F80141F0DF
:102A90000501312020F0D1FE0C2137207BE7082DE5
:102AA00004D10B2F94BF00230123A6E70023A4E742
:102AB00020F0CEFE00F0F80141F00301312020F0BB
:102AC000BCFE0A21E9E700BF0000000080844E4000
:102AD0000000000080847E41582C0020000000008F
:102AE00070B5314B93F8E01001291C4602D0022941
:102AF0004CD070BD93F8E120CAB1012AF9D193F806
:102B00002F31002BF5D00221122020F096FE274B0A
:102B10001B68002BEDD05C69002CEAD01C2020F053
:102B200097FE234600F03F00BDE8704018479B6EBB
:102B30000BB984F80C11B4F80C51012DD9D11C48F3
:102B40001AF006F8112084F80D5120F081FE40089B
:102B5000404284F80E011B2020F07AFE05461C201E
:102B600020F076FE40EA0520FDF71CFC0CA3D3E91B
:102B70000023FDF781FCFDF719FFC4F810010C20BC
:102B800020F066FE400984F81401B2E793F8E120D2
:102B9000012AAED193F82F31002BAAD0B4E700BFA1
:102BA0000000000080844E40582C0020242C00207F
:102BB000282C00200000000080B58CB000AFC7E9D1
:102BC0000001D7E90023C7E904237B69FB623B6965
:102BD000BB62FB6A1B15C3F30A03A3F2FF337B62DC
:102BE0007B6A132B61DC7B6A002B28DA62A1D1E9B6
:102BF0000001D7E90023FDF789FA02460B4610468B
:102C000019464FF000024FF00003FDF7C5FE0346E2
:102C1000002B00F0A080FB6A002B05DA4FF0004388
:102C2000FB620023BB6296E0FA6ABB6A1343002B87
:102C300000F09180524BFB620023BB628BE0514A53
:102C40007B6A42FA03F33B62FA6A3B6A1A40BB6A48
:102C50001343002B02D1D7E9002386E046A1D1E936
:102C60000001D7E90023FDF751FA02460B46104652
:102C700019464FF000024FF00003FDF78DFE0346AA
:102C8000002B68D0FB6A002B07DD4FF480127B6AB3
:102C900042FA03F3FA6A1344FB623B6ADA43FB6AC3
:102CA0001340FB620023BB6255E07B6A332B0FDDD0
:102CB0007B6AB3F5806F08D1D7E9000102460B4665
:102CC000FDF724FA02460B464FE0D7E900234CE01B
:102CD0007B6A143B4FF0FF3222FA03F33B62BA6A7D
:102CE0003B6A1340002B02D1D7E900233DE022A12B
:102CF000D1E90001D7E90023FDF708FA02460B46A7
:102D0000104619464FF000024FF00003FDF744FE55
:102D10000346002B1FD0FB6A002B17DD7B6A142BA8
:102D200003D1FB6A0133FB6210E07B6AC3F1340319
:102D300001229A40BB6A1344FB61BB6AFA699A425A
:102D400002D2FB6A0133FB62FB69BB623B6ADA4376
:102D5000BB6A1340BB62FB6AFB60BB6ABB60D7E91E
:102D60000223C7E90023D7E900231046194630376C
:102D7000BD4680BDAFF300809C7500883CE4377E83
:102D80000000F03FFFFF0F0080B58CB000AFC7E937
:102D90000001D7E90023C7E904237B69FB623B6993
:102DA000BB62FB6A1B15C3F30A03A3F2FF337B620A
:102DB0007B6A132B62DC7B6A002B29DA62A1D1E9E2
:102DC0000001D7E90023FDF7A1F902460B461046A2
:102DD00019464FF000024FF00003FDF7DDFD0346FA
:102DE000002B00F0A180FB6A002B04DB0023BB62F8
:102DF000BB6AFB6298E0FB6A23F00042BB6A1343A4
:102E0000002B00F09180524BFB620023BB628BE0F1
:102E1000504A7B6A42FA03F33B62FA6A3B6A1A4001
:102E2000BB6A1343002B02D1D7E9002386E046A1F9
:102E3000D1E90001D7E90023FDF768F902460B4606
:102E4000104619464FF000024FF00003FDF7A4FDB5
:102E50000346002B68D0FB6A002B07DA4FF4801280
:102E60007B6A42FA03F3FA6A1344FB623B6ADA4371
:102E7000FB6A1340FB620023BB6255E07B6A332B85
:102E80000FDD7B6AB3F5806F08D1D7E900010246F8
:102E90000B46FDF73BF902460B464FE0D7E900230E
:102EA0004CE07B6A143B4FF0FF3222FA03F33B62A3
:102EB000BA6A3B6A1340002B02D1D7E900233DE0F8
:102EC00021A1D1E90001D7E90023FDF71FF902464E
:102ED0000B46104619464FF000024FF00003FDF775
:102EE0005BFD0346002B1FD0FB6A002B17DA7B6AC1
:102EF000142B03D1FB6A0133FB6210E07B6AC3F140
:102F0000340301229A40BB6A1344FB61BB6AFA692D
:102F10009A4202D2FB6A0133FB62FB69BB623B6AE5
:102F2000DA43BB6A1340BB62FB6AFB60BB6ABB60EF
:102F3000D7E90223C7E90023D7E900231046194641
:102F40003037BD4680BD00BF9C7500883CE4377EAD
:102F50000000F0BFFFFF0F0010B500200C4602F08C
:102F600087FB21460248BDE810401CF055B900BF60
:102F70005C62020008B521B1BDE8084005481CF0BC
:102F80004BB9012002F074FBBDE8084002481CF078
:102F900043B900BF7A6202009A62020030B593B072
:102FA0001EF071FF0378044607AD032B24D8DFE839
:102FB00003F0021D1F211349284621F0E0FAA379EE
:102FC000059562780492A2780392E27802922279BF
:102FD0000192627900921E210B4A0AA81CF029F97D
:102FE0000A480AA91CF018F913B030BD0849E3E7F4
:102FF0000849E1E70849DFE7084A0A2128461CF0AA
:1030000018F9DCE7A5620200C7620200EA6202006A
:10301000AC620200B3620200BD620200D77F020010
:1030200070B5002088B005F06DFA064628B101465B
:1030300012481CF0F1F808B070BD114D11481CF099
:10304000EBF80FCD03AC0FC42B6823600E4900963C
:103050003346022203A806F0CBF8014648B10B48DC
:103060001CF0DAF80A4806F0BFFB0A4806F0F4FF45
:10307000E1E709481CF0D0F8F4E700BF0163020063
:10308000004A020021630200E04A020038630200A5
:103090005C010020380100205E630200014B1860D3
:1030A000704700BF7801002030B585B0CDE901013F
:1030B0000446002501A90548039500F055F9DDE90E
:1030C00002309842B8BF255405B030BDF3F101007D
:1030D0002DE9F84FB0F8189019F008080446934607
:1030E0000DD001290CBF49F0100949F02009A0F8C2
:1030F00018908BF31188BFF36F8FBDE8F88F09F03C
:103100000709022907D120461CF0A0F80028F0D0BA
:103110000128238B50D16769218B002F15DA256890
:1031200021F00701C4E9008841F001012183002654
:10313000218B01F0070ACA4502D0A368002B5CD19D
:103140000DB9002E74D0002358E001F007035A1F78
:10315000012A20D821F00701062B256889B2C4E98D
:1031600000880CD1002D2B4638BF00232BB1628B79
:103170001B6801326283002BF8D141F002012183E8
:1031800020461CF063F806460028D1D0238B43F07C
:1031900020032383CBE7042B0CD121F0070189B254
:1031A000218320461CF052F805460028BFD041F08C
:1031B000200121830025BAE7032809D1226923F0E1
:1031C0000703166843F00603238300252F46AFE765
:1031D000042806D1226923F00703566843F004034C
:1031E000F2E7052806D1226923F00703966843F029
:1031F0000503E9E700252E46E8E7012341F0080131
:1032000021838BF31188BFF36F8F03BB002D33D164
:1032100016B121492046B0474FF02003EFF3118B40
:1032200083F31188BFF36F8F238B23F0080323836D
:10323000238BDA0628D523F0100323830121B4F869
:10324000189009F0070900297FF45BAF51E7A168E6
:103250000029DBD00B68D1F804B0002B38BF002365
:10326000994652463B462046D847B9F1000FCDD08B
:10327000D9F800304946EEE729463B4652462046FB
:103280002D681BF0FFFFC1E713F020011EBF23F0E4
:10329000200323830221D2E7B1F20100F0B5094EE9
:1032A000016802460A2700200C46013123789D5D03
:1032B0006D0701D41460F0BD07FB0033A3F13000AB
:1032C000F2E700BF2D8502002DE9F74F144699461D
:1032D000D378244A13F802A06F2B0AF003020646A3
:1032E0000F4601922DD028D8582B14BF0A2510253F
:1032F000DDF83080AA464FF0000B52465B46304660
:103300003946FDF7EBFB092AD3B21FD830335F45AE
:10331000DBB208BF564508F8013D01D3C84512D8B5
:1033200023789B0605D5082D16D1A37843F0080312
:10333000A370404603B0BDE8F08F03F0F703702B95
:10334000D3E70825D4E706460F46D6E7019A012AB7
:103350000CBF37335733DAE7102DEAD1A37843F0A7
:103360001003E5E72D8502002DE9F04FA3B0884654
:10337000069091461C46002599F8000010B9284691
:1033800000F0AEBD09F101032528079307D041469F
:10339000069B98470028C0F2A385013524E2182235
:1033A000002114A821F0E3F899F80130252B59D019
:1033B000079A164612F8013B2B2B00F08B8079D828
:1033C000202B00F08C80232B00F08E809DF858304D
:1033D00003F04402442A03D16FF386138DF858306A
:1033E0009DF85830129643F080038DF858303378AA
:1033F0002A2B7ED19DF8593043F001038DF85930C6
:10340000731C12931A782E2A9DF859200CBF0121A3
:10341000002161F341028DF859200BD15A1C129200
:103420005A782A2A7BD19DF8592042F004028DF85F
:1034300059200233194611F8010B6C2800F0CF8097
:103440007DD8682800F084806A2800F0D2804C285B
:1034500000F0D6809DF859206FF3C6028DF85920F0
:10346000194680E009F1020207928DF85B309DF861
:103470005930DE0740F16D8154F804ABBAF1000F0A
:1034800007DA9DF8582042F004028DF85820CAF15E
:10349000000A580740F1668154F8047B002F80F23F
:1034A00065819DF859306FF341038DF859304FF025
:1034B000FF375BE12D2B06D0302B87D19DF858309C
:1034C00043F0400303E09DF8583043F004038DF8C7
:1034D00058306EE79DF8583043F00803F7E79DF841
:1034E000583043F01003F2E79DF8583043F02003C2
:1034F000EDE712A8FFF7D2FE129BB34281D09DF8F0
:1035000058101790C1F3400242EAD072520062F0A4
:103510007F0201F07D010A438DF8582071E712A85F
:10352000FFF7BCFE9DF858301890C3F3400242EA02
:10353000D07060F341038DF85830129B7AE77428FD
:103540009DF8592059D07A2884D11346062241E0AB
:103550005A78682A9DF859203AD1012161F3C602B0
:103560008DF85920991C0B4613F8012B0793782AE4
:103570008DF85B2000F2C580572A4ED8412A04D02E
:10358000A2F14503022B00F2BC809DF85A3002F0F4
:10359000DF020421A2F1410A61F30203DAF1000221
:1035A0009DF859108DF85A3042EB0A0262F3C711A8
:1035B0000A068DF85910CBB200F1C98003F07802E9
:1035C000182A40F09B806FF3C6038DF8593082E0D3
:1035D0001346022262F3C6038DF85930C3E75A78C6
:1035E0006C2A9DF8592001D10421B7E71346032224
:1035F000F0E79DF859300522ECE713460722E9E78A
:10360000BDF8583023F4F04323F0020343F4804321
:1036100043F00203ADF85830A5E7A2F15803202B80
:103620006FD801A151F823F0DB360000033700000A
:1036300003370000033700000337000003370000A2
:103640000337000003370000033700008B3500000C
:1036500003370000DB360000AD3600008B3500007C
:103660008B3500008B35000003370000AD360000BD
:103670000337000003370000033700000337000062
:1036800011370000DB36000031370000033700003F
:10369000033700003137000003370000DB3600003D
:1036A0000337000003370000DB3600009DF85A3076
:1036B000012161F302038DF85A309DF8593003F06F
:1036C0007803402B02BF9DF8581041F001018DF89E
:1036D0005810632A05D0002306E09DF85A300221D5
:1036E000E7E7003B18BF01239DF85820C2F34001D3
:1036F0000B4363F341028DF85820B8E613F0380FFE
:10370000E9D09DF8583043F001038DF85830E2E7D6
:103710009DF85A30032262F302038DF85A309DF867
:10372000593003F07803A3F140077B427B41DBE78C
:103730009DF85A30032262F302038DF85A309DF847
:10374000593013F0780F14BF01230023CCE7012375
:10375000CAE79DF95820002AB4BFDDF85CA04FF0FD
:10376000FF3A96E699077FF5A2AE189F0023CDE9B0
:1037700017339DF85A3003F00703042B09D19DF845
:1037800059309A0705D49DF95930002BB4BF0D2745
:1037900006279DF85A309DF8591003F00703012BB6
:1037A000C1F3C30136D1CB1E042B20D8DFE803F0D0
:1037B0000307071F1F0054F8042BD31704E0073436
:1037C00024F00704F4E80223CDE914239DF858609F
:1037D000B30755D0079B06984A4641461CF0F3F8BC
:1037E0000028C0F27D830544DDF81C90C4E554F840
:1037F000042B01294FEAE273CDE9142305D19DF88A
:103800005030149300231593E0E70229DED1BDF96F
:103810005020D2E7022B23D1CB1E042B13D8DFE894
:1038200003F0030A0A121200226814920023201DDA
:1038300015930446CAE7073424F00700F0E8022392
:10384000CDE91423F5E754F8043B149301294FF014
:1038500000031593D3D00229B8D1BDF85030D0E77A
:10386000042B07D1073424F00704F4E80223CDE940
:103870001423ABE7032B04BF54F8043B1493A5E7D0
:103880009DF85B90B9F1780FAED8B9F1570F00F2FF
:10389000A680B9F1250F00F0ED80B9F1240FA3D96E
:1038A000B9F1410F03D0A9F14503022B9CD8DDE902
:1038B0001423002A73F10001C0F28681310700F160
:1038C000858116F0100618BF2026C3F30A5BC3F3E8
:1038D000130304920593DDE90423CDE91023BBF122
:1038E000000F40F07581DDE90432134314BF4FF03F
:1038F000010C4FF0000C0599CB020499CA0243EA6F
:10390000515358464BEA02010A91C11719430B91D2
:10391000DDE90A01B9F1460F08BF4FF0660901431E
:10392000CDE9102300F0C881BCF1000F40F0888180
:10393000109B0293119B43F000430393DDE90223A4
:10394000CDE910230023ABF2FE3B1A4605211BF103
:10395000020FC0F27E811BB1DDE90201CDE9100149
:10396000BBF1000FDDE9103100F38E811199109B3E
:10397000CBF104000BF11C0B01FA0BFBA0F1200CA6
:10398000C34021FA0CFC43EA0B0343EA0C03C14099
:10399000CDE9103109F0DF03472B40F09481D01CB2
:1039A00002DB974280F28B81A9F10209002F5FFAB6
:1039B00089F900DD013F9DF85830990600F18381B7
:1039C000002FD4BF00230123B9F1660F0C9340F000
:1039D0007C81D31940F17A814FF0000B7AE1A9F193
:1039E0005803202B3FF600AF01A252F823F000BF8E
:1039F000693B0000E9370000E9370000E9370000C3
:103A0000E9370000E9370000E9370000E937000036
:103A1000E9370000AF380000E9370000A13A0000A4
:103A2000093B0000AF380000AF380000AF3800009D
:103A3000E9370000093B0000E9370000E9370000E2
:103A4000E9370000E93700009F3B0000693B0000B8
:103A50006D3B0000E9370000E93700007B3A0000C9
:103A6000E9370000693B0000E9370000E937000052
:103A7000693B0000414648468AE4002FDDF850903B
:103A80000ADB3946484620F095FD09EB000B00267D
:103A9000B9F1000F0CD1A7E64846FDF7A5F9F4E708
:103AA000149B8DF86C3000260DF16D0B0DF16C0937
:103AB000ABEB090206B101329DF85A00C30640F192
:103AC00003820232179940060A4444BF18995218DB
:103AD000BAF1000F40F31182AAEB020A9DF85820B8
:103AE0005107C2F3800700F10882530640F1FB81C1
:103AF00046B1069B4146304698470028C0F2F08107
:103B000001353E463027EFE130072BD416F0100682
:103B100018BF2026DDE91423002A73F1000105DA1D
:103B2000524263EB4303CDE914232D260DF18503A7
:103B30000093DDE914011BAB16AAFFF7C5FB814614
:103B4000002F0DF185030BDB9DF85810A3EB090244
:103B50006FF3861197428DF8581001D9BF1A179745
:103B60009B4695E72B26D5E70026DFE7149800282B
:103B700000F09F810DF18503009316AA1BAB002175
:103B8000FFF7A2FBBDF85A3003F0EF0343F4F04314
:103B900043F010038146ADF85A300026D0E7149B5D
:103BA00007293FF621AEDFE801F00D04060D0808F5
:103BB0000D0D1D7018E61D8016E62846E917C3E9AD
:103BC000000111E61D600FE62D267EE62B267CE621
:103BD00040F2FF739B452ED1DDE90412B84B19F872
:103BE00003300A4303F0030317D1012B0BBF44F644
:103BF000496346F66963ADF86C30ADF86C300CBFC4
:103C0000462366238DF86E309DF858306FF3861387
:103C10008DF858300DF16F0B48E7012B0BBF44F2C4
:103C20004E1346F26E13ADF86C30ADF86C300CBF2D
:103C30004E236E23E6E74FF0000C5CE60BF1FF3BF2
:103C400092185B41002A73F10001F7DACDE91023E5
:103C50006EE6029B03985B0843EAC0734008B0F12C
:103C6000333FDE46CDE902300BF1010BF1D2A3FB6D
:103C700001BCCDE902BC039B4843C31803930EF17A
:103C8000020B013A012362E6023341F1000110A860
:103C9000CDE910310C921BF05FFE0C9ADDE91001AA
:103CA0000BF1FF3B013200184941002871F100037C
:103CB0000BF1FF3BF7DA51E60022934656E6BF1AB6
:103CC0004FF0660977E600237EE67B1C102BA8BF29
:103CD00010239B4610210F9100204FF00061CDE989
:103CE00012010BF1FF3BBBF1FF3FDDE912101FD1C9
:103CF000109BCB180893119B40EB03030993DDE95C
:103D000008BC6FF070414FF0FF30614508BF584567
:103D10001AD358466146CDE91001B9F1660F53D167
:103D2000002A20DC30238DF86C300DF16D0B2BE078
:103D3000490841EAC0714008CDE9121012A80D925D
:103D40001BF00AFE0D9ACCE7089B0D92099A5B08BE
:103D500043EAC273510810A8CDE910311BF0FCFDF5
:103D60000D9A0132D9E70DF16C0B0F99002909DD8D
:103D70000FA910A80D921BF00FFE0D9A0BF8010B66
:103D8000013AF2D1179200229DF85810880601D40A
:103D9000002F3FDD5B462E2103F8011B92B1002F5F
:103DA00075DD5142B942A8BF39469DF85A001791B6
:103DB0000029A7EB0107D4BF0021012161F34510C1
:103DC0008DF85A009B4620E00FA910A80D921BF019
:103DD000E3FD0D9A9DF858308DF86C00302818BF1F
:103DE00002F1FF32990601D4002F52DD2E238DF807
:103DF0006D300DF16E03E5E70FA910A80D921BF0D1
:103E0000CBFD0D9A0BF8010B013F002F02DD0F993E
:103E10000029F1DC0C9B002B3ED1189709F0DF0143
:103E2000452922D1002A5846BABF52422D212B21C2
:103E3000632A00F8029B8BF801100ADD642792FBCD
:103E4000F7F101F1300C0BF103008BF802C007FB16
:103E500011220A27834692FBF7F107FB112201F199
:103E6000300C30320BF802CB4270179A002A1EDC5D
:103E7000189A002AD4BF002201229DF85A1062F33A
:103E8000861100228DF85A108BF800200EE69B4612
:103E9000C0E70DF16D0BBDE70021189158461BF8E6
:103EA000011D3029FAD02E2918BF8346B6E701221A
:103EB000E3E7DFF810B00646ABF10509F8E500BF0F
:103EC0002D85020092630200070748BF0132F9E521
:103ED0000C934146069B3846984700280C9B05DA10
:103EE00023B0BDE8F08F20270AEB05035246002AD5
:103EF000A3EB0A050AF1FF3AEADC36B1069B41461C
:103F0000304698470028EBDB01359DF85A205006D3
:103F10007DD59DF95920002A2CDBA5EB090599F8E0
:103F200000005B4BC25C4E46510705EB060709F1EA
:103F300001093FD49DF85A20DDF85C90920608D420
:103F400009EB07054A46002AA5EB090709F1FF39E5
:103F500036DC30782E280AD1069B41469847002847
:103F6000BEDBB9F1000F07F1010730DC0136B146C5
:103F7000BF1B39E0A5EB09074D4607EB090619F809
:103F8000010B702810D1189F3744BA1B002A35DC6A
:103F900006985B462A4641461BF015FD00289FDB2C
:103FA0003044054682446CE0069B41469847002811
:103FB000E2DA95E7069B414698470028AFDA8FE79B
:103FC000069B4146302098470028BBDA88E7069BCD
:103FD00041463020984709F1FF39C0E7069B41462A
:103FE00098470028FFF67CAF294B4D4607EB0906A2
:103FF00019F8010BC25C5307F0D4C4E7069B414695
:10400000302098470028FFF66BAF0136BDE7D10698
:1040100001D4120707D5069B414630209847002857
:10402000FFF65EAF01359DF85A20D30608D59DF8FE
:104030005B00069B414698470028FFF651AF0135CB
:10404000179F2F447A1B002A0ADC06985B464A46D3
:1040500041461BF0B8FC0028FFF642AF2844A0E719
:10406000069B4146302098470028FFF639AF0135BE
:10407000E8E7069B4146202098470028FFF630AF2E
:104080000135AAEB0503002BF3DCFFF7ADBB00BF46
:104090002D85020030B51049104889B0002220F06B
:1040A000DBF80F4D0F4900220023CDE90623002441
:1040B0000E23CDE90334CDE901440B4B00944FF4BA
:1040C000407228461AF08AFA084928461FF08DFFE8
:1040D000204609B030BD00BFF1400000200B002099
:1040E000580B0020B83500205945000093630200AA
:1040F00001481AF0D9B900BFB8090020F0B505464B
:104100000F4E002003460246012715F8014B0CB163
:104110008B4200D3F0BD252C02D182F00102F4E7DE
:10412000002AF2D014F806C01CF0030FEDD0732C57
:1041300004BF07FA03F2104301330022E5E700BF92
:104140002D85020008B500F069FA09481BF052FC01
:1041500008234822074908481FF02DFD074B084A4D
:104160001A604FF40040BDE8084000F0A1BC00BF59
:1041700014170020A8DF00201C1700207C0100205D
:1041800033FA0100F8B50F4BBFF35B8F002553E8FE
:10419000007F43E80052002AF9D1BFF35B8F0A4C3D
:1041A0000A4E361B3611B54200DBF8BD63685B79F9
:1041B0002BB12368DB6813B1394620469847013597
:1041C0001034F0E70C1700209C490200AC490200B3
:1041D000064BBFF35B8F53E8002F013243E8002109
:1041E0000029F8D1BFF35B8F704700BF0C17002088
:1041F000044A054B9B1AB1EBD30F34BF52F8310080
:10420000002070472C4802009C490200094B42687C
:10421000C31A1B11013310B513714368064C1960A2
:1042200001225A71227812B904481AF03DF901238B
:10423000237010BD9C490200142F0020B8090020F3
:1042400070B5114BBFF35B8F53E8005F6A1C43E806
:1042500000210029F8D1BFF35B8F2DB90B4C0C4E18
:10426000361B3611B54200DB70BD237B4BB1236892
:104270005B690BB120469847042200212046FFF7D6
:10428000C5FF01351034EDE7101700209C490200EE
:10429000AC490200174B984273B5044602D3164B43
:1042A000984221D315480022002301A919F02CFCC3
:1042B0000546E0B90122019BBFF35B8F53E8001F65
:1042C00043E800200028F9D1BFF35B8F019E331D26
:1042D00041221846214620F05AF97E22034686F8EC
:1042E000452086F846501C46204602B070BD044B5F
:1042F000F9E700BFD8450200308602001C170020F5
:104300009B63020050B1064B984206D303F510732D
:1043100098422CBF0020012070470020704700BF4A
:10432000A8DF00202DE9F04F4C4B1B7885B00446E8
:1043300003B960B34FF02003EFF3118683F31188C4
:10434000BFF36F8F46481BF065FB054686F3118867
:10435000BFF36F8F78B1BFF35B8F424B53E8002FF1
:10436000013A43E800210029F8D1BFF35B8F94B1F3
:1043700028461BF060FC24B93B4B1B680BB1FFF7D0
:1043800001FF37481BF044FB041E18BF01242046E0
:1043900005B0BDE8F08F354B1B78CBB92B7ADB0726
:1043A00016D41BF05BFC804628461BF022FC01461D
:1043B0004046FFF7A3FE2E4F2E4BDFF8D4B0DB1B99
:1043C000DB0803932C4BDB1B06464FEAD30A36B9B6
:1043D0002A4E2B4FBF1B3F114FF000083AE0B6FAB0
:1043E00086F1C1F11F09494628461BF005FC254B03
:1043F0009842014602D3244B98421AD30846FFF74D
:1044000081FF0246A8B9214B994212D06B890398CB
:104410009909B0EB931F4FEA8A1343F0010388BF59
:1044200057F83120ADF800304946434658461BF056
:104430003EFB012101FA09F126EA0106C7E773688C
:104440005B7923B1336829461B683046984708F1E9
:1044500001081036B845F2DB8AE700BF142F0020B0
:1044600014170020081700200C170020152F00201B
:104470002C4802009C490200444902009C49020069
:10448000AC490200D8450200308602009B6302005E
:10449000B5630200294B37B51B6841810446984734
:1044A000E0604FF02003EFF3118583F31188BFF331
:1044B0006F8F234821461BF0A1FA85F31188BFF3C3
:1044C0006F8FBFF35B8F1F4B53E8002F013243E820
:1044D00000210029F8D1BFF35B8F1B4A127882B10B
:1044E0004FF02003EFF3118483F31188BFF36F8F34
:1044F0000020FFF717FF84F31188BFF36F8F03B01D
:1045000030BD124A1B681268002AF8D0012B0AD16C
:1045100000220023CDE900230D484FF40042002380
:104520001AF01AFCEBE70A2BE9D109481FF0A0FEAC
:10453000084803B0BDE8304019F0B6BF7C01002048
:104540001417002008170020152F0020381700200E
:10455000200B0020B809002010B5FFF771FE19F0FC
:1045600029FF0C4B186030B10B4B1B68092B02DD87
:104570000A4819F099FF094C0020FFF7D3FE0028E4
:10458000FAD14FF0FF324FF0FF33204619F0B2FF5F
:10459000F2E700BF3817002008170020B8090020F4
:1045A000F8B50E4F3D7875B90D4C0E4EFFF748FE2D
:1045B000361B3611B54207DB0020FFF7B3FE00289B
:1045C000FAD101233B70F8BD63685B791BB12368A6
:1045D00020461B69984701351034EBE7152F002062
:1045E0009C490200AC49020007B504380190BFF3B2
:1045F0005B8F50E8003F5A1E40E800210029F8D1A7
:10460000BFF35B8F012B03D1034801A919F0AEFA68
:1046100003B05DF804FB00BF1C17002020230249F3
:1046200002481A461FF0C7BAE8E100203C170020F4
:1046300037B50023094D01930120FFF773FE0446AF
:10464000FFF7C6FD0022002301A9284619F05CFAF5
:1046500008B1002CF0D1019803B030BD3C17002008
:1046600007B50023019307480022002301A919F090
:104670004BFA10B1FFF7DCFF0190019803B05DF831
:1046800004FB00BF3C170020F0B5037A457A85B0E3
:104690002D090190D8071CD4DDB1002426460198CD
:1046A00031461BF0A9FA0746FFF72CFE70B134B96A
:1046B000019B29461869FFF721FD044648B124FAF9
:1046C00006F3D90702D53846FFF78EFF0136AE4212
:1046D000E5D3019B1A7A920704D55B69084C0393D2
:1046E000039B2BB9064801A919F040FA05B0F0BDAB
:1046F0001D6803A9204619F039FA0395F0E700BFB9
:104700003C1700200EB403B503AB014653F8042B4D
:1047100004480193FEF728FE02B05DF804EB03B0F5
:10472000704700BFA90002002DE9F04F85B011F0DD
:10473000020490469DF8387006461A4601F00109B9
:1047400001F0080507D011F0440F37D13249FFF7C7
:10475000D9FF01460C46B9F1000F0AD02F4B304962
:1047600053F827202F4B3046002A08BF1A46FFF780
:10477000C9FF3DB12C4B2D4953F827203046FFF798
:10478000C1FF0546B8F1000F43D0012303FA07F734
:10479000274B17F0100F274F18BF1F46BDF84010CA
:1047A0009DF83C00FFF724FD394602463046FFF7EE
:1047B000A9FF2844204405B0BDE8F08F1E4B1968BE
:1047C0000029C7D01D4B4FF4616E1B68B2FBF3F399
:1047D0004FF47A7CB3FBF1F4B4FBFEF20EFB124E05
:1047E00001FB14340CFB04F44FF03C0AB4FBF1FB66
:1047F00001FB1B440CFB04F4BEFBFAF3B4FBF1F128
:10480000CDE901B10AFB13E100910D49FFF77AFFF1
:104810009FE7084FC2E700BF06640200F04A0200AB
:104820004B730200F8630200044B02002B64020089
:1048300002640200FD630200581700205C1700208C
:104840000F64020038B50C46E107054603D5084A57
:104850000849FFF757FFE20608D4A30628464CBFD5
:1048600005490649BDE83840FFF74CBF38BD00BFD9
:10487000F86302004B7302003264020031640200EC
:104880002DE9F0471D46089B1746DA0604460E46FA
:1048900005D499064CBF2B492B49FFF733FFDFF8AE
:1048A000B0904FF00008A8452DDBDFF8A880DFF8B6
:1048B000A890DFF89CA00025BD4232D2725D494627
:1048C0002046FFF71FFF0135102D23D11F49DFF8C8
:1048D0008080DFF88890DFF888A02046FFF712FF7D
:1048E0000025AF4229D9725D12F8093013F0970FF5
:1048F00008BF2E2251462046FFF704FF0135102D38
:1049000014D1BDE8F08749462046FFF7FBFE08F1C9
:104910000108C8E76A07CFD151462046FFF7F2FEEB
:10492000CAE741462046FFF7EDFECCE76B07D8D13A
:1049300041462046FFF7E6FED3E741462046FFF713
:10494000E1FEDBE732640200316402003E640200F3
:104950003C6402003A640200346402002D850200C7
:10496000406402002DE9F0478B7A13F007081746E0
:104970008AB00A7A05460E4620D04989C3F3C2039D
:104980008909D243CDE900830291F36802F0010264
:104990003946FFF7C9FE8146347AE44314F0010436
:1049A0000ED0294630461BF015FAB8F1000F2BD077
:1049B000424639462846FFF745FF25E0C146EBE76A
:1049C000B8F1000F26D12746EB68069306AA3B46AE
:1049D000A96830461BF0EAF9069A6B681A603AB18A
:1049E000AB68134413F8014CA4F10A035C425C4128
:1049F00028461BF04CFB069B1F44002BE4D11CB146
:104A000013492846FFF77EFE28461BF040FB0AB0FC
:104A1000BDE8F08730461BF021F90E4902462846D2
:104A2000FFF770FE4FF0100A05AA234606A930468C
:104A3000CDF814A01BF0BAF9059A002AB8D04B465D
:104A4000009706A92846FFF71BFF059B1C44EBE7D0
:104A5000436402004B73020073B542F20F738B4242
:104A600028BF0B4605680F4A0446052168461AF020
:104A7000E0FB63680C495B6806460B2228461BF086
:104A80009CF963683246694628465B681BF095F9D5
:104A9000636806495B681B2228461BF08EF902B04A
:104AA00070BD00BFB982020081640200656402002B
:104AB000084A10B50123084C13600021A04204D815
:104AC00001B11360054B186010BD40085B00012167
:104AD000F4E700BF5C17002040420F005817002089
:104AE000014B01221A707047262F0020024B034809
:104AF00001221A701BF0CBBA272F0020304B020086
:104B00000148FFF7A9BF00BF304B020010B50846AF
:104B10000C461BF061F8054821460F22FFF722FFE3
:104B20002046BDE810401BF086B800BF304B0200A5
:104B3000054B1B781BB141F288301FF052BAA420FC
:104B4000002119F015BC00BF272F00202DE9F84FD8
:104B5000DFF89090DFF890B007460E460424CA466E
:104B600099F8003033B94FF0FF324FF0FF33584619
:104B700019F026F832463946002001F027F99AF854
:104B80000030804613B9584619F092F8144DB8F128
:104B9000000F18D001232B709AF8003033B930463B
:104BA000BDE8F88F5CB92C704FF0FF34002001F0A5
:104BB0008DF90028F3D02B78002BF3D1EFE7013CDF
:104BC000FFF7B6FFF2E72B7813B1013C04D12C704C
:104BD0002B78002BC4D1E2E7FFF7AAFFF8E700BF6C
:104BE000262F0020272F00208C090020074B084A81
:104BF0000848D21AD208084B9201012914BF014675
:104C0000194642F0030205481AF024BF2C4802005E
:104C100054490200C7640200BF640200D06402006D
:104C200030B587B005460C461822002168461FF0B3
:104C30009EFC054BADF80C4069460020CDE90135DE
:104C400006F0A0FF07B030BDB84B020083680149F1
:104C50001B6818477417002070B5264B0278264D44
:104C600053F822302B6004460E46017823481AF090
:104C7000D3FA6178224829711AF0CEFAA378214834
:104C800007336B71A1781AF0C7FA08232B81E378F8
:104C90001D480133AB71E1781AF0BEFA23791B4845
:104CA000C3F109035B00AB7221791AF0B5FAEE7219
:104CB000174818F093FD044650B9164A164B14498C
:104CC0001648D21AD208920142F001021AF0C2FE2E
:104CD0002046FFF7BBFF00280BDA0E490E4B1048A9
:104CE000C91AC9088901BDE8704041F001011AF0F4
:104CF000A4BE70BDCC01002074170020E664020041
:104D0000F6640200066502001D6502002E650200C1
:104D10003D650200544902002C480200446502002F
:104D20005865020010B5034686B089B91248FF22C3
:104D300002701A7842705A7882709B78C37004218E
:104D4000FFF76EFF10F1800F08BF002006B010BD06
:104D500001290BD101A9421E1333084612F8014F55
:104D600001F8014B9A42F9D11421E9E703481B7875
:104D700003700121E4E700BF3D2F00203B2F0020FE
:104D80002DE9F0438DB03048304C18F027FD00215C
:104D90000546102208A807911FF0E9FB2C4BE41AE6
:104DA000E408A4014FF0FF364FF0FF3744F003044E
:104DB000AB680DF11502CDE9006703920DF1160203
:104DC00002929B68142207A9284698479DF81C3038
:104DD000262B804613D1DFF880900123284689F8DE
:104DE0000B30FFF733FF424607A928461BF091F925
:104DF0000023284689F80B30FFF728FFD8E79DF8F5
:104E000016305B42DBB2ADF816308DF818309DF8E5
:104E100015308DF819300021FF2306A88DF81A30BF
:104E2000FFF780FF012107A8FFF77CFF07A8FFF726
:104E300031FA9DF91530BDF91620ADF80040014654
:104E400004481AF034FEB3E73D65020054490200FD
:104E50002C4802006B650200741700202DE9F04F0A
:104E60002D4B2E49ADF5257D1D88EB1D6A46DB08CF
:104E7000A2EBC30304AF9D460DF11008002213B24C
:104E80009D4202F1010242DC2548DFF8A4A018F09F
:104E9000A5FC00211022834607F17000F9661FF07F
:104EA00066FB204B204A9B1ADB08BB6256462A460B
:104EB000414658461BF02DF9002358468AF80B301E
:104EC000FFF7C4FE07F15D02DBF80830039207F13B
:104ED0005E0202924FF480310022CDE90012584662
:104EE0009B68142207F16C019847041E22DABB6A02
:104EF0000E48990141F001011AF09FFDFB230221A8
:104F000007F5C07087F88031FFF70CFFCFE7C85C6A
:104F100008F80300B3E700BFF02E0020292F00207F
:104F20003D650200544902002C48020095650200CC
:104F3000741700202A4607F16C0140461FF0FBFA67
:104F400081460028B3D1CC481AF066F9FA23022131
:104F500007F5C07087F88031FFF7E4FE484603B2DA
:104F6000A342C0F21E8207F164001FF0E0FA96F936
:104F70000A300A2B00F3208284B20025FB22294646
:104F800007F18400C7F880501FF0F1FAFB22294690
:104F900007F5C270C7F880511FF0E9FA4FF47A7034
:104FA00044435F23224687F88531E317C7E9082386
:104FB000B24AF5724FF0FF33101B63EBE471C7E99F
:104FC0000132C7E906010121A9467D63396398F8DA
:104FD000043043FA09F3DC0740F1D281A84BA94819
:104FE00053F82910A84B196009F1300387F8803174
:104FF0001AF012F90023FB6498F80520F96C97F871
:105000004C300A41D00740F1B5819F4A9F48137147
:10501000303387F881311AF0FFF80023BB6498F829
:105020000630BA6C1341D90740F19E8197F8483099
:10503000954A9748D91D303387F88231BB6C51713E
:10504000D91D1AF0E9F800237B647A6C98F80730D0
:105050001341DA0740F1828197F844308A4C8D4839
:105060005A1C303387F883317B6CA271591C1AF0BB
:10507000D3F800233B64FC6098F808303A6C134185
:10508000DB0740F1658197F84030F9688248C3EB4F
:10509000C31252003033123287F884313B6C8A726B
:1050A0006FF00101594312311AF0B6F85846FFF774
:1050B000CDFD1FF0A6F84FF47A720B46A0FB02015B
:1050C00002FB0311CB0B4FEAD03A4AEA414AFB629A
:1050D00098F8011098F8003013FB01F35A433B6B2A
:1050E0001446D51723B13B6AD4187B6A43EB0505F8
:1050F00041F2883163184FF000023B6545EB020333
:105100007B65D7E9142365481AF086F80A26002340
:10511000C7E90E367B6DD9033B6D40F2E734D80307
:10512000001941EA53414FF0000444EB01014FF4F0
:105130007A720023FBF7D2FCDBF8083007F15D023E
:10514000CDE90001039207F15E0202929B68FF2203
:1051500007F180015846984738611FF052F84FF424
:105160007A750B46A0FB050105FB0311C40B44EA4D
:105170004144B4EB0A027A61FA6A4FEAD13363EB35
:1051800002063B601FF03DF88E46A0FB050105FBC3
:105190000E11CB0B5246D7F82CC0FB62141B3B6898
:1051A0003A6D6CEB030312193A657A6D43EB020218
:1051B0007A65D7E914234FEAD03A39484AEA414A96
:1051C0001AF02AF87A69374833461AF025F8FB6B4B
:1051D0007A699B18FB63BB6B46EB0303BB633B69BC
:1051E000002BC0F2A580BB6A07F180009C01FFF78D
:1051F00051F844F00304ADF8004097F95D30B7F979
:105200005E20014628481AF052FC3B6B002B00F050
:10521000E480BB69FA6B9818FB69BA6B43EB020137
:1052200098F801304FF47A725A43D317FBF706FC13
:1052300085B2294604461D4819F0EEFFD7E90E3223
:105240001B4819F0E9FF07F5C073E4B26422B4FB10
:10525000F2F230320A219A71B4FBF1F202F130001D
:10526000D87198F8020001FB1242A0F10901303216
:105270004D431A721EE000BFA665020078ECFFFFE6
:10528000CC010020E664020074170020F6640200DE
:10529000B3650200C36502002E650200D5650200F9
:1052A000F4650200206602006B65020031660200B0
:1052B00041660200A5F109027A61461E09224FF0FB
:1052C000C80CB242C0F28F802E229A5500231A4693
:1052D000012507F5C07E984200F3928097F85E3072
:1052E00087F862205B42DBB2A7F85E3087F8603057
:1052F000002197F85D3087F8613007F16000FFF713
:1053000011FD002D14BF7423662387F889307B6B51
:10531000474887F88A30194619F07EFF2E2301216D
:1053200007F1800087F88B4087F88C30FFF7FAFC94
:10533000D7E91434012B74F10003BFF6EBAE7B6B9D
:105340003C480133DBB27B6319F066FF00233B630B
:105350003B6C0133082B3B647FF48EAE7B6C0133D6
:10536000042B7B647FF471AEBB6C0133062BBB64F2
:105370007FF455AEFB6C0133032BFB647FF43CAE32
:1053800009F10109B9F1080F7FF421AE2A4B2B482E
:1053900000221A7019F040FF07F52177BD46BDE8DD
:1053A000F08F082BC1BF07F16402D21818F8033040
:1053B00002F8093C0130D2E5A0F10E04A4B20021AC
:1053C0004FF4E02018F0D4FFFA23022107F5C07053
:1053D00087F88031FFF7A6FCCFE5FB6BBA68981819
:1053E000BB6B7A681AE77969154D02EB010E9EFBDB
:1053F000FCF10CFB11E1695C99540132D2B260E717
:1054000007F1800113F80E6011F803C066450DD056
:1054100000218CEA06050D41ED0748BF013201F17C
:10542000010148BFD2B20829F3D10025013352E768
:1054300055660200636602003C2F0020756602007C
:1054400073070020F0B5364B8BB018681B790690B7
:105450008DF81C303348344E18F0C0F9052204464C
:1054600006A91AF056FE00252046F572FFF7EEFB5E
:105470008DF824504FF4C0300021A3680895CDE981
:1054800000010DF1150203920DF1160202929B68C4
:10549000142208A92046984796F90A300A2B054697
:1054A0000CDD4FF42030002118F062FF1F4F3B78D5
:1054B000F3B14FF42030002118F05AFF002D1DDA0F
:1054C0001B4B1C491C48C91AC908890141F001013C
:1054D0001AF0B3FAF923022105A88DF81430FFF76A
:1054E00021FC01232046F372FFF7B0FB0BB0F0BDA7
:1054F000002142F2676018F03BFFD8E7052208A9B7
:1055000006A81FF018F820B90C4819F085FEFD23F5
:10551000E1E70B4808A919F07FFEFC23DBE700BF99
:10552000CF6602003D65020074170020282F00207E
:105530002C4802005449020093660200A86602004B
:10554000B666020030B51C46264B18688BB015466F
:1055500008B101F017FA052C12D1234C22781AB9A0
:1055600001212846FFF778FB012323700221FE2347
:1055700009A88DF82430FFF7D5FB00200BB030BD13
:10558000012C4FF0000111D100220023CDE90623A8
:105590000523CDE90213CDE900110491134B144901
:1055A00014484FF4006219F019F8E6E7124B134A59
:1055B0001C800BB2A34210DB00220023CDE906239E
:1055C00000230522CDE90323CDE9013300930C49E3
:1055D0000C4B0D484FF48042E5E7685CD054013134
:1055E000E7E700BF801700203C2F00204554000053
:1055F000B8B80020D80C0020F02E0020292F002061
:10560000B87800205D4E0000580C002030B5144DD5
:1056100028688BB0144608B101F0B4F92046002187
:10562000FFF71AFBFE23022109A88DF82430FFF7AB
:1056300079FB002200230024CDE906230523CDE9D0
:105640000334CDE90144074B074900944FF48042ED
:10565000064818F0C3FF286020460BB030BD00BFDD
:1056600080170020814D0000B8380020D80B0020A2
:10567000014B1870704700BF282F0020F8B5054671
:105680004FF02003EFF3118683F31188BFF36F8F80
:105690000B4B1C68002C38BF00245CB1094FD4E9C7
:1056A0000132002D08BF13460BB1387898472468A3
:1056B000002CF4D186F31188BFF36F8FF8BD00BFC3
:1056C000841700208C170020084B10B51C685CB9AB
:1056D00001221A60064B93E803001BF002FF2046EC
:1056E000BDE81040FFF7CABF10BD00BFEC010020AD
:1056F0008C17002037B56D46014628461AF00EFD7E
:1057000095E803000B4C84E80300207880B10A4B35
:1057100000221A6018F0A0FB0120FFF7AFFF94E809
:1057200003001BF0CBFEFFF7CFFF18F085FC2078BD
:1057300003B030BD8C170020EC01002010B5044CE4
:105740002046FDF7ABFC204601F0E0F9002010BD3B
:10575000555700002DE9F341DFF86080164E8DF8B3
:105760000700044603254FF0FF334FF0FF32404659
:1057700018F026FA01220DF10701002000F072FB5B
:105780000746404618F094FA2FB1012333702046A3
:1057900002B0BDE8F0813378002BF8D0013D08D08D
:1057A0001EF019FC0028DED10021422018F0E0FD97
:1057B000D9E73570EBE700BF412F00208C090020AE
:1057C00070B504460D48231A9A100D4B5343DBB2B3
:1057D0000C255D4305F140030E46184440211AF0A4
:1057E000AAFC011E04DB074B2B445B689847002191
:1057F00020463346BDE87040184700BFA817002078
:10580000B76DDBB6584C02002DE9F0410F4C104D3E
:10581000031B9B105D43EBB20C255D43074605F16E
:1058200040000E46204440211AF09EFC011E08DB79
:10583000084B2C44C4E90E36074B5B59BDE8F041D8
:10584000184738463346BDE8F0411847A8170020EE
:10585000B76DDBB6CB010200584C0200002270B5D8
:1058600001210446104600F04DFD002000F018FD17
:105870000F4817F02FFD0F4B984215D11EF0BEF8C0
:1058800026690D49304619F030FD00280BDB012553
:1058900035642469084904F11C0019F026FD00282C
:1058A00001DBE564002070BD6FF00400FBE700BF82
:1058B000F15800000000AD0B704C020001460C23B3
:1058C00009484B4370B5C418D4E90E560022403342
:1058D000A26318441AF066FC2DB132462B460348E9
:1058E000BDE87040184770BDA81700203C08002094
:1058F00010B1012804D07047034B1B6C5B0701D12A
:10590000FFF7DCBF704700BFA817002008B54FF0B5
:105910002003EFF3118183F31188BFF36F8F124AD5
:10592000136843F0020013F0010310600CD04FF035
:105930008042D2F80C34D2F80C2413F0010303D0C7
:105940000A481AF02FFC012381F31188BFF36F8FEF
:1059500023B1BDE808400020FFF7B0BFBDE8084014
:10596000012017F0C7BC00BFF8170020E81700207F
:10597000094BBFF35B8F53E8002F22F0020143E88D
:1059800000100028F7D1BFF35B8FD30702D40120AA
:1059900017F0E2BC704700BFF81700207FB5002267
:1059A0000123CDE9022304ABCDE90433094ACDF844
:1059B00000D06B46CDF804D01AF02DFC002805DB92
:1059C0004FF480420023684618F094FD07B05DF85C
:1059D00004FB00BFE9010200024AC3B21C2003FB22
:1059E00000207047A8170020094BBFF35B8F53E8D6
:1059F000002F42F0010143E800100028F7D1BFF367
:105A00005B8F930702D4012017F074BC704700BF6E
:105A1000F8170020094BBFF35B8F53E8002F22F0EB
:105A2000010143E800100028F7D1BFF35B8F930713
:105A300002D4012017F090BC704700BFF817002077
:105A40002DE9F8433A49BFF35B8F0646012251E83E
:105A5000003F41E800200028F9D1BFF35B8F33B944
:105A6000344935484B60CB608A6019F051FC731E95
:105A7000012B32D8012E07D14FF08043D3F81C34CC
:105A800003F00303012B28D01EF0A5FA044618B931
:105A90002A4B1B78002B44D14FF02003EFF31185E4
:105AA00083F31188BFF36F8F0124254FDFF89480B3
:105AB000DFF894904FF08042D2F81834D2F81824CE
:105AC000D2030CD503F00303012B01D0012E06D124
:105AD0000CB385F31188BFF36F8FBDE8F883ACB1C9
