:10000000E0470020355A000095090200655A0000BB
:10001000655A0000655A0000655A000000000000A3
:10002000000000000000000000000000C5570000B4
:10003000655A0000000000007D5700003BF70100FA
:10004000F559000095780100F5590000F5590000B8
:10005000F5590000F5590000F5590000F559000068
:10006000F5590000F5590000F5590000F559000058
:10007000F5590000F5590000F5590000F559000048
:10008000F5590000F5590000F5590000F559000038
:10009000F5590000F5590000F5590000F559000028
:1000A000F5590000F5590000F5590000F559000018
:1000B000F5590000F5590000F5590000F559000008
:1000C000F5590000F5590000F5590000F5590000F8
:1000D000F5590000F5590000F5590000F5590000E8
:1000E000F5590000F5590000F5590000F5590000D8
:1000F000F5590000F5590000F5590000F5590000C8
:1001000081F0004102E000BF83F0004330B54FEAC8
:1001100041044FEA430594EA050F08BF90EA020F35
:100120001FBF54EA000C55EA020C7FEA645C7FEAC8
:10013000655C00F0E2804FEA5454D4EB5555B8BFEB
:100140006D420CDD2C4480EA020281EA030382EA5C
:10015000000083EA010180EA020281EA0303362DEE
:1001600088BF30BD11F0004F4FEA01314FF4801CC1
:100170004CEA113102D0404261EB410113F0004FD3
:100180004FEA03334CEA133302D0524263EB43038A
:1001900094EA050F00F0A780A4F10104D5F1200E28
:1001A0000DDB02FA0EFC22FA05F2801841F1000183
:1001B00003FA0EF2801843FA05F359410EE0A5F157
:1001C00020050EF1200E012A03FA0EFC28BF4CF088
:1001D000020C43FA05F3C01851EBE37101F000453E
:1001E00007D54FF0000EDCF1000C7EEB00006EEB4B
:1001F0000101B1F5801F1BD3B1F5001F0CD34908D5
:100200005FEA30004FEA3C0C04F101044FEA44522B
:1002100012F5800F80F09A80BCF1004F08BF5FEAB2
:10022000500C50F1000041EB045141EA050130BD92
:100230005FEA4C0C404141EB0101013C28BFB1F5A4
:10024000801FE9D291F0000F04BF01460020B1FAEF
:1002500081F308BF2033A3F10B03B3F120020CDAC2
:100260000C3208DD02F1140CC2F10C0201FA0CF0A0
:1002700021FA02F10CE002F11402D8BFC2F1200C05
:1002800001FA02F120FA0CFCDCBF41EA0C019040BB
:10029000E41AA2BF01EB0451294330BD6FEA040404
:1002A0001F3C1CDA0C340EDC04F11404C4F12002EF
:1002B00020FA04F001FA02F340EA030021FA04F301
:1002C00045EA030130BDC4F10C04C4F1200220FA58
:1002D00002F001FA04F340EA0300294630BD21FA96
:1002E00004F0294630BD94F0000F83F4801306BF5C
:1002F00081F480110134013D4EE77FEA645C18BF50
:100300007FEA655C29D094EA050F08BF90EA020FE6
:1003100005D054EA000C04BF1946104630BD91EADE
:10032000030F1EBF0021002030BD5FEA545C05D1E1
:100330004000494128BF41F0004130BD14F5800420
:100340003CBF01F5801130BD01F0004545F0FE4194
:1003500041F470014FF0000030BD7FEA645C1ABFC9
:10036000194610467FEA655C1CBF0B46024650EA00
:10037000013406BF52EA033591EA030F41F400212C
:1003800030BD00BF90F0000F04BF0021704730B5B2
:100390004FF4806404F132044FF000054FF0000187
:1003A00050E700BF90F0000F04BF0021704730B548
:1003B0004FF4806404F1320410F0004548BF40421D
:1003C0004FF000013EE700BF42004FEAE2014FEA72
:1003D00031014FEA02701FBF12F07F4393F07F4F4D
:1003E00081F06051704732F07F4208BF704793F050
:1003F0007F4F04BF41F40021704730B54FF4607463
:1004000001F0004521F000411CE700BF50EA010265
:1004100008BF704730B54FF000050AE050EA01020E
:1004200008BF704730B511F0004502D5404261EB7E
:1004300041014FF4806404F132045FEA915C3FF4BF
:10044000D8AE4FF003025FEADC0C18BF03325FEA5C
:10045000DC0C18BF033202EBDC02C2F1200300FA0D
:1004600003FC20FA02F001FA03FE40EA0E0021FA32
:1004700002F11444BDE600BF70B54FF0FF0C4CF420
:10048000E06C1CEA11541DBF1CEA135594EA0C0FD2
:1004900095EA0C0F00F0DEF82C4481EA030621EA0D
:1004A0004C5123EA4C5350EA013518BF52EA033548
:1004B00041F4801143F4801338D0A0FB02CE4FF0FA
:1004C0000005E1FB02E506F00042E0FB03E54FF02A
:1004D0000006E1FB03569CF0000F18BF4EF0010E22
:1004E000A4F1FF04B6F5007F64F5407404D25FEA1E
:1004F0004E0E6D4146EB060642EAC62141EA5551D1
:100500004FEAC52040EA5E504FEACE2EB4F1FD0C12
:1005100088BFBCF5E06F1ED8BEF1004F08BF5FEA90
:10052000500E50F1000041EB045170BD06F0004642
:1005300046EA010140EA020081EA0301B4EB5C04EF
:10054000C2BFD4EB0C0541EA045170BD41F48011E7
:100550004FF0000E013C00F3AB8014F1360FDEBF0C
:10056000002001F0004170BDC4F10004203C35DAE8
:100570000C341BDC04F11404C4F1200500FA05F36B
:1005800020FA04F001FA05F240EA020001F000420C
:1005900021F0004110EBD37021FA04F642EB060182
:1005A0005EEA430E08BF20EAD37070BDC4F10C04AC
:1005B000C4F1200500FA04F320FA05F001FA04F270
:1005C00040EA020001F0004110EBD37041F100015C
:1005D0005EEA430E08BF20EAD37070BDC4F1200567
:1005E00000FA05F24EEA020E20FA04F301FA05F2CF
:1005F00043EA020321FA04F001F0004121FA04F277
:1006000020EA020000EBD3705EEA430E08BF20EA46
:10061000D37070BD94F0000F0FD101F00046400080
:1006200041EB010111F4801F08BF013CF7D041EA02
:10063000060195F0000F18BF704703F00046520006
:1006400043EB030313F4801F08BF013DF7D043EAD7
:100650000603704794EA0C0F0CEA135518BF95EA8D
:100660000C0F0CD050EA410618BF52EA4306D1D114
:1006700081EA030101F000414FF0000070BD50EA33
:10068000410606BF1046194652EA430619D094EABD
:100690000C0F02D150EA013613D195EA0C0F05D1A7
:1006A00052EA03361CBF104619460AD181EA0301FB
:1006B00001F0004141F0FE4141F470014FF00000B3
:1006C00070BD41F0FE4141F4780170BD70B54FF04E
:1006D000FF0C4CF4E06C1CEA11541DBF1CEA1355CE
:1006E00094EA0C0F95EA0C0F00F0A7F8A4EB0504B0
:1006F00081EA030E52EA03354FEA013100F08880A7
:100700004FEA03334FF0805545EA131343EA12636F
:100710004FEA022245EA111545EA10654FEA002624
:100720000EF000419D4208BF964244F1FD0404F5DD
:10073000407402D25B084FEA3202B61A65EB030539
:100740005B084FEA32024FF480104FF4002CB6EBF6
:10075000020E75EB030E22BFB61A754640EA0C0076
:100760005B084FEA3202B6EB020E75EB030E22BFB6
:10077000B61A754640EA5C005B084FEA3202B6EBF7
:10078000020E75EB030E22BFB61A754640EA9C00B6
:100790005B084FEA3202B6EB020E75EB030E22BF86
:1007A000B61A754640EADC0055EA060E18D04FEA44
:1007B000051545EA16754FEA06164FEAC30343EAE4
:1007C00052734FEAC2025FEA1C1CC0D111F4801FB1
:1007D0000BD141EA00014FF000004FF0004CB6E7AA
:1007E00011F4801F04BF01430020B4F1FD0C88BF49
:1007F000BCF5E06F3FF6AFAEB5EB030C04BFB6EB54
:10080000020C5FEA500C50F1000041EB045170BD46
:100810000EF0004E4EEA113114EB5C04C2BFD4EB73
:100820000C0541EA045170BD41F480114FF0000EF7
:10083000013C90E645EA060E8DE60CEA135594EA73
:100840000C0F08BF95EA0C0F3FF43BAF94EA0C0F76
:100850000AD150EA01347FF434AF95EA0C0F7FF4EB
:1008600025AF104619462CE795EA0C0F06D152EA3F
:1008700003353FF4FDAE1046194622E750EA410623
:1008800018BF52EA43067FF4C5AE50EA41047FF434
:100890000DAF52EA43057FF4EBAE12E74FF0FF3C99
:1008A00006E000BF4FF0010C02E000BF4FF0010C6A
:1008B0004DF804CD4FEA410C7FEA6C5C4FEA430CE3
:1008C00018BF7FEA6C5C1BD001B050EA410C0CBF32
:1008D00052EA430C91EA030F02BF90EA020F002094
:1008E000704710F1000F91EA030F58BF994208BFFB
:1008F00090422CBFD8176FEAE37040F001007047B8
:100900004FEA410C7FEA6C5C02D150EA013C07D10E
:100910004FEA430C7FEA6C5CD6D152EA033CD3D059
:100920005DF8040B704700BF8446104662468C4653
:100930001946634600E000BF01B5FFF7B7FF002886
:1009400048BF10F1000F01BD4DF808EDFFF7F4FFAF
:100950000CBF012000205DF808FB00BF4DF808ED3A
:10096000FFF7EAFF34BF012000205DF808FB00BF5D
:100970004DF808EDFFF7E0FF94BF012000205DF87F
:1009800008FB00BF4DF808EDFFF7CEFF94BF012034
:1009900000205DF808FB00BF4DF808EDFFF7C4FF2D
:1009A00034BF012000205DF808FB00BF4FEA410280
:1009B00012F5001215D211D56FF47873B3EB6252B1
:1009C00012D94FEAC12343F0004343EA505311F0D8
:1009D000004F23FA02F018BF404270474FF000006A
:1009E000704750EA013005D111F0004008BF6FF0A8
:1009F000004070474FF00000704700BF4A0011D21E
:100A000012F5001211D20DD56FF47873B3EB625268
:100A10000ED44FEAC12343F0004343EA505323FA74
:100A200002F070474FF00000704750EA013002D1E9
:100A30004FF0FF3070474FF00000704753B94AB98C
:100A4000002908BF00281CBF4FF0FF314FF0FF30D6
:100A500000F06EB9ADF1080C6DE904CE00F006F8B7
:100A6000DDF804E0DDE9022304B070472DE9F0472A
:100A7000089D0E4604468C46002B40F081808A4239
:100A8000174645D9B2FA82F24AB1C2F1200106FAFC
:100A900002F320FA01F1974041EA030C94404FEA37
:100AA000174E230CBCFBFEF6B9B20EFB16CC43EA84
:100AB0000C4306FB01F0984209D9FB1806F1FF3CF4
:100AC00080F01581984240F21281023E3B441B1A8D
:100AD000A4B2B3FBFEF00EFB103344EA034400FB68
:100AE00001F1A14209D93C1900F1FF3380F00181E5
:100AF000A14240F2FE8002383C44641A40EA0640BB
:100B000000211DB1D4400023C5E90043BDE8F087B2
:100B100002B9FFDEB2FA82F2002A4FD1CB1B4FEAB4
:100B2000174E1FFA87F80121B3FBFEFC260C0EFBC3
:100B30001C3346EA034608FB0CF3B34207D9BE193F
:100B40000CF1FF3002D2B34200F2EB808446F61A79
:100B5000A3B2B6FBFEF00EFB106643EA064408FBA8
:100B600000F8A04507D93C1900F1FF3302D2A04597
:100B700000F2D2801846A4EB080440EA0C40C0E71B
:100B80008B4208D9002D00F0AF800021C5E9000696
:100B90000846BDE8F087B3FA83F1002949D1B34292
:100BA00002D3824200F2BB80841A66EB0303012069
:100BB0009C46002DAAD0C5E9004CA7E7C2F120034E
:100BC0009740D8409140DE404FEA174E08434FEA25
:100BD000104CB6FBFEF11FFA87F80EFB11664CEACB
:100BE000064601FB08F3B34204FA02F409D9BE1920
:100BF00001F1FF3C80F08E80B34240F28B800239DD
:100C00003E44F31A86B2B3FBFEF00EFB103346EA05
:100C1000034600FB08F3B34207D9BE1900F1FF3CBD
:100C200074D2B34272D902383E44F31A40EA014109
:100C30007AE7C1F1200703FA01F422FA07F31C4313
:100C400020FA07F906FA01F34FEA144CFE4049EA8C
:100C500003094FEA1943B6FBFCFE1FFA84F80CFBAC
:100C60001E6643EA06460EFB08FAB24502FA01F296
:100C700000FA01F308D9A6190EF1FF3048D2B245A7
:100C800046D9AEF1020E2644A6EB0A061FFA89F9F0
:100C9000B6FBFCF00CFB106649EA064600FB08F8C0
:100CA000B04507D9A61900F1FF3C2DD2B0452BD98C
:100CB0000238264440EA0E40A6EB0806A0FB028953
:100CC0004E45C446CE4618D315D075B3B3EB0C02CF
:100CD00066EB0E0606FA07F722FA01F3CE401F4331
:100CE000C5E90076002111E7294628460EE7664649
:100CF000EDE6184601E74345E7D2B8EB020C69EB95
:100D000004040138A646E0E76046D3E760468CE776
:100D10008646B9E7614674E702383C442BE708464B
:100D200047E7ACF1020C3E4411E72946EEE600BF6E
:100D3000704700BF10F8012B11F8013B012A28BFB2
:100D40009A42F7D0D01A7047034613F8012B002AB5
:100D5000FBD1181A0138704770B5464DD5F82431CB
:100D6000996811F0010188B021D103AA40F603402F
:100D700006F024FA0446002878D1039B9B681B7870
:100D800093B9BFF35B8F2B4653F8982FBFF35B8F5C
:100D900002F00502BFF35B8F53E8001F43E8002019
:100DA0000028F9D1BFF35B8F039819F047FB03AA22
:100DB000002141F2030006F001FA0446002855D153
:100DC000039A2D4E936853F8010F596803C61046D5
:100DD00019F034FB214603AA41F2010006F0EEF9B6
:100DE0000446002842D1039883685A7885F8342055
:100DF000D9789A7842EA0122EA861A7985F835206C
:100E0000197ADA7942EA01222A875A799B7942EAE9
:100E100003236B8719F012FB214603AA41F202005B
:100E200006F0CCF9044608BB039B9A68531C413278
:100E300018685968344603C4083393422646F7D1EC
:100E40000E481FF047FE039819F0F8FA95F8403065
:100E50005A061BD40A4B0B490B48C91AC908890109
:100E600041F001011EF054F86FF01204204608B062
:100E700070BD00BF000000203C00002044000020A6
:100E80001C3D0200F43D02003866020003AA002166
:100E900042F2030006F092F904460028E6D1039AD4
:100EA000BF4E936853F8010F596803C6104619F0F6
:100EB000C5FA214603AA42F2020006F07FF9044671
:100EC0000028D3D1039B9B68B3F80120A5F8CC2060
:100ED00091B229B1DA78114606F1280022F0E3FA3E
:100EE000039819F0ABFA95F8406016F0200600F070
:100EF000EB8095F860301B0711D503AA002142F260
:100F00001C0006F05BF904460028AFD10398836803
:100F100053F8012F5B68C5E92A2319F08FFA95F879
:100F2000A0309E0624D502A90DF1060006F0BEF9F8
:100F3000044600289AD1042142F2240005F0DAFF89
:100F40000646002800F0C7800421083021F05DFD2E
:100F5000BDF806300380BDF8083043802246314694
:100F600042F2240006F02AF9044600287FF47EAFFE
:100F700095F8A0305C0610D503AA002142F22A00A1
:100F800006F01CF9044600287FF470AF03988368CC
:100F90005B7885F8E83019F051FA082142F2010037
:100FA00005F0A8FF0446002800F0958008210844B9
:100FB00021F02BFD95F8A01011F0400F024640F2F1
:100FC000022308BF032388074CBF43F02C0043F0E3
:100FD0000C008B0695F8A13048BF40F0400013F09C
:100FE000090F95F8663018BF40F4006003F006035F
:100FF000CE0748BF40F01000062B08BF40F4C07079
:1010000000211FF016FE2146002242F2010006F0E8
:10101000D5F8044600287FF429AF95F840309806AB
:101020001ED4B5F8CC10D9B903AA41F2050006F0D8
:10103000C5F8044600287FF419AFB5F8CC3063B981
:10104000039B9B685A78997842EA0122A5F8CC2044
:101050009A885448114622F026FA039819F0EEF9BE
:10106000082140F6014005F045FF044698B30821E9
:10107000084421F0CAFC95F8A030D90702463FD5B4
:1010800045A1D1E900011FF0D4FD2146002240F620
:10109000014006F093F8044600287FF4E7AE0146CD
:1010A00002AA4FF6014006F089F83F4C3F4BE41A84
:1010B000E408A40140B33E4844F002011DF028FFBB
:1010C00007F0CEF80446D1E6022140F66D4005F067
:1010D00011FF044610B96FF06804C7E6022108301A
:1010E00021F093FC0123037046702146324640F6FE
:1010F0006D4006F063F8044600283FF4FAAEB5E60A
:101100002C484FF00051BEE7029B2B489D68B5F874
:101110000120032A96BF2949294951F8221044F099
:1011200003031DF016FFB5F80110B5F803200229DE
:1011300044F003032ED1032A2CD8224951F822105F
:1011400021481DF006FF6A792048032A96BF2049EE
:101150001B4951F82210CDE90312AA790592B5F87E
:1011600007200692D5F80920079244F003030522D0
:1011700003A91DF023FF029819F060F902AA0021CB
:101180004FF6024006F01AF8054628B3114844F01D
:10119000020193E70A49D3E790880002008000200B
:1011A000A0000020D0000020F43D02001C3D020001
:1011B0005C6602001088000280660200E8430200BC
:1011C0002E630200A843020099660200B166020085
:1011D00020440200DE6602000298104E8368B3F8D5
:1011E0000130A6F8853019F029F996F885305B07AB
:1011F0007FF566AF02AA29464FF6034005F0DEFFF1
:1012000018B1074844F0020158E7029883685B78F8
:1012100086F8843019F012F952E700BF0000002070
:1012200007670200000000002DE9F041D0E90BC77C
:10123000D0F828800CEB07043034A0450E46154644
:1012400018D81B4F18A3D3E90023ACFB0701FFF705
:10125000F5FBA4EB080420F07F40306012A3D3E933
:101260000023A4FB0701FFF7E9FB20F07F40286083
:10127000BDE8F0810E4C0CA3D3E90023A8FB0401C8
:10128000FFF7DCFB20F07F4307F130003360A0FB69
:10129000040105A3D3E90023FFF7D0FB20F07F4032
:1012A0002860BDE8F08100BF8D49FD1A07000000ED
:1012B00000CA9A3B000000002DE9F04FA84C94F8BA
:1012C0004A608FB006F00106002800F05381B6BBDB
:1012D00094F8352094F8293094F8250004EB820224
:1012E00004EB830300F00300FF21D2F83880D3F829
:1012F0002C9084F8261015F081FD94F84A004207DE
:1013000000F11381B9F1000F11D09548494610F052
:101310001FFC99F800305B0605D506210BF046FE50
:10132000002800F040828E48414610F011FC99F8E8
:10133000003013F00E0F40F0CE80236A23B10C264C
:1013400030460FB0BDE8F08F0FF0E6FC8246002873
:1013500000F046820FF0ECFC8346002800F0598232
:1013600011F05CF90546002800F050824FF6FF733B
:10137000406F2B8505F11C030B93002800F02C8295
:1013800005F1680205F164010BF01CFEB5F8602060
:10139000744895F83910744B95F83A7195F83CC03B
:1013A000C5F844A1024095F87A0001F03F0161F0D0
:1013B0007F0120F01F0085F8391085F87A004FF082
:1013C0001B116A4842F48872C5E9161342F0010203
:1013D00027F003070021C5E94A012CF0070CA5F806
:1013E000602085F83A710622002700200021C5E917
:1013F0004C0185F83CC0A5F8C020C5E91277EF85FF
:101400002F6385F83B702F65A5F8C470A5F8C870E8
:10141000C5F80871A5F80C71A5F82071A5F8387108
:1014200085F843716F67A5F87870A5F8647195F831
:10143000661195F886C195F8AE01B5F8D820A5F8E3
:10144000847167F3041C21F0070102F0F80267F3CE
:10145000C30085F886C185F86611A5F8D820C5F8BF
:10146000E070A5F8E47085F8E670A5F8AC71A5F811
:10147000B87185F8AE0111F00BFCA5F8D20011F09F
:101480000DFCD5F8BC113A4AA5F8D4000A40C5F8BD
:10149000BC2111F009FC95F8C02160F3020285F827
:1014A000C02111F007FC95F8C0210B9B236260F36B
:1014B000C502C4E910ABC5E97377C5E97177C5E921
:1014C0000577C5F8D47185F8C021ED6116F0EAFD05
:1014D000002840F06A8194F824300121C3F34203CC
:1014E0000DA88DF834300BF0E5FE90B399F800307C
:1014F00003F00F03022B00F1FF3200F0A780012B55
:1015000000F0578198F801001030C000002B40F027
:10151000428199F801301033DB0003F54D71084426
:1015200003F59A7303FB02009BE0C0F3C000324650
:1015300004F14B0115F0D2FDFF2884F826003FF49A
:10154000E1AE304615F074FCB9F1000F7FF4DDAE6A
:10155000EDE6236A002B3FF4F2AE10F099F8EEE6C8
:101560006820002080F8FFFF480148017F4101000A
:101570000000FFF6002E3FF4E2AE236A5BB193F861
:10158000202042F0020283F82020236A93F82030C2
:10159000D8073FF5D4AEA8480FF074FC84420CD0B5
:1015A000A64AA749A74840F2DF731DF0D7F840408C
:1015B00080F311884FF0030002DF94F82430D9073C
:1015C0000DAD0ED502220D9203219F4B00950122F5
:1015D00000200DF07FF829460FF02CFC002840F089
:1015E0001D8102220321984B009500200D920DF0E1
:1015F00071F829460FF01EFC002840F0F380934854
:101600000FF07CFC002840F0D9808B480FF046FC9E
:1016100084420CD0894A8A498A4840F601031DF069
:101620009DF8404080F311884FF0030002DF236AE9
:101630000BB110F02DF894F84A3000266FF3000338
:10164000304684F84A300FB0BDE8F08F99F8013089
:101650001033DB0000FB03F000F5AA70642303FBEA
:1016600002007B4AE46131230025A0FB02012360D4
:10167000C4E905556EA3D3E90023C4E90155FFF77A
:10168000DDF9B4F84880E0600DF06AF80746B8F17B
:10169000000F08D199F8005005F00F05A5F10105DC
:1016A000B5FA85F56D0994F82420E36865F3000226
:1016B00012F0010584F824203DD0DFF88C916549B3
:1016C0000493002002250DF1300801930591CDE926
:1016D00007980321CDE9020006942A4600903B4674
:1016E0000C950CF06FFF41460FF0A4FB00287FF42F
:1016F00030AF594905914AF2D8320092CDE90798A6
:10170000CDE90300CDE9010006943B460122032107
:101710000C950CF057FF41460FF08CFB00287FF42E
:1017200018AF94F84A30304643F0010384F84A3049
:101730000FB0BDE8F08F4948494ADFF80CE1DFF807
:1017400014C10694A8FB00014FF0910909FB081190
:1017500003F24718C2F800804FF00209049309927F
:101760000DF1300832A3D3E900234FF6FF7ACDE91B
:1017700007E80295CDF83090CDF814C0CDF80CA054
:10178000FFF75CF94A46CDE900503B462846032165
:101790000CF0C2FEBFE7062B3FF4BBAE4FF4DA738A
:1017A0004FF41B70BEE61226CAE50FF071FF032648
:1017B000C6E54FF4F2734FF47F70B3E61F4A294930
:1017C000204840F2FE731CF0C9FF404080F31188AE
:1017D0004FF0030002DF18E705F16C006867CFE502
:1017E0000726ADE514480FF059FB84423FF4A7AD3E
:1017F0004FF4FF63114A124912481CF0AFFF4040FA
:1018000080F311884FF0030002DF98E558460FF08F
:1018100095FA50460FF086FA072691E506480FF034
:101820003DFB84423FF48BAD40F2EA73E2E700BF38
:101830008D49FD1A0700000068200020484B020077
:10184000384C0200144702005DFD00008420002097
:1018500000CA9A3B01130100A9150100002AE78480
:10186000BC200020A84A02002DE9F04FC84D2B688B
:101870008BB004460F469146002B00F01482668E12
:10188000E28D94F80E3116443E4413F00703B6B2CD
:1018900040F0A781B4F8E880A6EB08021FFA82FAAC
:1018A000120400F15E8294F93920002AC0F23D81D1
:1018B00094F8E43084F8E53094F8842194F8853184
:1018C00094F80C1184F80D11934206D094F88631E7
:1018D00003F00703052B00F04F822B68A34204BFDF
:1018E00000232B60D4F80851002D00F06B8128688C
:1018F000002800F06781B4F81031B4F82AC04268BB
:10190000C4F808216345B4F81221B4F8141100F0AA
:101910002081B4F828C0A5F806C04FF0160E4FF08D
:10192000000CEB832A84698485F804E085F81CC0E8
:1019300029460FF009FA0FF011FA2368002BC0F2C4
:10194000FC80608DB4F8105110FB0AF080B2B0FB3F
:10195000F5F315FB03F292B290421FFA83FBC0F03D
:10196000D38005FB130340F2E2428A489BB202FB9C
:1019700003F3A3FB000184A3D3E90023FFF75EF880
:10198000A9EB0009E18D94F93930A8EB06065E4415
:101990000F44374440F2E248002BE78508FB05F589
:1019A000C0F283817C4A7D497D484FF426631CF058
:1019B000D5FE404080F311884FF0030002DF00277E
:1019C000AA46B4F81421B4F81201764B7649A085E2
:1019D00042F2107C0CFB02522B442944B3FBF5F37A
:1019E00000F1060C013AB2FBF5F2B1FBF5F599B244
:1019F000A4F8C2206145B4F81021A4F8CE10A4F8D0
:101A0000C650628502DD091A063989B294F80E3192
:101A1000A4F8CA101B0744BF0023A4F8C430022155
:101A2000012018F08DFA00220221054601200BF05A
:101A300017FB5E494FF4F07220460BF0A3FA00F159
:101A400003085FFA88F85A4B0094424601210020AF
:101A50000CF040FE30F002030CD04F4A554950487C
:101A600040F68F231CF07AFE404080F311884FF03F
:101A7000030002DF474BAAFB03AB504642A3D3E966
:101A800000235946FEF7DAFF4B4AE368049320F03F
:101A90007F46A6FB0223072000FB0633BAEB0200B9
:101AA0006BEB0301DFF814E1DFF814C1089406942E
:101AB0004FF47A7200234FF6FE74CDF81CE0CDF897
:101AC00014C00394FEF7BAFF4B46CDE901600097BE
:101AD0004246012100200CF075FD30F002030CD0CD
:101AE0002D4A34492E4840F6A9231CF037FE4040C9
:101AF00080F311884FF0030002DF002D40F03681A3
:101B000000200BB0BDE8F08F121A40F2E2432148EA
:101B100003FB02F2A2FB00011BA3D3E90023FEF7A3
:101B20008DFF20F07F4081442CE794F8D920002AD3
:101B30003FF4BEAE84F8D930BEE6D4E9010223F00A
:101B4000004382422CBF914481442360A9EB0309E6
:101B5000F7E6B4F82CC094457FF4DBAE40F2E24CDB
:101B60000CFB03FB42F2107CB4F8C2E00CFB01BC9E
:101B70000CF1FF3CBCFBFBFC1FFA8CFCE6457FF440
:101B8000C8AE01232B71D3E68D49FD1A0700000072
:101B9000DC20002000CA9A3B544C0200844702001B
:101BA000144702007FC3C901FF596202E010002000
:101BB000251F0100344D02008D49FD1ACD1E010084
:101BC0002D670100804A8149814840F6E4131CF0EA
:101BD000C5FD404080F311884FF0030002DF286804
:101BE00089E601200FF0C0F80746002800F0CA80FF
:101BF00078480BF093F90546002800F0C3800FF0F9
:101C0000D1F83A682B79D4F80811516043F00303F6
:101C10000C22C4F808716A712B71A38DD4F81821B5
:101C20006D4F94F80E1100201E44E871A7FB02329C
:101C3000C2F38F2294F81C312B72D4F8C431A5F86A
:101C40000920B4F81021A5F80B200636B4F81221AB
:101C5000A5F80D20B6B2B4F81421A5F80F2060F352
:101C60000201A4F8E86084F80E11A5F81160002BB9
:101C700069D094F86621900765D494F8BF21D10704
:101C800061D4D4F8D0219342D4F8C82100F08580E3
:101C9000002A5BD11A7902F00302032A00F089803E
:101CA000C4F8C83154E02860E9E5A26C236C4B4FBE
:101CB00003FB1A23A36416F047FA064694F8D800EB
:101CC000C0F3C20016F042FA064405FB06F6444B88
:101CD000A26C94F81C1106F5742606F23F26A3FBAD
:101CE0000636B60C06FB0BF06B080244963B9A4294
:101CF00028BF1A4608FB01FC4FF0000EC4E9113260
:101D0000A0FB07012EA3D3E90023C4F850C0C4F8F8
:101D1000E0E02664FEF792FE2F4B8446D4F81801CB
:101D2000A3FB0030800A08FB00F0A0FB070124A3FE
:101D3000D3E90023A9EB0C09FEF780FEA5EB060A08
:101D400020F07F473DE6D4F8C82102B3D4F8CC3167
:101D50001A682A601D602B68C4F8CC510BB9C4F80E
:101D6000D4516FF076000BB0BDE8F08F0122104621
:101D700002210BF075F9C3E6002384F88521A4F84D
:101D8000C830AAE56FF068000BB0BDE8F08F2B609B
:101D9000C4E97155C4F8CC51E0E71968C4F8D01112
:101DA000002AD3D11A682A601D602B68C4E97255D5
:101DB000D4E7DA79032AF5D00A2A7FF471AFF1E784
:101DC0008D49FD1A07000000544C0200204D02000E
:101DD00014470200602100205917B7D100CA9A3B6E
:101DE00083DE1B43000000002DE9F04F0F4616462E
:101DF00081460A7F57F81E0F96F812A0BC88D3F8C8
:101E0000008095B00D463168ADF84C40C2F38012A9
:101E1000BAF1FF0FD1F800B012901C468DF83F20A8
:101E200048D112AB93E803001090ADF844102A4655
:101E30002B4632F82E1F9278A2722181D5F82A20E3
:101E4000626053F83A2FA26104F118001B79037104
:101E500005210BF02FFA95F83F20637F00F03F003B
:101E600060F30503C2F304016377A177AF8EE781C6
:101E70000128BFB202F01F0305D91B3303F01F0373
:101E80000B2B00D817BB94F8203001276FF3000309
:101E900084F820302F717468484629460EF054FFAC
:101EA0002068277121460EF04FFF0EF057FF15B046
:101EB000BDE8F08F10AA0DF13F01504614F0D0FE9E
:101EC0009DF83F3002338DF83F30B0E7336898F823
:101ED000D8100020586095F8363095F83700520930
:101EE00043EA002362F3C501238240F2E2426B8E93
:101EF00088F8D81002FB07F70B9316F025F9034674
:101F000098F8D8000A93C0F3C20016F01FF90A9B94
:101F1000DFF8D8E295F831C0AB49034407FB03F37F
:101F200003F5742303F23F23AEFB03234FEA570E5E
:101F300040F2E24202FB0CF29B0CAEF1960EA26361
:101F4000C4F828E063622B8F208ADFF8A4C242F233
:101F5000107202FB0372394400F1060E013AB1FB24
:101F6000F7F1B2FBF7F2A8F8C2208AB27245BC447E
:101F7000A8F8CE20BCFBF7FCA8F8C6C002DD121AF8
:101F8000063A92B2A8F8CA206268C8F8DC202A7F14
:101F90000C934FF48071A983C2F340139BF8260081
:101FA0008DF834300A9315F08DFB0C9B05F12B0254
:101FB000002800F0E080294651F8240FC5F82B00D6
:101FC00089889180BAF1FF0F00F0D980BDF84C20CC
:101FD0001298A5F82920C5F825009DF83F10109803
:101FE000BDF84420A977C5F81F00A5F8232098F86C
:101FF000D820E089218AA986C2F3C202EB866886CE
:1020000085F83820404610F015FB2946A081E8806D
:10201000756848460EF098FEA389EB8019232B7152
:102020000A9BD5F80090002B40F0B7809DF8343023
:102030002B77294648460EF087FE0EF08FFE94F867
:102040004500012100F0070015F0DAFE5F4A002587
:102050008146312300F25240A0FB0201C8F8003053
:10206000C8E9015556A3D3E90023FEF7E7FCF3685E
:102070000B99646A40F2E24202FB013320F07F4098
:1020800003F286332A460221C8F80C000120A3EB94
:1020900009090AF0E5FF58460FF094FC821C4C4BEE
:1020A000CDF800B0D2B2284601210CF013FB012874
:1020B000A7EB04047CD09BF82430DB0765D44046B2
:1020C00010F0B8FADFF804B1A4FB0B453CA3D3E948
:1020D0000023074629462046FEF7B0FC3D4ACDF8CE
:1020E000188020F07F4AAAFB0223072101FB0A3354
:1020F00040F2A111B6680891374907913749059117
:10210000A01A65EB0301D8F80C30049300244FF4B7
:102110007A7200230394FEF791FC29A3D3E90023EC
:102120000546A9FB0B01CDE901A5FEF787FC0337A6
:1021300020F07F40FFB2313E334600903A462046C1
:1021400001210CF03FFA30F002030CD0244A25495B
:1021500025484FF4D1731CF001FB404080F31188F7
:102160004FF0030002DF0122104602210AF078FF3F
:1021700015B0BDE8F08FC5F82B00908022E7002154
:10218000C5F82510A5F8291027E7002301220093A0
:10219000184611460CF09EFA91E7637F43F0400326
:1021A0006377201D14F0E4FB0123E0832B7740E7E5
:1021B0000EF080FE83453FF47EAF14F093FA7AE789
:1021C0008D49FD1A070000007FC3C90100CA9A3B70
:1021D000116701008D49FD1AB56601002D670100E8
:1021E0007C4E0200344D02001447020083DE1B4384
:1021F000FF59620200000000114B10B5C3F8E40063
:10220000FEF7C0F80CA3D3E90023FEF75FFAFEF750
:10221000F5FB0446C0F30741062020F086FDC4F319
:102220000721072020F081FDE1B20820BDE8104021
:1022300020F07BBDAFF300800000000080844E40A2
:10224000EC2900200000000070B5092020F078FD86
:102250000546062020F074FD0646072020F070FD9C
:102260000402082020F06CFD44EA06442043FEF7F7
:1022700089F81BA3D3E90023FEF7FEF8FEF7BEFBA7
:1022800000210446092020F050FD3B2020F058FD9D
:1022900040F04001C9B23B2020F047FD3B2020F038
:1022A0004FFD8206FAD41048FFF7A6FF3B2020F02E
:1022B00047FD40F04001C9B23B2020F036FD3B20F5
:1022C00020F03EFD8306FAD42946092020F02DFD9A
:1022D0002046BDE87040FFF78FBF00BFAFF300801E
:1022E0000000000080844E4000A1BC3300000000CC
:1022F0002DE9F84F884620B1012855D00020BDE8CF
:10230000F88F714C2720B4F8FC5020F019FD0135EE
:1023100020F0F8002844FEF745F894F8FE3000223B
:10232000002B3CD1694BFDF7F1FE064630200F46ED
:1023300020F006FD30F0F90314BF644B00230022A7
:1023400030463946FDF7E2FE064640460F46FEF7A8
:1023500029F802460B4630463946FDF7D7FE94F879
:1023600000310022EBB90023FDF7D0FE584B0022CC
:10237000FEF782F80646D4F8F8000F46FEF702F89A
:1023800002460B4630463946FEF7A0F9514B002273
:10239000FEF772F81CF086F8FEF730FBAFE700237B
:1023A000C1E74FF08043DFE7474AD2F82031073BCF
:1023B000022B92467FD8484A02EBC303D3E900457B
:1023C000DAF824B1012000FA0BF0FDF7EBFF02462A
:1023D0000B4620462946FEF779F902460B460020B7
:1023E0003A49FEF773F90446BAF82A010D46FDF79B
:1023F000D9FF3A4B0022FDF789FE22462B46FEF715
:102400003BF89AF82C219AF82E310F464FEA8B01AF
:10241000C1F11C01002A01EB031303EBC8030646BC
:1024200014BF14200020181AFDF7ACFF9AF82831C9
:10243000002B804614BF02200020ABEB0000800080
:102440008946FDF79FFF02460B4640464946FEF788
:102450003DF900F061FB80469AF829018946043075
:10246000FDF7A0FF42464B46FEF706F80022002388
:1024700080468946FEF790FA18B94FF000084FF0F1
:102480000009134B002240464946FDF73FFE224615
:102490002B46FDF7F1FF32463B46FDF737FE0D4B6D
:1024A0000022FDF7E9FF06A3D3E90023FDF72EFE86
:1024B00000F01AFC70E70024002581E7AFF30080EC
:1024C0002B8716D9CEF7EF3FEC2900200000F03F14
:1024D0000000204000408F40D83F02000000114023
:1024E0002DE9F04F89B09946129B0493BDF8503006
:1024F00001939DF86430029383469DF86C300593F8
:102500000C4690469DF860109DF868200692BDF834
:102510004C609DF854509DF858709DF85CA0079150
:1025200019F088F9DDE90532BBF1000F07D0BBF1E6
:10253000010F079900F0898009B0BDE8F08FDFF83E
:102540009CB20499CBF8F8808BF801218BF802310A
:102550004046CBF8F040CBF8F4108BF8FE508BF8E7
:10256000FF708BF800A1ABF8FC60FDF70BFF804615
:1025700002460B46894600209549FEF7A7F8954B81
:102580000022FDF779FFCDE902010198FDF70AFF6E
:1025900002460B46DDE90201FDF76EFF8E4B00227D
:1025A000FDF76AFFFEF72AFA42464B46CBF80801D0
:1025B00085A1D1E90001FEF789F8FEF71FFAC0F303
:1025C00007211FFA80F8022020F0AFFB5FFA88F1A4
:1025D000032020F0AAFB204618F042FF01461220FB
:1025E00020F0A3FB049818F03BFF0146132020F0D5
:1025F0009CFB310A252020F098FBF1B2262020F028
:1026000094FB05B33946322020F08FFB302020F0B8
:1026100097FB002D00F06F0141EA0A1114BF002062
:102620006FF07F000143C9B2302020F07EFB3120E3
:1026300020F086FB40F04001C9B2312009B0BDE86E
:10264000F04F20F072BBFF21DDE7022C00D9FEE73E
:1026500004F1070B614C84F82F11029984F83011B2
:102660004146062938BF06210C2984F831210A4643
:1026700028BF0C22BBF1070FC4E948B884F82991A0
:10268000A4F82A6184F82C5184F82D7184F82EA1C5
:1026900084F8323178D1A2F10B03012B8CBF0023D7
:1026A00001231D20049284F8283120F049FB45EADB
:1026B000490141EA0B11C9B21D2020F036FB1E2052
:1026C00020F03EFB019B049AC3F3012141EA8A01F9
:1026D00041EA021100F008000143C9B21E2020F0B7
:1026E00024FB262020F02CFB94F8283120F0080150
:1026F00041EAC301C9B2262020F017FB9DF804105F
:102700001F2020F012FB310A202020F00EFBF1B236
:10271000212020F00AFB1DB13946222020F005FBC4
:1027200094F82F316BB1442020F00AFB60F07F0158
:10273000C9B2442020F0F9FA94F83011242020F096
:10274000F4FABBF1090F2ED1D4F8E420244B9A42BD
:102750004FF002014FF0360021D920F0E6FA642153
:102760003A2020F0E2FAB8F1060F4FF031001DD800
:1027700020F0E6FA00F0F80141F00501312020F0E8
:10278000D4FA0C21372059E7BBF1080F05D1B8F175
:102790000B0F94BF0023012383E7002381E720F080
:1027A000C4FA7F21DCE703213620DAE720F0C8FAFB
:1027B00000F0F80141F00301312020F0B6FA0A21BF
:1027C000E0E700BFAFF300800000000080847E419E
:1027D0000000F03F0000204000408F40EC29002026
:1027E00040DD4A1F000000002DE9F04F87B01D4674
:1027F0009DF85830029389469DF85C3018990493EF
:1028000092469DF85420059203910190109F9DF8E7
:1028100044B0BDF848809DF84C609DF8504019F0D8
:1028200009F8484618F0B2FD019ADDE903132AB110
:10283000012A059A64D007B0BDE8F08F7E4A504661
:10284000C2E93BA582F8004182F8E890C2F8F8702E
:10285000A2F8FC8082F8FE6082F80131C2F804110F
:10286000FDF790FD70A3D3E90023FDF72FFFFEF7DE
:10287000C5F885B2C0F30721042020F056FAE9B26A
:10288000052020F052FA3846FDF77CFD02460B4643
:1028900067A1D1E90001FDF719FFFEF7AFF8C0F31A
:1028A000072185B2022020F040FAE9B2032020F08F
:1028B0003CFA4FEA1821252020F037FA5FFA88F118
:1028C000262020F032FA302020F03AFA002E00F0D4
:1028D0006F0014BF00216FF07F0140EA0414214310
:1028E000C9B2302020F021FA312020F029FA40F03E
:1028F0004001C9B2312007B0BDE8F04F20F015BA51
:102900004D48022D80F81C91814600D9FEE7062F24
:10291000BA4638BF4FF0060A0735BAF10C0FC0E9C6
:10292000485780F829B1A0F82A8180F82C6180F8F6
:102930002F2128BF4FF00C0A029889F83001072D8B
:1029400089F82E4189F83131C9F8341157D1AAF1EB
:102950000B03012B8CBF0023012389F828316AB1B6
:10296000442020F0EDF960F07F01C9B2442020F04E
:10297000DCF999F83011242020F0D7F946EA4B060B
:102980001D2046EA051520F0DBF9E9B21D2020F0F4
:10299000CCF91E2020F0D4F9A40000F00B0044EA8A
:1029A0000A1A4AEA000A5FFA8AF11E2020F0BDF9ED
:1029B000262020F0C5F999F8283120F0080141EAD5
:1029C000C301C9B2262020F0B0F94FEA1821202017
:1029D00020F0ABF921205FFA88F120F0A6F9062F4C
:1029E0004FF0310014D820F0ABF900F0F80141F0BD
:1029F0000501312020F099F90C2137207BE7082DC3
:102A000004D10B2F94BF00230123A6E70023A4E7E2
:102A100020F096F900F0F80141F00301312020F098
:102A200084F90A21E9E700BF0000000080844E40DD
:102A30000000000080847E41EC290020000000009E
:102A400070B5314B93F8E01001291C4602D00229E1
:102A50004CD070BD93F8E120CAB1012AF9D193F8A6
:102A60002F31002BF5D00221122020F05EF9274BE8
:102A70001B68002BEDD05C69002CEAD01C2020F0F4
:102A80005FF9234600F03F00BDE8704018479B6E99
:102A90000BB984F80C11B4F80C51012DD9D11C4894
:102AA00019F0F8FA112084F80D5120F049F9400886
:102AB000404284F80E011B2020F042F905461C20FC
:102AC00020F03EF940EA0520FDF76CFC0CA3D3E9A9
:102AD0000023FDF7D1FCFDF769FFC4F810010C20BD
:102AE00020F02EF9400984F81401B2E793F8E120B0
:102AF000012AAED193F82F31002BAAD0B4E700BF42
:102B00000000000080844E40EC290020B8290020FD
:102B1000BC2900200000000080B58CB000AFC7E9E0
:102B20000001D7E90023C7E904237B69FB623B6905
:102B3000BB62FB6A1B15C3F30A03A3F2FF337B627C
:102B40007B6A132B61DC7B6A002B28DA62A1D1E956
:102B50000001D7E90023FDF7D9FA02460B461046DB
:102B600019464FF000024FF00003FDF715FF034632
:102B7000002B00F0A080FB6A002B05DA4FF0004329
:102B8000FB620023BB6296E0FA6ABB6A1343002B28
:102B900000F09180524BFB620023BB628BE0514AF4
:102BA0007B6A42FA03F33B62FA6A3B6A1A40BB6AE9
:102BB0001343002B02D1D7E9002386E046A1D1E9D7
:102BC0000001D7E90023FDF7A1FA02460B461046A3
:102BD00019464FF000024FF00003FDF7DDFE0346FB
:102BE000002B68D0FB6A002B07DD4FF480127B6A54
:102BF00042FA03F3FA6A1344FB623B6ADA43FB6A64
:102C00001340FB620023BB6255E07B6A332B0FDD70
:102C10007B6AB3F5806F08D1D7E9000102460B4605
:102C2000FDF774FA02460B464FE0D7E900234CE06B
:102C30007B6A143B4FF0FF3222FA03F33B62BA6A1D
:102C40003B6A1340002B02D1D7E900233DE022A1CB
:102C5000D1E90001D7E90023FDF758FA02460B46F7
:102C6000104619464FF000024FF00003FDF794FEA6
:102C70000346002B1FD0FB6A002B17DD7B6A142B49
:102C800003D1FB6A0133FB6210E07B6AC3F13403BA
:102C900001229A40BB6A1344FB61BB6AFA699A42FB
:102CA00002D2FB6A0133FB62FB69BB623B6ADA4317
:102CB000BB6A1340BB62FB6AFB60BB6ABB60D7E9BF
:102CC0000223C7E90023D7E900231046194630370D
:102CD000BD4680BDAFF300809C7500883CE4377E24
:102CE0000000F03FFFFF0F0080B58CB000AFC7E9D8
:102CF0000001D7E90023C7E904237B69FB623B6934
:102D0000BB62FB6A1B15C3F30A03A3F2FF337B62AA
:102D10007B6A132B62DC7B6A002B29DA62A1D1E982
:102D20000001D7E90023FDF7F1F902460B461046F2
:102D300019464FF000024FF00003FDF72DFE034649
:102D4000002B00F0A180FB6A002B04DB0023BB6298
:102D5000BB6AFB6298E0FB6A23F00042BB6A134344
:102D6000002B00F09180524BFB620023BB628BE092
:102D7000504A7B6A42FA03F33B62FA6A3B6A1A40A2
:102D8000BB6A1343002B02D1D7E9002386E046A19A
:102D9000D1E90001D7E90023FDF7B8F902460B4657
:102DA000104619464FF000024FF00003FDF7F4FD06
:102DB0000346002B68D0FB6A002B07DA4FF4801221
:102DC0007B6A42FA03F3FA6A1344FB623B6ADA4312
:102DD000FB6A1340FB620023BB6255E07B6A332B26
:102DE0000FDD7B6AB3F5806F08D1D7E90001024699
:102DF0000B46FDF78BF902460B464FE0D7E900235F
:102E00004CE07B6A143B4FF0FF3222FA03F33B6243
:102E1000BA6A3B6A1340002B02D1D7E900233DE098
:102E200021A1D1E90001D7E90023FDF76FF902469E
:102E30000B46104619464FF000024FF00003FDF715
:102E4000ABFD0346002B1FD0FB6A002B17DA7B6A11
:102E5000142B03D1FB6A0133FB6210E07B6AC3F1E0
:102E6000340301229A40BB6A1344FB61BB6AFA69CE
:102E70009A4202D2FB6A0133FB62FB69BB623B6A86
:102E8000DA43BB6A1340BB62FB6AFB60BB6ABB6090
:102E9000D7E90223C7E90023D7E9002310461946E2
:102EA0003037BD4680BD00BF9C7500883CE4377E4E
:102EB0000000F0BFFFFF0F0001481BF04FBC00BF38
:102EC0006857020011B103481BF048BC02481BF0D0
:102ED00045BC00BF86570200A657020030B593B02C
:102EE0001EF049FA0378044607AD032B24D8DFE827
:102EF00003F0021D1F211349284620F0B8FDA379D5
:102F0000059562780492A2780392E278029222797F
:102F10000192627900921E210B4A0AA81BF02BFC39
:102F20000A480AA91BF01AFC13B030BD0849E3E7B0
:102F30000849E1E70849DFE7084A0A2128461BF06B
:102F40001AFCDCE7B1570200D3570200F657020023
:102F5000B8570200BF570200C9570200417502006E
:102F60002DE9F04700208EB004F06EFD064630B12A
:102F700001464C481BF0F2FB0EB0BDE8F0874A4D0D
:102F80004A481BF0EBFB0FCD09AC0FC42B68236044
:102F9000474900963346022209A805F0CBFB0146BB
:102FA000F8B144481BF0DAFB434805F0BFFE434844
:102FB00006F0F4FA002110220AA8099120F04FFD32
:102FC0003F48404C19F0ACFE3F4BE41AE40805467C
:102FD000A40150B93A493D4844F001021BF0A5FF55
:102FE000CAE73B481BF0BAFBDEE73A4B06934FF4C7
:102FF0002063ADF81C3001238DF81E30364B08934A
:10300000836806A91B68984700281EDBDFF8D89064
:10301000DFF8D8804FF0FF364FF0FF3748461BF0FF
:103020009DFBAB680DF11302CDE9006703920DF132
:10303000160202929B68142209A928469847002884
:1030400009DA264844F0010102E0254844F0010174
:103050001BF05EFF90E740461BF080FB9DF81630AA
:103060005B42DBB2ADF816308DF8143000219DF8CC
:1030700013308DF8153005A801F08AFB012109A84D
:1030800001F086FB09A800F031FE44F0030A014676
:103090009DF91330BDF916201248ADF800A01BF0C1
:1030A00071FFBBE70D580200F03E02002D580200F0
:1030B000F03F0200445802005C010020380100206B
:1030C0008C5802003C3E02001C3D02009358020056
:1030D0006A580200A027BE3308000500E25802002B
:1030E000A75802001E590200BA580200F658020002
:1030F000014B1860704700BF7801002030B585B0E3
:10310000CDE901010446002501A90548039500F019
:1031100055F9DDE902309842B8BF255405B030BDFD
:1031200037E701002DE9F84FB0F8189019F00808BA
:10313000044693460DD001290CBF49F0100949F00F
:103140002009A0F818908BF31188BFF36F8FBDE8AA
:10315000F88F09F00709022907D120461BF018FB58
:103160000028F0D00128238B50D16769218B002FD4
:1031700015DA256821F00701C4E9008841F0010152
:1031800021830026218B01F0070ACA4502D0A368DB
:10319000002B5CD10DB9002E74D0002358E001F053
:1031A00007035A1F012A20D821F00701062B2568A2
:1031B00089B2C4E900880CD1002D2B4638BF00230A
:1031C0002BB1628B1B6801326283002BF8D141F076
:1031D0000201218320461BF0DBFA06460028D1D0ED
:1031E000238B43F020032383CBE7042B0CD121F066
:1031F000070189B2218320461BF0CAFA0546002840
:10320000BFD041F0200121830025BAE7032809D16E
:10321000226923F00703166843F006032383002581
:103220002F46AFE7042806D1226923F0070356682A
:1032300043F00403F2E7052806D1226923F00703CF
:10324000966843F00503E9E700252E46E8E70123E9
:1032500041F0080121838BF31188BFF36F8F03BB0B
:10326000002D33D116B121492046B0474FF020033D
:10327000EFF3118B83F31188BFF36F8F238B23F050
:1032800008032383238BDA0628D523F01003238336
:103290000121B4F8189009F0070900297FF45BAF09
:1032A00051E7A1680029DBD00B68D1F804B0002BEE
:1032B00038BF0023994652463B462046D847B9F1CD
:1032C000000FCDD0D9F800304946EEE729463B46FD
:1032D000524620462D681BF077FAC1E713F0200113
:1032E0001EBF23F0200323830221D2E7F5E701006C
:1032F000F0B5094E016802460A2700200C4601314C
:1033000023789D5D6D0701D41460F0BD07FB003389
:10331000A3F13000F2E700BF977A02002DE9F74FE2
:1033200014469946D378244A13F802A06F2B0AF06A
:10333000030206460F4601922DD028D8582B14BF01
:103340000A251025DDF83080AA464FF0000B5246C2
:103350005B4630463946FDF771FB092AD3B21FD8C8
:1033600030335F45DBB208BF564508F8013D01D355
:10337000C84512D823789B0605D5082D16D1A37809
:1033800043F00803A370404603B0BDE8F08F03F09C
:10339000F703702BD3E70825D4E706460F46D6E798
:1033A000019A012A0CBF37335733DAE7102DEAD1DF
:1033B000A37843F01003E5E7977A02002DE9F04F78
:1033C000824693B08B4691461C46002599F8000032
:1033D00008B928463AE309F101032528029306D0EB
:1033E0005946D0470028C0F231830135F1E1182257
:1033F00000210CA820F033FB99F80130252B59D07F
:10340000029A164612F8013B2B2B00F08B8079D8DC
:10341000202B00F08C80232B00F08E809DF838301C
:1034200003F04402442A03D16FF386138DF8383039
:103430009DF83830059643F080038DF838303378A6
:103440002A2B7ED19DF8393043F001038DF83930B5
:10345000731C05931A782E2A9DF839200CBF012180
:10346000002161F341028DF839200BD15A1C0592DD
:103470005A782A2A7BD19DF8392042F004028DF82F
:1034800039200233194611F8010B6C2800F0B68080
:103490007DD8682800F084806A2800F0B9804C2824
:1034A00000F0BD809DF839206FF3C6028DF83920F9
:1034B000194680E009F1020202928DF83B309DF836
:1034C0003930D90740F1498154F8048BB8F1000F25
:1034D00007DA9DF8382042F004028DF83820C8F150
:1034E00000085A0740F1428154F8047B002F80F213
:1034F00041819DF839306FF341038DF839304FF039
:10350000FF3737E12D2B06D0302B87D19DF838308F
:1035100043F0400303E09DF8383043F004038DF896
:1035200038306EE79DF8383043F00803F7E79DF830
:10353000383043F01003F2E79DF8383043F02003B1
:10354000EDE705A8FFF7D4FE059BB34281D09DF8B7
:1035500038100F90C1F3400242EAD072520062F07C
:103560007F0201F07D010A438DF8382071E705A83C
:10357000FFF7BEFE9DF838301090C3F3400242EAD8
:10358000D07060F341038DF83830059B7AE77428DA
:103590009DF8392040D07A2884D11346062228E0AD
:1035A0005A78682A9DF8392021D1012161F3C60299
:1035B0008DF83920991C0B4613F8012B0293782AB9
:1035C0009DF839308DF83B2000F2BF80572A33D860
:1035D000412A03D0453A022A00F2B7809DF83A30DA
:1035E000042262F302038DF83A30012384E013468B
:1035F000022262F3C6038DF83930DCE75A786C2A70
:103600009DF8392001D10421D0E713460322F0E7C9
:103610009DF839300522ECE713460722E9E7BDF8AB
:10362000383023F4F04323F0020343F4804343F0A3
:103630000203ADF83830BEE7A2F15801202900F2AC
:10364000848001A050F821F00D3700004B370000B6
:103650004B3700004B3700004B3700004B37000062
:103660004B3700004B3700004B370000DD350000C2
:103670004B3700000D370000CD360000DD3500006F
:10368000DD350000DD3500004B370000CD36000091
:103690004B3700004B3700004B3700004B37000022
:1036A000153700000D370000313700004B370000A0
:1036B0004B370000313700004B3700000D3700005A
:1036C0004B3700004B3700000D3700009DF83A10D3
:1036D000012003F0780360F30201402B8DF83A10CB
:1036E00002BF9DF8381041F001018DF83810632AAF
:1036F00031D1003B18BF01239DF83820C2F34001AF
:103700000B4363F341028DF83820D8E69DF83A1058
:103710000220DEE79DF83A2003F07803A3F1400091
:10372000032161F3020243428DF83A204341E3E76B
:103730009DF83A20032113F0780F61F302028DF80F
:103740003A2014BF01230023D6E79DF8383043F018
:1037500001038DF838300023CEE79DF93820002A88
:10376000B4BFDDF83C804FF0FF38BAE69F077FF525
:10377000C6AE109F9DF839100023CDE90F339DF898
:103780003A3003F00703012BC1F3C30137D1CB1E3D
:10379000042B21D8DFE803F003070720200054F8AA
:1037A000042BD31704E0073424F00704F4E80223C1
:1037B000CDE90C239DF8383013F0030655D0029B59
:1037C0004A46594650461BF069FB0028C0F23E812C
:1037D0000544DDF80890F9E554F8042B01294FEA77
:1037E000E273CDE90C2305D19DF830300C93002312
:1037F0000D93DFE70229DDD1BDF93020D1E7022B9F
:1038000023D1CB1E042B13D8DFE803F0030A0A12DE
:10381000120022680C920023201D0D930446C9E774
:10382000073424F00700F0E80223CDE90C23F5E784
:1038300054F8043B0C9301294FF000030D93D3D0AF
:103840000229B7D1BDF83030D0E7042B07D10734B7
:1038500024F00704F4E80223CDE90C23AAE7032BA4
:1038600004BF54F8043B0C93A4E79DF83B00782870
:10387000AFD8622820D825283FF4B2AD5828A8D167
:103880000DF12E030093DDE90C0106AB0EAAFFF744
:1038900045FD8146002F0DF12E000BDB9DF83820F1
:1038A000A0EB09036FF386129F428DF8382001D9EF
:1038B000FF1A0F9707463CE06338152889D801A204
:1038C00052F820F043390000A5390000D33700003A
:1038D000D3370000D3370000D3370000A5390000EC
:1038E000D3370000D3370000D3370000D3370000B0
:1038F000033A0000D1390000D5390000D337000069
:10390000D33700001D390000D3370000D139000043
:10391000D3370000D3370000D1390000002FDDF885
:1039200030900ADB3946484620F0BCF809EB000726
:103930000026B9F1000F0CD14BE74846FDF704FA19
:10394000F4E70C9B8DF8183000260DF119070DF1E6
:103950001809A7EB090306B101339DF83A20D006F8
:1039600069D5023352060F9948BF109A0B4448BFDD
:103970009B18B8F1000F76DD9DF83820A8EB0308FE
:10398000C2F38003039353076DD4500661D53EB153
:1039900059463046D047002858DB039B01351E4668
:1039A000302357E01E0711D413F0100618BF20264D
:1039B000DDE90C23002A73F10001BFF661AF52422A
:1039C00063EB4303CDE90C232D2659E72B26EFE7C4
:1039D000002655E70C9848B30DF12E0300930EAA6C
:1039E00006AB0021FFF79AFCBDF83A3003F0EF0375
:1039F00043F4F04343F010038146ADF83A3000261B
:103A000048E70C9B07293FF6E4AEDFE801F00D0420
:103A1000060D08080D0D1D70DBE61D80D9E6284651
:103A2000E917C3E90001D4E61D60D2E62E4F064631
:103A3000A7F105098DE7110748BF013392E7184642
:103A400059460393D0470028039B04DA13B0BDE81E
:103A5000F08F202345444246002AA5EB080108F1D7
:103A6000FF38ECDC0D462EB159463046D0470028D1
:103A7000ECDB01359DF83A30D90601D41A0705D59B
:103A800059463020D0470028E0DB01359DF83A3018
:103A9000DB0606D59DF83B005946D0470028D5DB0C
:103AA00001350F9E2E44731B002B15DC3B464A4606
:103AB000594650461BF0F2F90028C7DB0544A844DC
:103AC000A8EB0503002B7FF784AE59462020D04792
:103AD0000028BBDB0135F3E759463020D0470028EA
:103AE000B4DB0135DFE700BF5A59020030B5104999
:103AF000104889B000221FF027FE0F4D0F49002209
:103B00000023CDE9062300240E23CDE90334CDE9BB
:103B100001440B4B00944FF4407228461AF000F811
:103B2000084928461FF0D9FC204609B030BD00BF27
:103B3000493B0000380A0020700A00203033002082
:103B4000B13F00005B590200014819F04FBF00BFB0
:103B5000D0080020F0B505460F4E0020034602466F
:103B6000012715F8014B0CB18B4200D3F0BD252C79
:103B700002D182F00102F4E7002AF2D014F806C064
:103B80001CF0030FEDD0732C04BF07FA03F21043AF
:103B900001330022E5E700BF977A020008B500F084
:103BA00069FA09481BF091F9082348220749084897
:103BB0001FF079FA074B084A1A604FF40040BDE83D
:103BC000084000F0A1BC00BFAC140020205500202C
:103BD000B41400207C01002009EF0100F8B50F4B60
:103BE000BFF35B8F002553E8007F43E80052002AB3
:103BF000F9D1BFF35B8F0A4C0A4E361B3611B54222
:103C000000DBF8BD63685B792BB12368DB6813B117
:103C100039462046984701351034F0E7A4140020B7
:103C20008C3E02009C3E0200064BBFF35B8F53E8C4
:103C3000002F013243E800210029F8D1BFF35B8F48
:103C4000704700BFA4140020044A054B9B1AB1EB37
:103C5000D30F34BF52F83100002070471C3D0200E2
:103C60008C3E0200094B4268C31A1B11013310B588
:103C700013714368064C196001225A71227812B9F7
:103C8000044819F0B3FE0123237010BD8C3E0200DE
:103C9000A62C0020D008002070B5114BBFF35B8F1D
:103CA00053E8005F6A1C43E800210029F8D1BFF304
:103CB0005B8F2DB90B4C0C4E361B3611B54200DB19
:103CC00070BD237B4BB123685B690BB120469847DD
:103CD000042200212046FFF7C5FF01351034EDE72F
:103CE000A81400208C3E02009C3E0200174B984214
:103CF00073B5044602D3164B984221D315480022CF
:103D0000002301A919F0A2F90546E0B90122019B9F
:103D1000BFF35B8F53E8001F43E800200028F9D170
:103D2000BFF35B8F019E331D4122184621461FF0D1
:103D3000A6FE7E22034686F8452086F846501C469D
:103D4000204602B070BD044BF9E700BFC83A02003C
:103D5000987B0200B41400206359020050B1064B56
:103D6000984206D303F5107398422CBF002001201F
:103D700070470020704700BF205500202DE9F04F0C
:103D80004C4B1B7885B0044603B960B34FF0200359
:103D9000EFF3118683F31188BFF36F8F46481BF052
:103DA000A4F8054686F31188BFF36F8F78B1BFF38F
:103DB0005B8F424B53E8002F013A43E80021002972
:103DC000F8D1BFF35B8F94B128461BF09FF924B95B
:103DD0003B4B1B680BB1FFF701FF37481BF083F823
:103DE000041E18BF0124204605B0BDE8F08F354BF6
:103DF0001B78CBB92B7ADB0716D41BF09AF98046D7
:103E000028461BF061F901464046FFF7A3FE2E4FFE
:103E10002E4BDFF8D4B0DB1BDB0803932C4BDB1BF2
:103E200006464FEAD30A36B92A4E2B4FBF1B3F1125
:103E30004FF000083AE0B6FA86F1C1F11F09494691
:103E400028461BF044F9254B9842014602D3244BE7
:103E500098421AD30846FFF781FF0246A8B9214BC2
:103E6000994212D06B8903989909B0EB931F4FEADE
:103E70008A1343F0010388BF57F83120ADF80030B2
:103E80004946434658461BF07DF8012101FA09F1E5
:103E900026EA0106C7E773685B7923B133682946D0
:103EA0001B683046984708F101081036B845F2DB28
:103EB0008AE700BFA62C0020AC140020A01400202C
:103EC000A4140020A72C00201C3D02008C3E020000
:103ED000343E02008C3E02009C3E0200C83A0200C2
:103EE000987B0200635902007D590200294B37B5C7
:103EF0001B68418104469847E0604FF02003EFF3D0
:103F0000118583F31188BFF36F8F234821461AF080
:103F1000E0FF85F31188BFF36F8FBFF35B8F1F4BFB
:103F200053E8002F013243E800210029F8D1BFF304
:103F30005B8F1B4A127882B14FF02003EFF311849C
:103F400083F31188BFF36F8F0020FFF717FF84F30F
:103F50001188BFF36F8F03B030BD124A1B6812681F
:103F6000002AF8D0012B0AD100220023CDE900233A
:103F70000D484FF4004200231AF090F9EBE70A2BAA
:103F8000E9D109481FF0ECFB084803B0BDE8304018
:103F900019F02CBD7C010020AC140020A0140020DE
:103FA000A72C0020D0140020380A0020D0080020C0
:103FB00010B5FFF771FE19F09FFC0C4B186030B183
:103FC0000B4B1B68092B02DD0A4819F00FFD094C49
:103FD0000020FFF7D3FE0028FAD14FF0FF324FF058
:103FE000FF33204619F028FDF2E700BFD01400206F
:103FF000A0140020D0080020F8B50E4F3D7875B908
:104000000D4C0E4EFFF748FE361B3611B54207DB4E
:104010000020FFF7B3FE0028FAD101233B70F8BD62
:1040200063685B791BB1236820461B69984701359B
:104030001034EBE7A72C00208C3E02009C3E0200CF
:1040400007B504380190BFF35B8F50E8003F5A1E5C
:1040500040E800210029F8D1BFF35B8F012B03D189
:10406000034801A919F024F803B05DF804FB00BF70
:10407000B41400202023024902481A461FF013B846
:1040800060570020D414002037B50023094D019358
:104090000120FFF773FE0446FFF7C6FD0022002350
:1040A00001A9284618F0D2FF08B1002CF0D10198E0
:1040B00003B030BDD414002007B500230193074896
:1040C0000022002301A918F0C1FF10B1FFF7DCFFA7
:1040D0000190019803B05DF804FB00BFD4140020E8
:1040E000F0B5037A457A85B02D090190D8071CD424
:1040F000DDB100242646019831461AF0E8FF074654
:10410000FFF72CFE70B134B9019B29461869FFF7FF
:1041100021FD044648B124FA06F3D90702D53846F2
:10412000FFF78EFF0136AE42E5D3019B1A7A920764
:1041300004D55B69084C0393039B2BB9064801A97E
:1041400018F0B6FF05B0F0BD1D6803A9204618F0B1
:10415000AFFF0395F0E700BFD41400200EB403B501
:1041600003AB014653F8042B04480193FFF726F9EB
:1041700002B05DF804EB03B0704700BF7FF50100AB
:104180002DE9F04F85B011F0020490469DF838708B
:1041900006461A4601F0010901F0080507D011F0A2
:1041A000440F37D13249FFF7D9FF01460C46B9F128
:1041B000000F0AD02F4B304953F827202F4B3046A1
:1041C000002A08BF1A46FFF7C9FF3DB12C4B2D4905
:1041D00053F827203046FFF7C1FF0546B8F1000F1E
:1041E00043D0012303FA07F7274B17F0100F274F8F
:1041F00018BF1F46BDF840109DF83C00FFF724FD96
:10420000394602463046FFF7A9FF2844204405B04E
:10421000BDE8F08F1E4B19680029C7D01D4B4FF425
:10422000616E1B68B2FBF3F34FF47A7CB3FBF1F4DD
:10423000B4FBFEF20EFB124E01FB14340CFB04F433
:104240004FF03C0AB4FBF1FB01FB1B440CFB04F4F4
:10425000BEFBFAF3B4FBF1F1CDE901B10AFB13E1C6
:1042600000910D49FFF77AFF9FE7084FC2E700BFB3
:10427000CE59020000400200B5680200C059020099
:1042800014400200F3590200CA590200C559020045
:10429000F0140020F4140020D759020038B50C4661
:1042A000E107054603D5084A0849FFF757FFE2062C
:1042B00008D4A30628464CBF05490649BDE8384046
:1042C000FFF74CBF38BD00BFC0590200B5680200FF
:1042D000FA590200F95902002DE9F0471D46089BE2
:1042E0001746DA0604460E4605D499064CBF2B49FC
:1042F0002B49FFF733FFDFF8B0904FF00008A845D7
:104300002DDBDFF8A880DFF8A890DFF89CA000255F
:10431000BD4232D2725D49462046FFF71FFF01358C
:10432000102D23D11F49DFF88080DFF88890DFF857
:1043300088A02046FFF712FF0025AF4229D9725D01
:1043400012F8093013F0970F08BF2E22514620466D
:10435000FFF704FF0135102D14D1BDE8F087494661
:104360002046FFF7FBFE08F10108C8E76A07CFD136
:1043700051462046FFF7F2FECAE741462046FFF7C6
:10438000EDFECCE76B07D8D141462046FFF7E6FEAD
:10439000D3E741462046FFF7E1FEDBE7FA5902008A
:1043A000F9590200065A0200045A0200025A020099
:1043B000FC590200977A0200085A02002DE9F047E2
:1043C0008B7A13F0070817468AB00A7A05460E461C
:1043D00020D04989C3F3C2038909D243CDE90083C0
:1043E0000291F36802F001023946FFF7C9FE8146E7
:1043F000347AE44314F001040ED0294630461AF012
:1044000054FFB8F1000F2BD0424639462846FFF73B
:1044100045FF25E0C146EBE7B8F1000F26D127465E
:10442000EB68069306AA3B46A96830461AF029FFB6
:10443000069A6B681A603AB1AB68134413F8014CE2
:10444000A4F10A035C425C4128461BF08BF8069BF2
:104450001F44002BE4D11CB113492846FFF77EFE10
:1044600028461BF07FF80AB0BDE8F08730461AF006
:1044700060FE0E4902462846FFF770FE4FF0100A14
:1044800005AA234606A93046CDF814A01AF0F9FE75
:10449000059A002AB8D04B46009706A92846FFF790
:1044A0001BFF059B1C44EBE70B5A0200B56802009A
:1044B00073B542F20F738B4228BF0B4605680F4A53
:1044C0000446052168461AF056F963680C495B6892
:1044D00006460B2228461AF0DBFE63683246694620
:1044E00028465B681AF0D4FE636806495B681B22A5
:1044F00028461AF0CDFE02B070BD00BF237802003E
:10450000495A02002D5A0200084A10B50123084CEE
:1045100013600021A04204D801B11360054B18605C
:1045200010BD40085B000121F4E700BFF414002037
:1045300040420F00F0140020014B01221A70704716
:10454000B82C0020024B034801221A701BF00AB855
:10455000B92C0020404002000148FFF7A9BF00BF6E
:104560004040020010B508460C461AF0A0FD054870
:1045700021460F22FFF722FF2046BDE810401AF027
:10458000C5BD00BF40400200054B1B781BB141F286
:1045900088301EF09EBFA420002119F08BB900BF07
:1045A000B92C00202DE9F84FDFF89090DFF890B09B
:1045B00007460E460424CA4699F8003033B94FF036
:1045C000FF324FF0FF33584618F09CFD3246394613
:1045D000002000F09DFE9AF80030804613B958463E
:1045E00018F008FE144DB8F1000F18D001232B70FD
:1045F0009AF8003033B93046BDE8F88F5CB92C70BA
:104600004FF0FF34002000F003FF0028F3D02B7898
:10461000002BF3D1EFE7013CFFF7B6FFF2E72B7871
:1046200013B1013C04D12C702B78002BC4D1E2E7EC
:10463000FFF7AAFFF8E700BFB82C0020B92C002034
:10464000A4080020074B084A0848D21AD208084B91
:104650009201012914BF0146194642F003020548A0
:104660001AF063BC1C3D0200443E02008F5A020057
:10467000875A0200985A020030B587B005460C46AA
:104680001822002168461FF0EAF9054BADF80C40EE
:1046900069460020CDE9013506F016FD07B030BDB2
:1046A000C8400200836801491B6818470C150020A8
:1046B000F0B52E4E04460F460FCE89B06D460FC59D
:1046C00096E80F0085E80F002378294D294808AAAD
:1046D00002EB8303052253F8203C2B6021781AF06B
:1046E0003DF861782348297105221AF037F8A3783C
:1046F000214807336B71A17805221AF02FF808239F
:104700002B81E3781B480133AB71E17805221AF065
:1047100025F8237917480533AB72217905221AF061
:104720001DF8EF72154818F0FBFA044650B9144A08
:10473000144B12491448D21AD208920142F00102D5
:104740001AF0F3FB2046FFF7ADFF00280CDA0D4B03
:104750000B490E48C91AC908890141F0010109B085
:10476000BDE8F0401AF0D4BB09B0F0BD043F020030
:104770000C150020AE5A0200D05A02008C580200DC
:10478000443E02001C3D020093580200F15A020010
:1047900010B5044686B091B9144819F0DFFF1448EB
:1047A000FF23037023784370637883700321FFF73E
:1047B00063FF10F1800F08BF002006B010BD012973
:1047C0000ED10C4819F0CAFF01AA631E104613341B
:1047D00013F8011F02F8011BA342F9D11421E6E7E7
:1047E0000548FE2303700121E1E700BF045B0200DE
:1047F000BB2C00200E5B0200BA2C00202DE9F04FEC
:1048000098469BB007336946DB08A1EBC30304AFAE
:104810009D4604AC002319B2884536DCA64818F042
:104820007FFAA64BA649C91ACB083B62054630B9A8
:104830009A01A149A34842F001021AF076FBA2486E
:10484000A24E19F08BFF01232846F372FFF72AFFCF
:10485000002806DA3B6A9E48990141F001011AF0EE
:1048600057FBAB6842465B682146284698470028BC
:104870000FDA3B6A9748990141F001011AF048FBB1
:1048800000205C37BD46BDE8F08FD05C605401333A
:10489000C1E700232846F372FFF704FF002806DA79
:1048A0003B6A8B48990141F001011AF031FB4FF44A
:1048B00080300021AB6807F13502CDE90001039299
:1048C00007F136020292214614229B682846984737
:1048D000A8F1020828F00708C7F814D0ADEB080DBE
:1048E0000246002104A80BB2934241DB1FF097F867
:1048F0001FFA80F84146784819F030FF4FF47A707B
:1049000000FB08F04FF0000940F2E7384FF4004197
:10491000C246CB46E1FB00AB4FF47A72002350460F
:104920005946FCF78BF818F0C5FF6C4819F016FFD4
:10493000DFF8D0E1BEE80F004FF0000C86F80BC0A6
:1049400007F138060FC69EE80F0086E80F00C7E99A
:104950000098C7F828C02379BA6A1341DE0710D43B
:10496000BB6A0133082BBB62F5D1D7F814D087E7B7
:10497000082BC2BF00EB030CE35C0CF8093C0131CF
:10498000B1E7BA6A564807F138034FF0000953F807
:1049900022104E4B196019F0E1FE637943FA09F3D6
:1049A000D8075FFA89F205D409F10109B9F1030FBB
:1049B000F3D1D5E7454B4B481A71494619F0CEFE65
:1049C00000237B62A3797A6A1341D90705D47B6AF5
:1049D0000133062B7B62F5D1E6E77B6A4248D91D9D
:1049E0003A4B597119F0BAFE0026E3793341DA07E0
:1049F0005CD5DFF8D8803D48711C88F8061019F0A6
:104A0000ADFE0023FB62C7F80880237AFA6A1341DF
:104A1000DB0746D51346BA68354805339372FB6AFF
:104A2000591C19F09BFE2846FFF73CFE002806DAC9
:104A30003B6A2748990141F001011AF069FA1EF01A
:104A400058FE4FF47A7B0B46A0FB0B010BFB0311C6
:104A50004FEAD038CB0B2748BB6148EA4148217860
:104A600019F07CFE6178244819F078FE627823788A
:104A7000224813FB02F30BFB03FBDA464FEAEB7B06
:104A800019F06CFE1E4852465B4619F067FEBAF1FB
:104A9000010F7BF1000337DA4FF42030002118F0CA
:104AA00009FFFB6A0133082BFB62AED10136F6B277
:104AB000032E9AD98BE700BF8C5802001C3D0200E0
:104AC000443E020093580200335C02000C150020A3
:104AD000F15A0200165B0200275B0200325B020003
:104AE000465B0200555B0200645B0200735B0200E0
:104AF000845B02008F5B02009C5B0200A95B0200EA
:104B0000D65B0200043F02002C4819F027FE1EF07D
:104B1000F0FD0646F9601EF0ECFD4FF47A730A468C
:104B2000A0FB030103FB0211C20B42EA4142FA61FE
:104B3000CA0B3A61FA68A6FB030103FB0211C30B1F
:104B400043EA4143B8EB0308BB697E684FEAD132C0
:104B500063EB02031AEB080A4BEB030BBAF1000FED
:104B60007BF100015346B8BF00235A464FEAC330D9
:104B7000B8BF1A46D10380193E6841EA534146EB5B
:104B800001014FF47A720023FBF758FFAB6807F17D
:104B90003502CDE90001039207F1360202929B68CB
:104BA00014222146284698470121C6B22046FFF725
:104BB000EFFD3B69D7F81C80BB6168E7F75B02003B
:104BC000F8B505464FF02003EFF3118683F3118803
:104BD000BFF36F8F0B4B1C68002C38BF00245CB1F7
:104BE000094FD4E90132002D08BF13460BB13878C4
:104BF00098472468002CF4D186F31188BFF36F8F97
:104C0000F8BD00BF1815002020150020084B10B576
:104C10001C685CB901221A60064B93E803001BF084
:104C2000D8FE2046BDE81040FFF7CABF10BD00BF48
:104C3000CC0100202015002037B56D4601462846DE
:104C40001AF0E4FC95E803000B4C84E8030020789C
:104C500080B10A4B00221A6018F0A0FB0120FFF778
:104C6000AFFF94E803001BF0A1FEFFF7CFFF18F0A1
:104C700085FC207803B030BD20150020CC01002039
:104C800010B5044C2046FEF733FA204601F0E0F957
:104C9000002010BD994C00002DE9F341DFF8608041
:104CA000164E8DF80700044603254FF0FF334FF0F2
:104CB000FF32404618F026FA01220DF107010020CC
:104CC00000F072FB0746404618F094FA2FB101231A
:104CD0003370204602B0BDE8F0813378002BF8D065
:104CE000013D08D01EF0EFFB0028DED1002142205C
:104CF00018F0E0FDD9E73570EBE700BFBE2C0020CF
:104D0000A408002070B504460D48231A9A100D4BD4
:104D10005343DBB20C255D4305F140030E461844B6
:104D200040211AF080FC011E04DB074B2B445B681A
:104D30009847002120463346BDE87040184700BF21
:104D40003C150020B76DDBB6684102002DE9F0414B
:104D50000F4C104D031B9B105D43EBB20C255D43C4
:104D6000074605F140000E46204440211AF074FC2D
:104D7000011E08DB084B2C44C4E90E36074B5B5977
:104D8000BDE8F041184738463346BDE8F0411847C2
:104D90003C150020B76DDBB6BBF601006841020090
:104DA000002270B501210446104600F04DFD0020A0
:104DB00000F018FD0F4817F02FFD0F4B984215D14A
:104DC0001EF094F826690D49304619F030FD002890
:104DD0000BDB012535642469084904F11C0019F036
:104DE00026FD002801DBE564002070BD6FF00400A3
:104DF000FBE700BF354E00000000AD0B8041020014
:104E000001460C2309484B4370B5C418D4E90E562B
:104E100000224033A26318441AF03CFC2DB1324604
:104E20002B460348BDE87040184770BD3C15002074
:104E30005407002010B1012804D07047034B1B6CAD
:104E40005B0701D1FFF7DCBF704700BF3C150020B6
:104E500008B54FF02003EFF3118183F31188BFF3FE
:104E60006F8F124A136843F0020013F001031060C1
:104E70000CD04FF08042D2F80C34D2F80C2413F04E
:104E8000010303D00A481AF005FC012381F31188BD
:104E9000BFF36F8F23B1BDE808400020FFF7B0BF1C
:104EA000BDE80840012017F0C7BC00BF8C150020EA
:104EB0007C150020094BBFF35B8F53E8002F22F0D5
:104EC000020143E800100028F7D1BFF35B8FD3073E
:104ED00002D4012017F0E2BC704700BF8C150020FF
:104EE0007FB500220123CDE9022304ABCDE90433D1
:104EF000094ACDF800D06B46CDF804D01AF003FC77
:104F0000002805DB4FF480420023684618F094FD2A
:104F100007B05DF804FB00BFD9F60100024AC3B236
:104F20001C2003FB002070473C150020094BBFF3F9
:104F30005B8F53E8002F42F0010143E80010002886
:104F4000F7D1BFF35B8F930702D4012017F074BC35
:104F5000704700BF8C150020094BBFF35B8F53E8EF
:104F6000002F22F0010143E800100028F7D1BFF321
:104F70005B8F930702D4012017F090BC704700BFED
:104F80008C1500202DE9F8433A49BFF35B8F0646A4
:104F9000012251E8003F41E800200028F9D1BFF389
:104FA0005B8F33B9344935484B60CB608A6019F068
:104FB00051FC731E012B32D8012E07D14FF08043D4
:104FC000D3F81C3403F00303012B28D01EF07BFA26
:104FD000044618B92A4B1B78002B44D14FF020030C
:104FE000EFF3118583F31188BFF36F8F0124254FF1
:104FF000DFF89480DFF894904FF08042D2F81834B4
:10500000D2F81824D2030CD503F00303012B01D0EE
:10501000012E06D10CB385F31188BFF36F8FBDE865
:10502000F883ACB1284600F07DFC4FF08042D2F806
:105030001835002BE0D139680029DDD03B603B6892
:105040000123C2F81835C8F88031C9F80030D3E719
:105050000021212018F02EFCE7E74FF080430222C8
:10506000C3F80423DBE74FF080430222C3F8082390
:105070000546BCE7901500202C150020581500208F
:105080002E3300200401004000E100E00800004051
:10509000044A1368C81A20F07F400344136019F0D3
:1050A0004FB800BFA41500202DE9F047860006F197
:1050B000804600F1500406F58836A400DFF87C80B5
:1050C000D6F84035A4B204F180444FF4803721F083
:1050D0007F4504F588348740C146D8F804A5A3EB82
:1050E0000A0323F07F432AF07F42012BC6F84025B4
:1050F00002D113201EF0EDF90AF10202AB1A23F0DF
:105100007F43B3F5000F88BF154600232360236853
:10511000C9F8447325F07F43C6F84035D9F8043503
:105120009A4506D0EB1A023B23F07F43B3F5000FFC
:1051300001D8BDE8F0872B46CFE700BF0010014043
:10514000F8B5104E104F0025104B00201C681A4671
:1051500005B1F8BDD6F80413C903FAD5396800299A
:10516000F7D03D6039684FF48031C6F84813D6F85F
:10517000401501251CB15A681860A047E4E7146087
:10518000E7E700BF001001404011014098150020E2
:1051900038B5104D00244FF48033C5F80845C5F8E4
:1051A00004330D4B4FF40032C3F880210121224615
:1051B000112000F049FB112000F014FB074A0123E5
:1051C0001360074A2B6002201360FFF7DBFE2046C6
:1051D00038BD00BF0010014000E100E008100140B0
:1051E000A0150020134BB0F1FF3F08BF184601384F
:1051F00000281CDD9842A8BF18460F4BD3F80425A1
:105200000E4B1968521A12F4000F22F07F4318BF98
:1052100000200B4A013303440A481060002050600C
:10522000044A934294BFC9188918FFF73DBF002074
:10523000E3E700BFFFFF7F0000100140A41500203E
:1052400098150020915000004FF02002EFF31183D9
:1052500082F31188BFF36F8F064AD2F80405064A1D
:105260001268801A20F07F4083F31188BFF36F8F9C
:10527000704700BF00100140A41500204FF020032C
:10528000EFF3118283F31188BFF36F8F0649074B49
:105290000868D3F8043582F31188BFF36F8F1B1AA7
:1052A00023F07F4318447047A415002000100140EC
:1052B00010B5114C114AA2610323C4E90433104B09
:1052C000E36122664FF480630E4A0F4923626266EF
:1052D00000231022E01DA3626362E3622367E3669A
:1052E0006367A2661EF0C3FB084920461EF0BFFBA1
:1052F0002023A37110BD00BFA8150020745C02001C
:10530000CF2C0020BF2C00207D5C0200815C0200BD
:105310002DE9F84F234F4FF0180B14460BFB00728A
:105320000646936A556AAB42884634D8D2F820A024
:10533000AAEB050909F1FF32944211D84FF0180980
:1053400006FB09933B4422465868414628441EF018
:1053500078FB09FB06762C4474620120BDE8F88FC7
:1053600013449C421BD800FB0BBBBB444A46DBF8F2
:1053700004002C4428441EF064FBB4EB0A0406D05D
:10538000DBF80400224608EB09011EF05AFB182046
:1053900000FB0676E0E7013B5B1BA342CED2002078
:1053A000DCE700BFA8150020F8B5184C182300FB57
:1053B000033503FB00402544C46A012C0F46164602
:1053C0000FD0022C1AD0F4B928461AF0B8F9864248
:1053D00005D83246394628461AF0BFF934462046E9
:1053E000F8BD28461AF0ABF98642344628BF044679
:1053F0002246394628461AF0B0F9F0E72846BDE8BB
:10540000F8401AF0C6B90024E9E700BFA81500204B
:10541000034B182202FB00339A6A586A801A7047BD
:10542000A8150020014B1868704700BFD00100206C
:10543000F0B5082289B00C4606461AF09EFBCB6AEE
:1054400003930B6B04934B6B05938B6B0693CB6BA6
:105450000793002708236A4669466846CDE9017725
:1054600000971AF08CFA082305466A463146304602
:105470001AF085FA236B0393636B0493A36B059374
:10548000E36B0544CDE906376A460823694668465A
:105490001AF075FA3146054408236A4630461AF078
:1054A0006EFA236A0093636A0193A36A0293A36B63
:1054B0000693E36B0793054408236A463046CDE91B
:1054C000047703971AF05BFA636A0093A36AA26BEE
:1054D0000193E36A02930492636BE26B0393CDE959
:1054E0000523236A0793054408236A4630461AF0C9
:1054F00046FAE36A0093236B0193636B0293236A7A
:105500000693A36A0793054408236A463046CDE90B
:10551000047703971AF067FB236B0093636B019387
:10552000A36B0293E36B0393636A0693E36A0793A7
:105530002D1A08236A463046CDE904771AF053FB4A
:10554000636B0093A36B0193E36B0293236A039352
:10555000636A0493A36ACDE90537236B07932D1A79
:1055600008236A4630461AF03EFBA36B0093E36BB8
:10557000CDE90137636A0393A36A0493E36ACDE933
:105580000537636B07932D1A08236A4630461AF0D5
:105590002AFB2D1A10D40D4C35B90822314620466D
:1055A0001AF0F7FA01280FD0082322463146304678
:1055B0001AF019FB2D1AEFE7044A0823314630464A
:1055C0001AF0DDF92D18F8D409B0F0BD90410200B1
:1055D000F0B5264E07460C460FCE8DB001AD0FC577
:1055E0000FCE0FC596E8070085E807003846002F64
:1055F00038D0002C38D0381F2146024610344B7862
:105600000D781B0443EA0563CD782B438D78043174
:1056100043EA05238C4242F8043FF0D1144C0421A4
:105620008A07036916D1C3F30742A55C1A0EA25C70
:1056300042EA0562C3F30725DBB2655DE35C42EA3B
:10564000054242EA03220CAD21F003032B4453F838
:105650002C3C534050F8042F013153402C29036156
:10566000DED101200DB0F0BD2046FBE7243F020053
:10567000885C02002DE9F043154689B006460028F3
:1056800058D0002959D0002A59D010230A4668461C
:1056900019461AF0AEF8294668462A4C1AF0B5FFAA
:1056A00005F11007A146A035E8466A461023117897
:1056B000013B615C02F8011BF9D168461AF0EAFF70
:1056C000694604A81BF01FF801A905A81BF01BF8E8
:1056D00002A906A81BF017F803A907A81BF013F8E6
:1056E000102319460DEB030268461AF082F839467A
:1056F000684610371AF089FFAF42D5D1102498F8C8
:105700000030013C19F8033008F8013BF7D1684636
:105710001AF0C0FF294668461AF077FF1023194691
:105720006A4630461AF065F86846102221461AF09B
:105730006DF8012009B0BDE8F0830846FAE710468D
:10574000F8E700BF885C0200094A0A4993680968C3
:10575000D967094998674B6843F080534B60002331
:1057600083F31188BFF36F8F9368D86F704700BFC2
:105770003C2C00205057020000ED00E00F498A68E1
:105780004FF030001044EFF3098C80E8F01F202028
:1057900080F31188BFF36F8F094F4FF000664A6A9C
:1057A0008A603E60906F0023936780F3118802F156
:1057B000300090E8F01F8CF3098870473C2C0020E3
:1057C00004ED00E01EF0040F0CBFEFF30880EFF3D0
:1057D0000980816911F8021C0229FFD001B51BF074
:1057E000D5F801BD43B2002B08DB012200F01F00F9
:1057F00002FA00F05B09024A42F82300704700BF3A
:1058000000E100E043B2002B0DDB01225B0900F058
:105810001F0002FA00F02033034A42F82300BFF3CE
:105820004F8FBFF36F8F704700E100E0054B4209D7
:1058300000F01F0053F82220012303FA00F010406B
:10584000704700BF00E100E043B2002BA8BF03F1A6
:10585000604301F10101B8BF064B4FEA4111ACBFF3
:1058600003F5614300F00F00C9B2B4BF195483F8C7
:105870000013704714ED00E008B572B6044B186AC7
:1058800018B100221A621DF09BFB62B608BD00BF72
:105890003C2C002042F8203C009B42F81C3C0A496A
:1058A000019B42F8183C029B42F8143C21F0010194
:1058B0004FF0807342F8043C42F8081C0023203A61
:1058C00002658367704700BF31E9010008B50646ED
:1058D0000D46144600F00AFB074B9E60204685F3F8
:1058E0000988002163B681F31188BFF36F8F00220E
:1058F000002319F01DF800BF3C2C002001491022A4
:105900000A60704710ED00E072B6404080F31188E5
:10591000BFF36F8FBFF34F8F30BF62B6BFF36F8F90
:10592000704700BF72B6494081F3118820BF80F3F1
:10593000118862B6704700BF73B506460C4601B3C6
:10594000134B144D1448ED1AED08AD0145F0010557
:10595000ADF80050D1E90123096819F013FBADF847
:105960000050D4E90423E1680C4819F00BFBE1690D
:105970000B482A4619F0D9FAA1690A482A4619F0B3
:10598000D4FA2146304602B0BDE8704017F00CBA98
:105990001C3D02005C3E0200885D0200B75D020013
:1059A000E65D0200F55D020030BFFFF7FDBF00BFFE
:1059B0000E4A08B50E4B22F07F029A60BFF34F8F5C
:1059C000BFF36F8FD3F8882022F47002C3F88820C9
:1059D000EFF3148323F0040383F3148817F058FAC9
:1059E00018F0B4FA00F064FA17F076FA000000003C
:1059F00000ED00E001B572B60B4A106A00281EBF28
:105A0000002111621DF0DCFA62B6EFF30580A0F10F
:105A100010004FEAC0000549014409C99847BDE894
:105A200001400349084700003C2C0020583B02007D
:105A3000955E00001AF0B8FF202080F31188084816
:105A40004FF40061401880F30988EFF314800221BD
:105A5000084380F31488BFF36F8FFFF7A9FF00009E
:105A600020490020EFF30880EFF3098101B5724669
:105A700000F034F901BD00BF70B5234B234C244D19
:105A80002448E41AE408A40144F00106314619F060
:105A90003FFAAA6A930103D51F48314619F038FA34
:105AA000AB6ADD0104D51D4844F0010119F030FA5C
:105AB000174DAA6A100304D5194844F0010119F0E2
:105AC00027FAAB6A590304D5164844F0010119F0CE
:105AD0001FFA0F4DAA6A920304D5134844F001013E
