:10000000D84700201D5700005D0602004D57000034
:100010004D5700004D5700004D57000000000000F4
:10002000000000000000000000000000AD540000CF
:100030004D570000000000006554000003F401006B
:10004000DD5600007D750100DD560000DD56000024
:10005000DD560000DD560000DD560000DD560000D4
:10006000DD560000DD560000DD560000DD560000C4
:10007000DD560000DD560000DD560000DD560000B4
:10008000DD560000DD560000DD560000DD560000A4
:10009000DD560000DD560000DD560000DD56000094
:1000A000DD560000DD560000DD560000DD56000084
:1000B000DD560000DD560000DD560000DD56000074
:1000C000DD560000DD560000DD560000DD56000064
:1000D000DD560000DD560000DD560000DD56000054
:1000E000DD560000DD560000DD560000DD56000044
:1000F000DD560000DD560000DD560000DD56000034
:1001000081F0004102E000BF83F0004330B54FEAC8
:1001100041044FEA430594EA050F08BF90EA020F35
:100120001FBF54EA000C55EA020C7FEA645C7FEAC8
:10013000655C00F0E2804FEA5454D4EB5555B8BFEB
:100140006D420CDD2C4480EA020281EA030382EA5C
:10015000000083EA010180EA020281EA0303362DEE
:1001600088BF30BD11F0004F4FEA01314FF4801CC1
:100170004CEA113102D0404261EB410113F0004FD3
:100180004FEA03334CEA133302D0524263EB43038A
:1001900094EA050F00F0A780A4F10104D5F1200E28
:1001A0000DDB02FA0EFC22FA05F2801841F1000183
:1001B00003FA0EF2801843FA05F359410EE0A5F157
:1001C00020050EF1200E012A03FA0EFC28BF4CF088
:1001D000020C43FA05F3C01851EBE37101F000453E
:1001E00007D54FF0000EDCF1000C7EEB00006EEB4B
:1001F0000101B1F5801F1BD3B1F5001F0CD34908D5
:100200005FEA30004FEA3C0C04F101044FEA44522B
:1002100012F5800F80F09A80BCF1004F08BF5FEAB2
:10022000500C50F1000041EB045141EA050130BD92
:100230005FEA4C0C404141EB0101013C28BFB1F5A4
:10024000801FE9D291F0000F04BF01460020B1FAEF
:1002500081F308BF2033A3F10B03B3F120020CDAC2
:100260000C3208DD02F1140CC2F10C0201FA0CF0A0
:1002700021FA02F10CE002F11402D8BFC2F1200C05
:1002800001FA02F120FA0CFCDCBF41EA0C019040BB
:10029000E41AA2BF01EB0451294330BD6FEA040404
:1002A0001F3C1CDA0C340EDC04F11404C4F12002EF
:1002B00020FA04F001FA02F340EA030021FA04F301
:1002C00045EA030130BDC4F10C04C4F1200220FA58
:1002D00002F001FA04F340EA0300294630BD21FA96
:1002E00004F0294630BD94F0000F83F4801306BF5C
:1002F00081F480110134013D4EE77FEA645C18BF50
:100300007FEA655C29D094EA050F08BF90EA020FE6
:1003100005D054EA000C04BF1946104630BD91EADE
:10032000030F1EBF0021002030BD5FEA545C05D1E1
:100330004000494128BF41F0004130BD14F5800420
:100340003CBF01F5801130BD01F0004545F0FE4194
:1003500041F470014FF0000030BD7FEA645C1ABFC9
:10036000194610467FEA655C1CBF0B46024650EA00
:10037000013406BF52EA033591EA030F41F400212C
:1003800030BD00BF90F0000F04BF0021704730B5B2
:100390004FF4806404F132044FF000054FF0000187
:1003A00050E700BF90F0000F04BF0021704730B548
:1003B0004FF4806404F1320410F0004548BF40421D
:1003C0004FF000013EE700BF42004FEAE2014FEA72
:1003D00031014FEA02701FBF12F07F4393F07F4F4D
:1003E00081F06051704732F07F4208BF704793F050
:1003F0007F4F04BF41F40021704730B54FF4607463
:1004000001F0004521F000411CE700BF50EA010265
:1004100008BF704730B54FF000050AE050EA01020E
:1004200008BF704730B511F0004502D5404261EB7E
:1004300041014FF4806404F132045FEA915C3FF4BF
:10044000D8AE4FF003025FEADC0C18BF03325FEA5C
:10045000DC0C18BF033202EBDC02C2F1200300FA0D
:1004600003FC20FA02F001FA03FE40EA0E0021FA32
:1004700002F11444BDE600BF70B54FF0FF0C4CF420
:10048000E06C1CEA11541DBF1CEA135594EA0C0FD2
:1004900095EA0C0F00F0DEF82C4481EA030621EA0D
:1004A0004C5123EA4C5350EA013518BF52EA033548
:1004B00041F4801143F4801338D0A0FB02CE4FF0FA
:1004C0000005E1FB02E506F00042E0FB03E54FF02A
:1004D0000006E1FB03569CF0000F18BF4EF0010E22
:1004E000A4F1FF04B6F5007F64F5407404D25FEA1E
:1004F0004E0E6D4146EB060642EAC62141EA5551D1
:100500004FEAC52040EA5E504FEACE2EB4F1FD0C12
:1005100088BFBCF5E06F1ED8BEF1004F08BF5FEA90
:10052000500E50F1000041EB045170BD06F0004642
:1005300046EA010140EA020081EA0301B4EB5C04EF
:10054000C2BFD4EB0C0541EA045170BD41F48011E7
:100550004FF0000E013C00F3AB8014F1360FDEBF0C
:10056000002001F0004170BDC4F10004203C35DAE8
:100570000C341BDC04F11404C4F1200500FA05F36B
:1005800020FA04F001FA05F240EA020001F000420C
:1005900021F0004110EBD37021FA04F642EB060182
:1005A0005EEA430E08BF20EAD37070BDC4F10C04AC
:1005B000C4F1200500FA04F320FA05F001FA04F270
:1005C00040EA020001F0004110EBD37041F100015C
:1005D0005EEA430E08BF20EAD37070BDC4F1200567
:1005E00000FA05F24EEA020E20FA04F301FA05F2CF
:1005F00043EA020321FA04F001F0004121FA04F277
:1006000020EA020000EBD3705EEA430E08BF20EA46
:10061000D37070BD94F0000F0FD101F00046400080
:1006200041EB010111F4801F08BF013CF7D041EA02
:10063000060195F0000F18BF704703F00046520006
:1006400043EB030313F4801F08BF013DF7D043EAD7
:100650000603704794EA0C0F0CEA135518BF95EA8D
:100660000C0F0CD050EA410618BF52EA4306D1D114
:1006700081EA030101F000414FF0000070BD50EA33
:10068000410606BF1046194652EA430619D094EABD
:100690000C0F02D150EA013613D195EA0C0F05D1A7
:1006A00052EA03361CBF104619460AD181EA0301FB
:1006B00001F0004141F0FE4141F470014FF00000B3
:1006C00070BD41F0FE4141F4780170BD70B54FF04E
:1006D000FF0C4CF4E06C1CEA11541DBF1CEA1355CE
:1006E00094EA0C0F95EA0C0F00F0A7F8A4EB0504B0
:1006F00081EA030E52EA03354FEA013100F08880A7
:100700004FEA03334FF0805545EA131343EA12636F
:100710004FEA022245EA111545EA10654FEA002624
:100720000EF000419D4208BF964244F1FD0404F5DD
:10073000407402D25B084FEA3202B61A65EB030539
:100740005B084FEA32024FF480104FF4002CB6EBF6
:10075000020E75EB030E22BFB61A754640EA0C0076
:100760005B084FEA3202B6EB020E75EB030E22BFB6
:10077000B61A754640EA5C005B084FEA3202B6EBF7
:10078000020E75EB030E22BFB61A754640EA9C00B6
:100790005B084FEA3202B6EB020E75EB030E22BF86
:1007A000B61A754640EADC0055EA060E18D04FEA44
:1007B000051545EA16754FEA06164FEAC30343EAE4
:1007C00052734FEAC2025FEA1C1CC0D111F4801FB1
:1007D0000BD141EA00014FF000004FF0004CB6E7AA
:1007E00011F4801F04BF01430020B4F1FD0C88BF49
:1007F000BCF5E06F3FF6AFAEB5EB030C04BFB6EB54
:10080000020C5FEA500C50F1000041EB045170BD46
:100810000EF0004E4EEA113114EB5C04C2BFD4EB73
:100820000C0541EA045170BD41F480114FF0000EF7
:10083000013C90E645EA060E8DE60CEA135594EA73
:100840000C0F08BF95EA0C0F3FF43BAF94EA0C0F76
:100850000AD150EA01347FF434AF95EA0C0F7FF4EB
:1008600025AF104619462CE795EA0C0F06D152EA3F
:1008700003353FF4FDAE1046194622E750EA410623
:1008800018BF52EA43067FF4C5AE50EA41047FF434
:100890000DAF52EA43057FF4EBAE12E74FF0FF3C99
:1008A00006E000BF4FF0010C02E000BF4FF0010C6A
:1008B0004DF804CD4FEA410C7FEA6C5C4FEA430CE3
:1008C00018BF7FEA6C5C1BD001B050EA410C0CBF32
:1008D00052EA430C91EA030F02BF90EA020F002094
:1008E000704710F1000F91EA030F58BF994208BFFB
:1008F00090422CBFD8176FEAE37040F001007047B8
:100900004FEA410C7FEA6C5C02D150EA013C07D10E
:100910004FEA430C7FEA6C5CD6D152EA033CD3D059
:100920005DF8040B704700BF8446104662468C4653
:100930001946634600E000BF01B5FFF7B7FF002886
:1009400048BF10F1000F01BD4DF808EDFFF7F4FFAF
:100950000CBF012000205DF808FB00BF4DF808ED3A
:10096000FFF7EAFF34BF012000205DF808FB00BF5D
:100970004DF808EDFFF7E0FF94BF012000205DF87F
:1009800008FB00BF4DF808EDFFF7CEFF94BF012034
:1009900000205DF808FB00BF4DF808EDFFF7C4FF2D
:1009A00034BF012000205DF808FB00BF4FEA410280
:1009B00012F5001215D211D56FF47873B3EB6252B1
:1009C00012D94FEAC12343F0004343EA505311F0D8
:1009D000004F23FA02F018BF404270474FF000006A
:1009E000704750EA013005D111F0004008BF6FF0A8
:1009F000004070474FF00000704700BF4A0011D21E
:100A000012F5001211D20DD56FF47873B3EB625268
:100A10000ED44FEAC12343F0004343EA505323FA74
:100A200002F070474FF00000704750EA013002D1E9
:100A30004FF0FF3070474FF00000704753B94AB98C
:100A4000002908BF00281CBF4FF0FF314FF0FF30D6
:100A500000F06EB9ADF1080C6DE904CE00F006F8B7
:100A6000DDF804E0DDE9022304B070472DE9F0472A
:100A7000089D0E4604468C46002B40F081808A4239
:100A8000174645D9B2FA82F24AB1C2F1200106FAFC
:100A900002F320FA01F1974041EA030C94404FEA37
:100AA000174E230CBCFBFEF6B9B20EFB16CC43EA84
:100AB0000C4306FB01F0984209D9FB1806F1FF3CF4
:100AC00080F01581984240F21281023E3B441B1A8D
:100AD000A4B2B3FBFEF00EFB103344EA034400FB68
:100AE00001F1A14209D93C1900F1FF3380F00181E5
:100AF000A14240F2FE8002383C44641A40EA0640BB
:100B000000211DB1D4400023C5E90043BDE8F087B2
:100B100002B9FFDEB2FA82F2002A4FD1CB1B4FEAB4
:100B2000174E1FFA87F80121B3FBFEFC260C0EFBC3
:100B30001C3346EA034608FB0CF3B34207D9BE193F
:100B40000CF1FF3002D2B34200F2EB808446F61A79
:100B5000A3B2B6FBFEF00EFB106643EA064408FBA8
:100B600000F8A04507D93C1900F1FF3302D2A04597
:100B700000F2D2801846A4EB080440EA0C40C0E71B
:100B80008B4208D9002D00F0AF800021C5E9000696
:100B90000846BDE8F087B3FA83F1002949D1B34292
:100BA00002D3824200F2BB80841A66EB0303012069
:100BB0009C46002DAAD0C5E9004CA7E7C2F120034E
:100BC0009740D8409140DE404FEA174E08434FEA25
:100BD000104CB6FBFEF11FFA87F80EFB11664CEACB
:100BE000064601FB08F3B34204FA02F409D9BE1920
:100BF00001F1FF3C80F08E80B34240F28B800239DD
:100C00003E44F31A86B2B3FBFEF00EFB103346EA05
:100C1000034600FB08F3B34207D9BE1900F1FF3CBD
:100C200074D2B34272D902383E44F31A40EA014109
:100C30007AE7C1F1200703FA01F422FA07F31C4313
:100C400020FA07F906FA01F34FEA144CFE4049EA8C
:100C500003094FEA1943B6FBFCFE1FFA84F80CFBAC
:100C60001E6643EA06460EFB08FAB24502FA01F296
:100C700000FA01F308D9A6190EF1FF3048D2B245A7
:100C800046D9AEF1020E2644A6EB0A061FFA89F9F0
:100C9000B6FBFCF00CFB106649EA064600FB08F8C0
:100CA000B04507D9A61900F1FF3C2DD2B0452BD98C
:100CB0000238264440EA0E40A6EB0806A0FB028953
:100CC0004E45C446CE4618D315D075B3B3EB0C02CF
:100CD00066EB0E0606FA07F722FA01F3CE401F4331
:100CE000C5E90076002111E7294628460EE7664649
:100CF000EDE6184601E74345E7D2B8EB020C69EB95
:100D000004040138A646E0E76046D3E760468CE776
:100D10008646B9E7614674E702383C442BE708464B
:100D200047E7ACF1020C3E4411E72946EEE600BF6E
:100D3000704700BF10F8012B11F8013B012A28BFB2
:100D40009A42F7D0D01A7047034613F8012B002AB5
:100D5000FBD1181A0138704770B5464DD5F82431CB
:100D6000996811F0010188B021D103AA40F603402F
:100D700006F098F80446002878D1039B9B681B78FE
:100D800093B9BFF35B8F2B4653F8982FBFF35B8F5C
:100D900002F00502BFF35B8F53E8001F43E8002019
:100DA0000028F9D1BFF35B8F039819F0BBF903AAB0
:100DB000002141F2030006F075F80446002855D1E1
:100DC000039A2D4E936853F8010F596803C61046D5
:100DD00019F0A8F9214603AA41F2010006F062F8D1
:100DE0000446002842D1039883685A7885F8342055
:100DF000D9789A7842EA0122EA861A7985F835206C
:100E0000197ADA7942EA01222A875A799B7942EAE9
:100E100003236B8719F086F9214603AA41F20200E9
:100E200006F040F8044608BB039B9A68531C413205
:100E300018685968344603C4083393422646F7D1EC
:100E40000E481FF0ABFC039819F06CF995F8403090
:100E50005A061BD40A4B0B490B48C91AC908890109
:100E600041F001011DF0C8FE6FF01204204608B0E9
:100E700070BD00BF000000203C00002044000020A6
:100E8000E4390200BC3A0200A261020003AA002178
:100E900042F2030006F006F804460028E6D1039A61
:100EA000BF4E936853F8010F596803C6104619F0F6
:100EB00039F9214603AA42F2020005F0F3FF044685
:100EC0000028D3D1039B9B68B3F80120A5F8CC2060
:100ED00091B229B1DA78114606F1280022F047F9DB
:100EE000039819F01FF995F8406016F0200600F0FD
:100EF000EB8095F860301B0711D503AA002142F260
:100F00001C0005F0CFFF04460028AFD1039883688A
:100F100053F8012F5B68C5E92A2319F003F995F806
:100F2000A0309E0624D502A90DF1060006F032F885
:100F3000044600289AD1042142F2240005F04EFE16
:100F40000646002800F0C7800421083021F0C1FBCC
:100F5000BDF806300380BDF8083043802246314694
:100F600042F2240005F09EFF044600287FF47EAF85
:100F700095F8A0305C0610D503AA002142F22A00A1
:100F800005F090FF044600287FF470AF0398836853
:100F90005B7885F8E83019F0C5F8082142F20100C5
:100FA00005F01CFE0446002800F095800821084446
:100FB00021F08FFB95F8A01011F0400F024640F28F
:100FC000022308BF032388074CBF43F02C0043F0E3
:100FD0000C008B0695F8A13048BF40F0400013F09C
:100FE000090F95F8663018BF40F4006003F006035F
:100FF000CE0748BF40F01000062B08BF40F4C07079
:1010000000211FF07AFC2146002242F2010005F087
:1010100049FF044600287FF429AF95F84030980630
:101020001ED4B5F8CC10D9B903AA41F2050005F0D9
:1010300039FF044600287FF419AFB5F8CC3063B906
:10104000039B9B685A78997842EA0122A5F8CC2044
:101050009A885448114622F08AF8039819F062F8E9
:10106000082140F6014005F0B9FD044698B3082177
:10107000084421F02EFB95F8A030D90702463FD551
:1010800045A1D1E900011FF038FC2146002240F6BD
:10109000014005F007FF044600287FF4E7AE014653
:1010A00002AA4FF6014005F0FDFE3F4C3F4BE41A0B
:1010B000E408A40140B33E4844F002011DF09CFD49
:1010C00006F042FF0446D1E6022140F66D4005F0ED
:1010D00085FD044610B96FF06804C7E602210830A8
:1010E00021F0F7FA0123037046702146324640F69C
:1010F0006D4005F0D7FE044600283FF4FAAEB5E691
:101100002C484FF00051BEE7029B2B489D68B5F874
:101110000120032A96BF2949294951F8221044F099
:1011200003031DF08AFDB5F80110B5F8032002296C
:1011300044F003032ED1032A2CD8224951F822105F
:1011400021481DF07AFD6A792048032A96BF20497C
:101150001B4951F82210CDE90312AA790592B5F87E
:1011600007200692D5F80920079244F003030522D0
:1011700003A91DF097FD029818F0D4FF02AA0021E0
:101180004FF6024005F08EFE054628B3114844F0A4
:10119000020193E70A49D3E790880002008000200B
:1011A000A0000020D0000020BC3A0200E439020078
:1011B000C661020010880002EA610200A840020035
:1011C000985E020068400200036202001B62020097
:1011D000E0400200486202000298104E8368B3F8B3
:1011E0000130A6F8853018F09DFF96F885305B0732
:1011F0007FF566AF02AA29464FF6034005F052FE7E
:1012000018B1074844F0020158E7029883685B78F8
:1012100086F8843018F086FF52E700BF00000020F7
:1012200071620200000000002DE9F041D0E90BC717
:10123000D0F828800CEB07043034A0450E46154644
:1012400018D81B4F18A3D3E90023ACFB0701FFF705
:10125000F5FBA4EB080420F07F40306012A3D3E933
:101260000023A4FB0701FFF7E9FB20F07F40286083
:10127000BDE8F0810E4C0CA3D3E90023A8FB0401C8
:10128000FFF7DCFB20F07F4307F130003360A0FB69
:10129000040105A3D3E90023FFF7D0FB20F07F4032
:1012A0002860BDE8F08100BF8D49FD1A07000000ED
:1012B00000CA9A3B000000002DE9F04FA84C94F8BA
:1012C0004A608FB006F00106002800F05381B6BBDB
:1012D00094F8352094F8293094F8250004EB820224
:1012E00004EB830300F00300FF21D2F83880D3F829
:1012F0002C9084F8261015F0F5FB94F84A0042076C
:1013000000F11381B9F1000F11D09548494610F052
:1013100093FA99F800305B0605D506210BF0BAFC6C
:10132000002800F040828E48414610F085FA99F876
:10133000003013F00E0F40F0CE80236A23B10C264C
:1013400030460FB0BDE8F08F0FF05AFB8246002800
:1013500000F046820FF060FB8346002800F05982BF
:1013600010F0D0FF0546002800F050824FF6FF73C2
:10137000406F2B8505F11C030B93002800F02C8295
:1013800005F1680205F164010BF090FCB5F86020EE
:10139000744895F83910744B95F83A7195F83CC03B
:1013A000C5F844A1024095F87A0001F03F0161F0D0
:1013B0007F0120F01F0085F8391085F87A004FF082
:1013C0001B116A4842F48872C5E9161342F0010203
:1013D00027F003070021C5E94A012CF0070CA5F806
:1013E000602085F83A710622002700200021C5E917
:1013F0004C0185F83CC0A5F8C020C5E91277EF85FF
:101400002F6385F83B702F65A5F8C470A5F8C870E8
:10141000C5F80871A5F80C71A5F82071A5F8387108
:1014200085F843716F67A5F87870A5F8647195F831
:10143000661195F886C195F8AE01B5F8D820A5F8E3
:10144000847167F3041C21F0070102F0F80267F3CE
:10145000C30085F886C185F86611A5F8D820C5F8BF
:10146000E070A5F8E47085F8E670A5F8AC71A5F811
:10147000B87185F8AE0111F07FFAA5F8D20011F02D
:1014800081FAD5F8BC113A4AA5F8D4000A40C5F84B
:10149000BC2111F07DFA95F8C02160F3020285F8B5
:1014A000C02111F07BFA95F8C0210B9B236260F3F9
:1014B000C502C4E910ABC5E97377C5E97177C5E921
:1014C0000577C5F8D47185F8C021ED6116F05EFC92
:1014D000002840F06A8194F824300121C3F34203CC
:1014E0000DA88DF834300BF059FD90B399F8003009
:1014F00003F00F03022B00F1FF3200F0A780012B55
:1015000000F0578198F801001030C000002B40F027
:10151000428199F801301033DB0003F54D71084426
:1015200003F59A7303FB02009BE0C0F3C000324650
:1015300004F14B0115F046FCFF2884F826003FF427
:10154000E1AE304615F0E8FAB9F1000F7FF4DDAEF8
:10155000EDE6236A002B3FF4F2AE0FF00DFFEEE64E
:101560005C20002080F8FFFF480148017F41010016
:101570000000FFF6002E3FF4E2AE236A5BB193F861
:10158000202042F0020283F82020236A93F82030C2
:10159000D8073FF5D4AEA8480FF0E8FA84420CD043
:1015A000A64AA749A74840F2DF731CF04BFF404012
:1015B00080F311884FF0030002DF94F82430D9073C
:1015C0000DAD0ED502220D9203219F4B00950122F5
:1015D00000200CF0F3FE29460FF0A0FA002840F09E
:1015E0001D8102220321984B009500200D920CF0E2
:1015F000E5FE29460FF092FA002840F0F380934868
:101600000FF0F0FA002840F0D9808B480FF0BAFABA
:1016100084420CD0894A8A498A4840F601031CF06A
:1016200011FF404080F311884FF0030002DF236A6E
:101630000BB10FF0A1FE94F84A3000266FF30003BF
:10164000304684F84A300FB0BDE8F08F99F8013089
:101650001033DB0000FB03F000F5AA70642303FBEA
:1016600002007B4AE46131230025A0FB02012360D4
:10167000C4E905556EA3D3E90023C4E90155FFF77A
:10168000DDF9B4F84880E0600CF0DEFE0746B8F102
:10169000000F08D199F8005005F00F05A5F10105DC
:1016A000B5FA85F56D0994F82420E36865F3000226
:1016B00012F0010584F824203DD0DFF88C916549B3
:1016C0000493002002250DF1300801930591CDE926
:1016D00007980321CDE9020006942A4600903B4674
:1016E0000C950CF0E3FD41460FF018FA00287FF44A
:1016F00030AF594905914AF2D8320092CDE90798A6
:10170000CDE90300CDE9010006943B460122032107
:101710000C950CF0CBFD41460FF000FA00287FF449
:1017200018AF94F84A30304643F0010384F84A3049
:101730000FB0BDE8F08F4948494ADFF80CE1DFF807
:1017400014C10694A8FB00014FF0910909FB081190
:1017500003F24718C2F800804FF00209049309927F
:101760000DF1300832A3D3E900234FF6FF7ACDE91B
:1017700007E80295CDF83090CDF814C0CDF80CA054
:10178000FFF75CF94A46CDE900503B462846032165
:101790000CF036FDBFE7062B3FF4BBAE4FF4DA7317
:1017A0004FF41B70BEE61226CAE50FF0E5FD0326D6
:1017B000C6E54FF4F2734FF47F70B3E61F4A294930
:1017C000204840F2FE731CF03DFE404080F311883B
:1017D0004FF0030002DF18E705F16C006867CFE502
:1017E0000726ADE514480FF0CDF984423FF4A7ADCC
:1017F0004FF4FF63114A124912481CF023FE404087
:1018000080F311884FF0030002DF98E558460FF08F
:1018100009F950460FF0FAF8072691E506480FF04F
:10182000B1F984423FF48BAD40F2EA73E2E700BFC6
:101830008D49FD1A070000005C20002008480200C6
:10184000F8480200D443020045FA00007820002046
:1018500000CA9A3BE90F010091120100002AE784B7
:10186000B0200020684702002DE9F04FC84D2B68DA
:101870008BB004460F469146002B00F01482668E12
:10188000E28D94F80E3116443E4413F00703B6B2CD
:1018900040F0A781B4F8E880A6EB08021FFA82FAAC
:1018A000120400F15E8294F93920002AC0F23D81D1
:1018B00094F8E43084F8E53094F8842194F8853184
:1018C00094F80C1184F80D11934206D094F88631E7
:1018D00003F00703052B00F04F822B68A34204BFDF
:1018E00000232B60D4F80851002D00F06B8128688C
:1018F000002800F06781B4F81031B4F82AC04268BB
:10190000C4F808216345B4F81221B4F8141100F0AA
:101910002081B4F828C0A5F806C04FF0160E4FF08D
:10192000000CEB832A84698485F804E085F81CC0E8
:1019300029460FF07DF80FF085F82368002BC0F2E0
:10194000FC80608DB4F8105110FB0AF080B2B0FB3F
:10195000F5F315FB03F292B290421FFA83FBC0F03D
:10196000D38005FB130340F2E2428A489BB202FB9C
:1019700003F3A3FB000184A3D3E90023FFF75EF880
:10198000A9EB0009E18D94F93930A8EB06065E4415
:101990000F44374440F2E248002BE78508FB05F589
:1019A000C0F283817C4A7D497D484FF426631CF058
:1019B00049FD404080F311884FF0030002DF00270B
:1019C000AA46B4F81421B4F81201764B7649A085E2
:1019D00042F2107C0CFB02522B442944B3FBF5F37A
:1019E00000F1060C013AB2FBF5F2B1FBF5F599B244
:1019F000A4F8C2206145B4F81021A4F8CE10A4F8D0
:101A0000C650628502DD091A063989B294F80E3192
:101A1000A4F8CA101B0744BF0023A4F8C430022155
:101A2000012018F001F900220221054601200BF0E7
:101A30008BF95E494FF4F07220460BF017F900F174
:101A400003085FFA88F85A4B0094424601210020AF
:101A50000CF0B4FC30F002030CD04F4A554950480A
:101A600040F68F231CF0EEFC404080F311884FF0CD
:101A7000030002DF474BAAFB03AB504642A3D3E966
:101A800000235946FEF7DAFF4B4AE368049320F03F
:101A90007F46A6FB0223072000FB0633BAEB0200B9
:101AA0006BEB0301DFF814E1DFF814C1089406942E
:101AB0004FF47A7200234FF6FE74CDF81CE0CDF897
:101AC00014C00394FEF7BAFF4B46CDE901600097BE
:101AD0004246012100200CF0E9FB30F002030CD05B
:101AE0002D4A34492E4840F6A9231CF0ABFC404057
:101AF00080F311884FF0030002DF002D40F03681A3
:101B000000200BB0BDE8F08F121A40F2E2432148EA
:101B100003FB02F2A2FB00011BA3D3E90023FEF7A3
:101B20008DFF20F07F4081442CE794F8D920002AD3
:101B30003FF4BEAE84F8D930BEE6D4E9010223F00A
:101B4000004382422CBF914481442360A9EB0309E6
:101B5000F7E6B4F82CC094457FF4DBAE40F2E24CDB
:101B60000CFB03FB42F2107CB4F8C2E00CFB01BC9E
:101B70000CF1FF3CBCFBFBFC1FFA8CFCE6457FF440
:101B8000C8AE01232B71D3E68D49FD1A0700000072
:101B9000D020002000CA9A3B1449020044440200AD
:101BA000D44302007FC3C901FF596202E010002044
:101BB0000D1C0100F44902008D49FD1AB51B0100FE
:101BC00015640100804A8149814840F6E4131CF005
:101BD00039FC404080F311884FF0030002DF286891
:101BE00089E601200EF034FF0746002800F0CA8085
:101BF00078480BF007F80546002800F0C3800EF087
:101C000045FF3A682B79D4F80811516043F003037B
:101C10000C22C4F808716A712B71A38DD4F81821B5
:101C20006D4F94F80E1100201E44E871A7FB02329C
:101C3000C2F38F2294F81C312B72D4F8C431A5F86A
:101C40000920B4F81021A5F80B200636B4F81221AB
:101C5000A5F80D20B6B2B4F81421A5F80F2060F352
:101C60000201A4F8E86084F80E11A5F81160002BB9
:101C700069D094F86621900765D494F8BF21D10704
:101C800061D4D4F8D0219342D4F8C82100F08580E3
:101C9000002A5BD11A7902F00302032A00F089803E
:101CA000C4F8C83154E02860E9E5A26C236C4B4FBE
:101CB00003FB1A23A36416F0BBF8064694F8D80079
:101CC000C0F3C20016F0B6F8064405FB06F6444B16
:101CD000A26C94F81C1106F5742606F23F26A3FBAD
:101CE0000636B60C06FB0BF06B080244963B9A4294
:101CF00028BF1A4608FB01FC4FF0000EC4E9113260
:101D0000A0FB07012EA3D3E90023C4F850C0C4F8F8
:101D1000E0E02664FEF792FE2F4B8446D4F81801CB
:101D2000A3FB0030800A08FB00F0A0FB070124A3FE
:101D3000D3E90023A9EB0C09FEF780FEA5EB060A08
:101D400020F07F473DE6D4F8C82102B3D4F8CC3167
:101D50001A682A601D602B68C4F8CC510BB9C4F80E
:101D6000D4516FF076000BB0BDE8F08F0122104621
:101D700002210AF0E9FFC3E6002384F88521A4F8D4
:101D8000C830AAE56FF068000BB0BDE8F08F2B609B
:101D9000C4E97155C4F8CC51E0E71968C4F8D01112
:101DA000002AD3D11A682A601D602B68C4E97255D5
:101DB000D4E7DA79032AF5D00A2A7FF471AFF1E784
:101DC0008D49FD1A0700000014490200E049020095
:101DD000D4430200542100205917B7D100CA9A3BBE
:101DE00083DE1B43000000002DE9F04F0F4616462E
:101DF00081460A7F57F81E0F96F812A0BC88D3F8C8
:101E0000008095B00D463168ADF84C40C2F38012A9
:101E1000BAF1FF0FD1F800B012901C468DF83F20A8
:101E200048D112AB93E803001090ADF844102A4655
:101E30002B4632F82E1F9278A2722181D5F82A20E3
:101E4000626053F83A2FA26104F118001B79037104
:101E500005210BF0A3F895F83F20637F00F03F00C9
:101E600060F30503C2F304016377A177AF8EE781C6
:101E70000128BFB202F01F0305D91B3303F01F0373
:101E80000B2B00D817BB94F8203001276FF3000309
:101E900084F820302F717468484629460EF0C8FD3A
:101EA0002068277121460EF0C3FD0EF0CBFD15B062
:101EB000BDE8F08F10AA0DF13F01504614F044FD2B
:101EC0009DF83F3002338DF83F30B0E7336898F823
:101ED000D8100020586095F8363095F83700520930
:101EE00043EA002362F3C501238240F2E2426B8E93
:101EF00088F8D81002FB07F70B9315F099FF0346FB
:101F000098F8D8000A93C0F3C20015F093FF0A9B1B
:101F1000DFF8D8E295F831C0AB49034407FB03F37F
:101F200003F5742303F23F23AEFB03234FEA570E5E
:101F300040F2E24202FB0CF29B0CAEF1960EA26361
:101F4000C4F828E063622B8F208ADFF8A4C242F233
:101F5000107202FB0372394400F1060E013AB1FB24
:101F6000F7F1B2FBF7F2A8F8C2208AB27245BC447E
:101F7000A8F8CE20BCFBF7FCA8F8C6C002DD121AF8
:101F8000063A92B2A8F8CA206268C8F8DC202A7F14
:101F90000C934FF48071A983C2F340139BF8260081
:101FA0008DF834300A9315F001FA0C9B05F12B02E1
:101FB000002800F0E080294651F8240FC5F82B00D6
:101FC00089889180BAF1FF0F00F0D980BDF84C20CC
:101FD0001298A5F82920C5F825009DF83F10109803
:101FE000BDF84420A977C5F81F00A5F8232098F86C
:101FF000D820E089218AA986C2F3C202EB866886CE
:1020000085F83820404610F089F92946A081E880FB
:10201000756848460EF00CFDA389EB8019232B71DF
:102020000A9BD5F80090002B40F0B7809DF8343023
:102030002B77294648460EF0FBFC0EF003FD94F882
:102040004500012100F0070015F04EFD5F4A002514
:102050008146312300F25240A0FB0201C8F8003053
:10206000C8E9015556A3D3E90023FEF7E7FCF3685E
:102070000B99646A40F2E24202FB013320F07F4098
:1020800003F286332A460221C8F80C000120A3EB94
:1020900009090AF059FE58460FF008FB821C4C4B08
:1020A000CDF800B0D2B2284601210CF087F9012802
:1020B000A7EB04047CD09BF82430DB0765D44046B2
:1020C00010F02CF9DFF804B1A4FB0B453CA3D3E9D5
:1020D0000023074629462046FEF7B0FC3D4ACDF8CE
:1020E000188020F07F4AAAFB0223072101FB0A3354
:1020F00040F2A111B6680891374907913749059117
:10210000A01A65EB0301D8F80C30049300244FF4B7
:102110007A7200230394FEF791FC29A3D3E90023EC
:102120000546A9FB0B01CDE901A5FEF787FC0337A6
:1021300020F07F40FFB2313E334600903A462046C1
:1021400001210CF0B3F830F002030CD0244A2549E9
:1021500025484FF4D1731CF075F9404080F3118885
:102160004FF0030002DF0122104602210AF0ECFDCD
:1021700015B0BDE8F08FC5F82B00908022E7002154
:10218000C5F82510A5F8291027E7002301220093A0
:10219000184611460CF012F991E7637F43F04003B3
:1021A0006377201D14F058FA0123E0832B7740E772
:1021B0000EF0F4FC83453FF47EAF14F007F97AE7A4
:1021C0008D49FD1A070000007FC3C90100CA9A3B70
:1021D000F96301008D49FD1A9D630100156401003A
:1021E0003C4B0200F4490200D443020083DE1B434F
:1021F000FF59620200000000114B10B5C3F8E40063
:10220000FEF7C0F80CA3D3E90023FEF75FFAFEF750
:10221000F5FB0446C0F30741062020F0EAFBC4F3B7
:102220000721072020F0E5FBE1B20820BDE81040BF
:1022300020F0DFBBAFF300800000000080844E4040
:10224000E02900200000000070B5092020F0DCFB30
:102250000546062020F0D8FB0646072020F0D4FBD8
:102260000402082020F0D0FB44EA06442043FEF795
:1022700089F81BA3D3E90023FEF7FEF8FEF7BEFBA7
:1022800000210446092020F0B4FB3B2020F0BCFBD9
:1022900040F04001C9B23B2020F0ABFB3B2020F0D6
:1022A000B3FB8206FAD41048FFF7A6FF3B2020F0CC
:1022B000ABFB40F04001C9B23B2020F09AFB3B2031
:1022C00020F0A2FB8306FAD42946092020F091FBD6
:1022D0002046BDE87040FFF78FBF00BFAFF300801E
:1022E0000000000080844E4000A1BC3300000000CC
:1022F0002DE9F84F884620B1012855D00020BDE8CF
:10230000F88F714C2720B4F8FC5020F07DFB01358C
:1023100020F0F8002844FEF745F894F8FE3000223B
:10232000002B3CD1694BFDF7F1FE064630200F46ED
:1023300020F06AFB30F0F90314BF644B0023002245
:1023400030463946FDF7E2FE064640460F46FEF7A8
:1023500029F802460B4630463946FDF7D7FE94F879
:1023600000310022EBB90023FDF7D0FE584B0022CC
:10237000FEF782F80646D4F8F8000F46FEF702F89A
:1023800002460B4630463946FEF7A0F9514B002273
:10239000FEF772F81BF0FAFEFEF730FBAFE7002302
:1023A000C1E74FF08043DFE7474AD2F82031073BCF
:1023B000022B92467FD8484A02EBC303D3E900457B
:1023C000DAF824B1012000FA0BF0FDF7EBFF02462A
:1023D0000B4620462946FEF779F902460B460020B7
:1023E0003A49FEF773F90446BAF82A010D46FDF79B
:1023F000D9FF3A4B0022FDF789FE22462B46FEF715
:102400003BF89AF82C219AF82E310F464FEA8B01AF
:10241000C1F11C01002A01EB031303EBC8030646BC
:1024200014BF14200020181AFDF7ACFF9AF82831C9
:10243000002B804614BF02200020ABEB0000800080
:102440008946FDF79FFF02460B4640464946FEF788
:102450003DF900F061FB80469AF829018946043075
:10246000FDF7A0FF42464B46FEF706F80022002388
:1024700080468946FEF790FA18B94FF000084FF0F1
:102480000009134B002240464946FDF73FFE224615
:102490002B46FDF7F1FF32463B46FDF737FE0D4B6D
:1024A0000022FDF7E9FF06A3D3E90023FDF72EFE86
:1024B00000F01AFC70E70024002581E7AFF30080EC
:1024C0002B8716D9CEF7EF3FE02900200000F03F20
:1024D0000000204000408F40983C02000000114066
:1024E0002DE9F04F89B09946129B0493BDF8503006
:1024F00001939DF86430029383469DF86C300593F8
:102500000C4690469DF860109DF868200692BDF834
:102510004C609DF854509DF858709DF85CA0079150
:1025200018F0FCFFDDE90532BBF1000F07D0BBF16D
:10253000010F079900F0898009B0BDE8F08FDFF83E
:102540009CB20499CBF8F8808BF801218BF802310A
:102550004046CBF8F040CBF8F4108BF8FE508BF8E7
:10256000FF708BF800A1ABF8FC60FDF70BFF804615
:1025700002460B46894600209549FEF7A7F8954B81
:102580000022FDF779FFCDE902010198FDF70AFF6E
:1025900002460B46DDE90201FDF76EFF8E4B00227D
:1025A000FDF76AFFFEF72AFA42464B46CBF80801D0
:1025B00085A1D1E90001FEF789F8FEF71FFAC0F303
:1025C00007211FFA80F8022020F013FA5FFA88F141
:1025D000032020F00EFA204618F0B6FD0146122026
:1025E00020F007FA049818F0AFFD0146132020F000
:1025F00000FA310A252020F0FCF9F1B2262020F063
:10260000F8F905B33946322020F0F3F9302020F0F4
:10261000FBF9002D00F06F0141EA0A1114BF002000
:102620006FF07F000143C9B2302020F0E2F9312081
:1026300020F0EAF940F04001C9B2312009B0BDE80C
:10264000F04F20F0D6B9FF21DDE7022C00D9FEE7DC
:1026500004F1070B614C84F82F11029984F83011B2
:102660004146062938BF06210C2984F831210A4643
:1026700028BF0C22BBF1070FC4E948B884F82991A0
:10268000A4F82A6184F82C5184F82D7184F82EA1C5
:1026900084F8323178D1A2F10B03012B8CBF0023D7
:1026A00001231D20049284F8283120F0ADF945EA79
:1026B000490141EA0B11C9B21D2020F09AF91E20F0
:1026C00020F0A2F9019B049AC3F3012141EA8A0197
:1026D00041EA021100F008000143C9B21E2020F0B7
:1026E00088F9262020F090F994F8283120F008018C
:1026F00041EAC301C9B2262020F07BF99DF80410FD
:102700001F2020F076F9310A202020F072F9F1B272
:10271000212020F06EF91DB13946222020F069F900
:1027200094F82F316BB1442020F06EF960F07F01F6
:10273000C9B2442020F05DF994F83011242020F033
:1027400058F9BBF1090F2ED1D4F8E420244B9A425A
:102750004FF002014FF0360021D920F04AF96421F0
:102760003A2020F046F9B8F1060F4FF031001DD89D
:1027700020F04AF900F0F80141F00501312020F085
:1027800038F90C21372059E7BBF1080F05D1B8F112
:102790000B0F94BF0023012383E7002381E720F080
:1027A00028F97F21DCE703213620DAE720F02CF935
:1027B00000F0F80141F00301312020F01AF90A215C
:1027C000E0E700BFAFF300800000000080847E419E
:1027D0000000F03F0000204000408F40E029002032
:1027E00040DD4A1F000000002DE9F04F87B01D4674
:1027F0009DF85830029389469DF85C3018990493EF
:1028000092469DF85420059203910190109F9DF8E7
:1028100044B0BDF848809DF84C609DF8504018F0D9
:102820007DFE484618F026FC019ADDE903132AB123
:10283000012A059A64D007B0BDE8F08F7E4A504661
:10284000C2E93BA582F8004182F8E890C2F8F8702E
:10285000A2F8FC8082F8FE6082F80131C2F804110F
:10286000FDF790FD70A3D3E90023FDF72FFFFEF7DE
:10287000C5F885B2C0F30721042020F0BAF8E9B208
:10288000052020F0B6F83846FDF77CFD02460B46E1
:1028900067A1D1E90001FDF719FFFEF7AFF8C0F31A
:1028A000072185B2022020F0A4F8E9B2032020F02D
:1028B000A0F84FEA1821252020F09BF85FFA88F154
:1028C000262020F096F8302020F09EF8002E00F010
:1028D0006F0014BF00216FF07F0140EA0414214310
:1028E000C9B2302020F085F8312020F08DF840F07A
:1028F0004001C9B2312007B0BDE8F04F20F079B8EF
:102900004D48022D80F81C91814600D9FEE7062F24
:10291000BA4638BF4FF0060A0735BAF10C0FC0E9C6
:10292000485780F829B1A0F82A8180F82C6180F8F6
:102930002F2128BF4FF00C0A029889F83001072D8B
:1029400089F82E4189F83131C9F8341157D1AAF1EB
:102950000B03012B8CBF0023012389F828316AB1B6
:10296000442020F051F860F07F01C9B2442020F0EB
:1029700040F899F83011242020F03BF846EA4B0645
:102980001D2046EA051520F03FF8E9B21D2020F091
:1029900030F81E2020F038F8A40000F00B0044EAC4
:1029A0000A1A4AEA000A5FFA8AF11E2020F021F88A
:1029B000262020F029F899F8283120F0080141EA72
:1029C000C301C9B2262020F014F84FEA18212020B4
:1029D00020F00FF821205FFA88F120F00AF8062F86
:1029E0004FF0310014D820F00FF800F0F80141F05A
:1029F000050131201FF0FDFF0C2137207BE7082D5A
:102A000004D10B2F94BF00230123A6E70023A4E7E2
:102A10001FF0FAFF00F0F80141F0030131201FF030
:102A2000E8FF0A21E9E700BF0000000080844E4073
:102A30000000000080847E41E029002000000000AA
:102A400070B5314B93F8E01001291C4602D00229E1
:102A50004CD070BD93F8E120CAB1012AF9D193F8A6
:102A60002F31002BF5D0022112201FF0C2FF274B7F
:102A70001B68002BEDD05C69002CEAD01C201FF0F5
:102A8000C3FF234600F03F00BDE8704018479B6E2F
:102A90000BB984F80C11B4F80C51012DD9D11C4894
:102AA00019F06CF9112084F80D511FF0ADFF4008AA
:102AB000404284F80E011B201FF0A6FF05461C2093
:102AC0001FF0A2FF40EA0520FDF76CFC0CA3D3E940
:102AD0000023FDF7D1FCFDF769FFC4F810010C20BD
:102AE0001FF092FF400984F81401B2E793F8E12047
:102AF000012AAED193F82F31002BAAD0B4E700BF42
:102B00000000000080844E40E0290020AC29002015
:102B1000B02900200000000080B58CB000AFC7E9EC
:102B20000001D7E90023C7E904237B69FB623B6905
:102B3000BB62FB6A1B15C3F30A03A3F2FF337B627C
:102B40007B6A132B61DC7B6A002B28DA62A1D1E956
:102B50000001D7E90023FDF7D9FA02460B461046DB
:102B600019464FF000024FF00003FDF715FF034632
:102B7000002B00F0A080FB6A002B05DA4FF0004329
:102B8000FB620023BB6296E0FA6ABB6A1343002B28
:102B900000F09180524BFB620023BB628BE0514AF4
:102BA0007B6A42FA03F33B62FA6A3B6A1A40BB6AE9
:102BB0001343002B02D1D7E9002386E046A1D1E9D7
:102BC0000001D7E90023FDF7A1FA02460B461046A3
:102BD00019464FF000024FF00003FDF7DDFE0346FB
:102BE000002B68D0FB6A002B07DD4FF480127B6A54
:102BF00042FA03F3FA6A1344FB623B6ADA43FB6A64
:102C00001340FB620023BB6255E07B6A332B0FDD70
:102C10007B6AB3F5806F08D1D7E9000102460B4605
:102C2000FDF774FA02460B464FE0D7E900234CE06B
:102C30007B6A143B4FF0FF3222FA03F33B62BA6A1D
:102C40003B6A1340002B02D1D7E900233DE022A1CB
:102C5000D1E90001D7E90023FDF758FA02460B46F7
:102C6000104619464FF000024FF00003FDF794FEA6
:102C70000346002B1FD0FB6A002B17DD7B6A142B49
:102C800003D1FB6A0133FB6210E07B6AC3F13403BA
:102C900001229A40BB6A1344FB61BB6AFA699A42FB
:102CA00002D2FB6A0133FB62FB69BB623B6ADA4317
:102CB000BB6A1340BB62FB6AFB60BB6ABB60D7E9BF
:102CC0000223C7E90023D7E900231046194630370D
:102CD000BD4680BDAFF300809C7500883CE4377E24
:102CE0000000F03FFFFF0F0080B58CB000AFC7E9D8
:102CF0000001D7E90023C7E904237B69FB623B6934
:102D0000BB62FB6A1B15C3F30A03A3F2FF337B62AA
:102D10007B6A132B62DC7B6A002B29DA62A1D1E982
:102D20000001D7E90023FDF7F1F902460B461046F2
:102D300019464FF000024FF00003FDF72DFE034649
:102D4000002B00F0A180FB6A002B04DB0023BB6298
:102D5000BB6AFB6298E0FB6A23F00042BB6A134344
:102D6000002B00F09180524BFB620023BB628BE092
:102D7000504A7B6A42FA03F33B62FA6A3B6A1A40A2
:102D8000BB6A1343002B02D1D7E9002386E046A19A
:102D9000D1E90001D7E90023FDF7B8F902460B4657
:102DA000104619464FF000024FF00003FDF7F4FD06
:102DB0000346002B68D0FB6A002B07DA4FF4801221
:102DC0007B6A42FA03F3FA6A1344FB623B6ADA4312
:102DD000FB6A1340FB620023BB6255E07B6A332B26
:102DE0000FDD7B6AB3F5806F08D1D7E90001024699
:102DF0000B46FDF78BF902460B464FE0D7E900235F
:102E00004CE07B6A143B4FF0FF3222FA03F33B6243
:102E1000BA6A3B6A1340002B02D1D7E900233DE098
:102E200021A1D1E90001D7E90023FDF76FF902469E
:102E30000B46104619464FF000024FF00003FDF715
:102E4000ABFD0346002B1FD0FB6A002B17DA7B6A11
:102E5000142B03D1FB6A0133FB6210E07B6AC3F1E0
:102E6000340301229A40BB6A1344FB61BB6AFA69CE
:102E70009A4202D2FB6A0133FB62FB69BB623B6A86
:102E8000DA43BB6A1340BB62FB6AFB60BB6ABB6090
:102E9000D7E90223C7E90023D7E9002310461946E2
:102EA0003037BD4680BD00BF9C7500883CE4377E4E
:102EB0000000F0BFFFFF0F0001481BF0C3BA00BFC6
:102EC0002854020011B103481BF0BCBA02481BF0A1
:102ED000B9BA00BF465402006654020030B593B040
:102EE0001EF0ADF80378044607AD032B24D8DFE8C5
:102EF00003F0021D1F211349284620F01CFCA37972
:102F0000059562780492A2780392E278029222797F
:102F10000192627900921E210B4A0AA81BF09FFAC7
:102F20000A480AA91BF08EFA13B030BD0849E3E73E
:102F30000849E1E70849DFE7084A0A2128461BF06B
:102F40008EFADCE77154020093540200B65402007A
:102F5000785402007F54020089540200AB700200D2
:102F60002DE9F04700208EB004F0E2FB064630B1B8
:102F7000014649481BF066FA0EB0BDE8F087474DA0
:102F800047481BF05FFA0FCD09AC0FC42B682360D4
:102F9000444900963346022209A805F03FFA01464B
:102FA000F8B141481BF04EFA404805F033FD404867
:102FB00006F068F9002110220AA8099120F0B3FB5D
:102FC0003C483D4C19F020FD3C4BE41AE408054612
:102FD000A40150B937493A4844F001021BF019FEE8
:102FE000CAE738481BF02EFADEE7374B06934FF45A
:102FF0002063ADF81C3001238DF81E30334B08934D
:10300000836806A91B68984700281ADBDFF8C88088
:103010004FF0FF364FF0FF370DF11309AB68CDF8D5
:103020000C90CDE900670DF1160202929B68142204
:1030300009A928469847002809DA254844F00101E3
:1030400002E0244844F001011BF0D6FD94E79DF80E
:1030500016305B42DBB2ADF816308DF8143000212B
:103060009DF813308DF8153005A801F071FB012192
:1030700009A801F06DFB09A800F02EFE44F0030A38
:1030800001469DF91330BDF91620ADF800A0404669
:103090001BF0ECFDC2E700BFCD540200B03B0200C4
:1030A000ED540200B03C0200045502005C01002017
:1030B000380100204C550200043B0200E4390200B4
:1030C000535502002A550200E034C13308000501BF
:1030D0007A550200675502008E550200014B1860B8
:1030E000704700BF7801002030B585B0CDE90101FF
:1030F0000446002501A90548039500F055F9DDE9CE
:1031000002309842B8BF255405B030BD1FE401001D
:103110002DE9F84FB0F8189019F0080804469346C6
:103120000DD001290CBF49F0100949F02009A0F881
:1031300018908BF31188BFF36F8FBDE8F88F09F0FB
:103140000709022907D120461BF096F90028F0D084
:103150000128238B50D16769218B002F15DA256850
:1031600021F00701C4E9008841F001012183002614
:10317000218B01F0070ACA4502D0A368002B5CD15D
:103180000DB9002E74D0002358E001F007035A1F38
:10319000012A20D821F00701062B256889B2C4E94D
:1031A00000880CD1002D2B4638BF00232BB1628B39
:1031B0001B6801326283002BF8D141F002012183A8
:1031C00020461BF059F906460028D1D0238B43F046
:1031D00020032383CBE7042B0CD121F0070189B214
:1031E000218320461BF048F905460028BFD041F056
:1031F000200121830025BAE7032809D1226923F0A1
:103200000703166843F00603238300252F46AFE724
:10321000042806D1226923F00703566843F004030B
:10322000F2E7052806D1226923F00703966843F0E8
:103230000503E9E700252E46E8E7012341F00801F0
:1032400021838BF31188BFF36F8F03BB002D33D124
:1032500016B121492046B0474FF02003EFF3118B00
:1032600083F31188BFF36F8F238B23F0080323832D
:10327000238BDA0628D523F0100323830121B4F829
:10328000189009F0070900297FF45BAF51E7A168A6
:103290000029DBD00B68D1F804B0002B38BF002325
:1032A000994652463B462046D847B9F1000FCDD04B
:1032B000D9F800304946EEE729463B4652462046BB
:1032C0002D681BF0F5F8C1E713F020011EBF23F0B5
:1032D000200323830221D2E7DDE40100F0B5094E8B
:1032E000016802460A2700200C46013123789D5DC3
:1032F0006D0701D41460F0BD07FB0033A3F130006B
:10330000F2E700BF017602002DE9F74F1446994617
:10331000D378244A13F802A06F2B0AF00302064662
:103320000F4601922DD028D8582B14BF0A251025FE
:10333000DDF83080AA464FF0000B52465B4630461F
:103340003946FDF77BFB092AD3B21FD830335F45DE
:10335000DBB208BF564508F8013D01D3C84512D875
:1033600023789B0605D5082D16D1A37843F00803D2
:10337000A370404603B0BDE8F08F03F0F703702B55
:10338000D3E70825D4E706460F46D6E7019A012A77
:103390000CBF37335733DAE7102DEAD1A37843F067
:1033A0001003E5E7017602002DE9F04F824693B065
:1033B0008B4691461C46002599F8000008B928461E
:1033C0003AE309F101032528029306D05946D04774
:1033D0000028C0F231830135F1E1182200210CA848
:1033E00020F0A1F999F80130252B59D0029A164600
:1033F00012F8013B2B2B00F08B8079D8202B00F0AA
:103400008C80232B00F08E809DF8383003F044022E
:10341000442A03D16FF386138DF838309DF8383085
:10342000059643F080038DF8383033782A2B7ED10F
:103430009DF8393043F001038DF83930731C059342
:103440001A782E2A9DF839200CBF0121002161F342
:1034500041028DF839200BD15A1C05925A782A2A3C
:103460007BD19DF8392042F004028DF839200233D7
:10347000194611F8010B6C2800F0B6807DD8682839
:1034800000F084806A2800F0B9804C2800F0BD80EC
:103490009DF839206FF3C6028DF83920194680E077
:1034A00009F1020202928DF83B309DF83930D907BC
:1034B00040F1498154F8048BB8F1000F07DA9DF808
:1034C000382042F004028DF83820C8F100085A076D
:1034D00040F1428154F8047B002F80F241819DF835
:1034E00039306FF341038DF839304FF0FF3737E152
:1034F0002D2B06D0302B87D19DF8383043F0400378
:1035000003E09DF8383043F004038DF838306EE75F
:103510009DF8383043F00803F7E79DF8383043F062
:103520001003F2E79DF8383043F02003EDE705A8DB
:10353000FFF7D4FE059BB34281D09DF838100F9061
:10354000C1F3400242EAD072520062F07F0201F001
:103550007D010A438DF8382071E705A8FFF7BEFE0C
:103560009DF838301090C3F3400242EAD07060F307
:1035700041038DF83830059B7AE774289DF839208F
:1035800040D07A2884D11346062228E05A78682A47
:103590009DF8392021D1012161F3C6028DF839202F
:1035A000991C0B4613F8012B0293782A9DF83930A9
:1035B0008DF83B2000F2BF80572A33D8412A03D030
:1035C000453A022A00F2B7809DF83A30042262F3AD
:1035D00002038DF83A30012384E01346022262F39D
:1035E000C6038DF83930DCE75A786C2A9DF839200B
:1035F00001D10421D0E713460322F0E79DF83930CA
:103600000522ECE713460722E9E7BDF8383023F43A
:10361000F04323F0020343F4804343F00203ADF888
:103620003830BEE7A2F15801202900F2848001A0C1
:1036300050F821F0F9360000373700003737000026
:1036400037370000373700003737000037370000C2
:103650003737000037370000C93500003737000022
:10366000F9360000B9360000C9350000C935000040
:10367000C935000037370000B93600003737000081
:1036800037370000373700003737000001370000B8
:10369000F93600001D3700003737000037370000CB
:1036A0001D37000037370000F936000037370000BB
:1036B00037370000F93600009DF83A10012003F07A
:1036C000780360F30201402B8DF83A1002BF9DF899
:1036D000381041F001018DF83810632A31D1003BD8
:1036E00018BF01239DF83820C2F340010B4363F358
:1036F00041028DF83820D8E69DF83A100220DEE726
:103700009DF83A2003F07803A3F14000032161F310
:10371000020243428DF83A204341E3E79DF83A2004
:10372000032113F0780F61F302028DF83A2014BFE1
:1037300001230023D6E79DF8383043F001038DF8CC
:1037400038300023CEE79DF93820002AB4BFDDF8D9
:103750003C804FF0FF38BAE69F077FF5C6AE109F5A
:103760009DF839100023CDE90F339DF83A3003F06E
:103770000703012BC1F3C30137D1CB1E042B21D882
:10378000DFE803F003070720200054F8042BD317C9
:1037900004E0073424F00704F4E80223CDE90C2305
:1037A0009DF8383013F0030655D0029B4A4659461F
:1037B00050461BF0E7F90028C0F23E810544DDF8D1
:1037C0000890F9E554F8042B01294FEAE273CDE99A
:1037D0000C2305D19DF830300C9300230D93DFE7C7
:1037E0000229DDD1BDF93020D1E7022B23D1CB1E38
:1037F000042B13D8DFE803F0030A0A121200226830
:103800000C920023201D0D930446C9E7073424F0D1
:103810000700F0E80223CDE90C23F5E754F8043B58
:103820000C9301294FF000030D93D3D00229B7D197
:10383000BDF83030D0E7042B07D1073424F007045B
:10384000F4E80223CDE90C23AAE7032B04BF54F8C4
:10385000043B0C93A4E79DF83B007828AFD862287E
:1038600020D825283FF4B2AD5828A8D10DF12E0359
:103870000093DDE90C0106AB0EAAFFF745FD81467A
:10388000002F0DF12E000BDB9DF83820A0EB090373
:103890006FF386129F428DF8382001D9FF1A0F97D7
:1038A00007463CE06338152889D801A252F820F079
:1038B0002F39000091390000BF370000BF370000EA
:1038C000BF370000BF37000091390000BF3700004C
:1038D000BF370000BF370000BF370000EF390000DE
:1038E000BD390000C1390000BF370000BF370000FC
:1038F00009390000BF370000BD390000BF370000A4
:10390000BF370000BD390000002FDDF830900ADB22
:10391000394648461FF02AFF09EB00070026B9F197
:10392000000F0CD14BE74846FDF70EFAF4E70C9B6D
:103930008DF8183000260DF119070DF11809A7EBC5
:10394000090306B101339DF83A20D00669D5023348
:1039500052060F9948BF109A0B4448BF9B18B8F104
:10396000000F76DD9DF83820A8EB0308C2F3800332
:10397000039353076DD4500661D53EB15946304686
:10398000D047002858DB039B01351E46302357E003
:103990001E0711D413F0100618BF2026DDE90C23F2
:1039A000002A73F10001BFF661AF524263EB43039B
:1039B000CDE90C232D2659E72B26EFE7002655E706
:1039C0000C9848B30DF12E0300930EAA06AB00210C
:1039D000FFF79AFCBDF83A3003F0EF0343F4F043ED
:1039E00043F010038146ADF83A30002648E70C9BBF
:1039F00007293FF6E4AEDFE801F00D04060D0808E4
:103A00000D0D1D70DBE61D80D9E62846E917C3E9D8
:103A10000001D4E61D60D2E62E4F0646A7F1050947
:103A20008DE7110748BF013392E7184659460393C3
:103A3000D0470028039B04DA13B0BDE8F08F2023A1
:103A400045444246002AA5EB080108F1FF38ECDCAA
:103A50000D462EB159463046D0470028ECDB0135E3
:103A60009DF83A30D90601D41A0705D559463020B9
:103A7000D0470028E0DB01359DF83A30DB0606D55B
:103A80009DF83B005946D0470028D5DB01350F9EF5
:103A90002E44731B002B15DC3B464A4659465046C4
:103AA0001BF070F80028C7DB0544A844A8EB050309
:103AB000002B7FF784AE59462020D0470028BBDB7F
:103AC0000135F3E759463020D0470028B4DB0135F3
:103AD000DFE700BFCA55020030B51049104889B071
:103AE00000221FF095FC0F4D0F4900220023CDE965
:103AF000062300240E23CDE90334CDE901440B4B0A
:103B000000944FF44072284619F07EFE084928467A
:103B10001FF047FB204609B030BD00BF353B000019
:103B2000380A0020700A0020283300209D3F000042
:103B3000CB550200014819F0CDBD00BFD0080020D0
:103B4000F0B505460F4E002003460246012715F842
:103B5000014B0CB18B4200D3F0BD252C02D182F079
:103B60000102F4E7002AF2D014F806C01CF0030F9B
:103B7000EDD0732C04BF07FA03F210430133002287
:103B8000E5E700BF0176020008B500F069FA0948D0
:103B90001BF00FF808234822074908481FF0E7F8F0
:103BA000074B084A1A604FF40040BDE8084000F097
:103BB000A1BC00BFAC14002018550020B414002094
:103BC0007C010020F1EB0100F8B50F4BBFF35B8FD8
:103BD000002553E8007F43E80052002AF9D1BFF3E3
:103BE0005B8F0A4C0A4E361B3611B54200DBF8BD1E
:103BF00063685B792BB12368DB6813B139462046D3
:103C0000984701351034F0E7A4140020543B02001B
:103C1000643B0200064BBFF35B8F53E8002F013279
:103C200043E800210029F8D1BFF35B8F704700BF44
:103C3000A4140020044A054B9B1AB1EBD30F34BFE8
:103C400052F8310000207047E4390200543B020072
:103C5000094B4268C31A1B11013310B51371436835
:103C6000064C196001225A71227812B9044819F0E1
:103C700031FD0123237010BD543B02009A2C00201B
:103C8000D008002070B5114BBFF35B8F53E8005F85
:103C90006A1C43E800210029F8D1BFF35B8F2DB9DE
:103CA0000B4C0C4E361B3611B54200DB70BD237B2E
:103CB0004BB123685B690BB1204698470422002171
:103CC0002046FFF7C5FF01351034EDE7A8140020AA
:103CD000543B0200643B0200174B984273B5044604
:103CE00002D3164B984221D315480022002301A984
:103CF00019F020F80546E0B90122019BBFF35B8F64
:103D000053E8001F43E800200028F9D1BFF35B8F80
:103D1000019E331D4122184621461FF014FD7E22CC
:103D2000034686F8452086F846501C46204602B0D9
:103D300070BD044BF9E700BF903702000477020022
:103D4000B4140020D355020050B1064B984206D35C
:103D500003F5107398422CBF00200120704700200B
:103D6000704700BF185500202DE9F04F4C4B1B78D1
:103D700085B0044603B960B34FF02003EFF311861A
:103D800083F31188BFF36F8F46481AF022FF054670
:103D900086F31188BFF36F8F78B1BFF35B8F424B0F
:103DA00053E8002F013A43E800210029F8D1BFF37E
:103DB0005B8F94B128461BF01DF824B93B4B1B6860
:103DC0000BB1FFF701FF37481AF001FF041E18BFBF
:103DD0000124204605B0BDE8F08F354B1B78CBB9E8
:103DE0002B7ADB0716D41BF018F8804628461AF009
:103DF000DFFF01464046FFF7A3FE2E4F2E4BDFF8B4
:103E0000D4B0DB1BDB0803932C4BDB1B06464FEACD
:103E1000D30A36B92A4E2B4FBF1B3F114FF0000873
:103E20003AE0B6FA86F1C1F11F09494628461AF070
:103E3000C2FF254B9842014602D3244B98421AD325
:103E40000846FFF781FF0246A8B9214B994212D0DC
:103E50006B8903989909B0EB931F4FEA8A1343F0DB
:103E6000010388BF57F83120ADF80030494643467A
:103E700058461AF0FBFE012101FA09F126EA010673
:103E8000C7E773685B7923B1336829461B683046FE
:103E9000984708F101081036B845F2DB8AE700BF01
:103EA0009A2C0020AC140020A0140020A4140020A0
:103EB0009B2C0020E4390200543B0200FC3A020033
:103EC000543B0200643B020090370200047702007A
:103ED000D3550200ED550200294B37B51B684181CF
:103EE00004469847E0604FF02003EFF3118583F319
:103EF0001188BFF36F8F234821461AF05EFE85F3C9
:103F00001188BFF36F8FBFF35B8F1F4B53E8002FF8
:103F1000013243E800210029F8D1BFF35B8F1B4A2F
:103F2000127882B14FF02003EFF3118483F31188EC
:103F3000BFF36F8F0020FFF717FF84F31188BFF3E3
:103F40006F8F03B030BD124A1B681268002AF8D088
:103F5000012B0AD100220023CDE900230D484FF4A4
:103F6000004200231AF00EF8EBE70A2BE9D10948CA
:103F70001FF05AFA084803B0BDE8304019F0AABB58
:103F80007C010020AC140020A01400209B2C0020F9
:103F9000D0140020380A0020D008002010B5FFF708
:103FA00071FE19F01DFB0C4B186030B10B4B1B68F8
:103FB000092B02DD0A4819F08DFB094C0020FFF7A0
:103FC000D3FE0028FAD14FF0FF324FF0FF332046E6
:103FD00019F0A6FBF2E700BFD0140020A0140020C7
:103FE000D0080020F8B50E4F3D7875B90D4C0E4E37
:103FF000FFF748FE361B3611B54207DB0020FFF7FE
:10400000B3FE0028FAD101233B70F8BD63685B79E9
:104010001BB1236820461B69984701351034EBE734
:104020009B2C0020543B0200643B020007B504387F
:104030000190BFF35B8F50E8003F5A1E40E800211B
:104040000029F8D1BFF35B8F012B03D1034801A9ED
:1040500018F0A2FE03B05DF804FB00BFB41400200A
:104060002023024902481A461EF081BE58570020FC
:10407000D414002037B50023094D01930120FFF728
:1040800073FE0446FFF7C6FD0022002301A928465F
:1040900018F050FE08B1002CF0D1019803B030BDEB
:1040A000D414002007B50023019307480022002301
:1040B00001A918F03FFE10B1FFF7DCFF0190019855
:1040C00003B05DF804FB00BFD4140020F0B5037A00
:1040D000457A85B02D090190D8071CD4DDB10024A4
:1040E0002646019831461AF066FE0746FFF72CFE79
:1040F00070B134B9019B29461869FFF721FD0446C8
:1041000048B124FA06F3D90702D53846FFF78EFFE7
:104110000136AE42E5D3019B1A7A920704D55B695A
:10412000084C0393039B2BB9064801A918F034FEF1
:1041300005B0F0BD1D6803A9204618F02DFE0395BB
:10414000F0E700BFD41400200EB403B503AB014662
:1041500053F8042B04480193FFF726F902B05DF8E9
:1041600004EB03B0704700BF67F201002DE9F04F88
:1041700085B011F0020490469DF8387006461A4644
:1041800001F0010901F0080507D011F0440F37D103
:104190003249FFF7D9FF01460C46B9F1000F0AD0AA
:1041A0002F4B304953F827202F4B3046002A08BFA9
:1041B0001A46FFF7C9FF3DB12C4B2D4953F8272074
:1041C0003046FFF7C1FF0546B8F1000F43D0012389
:1041D00003FA07F7274B17F0100F274F18BF1F469A
:1041E000BDF840109DF83C00FFF724FD394602461B
:1041F0003046FFF7A9FF2844204405B0BDE8F08F02
:104200001E4B19680029C7D01D4B4FF4616E1B6807
:10421000B2FBF3F34FF47A7CB3FBF1F4B4FBFEF2A0
:104220000EFB124E01FB14340CFB04F44FF03C0A5D
:10423000B4FBF1FB01FB1B440CFB04F4BEFBFAF3E3
:10424000B4FBF1F1CDE901B10AFB13E100910D4995
:10425000FFF77AFF9FE7084FC2E700BF3E56020014
:10426000C03C02001F64020030560200D43C020031
:10427000635602003A56020035560200F014002040
:10428000F41400204756020038B50C46E1070546F5
:1042900003D5084A0849FFF757FFE20608D4A306EA
:1042A00028464CBF05490649BDE83840FFF74CBFDA
:1042B00038BD00BF305602001F6402006A5602007B
:1042C000695602002DE9F0471D46089B1746DA069D
:1042D00004460E4605D499064CBF2B492B49FFF7DF
:1042E00033FFDFF8B0904FF00008A8452DDBDFF872
:1042F000A880DFF8A890DFF89CA00025BD4232D24C
:10430000725D49462046FFF71FFF0135102D23D16E
:104310001F49DFF88080DFF88890DFF888A020460A
:10432000FFF712FF0025AF4229D9725D12F809305C
:1043300013F0970F08BF2E2251462046FFF704FFC7
:104340000135102D14D1BDE8F08749462046FFF70E
:10435000FBFE08F10108C8E76A07CFD151462046A5
:10436000FFF7F2FECAE741462046FFF7EDFECCE735
:104370006B07D8D141462046FFF7E6FED3E741461A
:104380002046FFF7E1FEDBE76A56020069560200AD
:104390007656020074560200725602006C560200F5
:1043A00001760200785602002DE9F0478B7A13F06F
:1043B000070817468AB00A7A05460E4620D0498972
:1043C000C3F3C2038909D243CDE900830291F368A4
:1043D00002F001023946FFF7C9FE8146347AE44310
:1043E00014F001040ED0294630461AF0D2FDB8F17F
:1043F000000F2BD0424639462846FFF745FF25E0FF
:10440000C146EBE7B8F1000F26D12746EB680693CB
:1044100006AA3B46A96830461AF0A7FD069A6B68C3
:104420001A603AB1AB68134413F8014CA4F10A03C3
:104430005C425C4128461AF009FF069B1F44002B92
:10444000E4D11CB113492846FFF77EFE28461AF036
:10445000FDFE0AB0BDE8F08730461AF0DEFC0E49DA
:1044600002462846FFF770FE4FF0100A05AA2346C1
:1044700006A93046CDF814A01AF077FD059A002A57
:10448000B8D04B46009706A92846FFF71BFF059BAF
:104490001C44EBE77B5602001F64020073B542F236
:1044A0000F738B4228BF0B4605680F4A044605214F
:1044B000684619F0D4FF63680C495B6806460B2216
:1044C00028461AF059FD63683246694628465B68FB
:1044D0001AF052FD636806495B681B2228461AF0F1
:1044E0004BFD02B070BD00BF8D730200B9560200D3
:1044F0009D560200084A10B50123084C13600021A4
:10450000A04204D801B11360054B186010BD4008EB
:104510005B000121F4E700BFF414002040420F00CB
:10452000F0140020014B01221A707047AC2C0020BF
:10453000024B034801221A701AF088BEAD2C0020ED
:10454000003D02000148FFF7A9BF00BF003D020087
:1045500010B508460C461AF01EFC054821460F22ED
:10456000FFF722FF2046BDE810401AF043BC00BF11
:10457000003D0200054B1B781BB141F288301EF054
:104580000CBEA420002119F009B800BFAD2C0020FA
:104590002DE9F84FDFF89090DFF890B007460E460F
:1045A0000424CA4699F8003033B94FF0FF324FF077
:1045B000FF33584618F01AFC32463946002000F006
:1045C0001BFD9AF80030804613B9584618F086FC57
:1045D000144DB8F1000F18D001232B709AF8003059
:1045E00033B93046BDE8F88F5CB92C704FF0FF341A
:1045F000002000F081FD0028F3D02B78002BF3D1B0
:10460000EFE7013CFFF7B6FFF2E72B7813B1013C6F
:1046100004D12C702B78002BC4D1E2E7FFF7AAFF5E
:10462000F8E700BFAC2C0020AD2C0020A40800202F
:10463000074B084A0848D21AD208084B92010129B0
:1046400014BF0146194642F0030205481AF0E1BAC8
:10465000E43902000C3B0200FF560200F75602004C
:104660000857020030B587B005460C4618220021D5
:1046700068461FF058F8054BADF80C40694600201D
:10468000CDE9013506F094FB07B030BD883D02004E
:10469000F0B52548254F87B0194616461C4619F037
:1046A000D1FE3546043CAB1B1BB2A34235DB28468A
:1046B0001FF019F881B21E4819F0C4FE1D4B01937A
:1046C0001022002102A81FF02EF81B4818F09CF9B8
:1046D000044650B9194A1A4B17491A48D21AD20837
:1046E000920142F001021AF094FA174819F0AAFE5A
:1046F000A36814225B6801A920469847002809DABC
:104700000E490F4B1148C91AC908890141F001012E
:104710001AF072FA002007B0F0BD15F8011B3846F8
:1047200019F090FEBFE700BF1E5702002A57020093
:1047300034570200686579004C5502000C3B0200BA
:10474000E43902005355020042570200515702005B
:1047500010B5044686B091B9144819F073FE144898
:10476000FF23037023784370637883700321FFF77E
:1047700079FF10F1800F08BF002006B010BD01299D
:104780000ED10C4819F05EFE01AA631E10461334C8
:1047900013F8011F02F8011BA342F9D11421E6E727
:1047A0000548FE2303700121E1E700BF62570200C4
:1047B000AF2C00206C570200AE2C0020F0B5334D1A
:1047C00016461F460FCD8DB004AC0FC495E80F0000
:1047D00084E80F0031782E480CAB03EB81033A4696
:1047E00053F8203C019319F02DFE717828488DF87C
:1047F00008103A4619F026FEB1782548CB1D3A46F6
:104800008DF8093019F01EFEF17821480823ADF823
:104810000C303A464B1C8DF80A3019F013FE3379F0
:1048200005338DF80E3001238DF80F30194818F03C
:10483000EBF8044650B9184A184B16491848D21AD2
:10484000D208920142F001021AF0E3F9A36801A92B
:104850001B6820469847002809DA0F490F4B11487A
:10486000C91AC908890141F001011AF0C5F9FE23EE
:10487000022168468DF80030FFF76AFF317904485D
:104880003A4619F0DFFD00200DB0F0BDC43B020038
:10489000745702004C5502000C3B0200E439020040
:1048A0005355020096570200F8B505464FF0200315
:1048B000EFF3118683F31188BFF36F8F0B4B1C68E6
:1048C000002C38BF00245CB1094FD4E90132002D1F
:1048D00008BF13460BB1387898472468002CF4D1F0
:1048E00086F31188BFF36F8FF8BD00BF0C15002051
:1048F00014150020084B10B51C685CB901221A6021
:10490000064B93E803001BF0C8FE2046BDE81040AC
:10491000FFF7CABF10BD00BFCC0100201415002056
:1049200037B56D46014628461AF0D4FC95E80300D9
:104930000B4C84E80300207880B10A4B00221A60F7
:1049400018F0A0FB0120FFF7AFFF94E803001BF075
:1049500091FEFFF7CFFF18F085FC207803B030BD43
:1049600014150020CC01002010B5044C2046FEF7A1
:10497000B5FB204601F0E0F9002010BD81490000A0
:104980002DE9F341DFF86080164E8DF807000446EC
:1049900003254FF0FF334FF0FF32404618F026FA60
:1049A00001220DF10701002000F072FB074640468E
:1049B00018F094FA2FB101233370204602B0BDE8FD
:1049C000F0813378002BF8D0013D08D01EF0DFFBDA
:1049D0000028DED10021422018F0E0FDD9E7357033
:1049E000EBE700BFB22C0020A408002070B50446FD
:1049F0000D48231A9A100D4B5343DBB20C255D432F
:104A000005F140030E46184440211AF070FC011EC7
:104A100004DB074B2B445B68984700212046334654
:104A2000BDE87040184700BF30150020B76DDBB6F9
:104A3000283E02002DE9F0410F4C104D031B9B1046
:104A40005D43EBB20C255D43074605F140000E4681
:104A5000204440211AF064FC011E08DB084B2C4462
:104A6000C4E90E36074B5B59BDE8F041184738469C
:104A70003346BDE8F041184730150020B76DDBB66E
:104A800083F30100283E0200002270B50121044694
:104A9000104600F04DFD002000F018FD0F4817F003
:104AA0002FFD0F4B984215D11EF084F826690D4951
:104AB000304619F030FD00280BDB012535642469F0
:104AC000084904F11C0019F026FD002801DBE5640B
:104AD000002070BD6FF00400FBE700BF1D4B00001D
:104AE0000000AD0B403E020001460C2309484B4339
:104AF00070B5C418D4E90E5600224033A26318449E
:104B00001AF02CFC2DB132462B460348BDE870400C
:104B1000184770BD301500205407002010B101283F
:104B200004D07047034B1B6C5B0701D1FFF7DCBF60
:104B3000704700BF3015002008B54FF02003EFF399
:104B4000118183F31188BFF36F8F124A136843F00A
:104B5000020013F0010310600CD04FF08042D2F835
:104B60000C34D2F80C2413F0010303D00A481AF0D5
:104B7000F5FB012381F31188BFF36F8F23B1BDE8EB
:104B800008400020FFF7B0BFBDE80840012017F043
:104B9000C7BC00BF8015002070150020094BBFF373
:104BA0005B8F53E8002F22F0020143E80010002839
:104BB000F7D1BFF35B8FD30702D4012017F0E2BC1B
:104BC000704700BF801500207FB500220123CDE98A
:104BD000022304ABCDE90433094ACDF800D06B467B
:104BE000CDF804D01AF0F3FB002805DB4FF4804227
:104BF0000023684618F094FD07B05DF804FB00BF81
:104C0000A1F30100024AC3B21C2003FB002070473D
:104C100030150020094BBFF35B8F53E8002F42F0A3
:104C2000010143E800100028F7D1BFF35B8F930721
:104C300002D4012017F074BC704700BF801500201B
:104C4000094BBFF35B8F53E8002F22F0010143E8CB
:104C500000100028F7D1BFF35B8F930702D4012027
:104C600017F090BC704700BF801500202DE9F84375
:104C70003A49BFF35B8F0646012251E8003F41E805
:104C800000200028F9D1BFF35B8F33B93449354890
:104C90004B60CB608A6019F051FC731E012B32D837
:104CA000012E07D14FF08043D3F81C3403F00303E7
:104CB000012B28D01EF06BFA044618B92A4B1B783A
:104CC000002B44D14FF02003EFF3118583F31188BB
:104CD000BFF36F8F0124254FDFF89480DFF89490A5
:104CE0004FF08042D2F81834D2F81824D2030CD5F1
:104CF00003F00303012B01D0012E06D10CB385F381
:104D00001188BFF36F8FBDE8F883ACB1284600F07F
:104D10007DFC4FF08042D2F81835002BE0D1396885
:104D20000029DDD03B603B680123C2F81835C8F884
:104D30008031C9F80030D3E70021212018F02EFC83
:104D4000E7E74FF080430222C3F80423DBE74FF08C
:104D500080430222C3F808230546BCE784150020DF
:104D6000201500204C1500202233002004010040B3
:104D700000E100E008000040044A1368C81A20F06F
:104D80007F400344136019F04FB800BF981500200E
:104D90002DE9F047860006F1804600F1500406F543
:104DA0008836A400DFF87C80D6F84035A4B204F140
:104DB00080444FF4803721F07F4504F588348740E4
:104DC000C146D8F804A5A3EB0A0323F07F432AF0D9
:104DD0007F42012BC6F8402502D113201EF0DDF9D9
:104DE0000AF10202AB1A23F07F43B3F5000F88BF2C
:104DF0001546002323602368C9F8447325F07F43D8
:104E0000C6F84035D9F804359A4506D0EB1A023B6E
:104E100023F07F43B3F5000F01D8BDE8F0872B46A0
:104E2000CFE700BF00100140F8B5104E104F00252D
:104E3000104B00201C681A4605B1F8BDD6F80413C3
:104E4000C903FAD539680029F7D03D6039684FF4B5
:104E50008031C6F84813D6F8401501251CB15A68B0
:104E60001860A047E4E71460E7E700BF00100140C6
:104E7000401101408C15002038B5104D00244FF42E
:104E80008033C5F80845C5F804330D4B4FF40032A4
:104E9000C3F8802101212246112000F049FB112096
:104EA00000F014FB074A01231360074A2B6002201D
:104EB0001360FFF7DBFE204638BD00BF0010014045
:104EC00000E100E00810014094150020134BB0F100
:104ED000FF3F08BF1846013800281CDD9842A8BFD4
:104EE00018460F4BD3F804250E4B1968521A12F4CA
:104EF000000F22F07F4318BF00200B4A0133034408
:104F00000A48106000205060044A934294BFC918B8
:104F10008918FFF73DBF0020E3E700BFFFFF7F00D8
:104F200000100140981500208C150020794D0000DC
:104F30004FF02002EFF3118382F31188BFF36F8FDC
:104F4000064AD2F80405064A1268801A20F07F400B
:104F500083F31188BFF36F8F704700BF00100140CB
:104F6000981500204FF02003EFF3118283F311888E
:104F7000BFF36F8F0649074B0868D3F8043582F3F7
:104F80001188BFF36F8F1B1A23F07F4318447047BB
:104F9000981500200010014010B5114C114AA26173
:104FA0000323C4E90433104BE36122664FF48063AA
:104FB0000E4A0F492362626600231022E01DA3629D
:104FC0006362E3622367E3666367A2661EF0B3FB76
:104FD000084920461EF0AFFB2023A37110BD00BF7F
:104FE0009C150020DE570200C32C0020B32C0020AB
:104FF000E7570200EB5702002DE9F84F234F4FF01F
:10500000180B14460BFB00720646936A556AAB42B6
:10501000884634D8D2F820A0AAEB050909F1FF325E
:10502000944211D84FF0180906FB09933B442246DD
:105030005868414628441EF068FB09FB06762C445C
:1050400074620120BDE8F88F13449C421BD800FB1A
:105050000BBBBB444A46DBF804002C4428441EF03A
:1050600054FBB4EB0A0406D0DBF80400224608EB3C
:1050700009011EF04AFB182000FB0676E0E7013B21
:105080005B1BA342CED20020DCE700BF9C150020B2
:10509000F8B5184C182300FB033503FB00402544EA
:1050A000C46A012C0F4616460FD0022C1AD0F4B950
:1050B00028461AF0A8F9864205D8324639462846CD
:1050C0001AF0AFF934462046F8BD28461AF09BF98D
:1050D0008642344628BF04462246394628461AF0FE
:1050E000A0F9F0E72846BDE8F8401AF0B6B9002468
:1050F000E9E700BF9C150020034B182202FB003398
:105100009A6A586A801A70479C150020014B1868EB
:10511000704700BFD0010020F0B5082289B00C46CE
:1051200006461AF08EFBCB6A03930B6B04934B6B12
:1051300005938B6B0693CB6B0793002708236A4676
:1051400069466846CDE9017700971AF07CFA082392
:1051500005466A46314630461AF075FA236B0393CA
:10516000636B0493A36B0593E36B0544CDE90637AA
:105170006A460823694668461AF065FA31460544CE
:1051800008236A4630461AF05EFA236A0093636A7F
:105190000193A36A0293A36B0693E36B0793054401
:1051A00008236A463046CDE9047703971AF04BFA94
:1051B000636A0093A36AA26B0193E36A0293049269
:1051C000636BE26B0393CDE90523236A07930544E0
:1051D00008236A4630461AF036FAE36A0093236BD6
:1051E0000193636B0293236A0693A36A07930544B2
:1051F00008236A463046CDE9047703971AF057FB37
:10520000236B0093636B0193A36B0293E36B039394
:10521000636A0693E36A07932D1A08236A463046A9
:10522000CDE904771AF043FB636B0093A36B019302
:10523000E36B0293236A0393636A0493A36ACDE941
:105240000537236B07932D1A08236A4630461AF058
:105250002EFBA36B0093E36BCDE90137636A0393E5
:10526000A36A0493E36ACDE90537636B07932D1AAC
:1052700008236A4630461AF01AFB2D1A10D40D4C3A
:1052800035B90822314620461AF0E7FA01280FD036
:1052900008232246314630461AF009FB2D1AEFE763
:1052A000044A0823314630461AF0CDF92D18F8D4B7
:1052B00009B0F0BD503E0200F0B5264E07460C4640
:1052C0000FCE8DB001AD0FC50FCE0FC596E807000C
:1052D00085E807003846002F38D0002C38D0381F1A
:1052E0002146024610344B780D781B0443EA0563CF
:1052F000CD782B438D78043143EA05238C4242F864
:10530000043FF0D1144C04218A07036916D1C3F37A
:105310000742A55C1A0EA25C42EA0562C3F30725A8
:10532000DBB2655DE35C42EA054242EA03220CAD72
:1053300021F003032B4453F82C3C534050F8042F26
:10534000013153402C290361DED101200DB0F0BDA5
:105350002046FBE7E43B0200F25702002DE9F04350
:10536000154689B00646002858D0002959D0002A91
:1053700059D010230A46684619461AF09EF8294665
:1053800068462A4C1AF0A5FF05F11007A146A03582
:10539000E8466A4610231178013B615C02F8011B64
:1053A000F9D168461AF0DAFF694604A81BF00FF835
:1053B00001A905A81BF00BF802A906A81BF007F825
:1053C00003A907A81BF003F8102319460DEB0302ED
:1053D00068461AF072F83946684610371AF079FFB5
:1053E000AF42D5D1102498F80030013C19F80330B1
:1053F00008F8013BF7D168461AF0B0FF2946684625
:105400001AF067FF102319466A4630461AF055F81D
:105410006846102221461AF05DF8012009B0BDE867
:10542000F0830846FAE71046F8E700BFF25702009B
:10543000094A0A4993680968D967094998674B6816
:1054400043F080534B60002383F31188BFF36F8FC9
:105450009368D86F704700BF302C002010540200B2
:1054600000ED00E00F498A684FF030001044EFF380
:10547000098C80E8F01F202080F31188BFF36F8F24
:10548000094F4FF000664A6A8A603E60906F0023C1
:10549000936780F3118802F1300090E8F01F8CF3DD
:1054A00009887047302C002004ED00E01EF0040F46
:1054B0000CBFEFF30880EFF30980816911F8021C3B
:1054C0000229FFD001B51BF0C5F801BD43B2002B86
:1054D00008DB012200F01F0002FA00F05B09024A1B
:1054E00042F82300704700BF00E100E043B2002B08
:1054F0000DDB01225B0900F01F0002FA00F02033EF
:10550000034A42F82300BFF34F8FBFF36F8F7047FA
:1055100000E100E0054B420900F01F0053F8222093
:10552000012303FA00F01040704700BF00E100E0E3
:1055300043B2002BA8BF03F1604301F10101B8BFE2
:10554000064B4FEA4111ACBF03F5614300F00F0079
:10555000C9B2B4BF195483F80013704714ED00E0CA
:1055600008B572B6044B186A18B100221A621DF011
:105570008BFB62B608BD00BF302C002042F8203CF7
:10558000009B42F81C3C0A49019B42F8183C029BD4
:1055900042F8143C21F001014FF0807342F8043CC2
:1055A00042F8081C0023203A02658367704700BF59
:1055B00019E6010008B506460D46144600F00AFB40
:1055C000074B9E60204685F30988002163B681F36E
:1055D0001188BFF36F8F0022002319F01DF800BF60
:1055E000302C0020014910220A60704710ED00E0C5
:1055F00072B6404080F31188BFF36F8FBFF34F8FB7
:1056000030BF62B6BFF36F8F704700BF72B64940BC
:1056100081F3118820BF80F3118862B6704700BF04
:1056200073B506460C4601B3134B144D1448ED1ADE
:10563000ED08AD0145F00105ADF80050D1E90123B9
:10564000096819F013FBADF80050D4E90423E168B0
:105650000C4819F00BFBE1690B482A4619F0D9FAFE
:10566000A1690A482A4619F0D4FA2146304602B008
:10567000BDE8704017F00CBAE4390200243B020088
:10568000F258020021590200505902005F590200ED
:1056900030BFFFF7FDBF00BF0E4A08B50E4B22F02A
:1056A0007F029A60BFF34F8FBFF36F8FD3F88820CC
:1056B00022F47002C3F88820EFF3148323F004036C
:1056C00083F3148817F058FA18F0B4FA00F064FA6B
:1056D00017F076FA0000000000ED00E001B572B6A8
:1056E0000B4A106A00281EBF002111621DF0CCFA7F
:1056F00062B6EFF30580A0F110004FEAC000054943
:10570000014409C99847BDE8014003490847000022
:10571000302C0020203802007D5B00001AF0A8FF2A
:10572000202080F3118808484FF40061401880F36E
:105730000988EFF314800221084380F31488BFF333
:105740006F8FFFF7A9FF000018490020EFF30880D2
:10575000EFF3098101B5724600F034F901BD00BFD5
:1057600070B5234B234C244D2448E41AE408A401CB
:1057700044F00106314619F03FFAAA6A930103D5B5
:105780001F48314619F038FAAB6ADD0104D51D48CF
:1057900044F0010119F030FA174DAA6A100304D53C
:1057A000194844F0010119F027FAAB6A590304D5EE
:1057B000164844F0010119F01FFA0F4DAA6A92032E
:1057C00004D5134844F0010119F016FAAB6ADB0363
:1057D00004D5104844F0010119F00EFA064A936A04
:1057E0006FEA03436FEA13439362002070BD00BF6A
:1057F000E4390200243B020000ED00E08D59020074
:10580000A5590200B8590200D2590200F05902000D
:10581000155A02002F5A02002DE9F041284B294C5D
:10582000294DE41AE408A40144F0010807460E4695
:105830002648414619F0E0F9AA6AD00603D5244863
:10584000414619F0D9F9AB6A190704D5214844F04B
:10585000010119F0D1F91C4DAB6A9A0712D544F039
:10586000010841461C4819F0C7F9696BAB6A1B0671
:1058700008D51A48424619F0CCF91FB1AB6A23F09B
:105880008003AB62104DAA6AD00704D5144844F0D7
:10589000010119F0B1F9AB6A990604D5114844F039
:1058A000010119F0A9F9084B9A6AD20658BF9A6A01
:1058B0009A6A002042F0FF029A623070BDE8F081DF
:1058C000E4390200243B020000ED00E05A5A0200D5
:1058D000705A0200A35A0200B65A0200CE5A0200C1
:1058E000E45A0200035B02002DE9F0412A4B2B4CE5
:1058F0002B4DE41AE408A40144F0010807460E46C3
:105900002848414619F078F9AA6AD10403D52648F7
:10591000414619F071F9AB6A1A0504D5234844F0E1
:10592000010119F069F91E4DAB6A9B0512D544F0CF
:1059300001081F48414619F05FF9A96BAB6A1804CA
:1059400008D51C48424619F064F91FB1AB6A23F42C
:105950000043AB62124DAB6A590504D5164844F0BA
:10596000010119F049F9AB6ADA050DD5134844F085
:10597000010119F041F90A4A936A002043F47F4378
:1059800093623070BDE8F081AB6A9B04F3D50C489C
:1059900044F00101EDE700BFE4390200243B0200BE
:1059A00000ED00E0325B0200485B0200A35A0200F7
:1059B000595B0200725B0200875B0200A25B02007F
:1059C000035B02002DE9F0410D465A494F688AB049
:1059D000C7F30804002686F31188BFF36F8F02F027
:1059E0007F41B1F17F4F0DD102F00C0108290BD19D
:1059F0005149524B5248C91AC908890141F0010165
:105A000019F0FAF8354603E0120701D405460126DD
:105A100000238DF80730E31E092B71D8DFE803F06F
:105A2000055F633C707070707067444B424F45482F
:105A3000FF1AFF08BF0147F00107394619F0DCF8EB
:105A40003C4BDC6A4FF0000814F002048DF807802C
:105A500005D03D48394619F0CFF800241FE0DB6A35
:105A60005B001CD53948394619F0C6F8384B1B780D
:105A70002BB10DF107010120FFF7CEFE0EE0354BF3
:105A80001B782BB10DF107010120FFF72DFF05E079
:105A9000314B1B889BB213B1FFF762FE04469DF8A1
:105AA0000730CBB92B4603F1200702AD18685968BF
:105AB0002A4603C20833BB421546F7D1099B9EB361
:105AC000C3F3080222B96FEA53236FEA4323099311
:105AD00002A92046FFF7A4FD0AB0BDE8F0810DF150
